{"abi":[{"type":"function","name":"transferProxyAdminOwnership","inputs":[{"name":"proxyAdmin","type":"address","internalType":"address"},{"name":"newOwner","type":"address","internalType":"address"}],"outputs":[],"stateMutability":"nonpayable"}],"bytecode":{"object":"0x608060405234801561000f575f80fd5b5061010f8061001d5f395ff3fe6080604052348015600e575f80fd5b50600436106026575f3560e01c806312cc533f14602a575b5f80fd5b6039603536600460ad565b603b565b005b60405163f2fde38b60e01b81526001600160a01b03828116600483015283169063f2fde38b906024015f604051808303815f87803b158015607a575f80fd5b505af1158015608b573d5f803e3d5ffd5b505050505050565b80356001600160a01b038116811460a8575f80fd5b919050565b5f806040838503121560bd575f80fd5b60c4836093565b915060d0602084016093565b9050925092905056fea2646970667358221220707022506aec84704ef5ab8d30aab6f2bf0e41769a965eecb0ce222ad969c15d64736f6c63430008180033","linkReferences":{}},"methodIdentifiers":{"transferProxyAdminOwnership(address,address)":"12cc533f"},"id":3}