{"abi":[{"type":"function","name":"transferProxyAdminOwnership","inputs":[{"name":"proxyAdmin","type":"address","internalType":"address"},{"name":"newOwner","type":"address","internalType":"address"}],"outputs":[],"stateMutability":"nonpayable"}],"bytecode":{"object":"0x6080806040523460145760f690816100198239f35b5f80fdfe60808060405260043610156011575f80fd5b5f905f3560e01c6312cc533f146025575f80fd5b3460bc57604036600319011260bc576004356001600160a01b0381169081900360bc576024356001600160a01b038116919082900360bc57803b1560bc576024835f8193819563f2fde38b60e01b845260048401525af1801560b1576088575080f35b905067ffffffffffffffff8111609d57604052005b634e487b7160e01b5f52604160045260245ffd5b6040513d5f823e3d90fd5b5f80fdfea2646970667358221220cab4267cb1c6d5e53140a75e19d58574eb41fc273d122295ab07b6ab3a3373d764736f6c634300081c0033","linkReferences":{}},"methodIdentifiers":{"transferProxyAdminOwnership(address,address)":"12cc533f"},"id":7}