{"abi":[{"type":"constructor","inputs":[{"name":"name_","type":"string","internalType":"string"},{"name":"symbol_","type":"string","internalType":"string"}],"stateMutability":"nonpayable"},{"type":"function","name":"approve","inputs":[{"name":"to","type":"address","internalType":"address"},{"name":"tokenId","type":"uint256","internalType":"uint256"}],"outputs":[],"stateMutability":"nonpayable"},{"type":"function","name":"balanceOf","inputs":[{"name":"owner","type":"address","internalType":"address"}],"outputs":[{"name":"","type":"uint256","internalType":"uint256"}],"stateMutability":"view"},{"type":"function","name":"burn","inputs":[{"name":"tokenId","type":"uint256","internalType":"uint256"}],"outputs":[],"stateMutability":"nonpayable"},{"type":"function","name":"getApproved","inputs":[{"name":"tokenId","type":"uint256","internalType":"uint256"}],"outputs":[{"name":"","type":"address","internalType":"address"}],"stateMutability":"view"},{"type":"function","name":"isApprovedForAll","inputs":[{"name":"owner","type":"address","internalType":"address"},{"name":"operator","type":"address","internalType":"address"}],"outputs":[{"name":"","type":"bool","internalType":"bool"}],"stateMutability":"view"},{"type":"function","name":"mint","inputs":[{"name":"to","type":"address","internalType":"address"},{"name":"tokenId","type":"uint256","internalType":"uint256"}],"outputs":[],"stateMutability":"nonpayable"},{"type":"function","name":"name","inputs":[],"outputs":[{"name":"","type":"string","internalType":"string"}],"stateMutability":"view"},{"type":"function","name":"owner","inputs":[],"outputs":[{"name":"","type":"address","internalType":"address"}],"stateMutability":"view"},{"type":"function","name":"ownerOf","inputs":[{"name":"tokenId","type":"uint256","internalType":"uint256"}],"outputs":[{"name":"","type":"address","internalType":"address"}],"stateMutability":"view"},{"type":"function","name":"renounceOwnership","inputs":[],"outputs":[],"stateMutability":"nonpayable"},{"type":"function","name":"safeTransferFrom","inputs":[{"name":"from","type":"address","internalType":"address"},{"name":"to","type":"address","internalType":"address"},{"name":"tokenId","type":"uint256","internalType":"uint256"}],"outputs":[],"stateMutability":"nonpayable"},{"type":"function","name":"safeTransferFrom","inputs":[{"name":"from","type":"address","internalType":"address"},{"name":"to","type":"address","internalType":"address"},{"name":"tokenId","type":"uint256","internalType":"uint256"},{"name":"data","type":"bytes","internalType":"bytes"}],"outputs":[],"stateMutability":"nonpayable"},{"type":"function","name":"setApprovalForAll","inputs":[{"name":"operator","type":"address","internalType":"address"},{"name":"approved","type":"bool","internalType":"bool"}],"outputs":[],"stateMutability":"nonpayable"},{"type":"function","name":"supportsInterface","inputs":[{"name":"interfaceId","type":"bytes4","internalType":"bytes4"}],"outputs":[{"name":"","type":"bool","internalType":"bool"}],"stateMutability":"view"},{"type":"function","name":"symbol","inputs":[],"outputs":[{"name":"","type":"string","internalType":"string"}],"stateMutability":"view"},{"type":"function","name":"tokenURI","inputs":[{"name":"tokenId","type":"uint256","internalType":"uint256"}],"outputs":[{"name":"","type":"string","internalType":"string"}],"stateMutability":"view"},{"type":"function","name":"transferFrom","inputs":[{"name":"from","type":"address","internalType":"address"},{"name":"to","type":"address","internalType":"address"},{"name":"tokenId","type":"uint256","internalType":"uint256"}],"outputs":[],"stateMutability":"nonpayable"},{"type":"function","name":"transferOwnership","inputs":[{"name":"newOwner","type":"address","internalType":"address"}],"outputs":[],"stateMutability":"nonpayable"},{"type":"event","name":"Approval","inputs":[{"name":"owner","type":"address","indexed":true,"internalType":"address"},{"name":"approved","type":"address","indexed":true,"internalType":"address"},{"name":"tokenId","type":"uint256","indexed":true,"internalType":"uint256"}],"anonymous":false},{"type":"event","name":"ApprovalForAll","inputs":[{"name":"owner","type":"address","indexed":true,"internalType":"address"},{"name":"operator","type":"address","indexed":true,"internalType":"address"},{"name":"approved","type":"bool","indexed":false,"internalType":"bool"}],"anonymous":false},{"type":"event","name":"OwnershipTransferred","inputs":[{"name":"previousOwner","type":"address","indexed":true,"internalType":"address"},{"name":"newOwner","type":"address","indexed":true,"internalType":"address"}],"anonymous":false},{"type":"event","name":"Transfer","inputs":[{"name":"from","type":"address","indexed":true,"internalType":"address"},{"name":"to","type":"address","indexed":true,"internalType":"address"},{"name":"tokenId","type":"uint256","indexed":true,"internalType":"uint256"}],"anonymous":false},{"type":"error","name":"ERC721IncorrectOwner","inputs":[{"name":"sender","type":"address","internalType":"address"},{"name":"tokenId","type":"uint256","internalType":"uint256"},{"name":"owner","type":"address","internalType":"address"}]},{"type":"error","name":"ERC721InsufficientApproval","inputs":[{"name":"operator","type":"address","internalType":"address"},{"name":"tokenId","type":"uint256","internalType":"uint256"}]},{"type":"error","name":"ERC721InvalidApprover","inputs":[{"name":"approver","type":"address","internalType":"address"}]},{"type":"error","name":"ERC721InvalidOperator","inputs":[{"name":"operator","type":"address","internalType":"address"}]},{"type":"error","name":"ERC721InvalidOwner","inputs":[{"name":"owner","type":"address","internalType":"address"}]},{"type":"error","name":"ERC721InvalidReceiver","inputs":[{"name":"receiver","type":"address","internalType":"address"}]},{"type":"error","name":"ERC721InvalidSender","inputs":[{"name":"sender","type":"address","internalType":"address"}]},{"type":"error","name":"ERC721NonexistentToken","inputs":[{"name":"tokenId","type":"uint256","internalType":"uint256"}]},{"type":"error","name":"OwnableInvalidOwner","inputs":[{"name":"owner","type":"address","internalType":"address"}]},{"type":"error","name":"OwnableUnauthorizedAccount","inputs":[{"name":"account","type":"address","internalType":"address"}]}],"bytecode":{"object":"0x608060405234610368576111b6803803806100198161036c565b9283398101906040818303126103685780516001600160401b0381116103685782610045918301610391565b60208201519092906001600160401b038111610368576100659201610391565b81516001600160401b03811161027e575f54600181811c9116801561035e575b602082101461026057601f81116102fc575b50602092601f821160011461029d57928192935f92610292575b50508160011b915f199060031b1c1916175f555b80516001600160401b03811161027e57600154600181811c91168015610274575b602082101461026057601f81116101fd575b50602091601f821160011461019d579181925f92610192575b50508160011b915f199060031b1c1916176001555b331561017f5760068054336001600160a01b03198216811790925560405191906001600160a01b03167f8be0079c531659141344cd1fd0a4f28419497f9722a3daafe3b4186f6b6457e05f80a3610dd390816103e38239f35b631e4fbdf760e01b5f525f60045260245ffd5b015190505f80610111565b601f1982169260015f52805f20915f5b8581106101e5575083600195106101cd575b505050811b01600155610126565b01515f1960f88460031b161c191690555f80806101bf565b919260206001819286850151815501940192016101ad565b60015f527fb10e2d527612073b26eecdfd717e6a320cf44b4afac2b0732d9fcbe2b7fa0cf6601f830160051c81019160208410610256575b601f0160051c01905b81811061024b57506100f8565b5f815560010161023e565b9091508190610235565b634e487b7160e01b5f52602260045260245ffd5b90607f16906100e6565b634e487b7160e01b5f52604160045260245ffd5b015190505f806100b1565b601f198216935f8052805f20915f5b8681106102e457508360019596106102cc575b505050811b015f556100c5565b01515f1960f88460031b161c191690555f80806102bf565b919260206001819286850151815501940192016102ac565b5f80527f290decd9548b62a8d60345a988386fc84ba6bc95484008f6362f93160ef3e563601f830160051c81019160208410610354575b601f0160051c01905b8181106103495750610097565b5f815560010161033c565b9091508190610333565b90607f1690610085565b5f80fd5b6040519190601f01601f191682016001600160401b0381118382101761027e57604052565b81601f82011215610368578051906001600160401b03821161027e576103c0601f8301601f191660200161036c565b928284526020838301011161036857815f9260208093018386015e830101529056fe6080806040526004361015610012575f80fd5b5f905f3560e01c90816301ffc9a7146109405750806306fdde0314610888578063081812fc1461084c578063095ea7b31461076257806323b872dd1461074b57806340c10f191461064157806342842e0e1461061857806342966c68146105555780636352211e1461052557806370a08231146104d4578063715018a6146104795780638da5cb5b1461045157806395d89b4114610349578063a22cb465146102ae578063b88d4fde14610224578063c87b56dd146101c7578063e985e9c51461016f5763f2fde38b146100e4575f80fd5b3461016c57602036600319011261016c576100fd6109cf565b610105610d76565b6001600160a01b0316801561015857600680546001600160a01b0319811683179091556001600160a01b03167f8be0079c531659141344cd1fd0a4f28419497f9722a3daafe3b4186f6b6457e05f80a380f35b631e4fbdf760e01b82526004829052602482fd5b80fd5b503461016c57604036600319011261016c57604061018b6109cf565b916101946109e5565b9260018060a01b031681526005602052209060018060a01b03165f52602052602060ff60405f2054166040519015158152f35b34610220576020366003190112610220576101e3600435610d54565b505f6040516101f3602082610a35565b5261021c604051610205602082610a35565b5f81526040519182916020835260208301906109ab565b0390f35b5f80fd5b346102205760803660031901126102205761023d6109cf565b6102456109e5565b6064359167ffffffffffffffff831161022057366023840112156102205782600401359161027283610a6b565b926102806040519485610a35565b8084523660248287010111610220576020815f9260246102ac9801838801378501015260443591610c14565b005b34610220576040366003190112610220576102c76109cf565b60243590811515809203610220576001600160a01b031690811561033657335f52600560205260405f20825f5260205260405f2060ff1981541660ff83161790556040519081527f17307eab39ab6107e8899845ad3d59bd9653f200f220920489ca2b5937696c3160203392a3005b50630b61174360e31b5f5260045260245ffd5b34610220575f366003190112610220576040515f6001548060011c90600181168015610447575b6020831081146104335782855290811561040f57506001146103b1575b61021c8361039d81850382610a35565b6040519182916020835260208301906109ab565b91905060015f527fb10e2d527612073b26eecdfd717e6a320cf44b4afac2b0732d9fcbe2b7fa0cf6915f905b8082106103f55750909150810160200161039d61038d565b9192600181602092548385880101520191019092916103dd565b60ff191660208086019190915291151560051b8401909101915061039d905061038d565b634e487b7160e01b5f52602260045260245ffd5b91607f1691610370565b34610220575f366003190112610220576006546040516001600160a01b039091168152602090f35b34610220575f36600319011261022057610491610d76565b600680546001600160a01b031981169091555f906001600160a01b03167f8be0079c531659141344cd1fd0a4f28419497f9722a3daafe3b4186f6b6457e08280a3005b34610220576020366003190112610220576001600160a01b036104f56109cf565b168015610512575f526003602052602060405f2054604051908152f35b6322718ad960e21b5f525f60045260245ffd5b34610220576020366003190112610220576020610543600435610d54565b6040516001600160a01b039091168152f35b34610220576020366003190112610220576004355f818152600260205260409020546001600160a01b031680159081156105e5575b5f83815260026020526040812080546001600160a01b03191690558390827fddf252ad1be2c89b69c2b068fc378daa952ba7f163c4a11628f55a4df523b3ef8280a4506105d357005b637e27328960e01b5f5260045260245ffd5b5f83815260046020526040902080546001600160a01b0319169055805f52600360205260405f205f19815401905561058a565b34610220576102ac610629366109fb565b9060405192610639602085610a35565b5f8452610c14565b346102205760403660031901126102205761065a6109cf565b6001600160a01b03166024358115610738575f818152600260205260409020546001600160a01b03168015159290919083610705575b805f52600360205260405f2060018154019055815f52600260205260405f20816bffffffffffffffffffffffff60a01b825416179055827fddf252ad1be2c89b69c2b068fc378daa952ba7f163c4a11628f55a4df523b3ef5f80a4506106f257005b6339e3563760e11b5f525f60045260245ffd5b5f82815260046020526040902080546001600160a01b0319169055825f52600360205260405f205f198154019055610690565b633250574960e11b5f525f60045260245ffd5b34610220576102ac61075c366109fb565b91610a87565b346102205760403660031901126102205761077b6109cf565b60243561078781610d54565b33151580610839575b8061080c575b6107f95781906001600160a01b0384811691167f8c5be1e5ebec7d5bd14f71427d1e84f3dd0314c0f7b2291e5b200ac8c7c3b9255f80a45f90815260046020526040902080546001600160a01b0319166001600160a01b03909216919091179055005b63a9fbf51f60e01b5f523360045260245ffd5b506001600160a01b0381165f90815260056020908152604080832033845290915290205460ff1615610796565b506001600160a01b038116331415610790565b346102205760203660031901126102205760043561086981610d54565b505f526004602052602060018060a01b0360405f205416604051908152f35b34610220575f366003190112610220576040515f5f548060011c90600181168015610936575b6020831081146104335782855290811561040f57506001146108da5761021c8361039d81850382610a35565b5f8080527f290decd9548b62a8d60345a988386fc84ba6bc95484008f6362f93160ef3e563939250905b80821061091c5750909150810160200161039d61038d565b919260018160209254838588010152019101909291610904565b91607f16916108ae565b34610220576020366003190112610220576004359063ffffffff60e01b8216809203610220576020916380ac58cd60e01b811490811561099a575b8115610989575b5015158152f35b6301ffc9a760e01b14905083610982565b635b5e139f60e01b8114915061097b565b805180835260209291819084018484015e5f828201840152601f01601f1916010190565b600435906001600160a01b038216820361022057565b602435906001600160a01b038216820361022057565b6060906003190112610220576004356001600160a01b038116810361022057906024356001600160a01b0381168103610220579060443590565b90601f8019910116810190811067ffffffffffffffff821117610a5757604052565b634e487b7160e01b5f52604160045260245ffd5b67ffffffffffffffff8111610a5757601f01601f191660200190565b6001600160a01b0390911691908215610738575f828152600260205260409020546001600160a01b031692829033151580610b7f575b5084610b4c575b805f52600360205260405f2060018154019055815f52600260205260405f20816bffffffffffffffffffffffff60a01b825416179055847fddf252ad1be2c89b69c2b068fc378daa952ba7f163c4a11628f55a4df523b3ef5f80a46001600160a01b0316808303610b3457505050565b6364283d7b60e01b5f5260045260245260445260645ffd5b5f82815260046020526040902080546001600160a01b0319169055845f52600360205260405f205f198154019055610ac4565b90915080610bc3575b15610b955782905f610abd565b8284610bad57637e27328960e01b5f5260045260245ffd5b63177e802f60e01b5f523360045260245260445ffd5b503384148015610bf2575b80610b8857505f838152600460205260409020546001600160a01b03163314610b88565b505f84815260056020908152604080832033845290915290205460ff16610bce565b9291610c21818386610a87565b813b610c2e575b50505050565b604051630a85bd0160e11b81523360048201526001600160a01b0394851660248201526044810191909152608060648201529216919060209082908190610c799060848301906109ab565b03815f865af15f9181610d0f575b50610cdc57503d15610cd5573d610c9d81610a6b565b90610cab6040519283610a35565b81523d5f602083013e5b80519081610cd05782633250574960e11b5f5260045260245ffd5b602001fd5b6060610cb5565b6001600160e01b03191663757a42ff60e11b01610cfd57505f808080610c28565b633250574960e11b5f5260045260245ffd5b9091506020813d602011610d4c575b81610d2b60209383610a35565b8101031261022057516001600160e01b03198116810361022057905f610c87565b3d9150610d1e565b5f818152600260205260409020546001600160a01b03169081156105d3575090565b6006546001600160a01b03163303610d8a57565b63118cdaa760e01b5f523360045260245ffdfea264697066735822122031247d51515f63ec7f195d7e35e8c468d3fe717fe6449e0beebd1514b253aa0664736f6c634300081c0033","linkReferences":{}},"methodIdentifiers":{"approve(address,uint256)":"095ea7b3","balanceOf(address)":"70a08231","burn(uint256)":"42966c68","getApproved(uint256)":"081812fc","isApprovedForAll(address,address)":"e985e9c5","mint(address,uint256)":"40c10f19","name()":"06fdde03","owner()":"8da5cb5b","ownerOf(uint256)":"6352211e","renounceOwnership()":"715018a6","safeTransferFrom(address,address,uint256)":"42842e0e","safeTransferFrom(address,address,uint256,bytes)":"b88d4fde","setApprovalForAll(address,bool)":"a22cb465","supportsInterface(bytes4)":"01ffc9a7","symbol()":"95d89b41","tokenURI(uint256)":"c87b56dd","transferFrom(address,address,uint256)":"23b872dd","transferOwnership(address)":"f2fde38b"},"id":12}