{"abi":[{"type":"fallback","stateMutability":"payable"},{"type":"receive","stateMutability":"payable"},{"type":"function","name":"transferOwnerships","inputs":[{"name":"proxyAdmins","type":"address[]","internalType":"address[]"},{"name":"newOwner","type":"address","internalType":"address"}],"outputs":[],"stateMutability":"nonpayable"}],"bytecode":{"object":"0x608080604052346015576101e2908161001a8239f35b5f80fdfe60806040526004361015610018575b3661012f5761012f565b5f3560e01c634ab8e2c10361000e57346101295760403660031901126101295760043567ffffffffffffffff8111610129573660238201121561012957806004013567ffffffffffffffff8111610129573660248260051b84010111610129576024356001600160a01b0381169290839003610129575f5b8281101561012d576024600582901b830101356001600160a01b038116919082900361012957813b15610129575f809260246040518095819363f2fde38b60e01b83528a60048401525af1801561011e576100f0575b6001915001610090565b67ffffffffffffffff821161010a576001916040526100e6565b634e487b7160e01b5f52604160045260245ffd5b6040513d5f823e3d90fd5b5f80fd5b005b60405162461bcd60e51b815260206004820152604960248201527f50726f787941646d696e4f776e6572736869705472616e736665723a2054686960448201527f7320636f6e7472616374206973206f6e6c7920666f72206f776e657273686970606482015268103a3930b739b332b960b91b608482015260a490fdfea2646970667358221220ee882ceefb8d8d5617655ad62b7c6e0728e0cd3936bd3cd195a5f323c79797e264736f6c634300081c0033","linkReferences":{}},"methodIdentifiers":{"transferOwnerships(address[],address)":"4ab8e2c1"},"id":8}