{"abi":[{"type":"constructor","inputs":[{"name":"uri_","type":"string","internalType":"string"}],"stateMutability":"nonpayable"},{"type":"function","name":"balanceOf","inputs":[{"name":"account","type":"address","internalType":"address"},{"name":"id","type":"uint256","internalType":"uint256"}],"outputs":[{"name":"","type":"uint256","internalType":"uint256"}],"stateMutability":"view"},{"type":"function","name":"balanceOfBatch","inputs":[{"name":"accounts","type":"address[]","internalType":"address[]"},{"name":"ids","type":"uint256[]","internalType":"uint256[]"}],"outputs":[{"name":"","type":"uint256[]","internalType":"uint256[]"}],"stateMutability":"view"},{"type":"function","name":"burn","inputs":[{"name":"from","type":"address","internalType":"address"},{"name":"id","type":"uint256","internalType":"uint256"},{"name":"amount","type":"uint256","internalType":"uint256"}],"outputs":[],"stateMutability":"nonpayable"},{"type":"function","name":"isApprovedForAll","inputs":[{"name":"account","type":"address","internalType":"address"},{"name":"operator","type":"address","internalType":"address"}],"outputs":[{"name":"","type":"bool","internalType":"bool"}],"stateMutability":"view"},{"type":"function","name":"mint","inputs":[{"name":"to","type":"address","internalType":"address"},{"name":"id","type":"uint256","internalType":"uint256"},{"name":"amount","type":"uint256","internalType":"uint256"},{"name":"data","type":"bytes","internalType":"bytes"}],"outputs":[],"stateMutability":"nonpayable"},{"type":"function","name":"mintBatch","inputs":[{"name":"to","type":"address","internalType":"address"},{"name":"ids","type":"uint256[]","internalType":"uint256[]"},{"name":"amounts","type":"uint256[]","internalType":"uint256[]"},{"name":"data","type":"bytes","internalType":"bytes"}],"outputs":[],"stateMutability":"nonpayable"},{"type":"function","name":"owner","inputs":[],"outputs":[{"name":"","type":"address","internalType":"address"}],"stateMutability":"view"},{"type":"function","name":"renounceOwnership","inputs":[],"outputs":[],"stateMutability":"nonpayable"},{"type":"function","name":"safeBatchTransferFrom","inputs":[{"name":"from","type":"address","internalType":"address"},{"name":"to","type":"address","internalType":"address"},{"name":"ids","type":"uint256[]","internalType":"uint256[]"},{"name":"values","type":"uint256[]","internalType":"uint256[]"},{"name":"data","type":"bytes","internalType":"bytes"}],"outputs":[],"stateMutability":"nonpayable"},{"type":"function","name":"safeTransferFrom","inputs":[{"name":"from","type":"address","internalType":"address"},{"name":"to","type":"address","internalType":"address"},{"name":"id","type":"uint256","internalType":"uint256"},{"name":"value","type":"uint256","internalType":"uint256"},{"name":"data","type":"bytes","internalType":"bytes"}],"outputs":[],"stateMutability":"nonpayable"},{"type":"function","name":"setApprovalForAll","inputs":[{"name":"operator","type":"address","internalType":"address"},{"name":"approved","type":"bool","internalType":"bool"}],"outputs":[],"stateMutability":"nonpayable"},{"type":"function","name":"supportsInterface","inputs":[{"name":"interfaceId","type":"bytes4","internalType":"bytes4"}],"outputs":[{"name":"","type":"bool","internalType":"bool"}],"stateMutability":"view"},{"type":"function","name":"transferOwnership","inputs":[{"name":"newOwner","type":"address","internalType":"address"}],"outputs":[],"stateMutability":"nonpayable"},{"type":"function","name":"uri","inputs":[{"name":"","type":"uint256","internalType":"uint256"}],"outputs":[{"name":"","type":"string","internalType":"string"}],"stateMutability":"view"},{"type":"event","name":"ApprovalForAll","inputs":[{"name":"account","type":"address","indexed":true,"internalType":"address"},{"name":"operator","type":"address","indexed":true,"internalType":"address"},{"name":"approved","type":"bool","indexed":false,"internalType":"bool"}],"anonymous":false},{"type":"event","name":"OwnershipTransferred","inputs":[{"name":"previousOwner","type":"address","indexed":true,"internalType":"address"},{"name":"newOwner","type":"address","indexed":true,"internalType":"address"}],"anonymous":false},{"type":"event","name":"TransferBatch","inputs":[{"name":"operator","type":"address","indexed":true,"internalType":"address"},{"name":"from","type":"address","indexed":true,"internalType":"address"},{"name":"to","type":"address","indexed":true,"internalType":"address"},{"name":"ids","type":"uint256[]","indexed":false,"internalType":"uint256[]"},{"name":"values","type":"uint256[]","indexed":false,"internalType":"uint256[]"}],"anonymous":false},{"type":"event","name":"TransferSingle","inputs":[{"name":"operator","type":"address","indexed":true,"internalType":"address"},{"name":"from","type":"address","indexed":true,"internalType":"address"},{"name":"to","type":"address","indexed":true,"internalType":"address"},{"name":"id","type":"uint256","indexed":false,"internalType":"uint256"},{"name":"value","type":"uint256","indexed":false,"internalType":"uint256"}],"anonymous":false},{"type":"event","name":"URI","inputs":[{"name":"value","type":"string","indexed":false,"internalType":"string"},{"name":"id","type":"uint256","indexed":true,"internalType":"uint256"}],"anonymous":false},{"type":"error","name":"ERC1155InsufficientBalance","inputs":[{"name":"sender","type":"address","internalType":"address"},{"name":"balance","type":"uint256","internalType":"uint256"},{"name":"needed","type":"uint256","internalType":"uint256"},{"name":"tokenId","type":"uint256","internalType":"uint256"}]},{"type":"error","name":"ERC1155InvalidApprover","inputs":[{"name":"approver","type":"address","internalType":"address"}]},{"type":"error","name":"ERC1155InvalidArrayLength","inputs":[{"name":"idsLength","type":"uint256","internalType":"uint256"},{"name":"valuesLength","type":"uint256","internalType":"uint256"}]},{"type":"error","name":"ERC1155InvalidOperator","inputs":[{"name":"operator","type":"address","internalType":"address"}]},{"type":"error","name":"ERC1155InvalidReceiver","inputs":[{"name":"receiver","type":"address","internalType":"address"}]},{"type":"error","name":"ERC1155InvalidSender","inputs":[{"name":"sender","type":"address","internalType":"address"}]},{"type":"error","name":"ERC1155MissingApprovalForAll","inputs":[{"name":"operator","type":"address","internalType":"address"},{"name":"owner","type":"address","internalType":"address"}]},{"type":"error","name":"OwnableInvalidOwner","inputs":[{"name":"owner","type":"address","internalType":"address"}]},{"type":"error","name":"OwnableUnauthorizedAccount","inputs":[{"name":"account","type":"address","internalType":"address"}]}],"bytecode":{"object":"0x608060405234610256576115ba803803806100198161025a565b928339810190602081830312610256578051906001600160401b038211610256570181601f82011215610256578051906001600160401b0382116102425761006a601f8301601f191660200161025a565b928284526020838301011161025657815f9260208093018386015e8301015280516001600160401b03811161024257600254600181811c91168015610238575b602082101461022457601f81116101c1575b50602091601f8211600114610161579181925f92610156575b50508160011b915f199060031b1c1916176002555b33156101435760038054336001600160a01b03198216811790925560405191906001600160a01b03167f8be0079c531659141344cd1fd0a4f28419497f9722a3daafe3b4186f6b6457e05f80a361133a90816102808239f35b631e4fbdf760e01b5f525f60045260245ffd5b015190505f806100d5565b601f1982169260025f52805f20915f5b8581106101a957508360019510610191575b505050811b016002556100ea565b01515f1960f88460031b161c191690555f8080610183565b91926020600181928685015181550194019201610171565b60025f527f405787fa12a823e0f2b7631cc41b3ba8828b3321ca811111fa75cd3aa3bb5ace601f830160051c8101916020841061021a575b601f0160051c01905b81811061020f57506100bc565b5f8155600101610202565b90915081906101f9565b634e487b7160e01b5f52602260045260245ffd5b90607f16906100aa565b634e487b7160e01b5f52604160045260245ffd5b5f80fd5b6040519190601f01601f191682016001600160401b038111838210176102425760405256fe60806040526004361015610011575f80fd5b5f3560e01c8062fdd58e146100f357806301ffc9a7146100ee5780630e89341c146100e95780631f7fdffa146100e45780632eb2c2d6146100df5780634e1273f4146100da578063715018a6146100d5578063731133e9146100d05780638da5cb5b146100cb578063a22cb465146100c6578063e985e9c5146100c1578063f242432a146100bc578063f2fde38b146100b75763f5298aca146100b2575f80fd5b6109fe565b610978565b610885565b610829565b610773565b61074b565b6106cb565b610670565b6105b1565b6104e3565b61043f565b61023c565b610196565b61013c565b600435906001600160a01b038216820361010e57565b5f80fd5b602435906001600160a01b038216820361010e57565b35906001600160a01b038216820361010e57565b3461010e57604036600319011261010e57602061017b61015a6100f8565b6024355f525f835260405f209060018060a01b03165f5260205260405f2090565b54604051908152f35b6001600160e01b031981160361010e57565b3461010e57602036600319011261010e5760206004356101b581610184565b63ffffffff60e01b16636cdb3d1360e11b81149081156101f3575b81156101e2575b506040519015158152f35b6301ffc9a760e01b1490505f6101d7565b6303a24d0760e21b811491506101d0565b805180835260209291819084018484015e5f828201840152601f01601f1916010190565b906020610239928181520190610204565b90565b3461010e57602036600319011261010e576040515f6002548060011c9060018116908115610326575b6020831082146103125782855260208501919081156102f957506001146102a7575b6102a38461029781860382610344565b60405191829182610228565b0390f35b60025f9081529250907f405787fa12a823e0f2b7631cc41b3ba8828b3321ca811111fa75cd3aa3bb5ace5b8184106102e55750500161029782610287565b8054848401526020909301926001016102d2565b60ff191682525090151560051b01905061029782610287565b634e487b7160e01b5f52602260045260245ffd5b91607f1691610265565b634e487b7160e01b5f52604160045260245ffd5b90601f801991011681019081106001600160401b0382111761036557604052565b610330565b6001600160401b0381116103655760051b60200190565b9080601f8301121561010e5781356103988161036a565b926103a66040519485610344565b81845260208085019260051b82010192831161010e57602001905b8282106103ce5750505090565b81358152602091820191016103c1565b6001600160401b03811161036557601f01601f191660200190565b81601f8201121561010e57803590610410826103de565b9261041e6040519485610344565b8284526020838301011161010e57815f926020809301838601378301015290565b3461010e57608036600319011261010e576104586100f8565b6024356001600160401b03811161010e57610477903690600401610381565b6044356001600160401b03811161010e57610496903690600401610381565b6064356001600160401b03811161010e576104b59036906004016103f9565b916001600160a01b038416156104d0576104ce93610d3d565b005b632bfa23e760e11b5f525f60045260245ffd5b3461010e5760a036600319011261010e576104fc6100f8565b610504610112565b906044356001600160401b03811161010e57610524903690600401610381565b6064356001600160401b03811161010e57610543903690600401610381565b90608435936001600160401b03851161010e576105676104ce9536906004016103f9565b93610bdc565b90602080835192838152019201905f5b81811061058a5750505090565b825184526020938401939092019160010161057d565b90602061023992818152019061056d565b3461010e57604036600319011261010e576004356001600160401b03811161010e573660238201121561010e578060040135906105ed8261036a565b916105fb6040519384610344565b8083526024602084019160051b8301019136831161010e57602401905b82821061065857836024356001600160401b03811161010e576102a39161064661064c923690600401610381565b90610c62565b604051918291826105a0565b6020809161066584610128565b815201910190610618565b3461010e575f36600319011261010e57610688610d16565b600380546001600160a01b031981169091555f906001600160a01b03167f8be0079c531659141344cd1fd0a4f28419497f9722a3daafe3b4186f6b6457e08280a3005b3461010e57608036600319011261010e576106e46100f8565b602435604435916064356001600160401b03811161010e5761070a9036906004016103f9565b916001600160a01b038216156104d0576104ce9361074560405192600184526020840152604083019160018352606084015260808301604052565b91610d3d565b3461010e575f36600319011261010e576003546040516001600160a01b039091168152602090f35b3461010e57604036600319011261010e5761078c6100f8565b60243580151580820361010e576001600160a01b03831692831561081757335f9081526001602090815260408083206001600160a01b039094168352929052209060ff801983541691161790557f17307eab39ab6107e8899845ad3d59bd9653f200f220920489ca2b5937696c3160405180610812339482919091602081019215159052565b0390a3005b62ced3e160e81b5f525f60045260245ffd5b3461010e57604036600319011261010e57602060ff6108796108496100f8565b610851610112565b6001600160a01b039182165f9081526001865260408082209290931681526020919091522090565b54166040519015158152f35b3461010e5760a036600319011261010e5761089e6100f8565b6108a6610112565b60443590606435926084356001600160401b03811161010e576108cd9036906004016103f9565b926001600160a01b0382163381141580610955575b61093f576001600160a01b038416156104d0571561092d576104ce9461092560405192600184526020840152604083019160018352606084015260808301604052565b929091610e84565b626a0d4560e21b5f525f60045260245ffd5b63711bec9160e11b5f523360045260245260445ffd5b505f81815260016020908152604080832033845290915290205460ff16156108e2565b3461010e57602036600319011261010e576109916100f8565b610999610d16565b6001600160a01b031680156109eb57600380546001600160a01b0319811683179091556001600160a01b03167f8be0079c531659141344cd1fd0a4f28419497f9722a3daafe3b4186f6b6457e05f80a3005b631e4fbdf760e01b5f525f60045260245ffd5b3461010e57606036600319011261010e57610a176100f8565b6024356044356001600160a01b0383161561092d57610a5360405192600184526020840152604083019160018352606084015260808301604052565b60405191926020925f90610a678582610344565b528351825190818103610bc7576001600160a01b038316801515908585888a5f5b8151811015610b3f578060051b8784808386010151928801015190610ab2575b5050600101610a88565b610adc86610ac7845f525f60205260405f2090565b9060018060a01b03165f5260205260405f2090565b54818110610b085786610ac76001959493610b009303935f525f60205260405f2090565b559088610aa8565b6040516303dee4c560e01b81526001600160a01b038816600482015260248101919091526044810182905260648101839052608490fd5b5f8683878660018351148514610b93579182015191015160408051928352602083019190915233917fc3d58168c5ae7397731d063d5bbf3d657854427343f4c083240f7aacaa2d0f6291819081015b0390a4005b50610b8e7f4a39dc06d4c0dbc64b70af90fd698a233a518aa5d07e595d983b8c0526c8f7fb9160405191829133958361107b565b635b05999160e01b5f5260045260245260445ffd5b939291906001600160a01b0385163381141580610c17575b61093f576001600160a01b038216156104d0571561092d57610c1594610e84565b565b505f81815260016020908152604080832033845290915290205460ff1615610bf4565b8051821015610c4e5760209160051b010190565b634e487b7160e01b5f52603260045260245ffd5b91909180518351808203610d01575050805190610c7e8261036a565b91610c8c6040519384610344565b808352610c9b601f199161036a565b013660208401375f5b8151811015610cfa5780610ce960019260051b60208082870101519189010151905f918252602082815260408084206001600160a01b03909316845291905290205490565b610cf38286610c3a565b5201610ca4565b5090925050565b635b05999160e01b5f5260045260245260445ffd5b6003546001600160a01b03163303610d2a57565b63118cdaa760e01b5f523360045260245ffd5b939291908051825190818103610bc75750506001600160a01b03851693841515935f5b8351811015610db85780868960019360051b602080828a010151918a01015192610d8e575b50505001610d60565b610dae91610ac7610da6925f525f60205260405f2090565b91825461105a565b90555f8981610d85565b509390959460018351145f14610e49576020838101518582015160408051928352928201525f9133917fc3d58168c5ae7397731d063d5bbf3d657854427343f4c083240f7aacaa2d0f629190a45b610e11575b50505050565b8051600103610e395790602080610e3095930151910151915f33611266565b5f808080610e0b565b610e44935f33611137565b610e30565b5f6040517f4a39dc06d4c0dbc64b70af90fd698a233a518aa5d07e595d983b8c0526c8f7fb339180610e7c89898361107b565b0390a4610e06565b9493929091938451825190818103610bc75750506001600160a01b038681169586151595918516801515939192905f5b8451811015610f8d578060051b90898988602080868b010151958c01015192610f0c575b93600194610eea575b50505001610eb4565b610f0291610ac7610da6925f525f60205260405f2090565b90555f8981610ee1565b50509091610f258d610ac7835f525f60205260405f2090565b54828110610f56578291898f610f4d600197968f950391610ac7855f525f60205260405f2090565b55909450610ed8565b6040516303dee4c560e01b81526001600160a01b038f16600482015260248101919091526044810183905260648101829052608490fd5b5091989593929790965060018851145f146110205760208881015186820151604080519283529282015233917fc3d58168c5ae7397731d063d5bbf3d657854427343f4c083240f7aacaa2d0f6291a45b610fe9575b5050505050565b845160010361100f576020806110059601519201519233611266565b5f80808080610fe2565b61101b94919233611137565b611005565b6040517f4a39dc06d4c0dbc64b70af90fd698a233a518aa5d07e595d983b8c0526c8f7fb339180611052898d8361107b565b0390a4610fdd565b9190820180921161106757565b634e487b7160e01b5f52601160045260245ffd5b90916110926102399360408452604084019061056d565b91602081840391015261056d565b9081602091031261010e575161023981610184565b6001600160a01b0391821681529116602082015260a06040820181905261023994919391926110fa92916110ec919086019061056d565b90848203606086015261056d565b916080818403910152610204565b3d15611132573d90611119826103de565b916111276040519384610344565b82523d5f602084013e565b606090565b9091949293853b61114b575b505050505050565b60209361116d91604051968795869563bc197c8160e01b8752600487016110b5565b03815f6001600160a01b0387165af15f91816111fc575b506111be5750611192611108565b80519190826111b757632bfa23e760e11b5f526001600160a01b03821660045260245ffd5b6020915001fd5b6001600160e01b0319166343e6837f60e01b016111e157505f8080808080611143565b632bfa23e760e11b5f526001600160a01b031660045260245ffd5b61121f91925060203d602011611226575b6112178183610344565b8101906110a0565b905f611184565b503d61120d565b6001600160a01b039182168152911660208201526040810191909152606081019190915260a06080820181905261023992910190610204565b9091949293853b61127957505050505050565b60209361129b91604051968795869563f23a6e6160e01b87526004870161122d565b03815f6001600160a01b0387165af15f91816112e3575b506112c05750611192611108565b6001600160e01b031916630dc5919f60e01b016111e157505f8080808080611143565b6112fd91925060203d602011611226576112178183610344565b905f6112b256fea26469706673582212209941a7fffb6933cfb238d18ce5ec33cf7086c001b13ad4330b67680eefb3e5c164736f6c634300081c0033","linkReferences":{}},"methodIdentifiers":{"balanceOf(address,uint256)":"00fdd58e","balanceOfBatch(address[],uint256[])":"4e1273f4","burn(address,uint256,uint256)":"f5298aca","isApprovedForAll(address,address)":"e985e9c5","mint(address,uint256,uint256,bytes)":"731133e9","mintBatch(address,uint256[],uint256[],bytes)":"1f7fdffa","owner()":"8da5cb5b","renounceOwnership()":"715018a6","safeBatchTransferFrom(address,address,uint256[],uint256[],bytes)":"2eb2c2d6","safeTransferFrom(address,address,uint256,uint256,bytes)":"f242432a","setApprovalForAll(address,bool)":"a22cb465","supportsInterface(bytes4)":"01ffc9a7","transferOwnership(address)":"f2fde38b","uri(uint256)":"0e89341c"},"id":10}