{"abi":[{"type":"constructor","inputs":[],"stateMutability":"nonpayable"},{"type":"function","name":"UPGRADE_INTERFACE_VERSION","inputs":[],"outputs":[{"name":"","type":"string","internalType":"string"}],"stateMutability":"view"},{"type":"function","name":"allowedRoyaltyCollections","inputs":[{"name":"","type":"address","internalType":"address"}],"outputs":[{"name":"","type":"bool","internalType":"bool"}],"stateMutability":"view"},{"type":"function","name":"craft","inputs":[{"name":"recipeId","type":"uint256","internalType":"uint256"},{"name":"seatCollection","type":"address","internalType":"address"},{"name":"seatTokenId","type":"uint256","internalType":"uint256"}],"outputs":[{"name":"positionId","type":"uint256","internalType":"uint256"}],"stateMutability":"nonpayable"},{"type":"function","name":"craftBatch","inputs":[{"name":"recipeId","type":"uint256","internalType":"uint256"},{"name":"count","type":"uint256","internalType":"uint256"},{"name":"seatCollection","type":"address","internalType":"address"},{"name":"seatTokenId","type":"uint256","internalType":"uint256"}],"outputs":[{"name":"positionIds","type":"uint256[]","internalType":"uint256[]"}],"stateMutability":"nonpayable"},{"type":"function","name":"createRecipe","inputs":[{"name":"cfg","type":"tuple","internalType":"struct MasterForgeV1.RecipeConfig","components":[{"name":"itemClass","type":"uint8","internalType":"enum MasterForgeV1Storage.ItemClass"},{"name":"inputToken","type":"address","internalType":"address"},{"name":"inputPerUnit","type":"uint256","internalType":"uint256"},{"name":"coalToken1155","type":"address","internalType":"address"},{"name":"coalTokenId","type":"uint256","internalType":"uint256"},{"name":"coalPerUnit","type":"uint256","internalType":"uint256"},{"name":"imageData","type":"bytes","internalType":"bytes"},{"name":"lockDuration","type":"uint64","internalType":"uint64"},{"name":"craftFeeBps","type":"uint16","internalType":"uint16"},{"name":"destroyFeeBps","type":"uint16","internalType":"uint16"},{"name":"feeRecipient","type":"address","internalType":"address"},{"name":"uri","type":"string","internalType":"string"}]}],"outputs":[{"name":"recipeId","type":"uint256","internalType":"uint256"}],"stateMutability":"nonpayable"},{"type":"function","name":"defaultInputErc20","inputs":[],"outputs":[{"name":"","type":"address","internalType":"contract IERC20"}],"stateMutability":"view"},{"type":"function","name":"defaultInputToken","inputs":[],"outputs":[{"name":"","type":"address","internalType":"address"}],"stateMutability":"view"},{"type":"function","name":"defaultRoyaltyCollection","inputs":[],"outputs":[{"name":"","type":"address","internalType":"address"}],"stateMutability":"view"},{"type":"function","name":"destroy","inputs":[{"name":"positionId","type":"uint256","internalType":"uint256"}],"outputs":[],"stateMutability":"nonpayable"},{"type":"function","name":"feeRouter","inputs":[],"outputs":[{"name":"","type":"address","internalType":"address"}],"stateMutability":"view"},{"type":"function","name":"feeToken","inputs":[],"outputs":[{"name":"","type":"address","internalType":"address"}],"stateMutability":"view"},{"type":"function","name":"forgeName","inputs":[{"name":"","type":"address","internalType":"address"}],"outputs":[{"name":"","type":"string","internalType":"string"}],"stateMutability":"view"},{"type":"function","name":"getGlobalStats","inputs":[],"outputs":[{"name":"_totalInputLocked","type":"uint256","internalType":"uint256"},{"name":"_nextRecipeId","type":"uint256","internalType":"uint256"}],"stateMutability":"view"},{"type":"function","name":"getPosition","inputs":[{"name":"positionId","type":"uint256","internalType":"uint256"}],"outputs":[{"name":"","type":"tuple","internalType":"struct MasterForgeV1Storage.Position","components":[{"name":"recipeId","type":"uint256","internalType":"uint256"},{"name":"createdAt","type":"uint64","internalType":"uint64"},{"name":"unlockAt","type":"uint64","internalType":"uint64"},{"name":"inputAmountLocked","type":"uint256","internalType":"uint256"},{"name":"owner","type":"address","internalType":"address"}]}],"stateMutability":"view"},{"type":"function","name":"getRecipe","inputs":[{"name":"recipeId","type":"uint256","internalType":"uint256"}],"outputs":[{"name":"","type":"tuple","internalType":"struct MasterForgeV1Storage.Recipe","components":[{"name":"active","type":"bool","internalType":"bool"},{"name":"itemClass","type":"uint8","internalType":"enum MasterForgeV1Storage.ItemClass"},{"name":"inputToken","type":"address","internalType":"address"},{"name":"inputPerUnit","type":"uint256","internalType":"uint256"},{"name":"coalToken1155","type":"address","internalType":"address"},{"name":"coalTokenId","type":"uint256","internalType":"uint256"},{"name":"coalPerUnit","type":"uint256","internalType":"uint256"},{"name":"imagePointer","type":"address","internalType":"address"},{"name":"imageHash","type":"bytes32","internalType":"bytes32"},{"name":"lockDuration","type":"uint64","internalType":"uint64"},{"name":"craftFeeBps","type":"uint16","internalType":"uint16"},{"name":"destroyFeeBps","type":"uint16","internalType":"uint16"},{"name":"feeRecipient","type":"address","internalType":"address"},{"name":"forgeCreator","type":"address","internalType":"address"},{"name":"uri","type":"string","internalType":"string"}]}],"stateMutability":"view"},{"type":"function","name":"getRecipeStats","inputs":[{"name":"recipeId","type":"uint256","internalType":"uint256"}],"outputs":[{"name":"totalInput","type":"uint256","internalType":"uint256"},{"name":"totalPositions","type":"uint256","internalType":"uint256"}],"stateMutability":"view"},{"type":"function","name":"getUpgrader","inputs":[],"outputs":[{"name":"","type":"address","internalType":"address"}],"stateMutability":"view"},{"type":"function","name":"initialize","inputs":[{"name":"defaultInputToken_","type":"address","internalType":"address"},{"name":"feeToken_","type":"address","internalType":"address"},{"name":"feeRouter_","type":"address","internalType":"address"},{"name":"positionsToken_","type":"address","internalType":"address"},{"name":"maxBatchSize_","type":"uint256","internalType":"uint256"}],"outputs":[],"stateMutability":"nonpayable"},{"type":"function","name":"isAdmin","inputs":[{"name":"account","type":"address","internalType":"address"}],"outputs":[{"name":"","type":"bool","internalType":"bool"}],"stateMutability":"view"},{"type":"function","name":"maxBatchSize","inputs":[],"outputs":[{"name":"","type":"uint256","internalType":"uint256"}],"stateMutability":"view"},{"type":"function","name":"nextRecipeId","inputs":[],"outputs":[{"name":"","type":"uint256","internalType":"uint256"}],"stateMutability":"view"},{"type":"function","name":"owner","inputs":[],"outputs":[{"name":"","type":"address","internalType":"address"}],"stateMutability":"view"},{"type":"function","name":"positionRoyaltySeat","inputs":[{"name":"","type":"uint256","internalType":"uint256"}],"outputs":[{"name":"collection","type":"address","internalType":"address"},{"name":"tokenId","type":"uint256","internalType":"uint256"}],"stateMutability":"view"},{"type":"function","name":"positionTokenURI","inputs":[{"name":"positionId","type":"uint256","internalType":"uint256"}],"outputs":[{"name":"","type":"string","internalType":"string"}],"stateMutability":"view"},{"type":"function","name":"positions","inputs":[{"name":"","type":"uint256","internalType":"uint256"}],"outputs":[{"name":"recipeId","type":"uint256","internalType":"uint256"},{"name":"createdAt","type":"uint64","internalType":"uint64"},{"name":"unlockAt","type":"uint64","internalType":"uint64"},{"name":"inputAmountLocked","type":"uint256","internalType":"uint256"},{"name":"owner","type":"address","internalType":"address"}],"stateMutability":"view"},{"type":"function","name":"positionsToken","inputs":[],"outputs":[{"name":"","type":"address","internalType":"address"}],"stateMutability":"view"},{"type":"function","name":"proxiableUUID","inputs":[],"outputs":[{"name":"","type":"bytes32","internalType":"bytes32"}],"stateMutability":"view"},{"type":"function","name":"recipes","inputs":[{"name":"","type":"uint256","internalType":"uint256"}],"outputs":[{"name":"active","type":"bool","internalType":"bool"},{"name":"itemClass","type":"uint8","internalType":"enum MasterForgeV1Storage.ItemClass"},{"name":"inputToken","type":"address","internalType":"address"},{"name":"inputPerUnit","type":"uint256","internalType":"uint256"},{"name":"coalToken1155","type":"address","internalType":"address"},{"name":"coalTokenId","type":"uint256","internalType":"uint256"},{"name":"coalPerUnit","type":"uint256","internalType":"uint256"},{"name":"imagePointer","type":"address","internalType":"address"},{"name":"imageHash","type":"bytes32","internalType":"bytes32"},{"name":"lockDuration","type":"uint64","internalType":"uint64"},{"name":"craftFeeBps","type":"uint16","internalType":"uint16"},{"name":"destroyFeeBps","type":"uint16","internalType":"uint16"},{"name":"feeRecipient","type":"address","internalType":"address"},{"name":"forgeCreator","type":"address","internalType":"address"},{"name":"uri","type":"string","internalType":"string"}],"stateMutability":"view"},{"type":"function","name":"renounceOwnership","inputs":[],"outputs":[],"stateMutability":"nonpayable"},{"type":"function","name":"royaltyReceiverForPosition","inputs":[{"name":"positionId","type":"uint256","internalType":"uint256"}],"outputs":[{"name":"","type":"address","internalType":"address"}],"stateMutability":"view"},{"type":"function","name":"setAdmin","inputs":[{"name":"admin","type":"address","internalType":"address"},{"name":"enabled","type":"bool","internalType":"bool"}],"outputs":[],"stateMutability":"nonpayable"},{"type":"function","name":"setDefaultInputToken","inputs":[{"name":"token","type":"address","internalType":"address"}],"outputs":[],"stateMutability":"nonpayable"},{"type":"function","name":"setDefaultRoyaltyCollection","inputs":[{"name":"collection","type":"address","internalType":"address"}],"outputs":[],"stateMutability":"nonpayable"},{"type":"function","name":"setFeeRouter","inputs":[{"name":"router","type":"address","internalType":"address"}],"outputs":[],"stateMutability":"nonpayable"},{"type":"function","name":"setFeeToken","inputs":[{"name":"token","type":"address","internalType":"address"}],"outputs":[],"stateMutability":"nonpayable"},{"type":"function","name":"setForgeName","inputs":[{"name":"name","type":"string","internalType":"string"}],"outputs":[],"stateMutability":"nonpayable"},{"type":"function","name":"setMaxBatchSize","inputs":[{"name":"newMax","type":"uint256","internalType":"uint256"}],"outputs":[],"stateMutability":"nonpayable"},{"type":"function","name":"setPositionsToken","inputs":[{"name":"token","type":"address","internalType":"address"}],"outputs":[],"stateMutability":"nonpayable"},{"type":"function","name":"setRoyaltyCollection","inputs":[{"name":"collection","type":"address","internalType":"address"},{"name":"allowed","type":"bool","internalType":"bool"}],"outputs":[],"stateMutability":"nonpayable"},{"type":"function","name":"setUpgrader","inputs":[{"name":"newUpgrader","type":"address","internalType":"address"}],"outputs":[],"stateMutability":"nonpayable"},{"type":"function","name":"totalInputByRecipe","inputs":[{"name":"","type":"uint256","internalType":"uint256"}],"outputs":[{"name":"","type":"uint256","internalType":"uint256"}],"stateMutability":"view"},{"type":"function","name":"totalInputLocked","inputs":[],"outputs":[{"name":"","type":"uint256","internalType":"uint256"}],"stateMutability":"view"},{"type":"function","name":"totalPositionsByRecipe","inputs":[{"name":"","type":"uint256","internalType":"uint256"}],"outputs":[{"name":"","type":"uint256","internalType":"uint256"}],"stateMutability":"view"},{"type":"function","name":"transferOwnership","inputs":[{"name":"newOwner","type":"address","internalType":"address"}],"outputs":[],"stateMutability":"nonpayable"},{"type":"function","name":"updateRecipe","inputs":[{"name":"recipeId","type":"uint256","internalType":"uint256"},{"name":"cfg","type":"tuple","internalType":"struct MasterForgeV1.RecipeConfig","components":[{"name":"itemClass","type":"uint8","internalType":"enum MasterForgeV1Storage.ItemClass"},{"name":"inputToken","type":"address","internalType":"address"},{"name":"inputPerUnit","type":"uint256","internalType":"uint256"},{"name":"coalToken1155","type":"address","internalType":"address"},{"name":"coalTokenId","type":"uint256","internalType":"uint256"},{"name":"coalPerUnit","type":"uint256","internalType":"uint256"},{"name":"imageData","type":"bytes","internalType":"bytes"},{"name":"lockDuration","type":"uint64","internalType":"uint64"},{"name":"craftFeeBps","type":"uint16","internalType":"uint16"},{"name":"destroyFeeBps","type":"uint16","internalType":"uint16"},{"name":"feeRecipient","type":"address","internalType":"address"},{"name":"uri","type":"string","internalType":"string"}]}],"outputs":[],"stateMutability":"nonpayable"},{"type":"function","name":"upgradeToAndCall","inputs":[{"name":"newImplementation","type":"address","internalType":"address"},{"name":"data","type":"bytes","internalType":"bytes"}],"outputs":[],"stateMutability":"payable"},{"type":"function","name":"userActivePositions","inputs":[{"name":"","type":"address","internalType":"address"}],"outputs":[{"name":"","type":"uint256","internalType":"uint256"}],"stateMutability":"view"},{"type":"event","name":"Crafted","inputs":[{"name":"user","type":"address","indexed":true,"internalType":"address"},{"name":"positionId","type":"uint256","indexed":true,"internalType":"uint256"},{"name":"recipeId","type":"uint256","indexed":true,"internalType":"uint256"},{"name":"inputAmount","type":"uint256","indexed":false,"internalType":"uint256"},{"name":"unlockAt","type":"uint64","indexed":false,"internalType":"uint64"}],"anonymous":false},{"type":"event","name":"CraftedBatch","inputs":[{"name":"user","type":"address","indexed":true,"internalType":"address"},{"name":"recipeId","type":"uint256","indexed":true,"internalType":"uint256"},{"name":"positionIds","type":"uint256[]","indexed":false,"internalType":"uint256[]"},{"name":"totalInputAmount","type":"uint256","indexed":false,"internalType":"uint256"}],"anonymous":false},{"type":"event","name":"Destroyed","inputs":[{"name":"user","type":"address","indexed":true,"internalType":"address"},{"name":"positionId","type":"uint256","indexed":true,"internalType":"uint256"},{"name":"recipeId","type":"uint256","indexed":true,"internalType":"uint256"},{"name":"amountReturned","type":"uint256","indexed":false,"internalType":"uint256"},{"name":"feeTaken","type":"uint256","indexed":false,"internalType":"uint256"}],"anonymous":false},{"type":"event","name":"ForgeNameUpdated","inputs":[{"name":"forge","type":"address","indexed":true,"internalType":"address"},{"name":"name","type":"string","indexed":false,"internalType":"string"}],"anonymous":false},{"type":"event","name":"Initialized","inputs":[{"name":"version","type":"uint64","indexed":false,"internalType":"uint64"}],"anonymous":false},{"type":"event","name":"OwnershipTransferred","inputs":[{"name":"previousOwner","type":"address","indexed":true,"internalType":"address"},{"name":"newOwner","type":"address","indexed":true,"internalType":"address"}],"anonymous":false},{"type":"event","name":"RecipeCreated","inputs":[{"name":"recipeId","type":"uint256","indexed":true,"internalType":"uint256"},{"name":"creator","type":"address","indexed":true,"internalType":"address"},{"name":"itemClass","type":"uint8","indexed":false,"internalType":"uint8"}],"anonymous":false},{"type":"event","name":"RecipeUpdated","inputs":[{"name":"recipeId","type":"uint256","indexed":true,"internalType":"uint256"}],"anonymous":false},{"type":"event","name":"Upgraded","inputs":[{"name":"implementation","type":"address","indexed":true,"internalType":"address"}],"anonymous":false},{"type":"error","name":"AddressEmptyCode","inputs":[{"name":"target","type":"address","internalType":"address"}]},{"type":"error","name":"BatchTooLarge","inputs":[]},{"type":"error","name":"ERC1967InvalidImplementation","inputs":[{"name":"implementation","type":"address","internalType":"address"}]},{"type":"error","name":"ERC1967NonPayable","inputs":[]},{"type":"error","name":"FailedCall","inputs":[]},{"type":"error","name":"InvalidAdminAddress","inputs":[]},{"type":"error","name":"InvalidFeeConfig","inputs":[]},{"type":"error","name":"InvalidForgeName","inputs":[]},{"type":"error","name":"InvalidInitialization","inputs":[]},{"type":"error","name":"InvalidInputAmount","inputs":[]},{"type":"error","name":"InvalidPosition","inputs":[]},{"type":"error","name":"InvalidRecipe","inputs":[]},{"type":"error","name":"LockNotExpired","inputs":[]},{"type":"error","name":"NotInitializing","inputs":[]},{"type":"error","name":"NotRoyaltySeatOwner","inputs":[]},{"type":"error","name":"OwnableInvalidOwner","inputs":[{"name":"owner","type":"address","internalType":"address"}]},{"type":"error","name":"OwnableUnauthorizedAccount","inputs":[{"name":"account","type":"address","internalType":"address"}]},{"type":"error","name":"RecipeNotActive","inputs":[]},{"type":"error","name":"ReentrancyGuardReentrantCall","inputs":[]},{"type":"error","name":"UUPSUnauthorizedCallContext","inputs":[]},{"type":"error","name":"UUPSUnsupportedProxiableUUID","inputs":[{"name":"slot","type":"bytes32","internalType":"bytes32"}]},{"type":"error","name":"UnauthorizedPositionOwner","inputs":[]},{"type":"error","name":"UnauthorizedUpgrader","inputs":[]},{"type":"error","name":"UnsupportedRoyaltyCollection","inputs":[]},{"type":"error","name":"UpgraderZeroAddress","inputs":[]}],"bytecode":{"object":"0x60a080604052346100e6573060805260017f9b779b17422d0df92223018b32b4d1fa46e071723d6817e2486d003becc55f00555f516020613d835f395f51905f525460ff8160401c166100d7576002600160401b03196001600160401b03821601610084575b604051613c9890816100eb823960805181818161169f01526117e40152f35b6001600160401b0319166001600160401b039081175f516020613d835f395f51905f525581527fc7f505b2f371ae2175ee4913f4499e1f2633a7b5936321eed1cdaeb6115181d290602090a15f80610065565b63f92ee8a960e01b5f5260045ffd5b5f80fdfe60806040526004361015610011575f80fd5b5f3560e01c8063034c942d146103045780630afca728146102ff5780631144d5d4146102fa57806315cce224146102f55780631b878f71146102f0578063204f8fb5146102eb57806321fc01f1146102e657806324d7806c146102e15780632913daa0146102dc5780632a101ea2146102d75780632ab0f838146102d25780632b26a6bf146102cd578063314d730d146102c857806333f2583f146102c357806339a54b25146102be5780633bc17e41146102b9578063443c227c146102b45780634b0bddd2146102af5780634f1ef286146102aa57806352d1902d146102a5578063634ad1b6146102a0578063647846a51461029b5780636b4169c3146102965780636ebc5a1d14610291578063715018a61461028c5780638155db7b146102875780638da5cb5b14610282578063910d122b1461027d57806399fbab88146102785780639b1cfd56146102735780639d1187701461026e578063a2db2cc314610269578063ad3cb1cc14610264578063bb4ed3eb1461025f578063c267ada41461025a578063c927ca0d14610255578063cf4c6eab14610250578063d82a5ea41461024b578063dd135e9114610246578063e4d7437b14610241578063e821cc721461023c578063eb02c30114610237578063f13f890514610232578063f29ebf611461022d578063f2fde38b14610228578063f7013ef6146102235763f8d12a411461021e575f80fd5b612d4c565b612a9b565b612a6e565b612a46565b612772565b612689565b61266c565b612645565b612608565b6125de565b6125b6565b61251a565b6124a6565b612466565b61241f565b612389565b61208b565b612050565b611fe8565b611e53565b611e1f565b611df7565b611d90565b6118a1565b611879565b611851565b611829565b6117d2565b61164c565b611566565b611495565b611360565b611330565b6112bc565b611247565b6111c5565b611176565b610fd0565b610fb3565b610f78565b610f33565b610f09565b610e84565b610e10565b610a0b565b61040f565b61031e565b6001600160a01b0381160361031a57565b5f80fd5b3461031a57602036600319011261031a5760043561033b81610309565b5f516020613be35f395f51905f52546001600160a01b0316331415806103b8575b6103a9576001600160a01b0316801561039a57806001600160601b0360a01b600a541617600a556001600160601b0360a01b60375416176037555f80f35b63340dabef60e01b5f5260045ffd5b636fd8ea8d60e11b5f5260045ffd5b506103c233613856565b1561035c565b90602080835192838152019201905f5b8181106103e55750505090565b82518452602093840193909201916001016103d8565b90602061040c9281815201906103c8565b90565b3461031a57608036600319011261031a5760243560443560043561043282610309565b6064359261043e61387d565b801580156109f1575b6109e257610465610460835f52600360205260405f2090565b612df8565b906104776104738351151590565b1590565b6109d357606082019182511561039a576001600160a01b038516156109c0575b6001600160a01b038516801515919082610901575b5060408101516001600160a01b0316806108fb5750600a546001600160a01b0316935b6001600160a01b03851690811561039a57846104eb9151612f5e565b6040516323b872dd60e01b8152336004820152306024820152604481018290529091602090829060649082905f905af180156107da576108ce575b50809461053961014084015161ffff1690565b61ffff811661087e575b50505060c081015183816107df575b61055d915085612f8b565b6105718561056b8684612f5e565b14612fc4565b6105996105936101206001600160401b0342169401516001600160401b031690565b83612ffe565b976105a385613035565b975f5b86811061067c576106788a8a8a8a6105c86105c383600554613148565b600555565b6105da835f52600760205260405f2090565b6105e5838254613148565b90556105f9835f52600860205260405f2090565b610604828254613148565b9055335f90815260066020526040902061062090918254613148565b90557f869fe5676a67bfff8290a6511f86c144b06140f233b2a42c7c62c4a785a11c376040518061065333948783613155565b0390a361066c60015f516020613c235f395f51905f5255565b604051918291826103fb565b0390f35b600d5461069f90610693906001600160a01b031681565b6001600160a01b031690565b604051630dac2ec760e21b81523360048201529190602090839060249082905f905af180156107da57878b8e6001955f946107a0575b509061070861072c926106e66115d9565b9283526001600160401b038c1660208401526001600160401b03166040830152565b60608101899052336080820152610727845f52600460205260405f2090565b613076565b610742575b61073b828d613112565b52016105a6565b61079b61074d6115e8565b6001600160a01b0386168152866020820152610771835f52600f60205260405f2090565b815181546001600160a01b0319166001600160a01b03919091161781559060019060200151910155565b610731565b61072c929194506107ca6107089160203d81116107d3575b6107c28183611080565b810190613067565b949192506106d5565b503d6107b8565b612f3f565b6107e891612f5e565b608082015161080190610693906001600160a01b031681565b9060a083015190823b1561031a57604051637921219560e11b815233600482015261dead60248201526044810192909252606482015260a060848201525f60a482018190529091829060c490829084905af180156107da57610864575b83610552565b806108725f61087893611080565b80610fa9565b5f61085e565b6108c69296506108a661089e6108986108ad9361ffff1690565b89612f5e565b612710900490565b8097612fb7565b6101808401519096906001600160a01b03165b916138b5565b5f8080610543565b6108ef9060203d6020116108f4575b6108e78183611080565b810190612f76565b610526565b503d6108dd565b936104cf565b6001600160a01b0387165f90815260106020526040902061092890610473905b5460ff1690565b6109b1576040516331a9108f60e11b81526004810189905290602090829060249082905afa9081156107da575f91610982575b50336001600160a01b0390911603610973575f6104ac565b635bddf40d60e11b5f5260045ffd5b6109a4915060203d6020116109aa575b61099c8183611080565b810190612f2a565b5f61095b565b503d610992565b633a36651760e01b5f5260045ffd5b6011546001600160a01b03169450610497565b630d01809b60e21b5f5260045ffd5b6305beb17160e11b5f5260045ffd5b50600e548111610447565b908161018091031261031a5790565b3461031a57604036600319011261031a576004356024356001600160401b03811161031a57610a3e9036906004016109fc565b610a4733613952565b15610e015781158015610df6575b610de757610a6b825f52600360205260405f2090565b908154610a7b6104738260ff1690565b6109d357602082016001600160a01b03610a9482613171565b16610dd85750601081901c6001600160a01b0316905b604083013560018501541491821592610dab575b508115610d78575b508015610d42575b8015610d30575b8015610d1e575b610cee57610100810161271061ffff610af483613188565b16118015610cfd575b610cee57600583018054610b19906001600160a01b0316610693565b610c9c5782610c05610c199593610c109360c06009970190610b3b8286613197565b9050610c3f575b50505b610ba7610b81610b5760e086016131c9565b92610b7c600789019485906001600160401b03166001600160401b0319825416179055565b613188565b825469ffff0000000000000000191660409190911b69ffff000000000000000016178255565b610bd3610bb76101208501613188565b825461ffff60501b191660509190911b61ffff60501b16178255565b610be06101408401613171565b81546001600160601b031660609190911b6bffffffffffffffffffffffff1916179055565b610160810190613197565b9290910161322c565b7f867d05df8640c6f9d1ecd5fa526b051f771859ca5824838bddc58abd6ad076645f80a2005b81610c83610c5a92610c66610c61610c5a610c89978b613197565b3691611607565b6139a1565b81546001600160a01b0319166001600160a01b0391909116179055565b85613197565b6020815191012060068601555f80610b42565b5060c08201610cab8184613197565b9050610cc6575b5091610c10600992610c05610c1995610b45565b610c5a610cd69184959395613197565b60208151910120600682015403610cee57915f610cb2565b632b00a33d60e11b5f5260045ffd5b50612710610d18610d116101208501613188565b61ffff1690565b11610afd565b5060a081013560048301541415610adc565b50608081013560038301541415610ad5565b50610d4f60608201613171565b6002830154610d66906001600160a01b0316610693565b6001600160a01b039091161415610ace565b9050610d90610d868361317b565b9160081c60ff1690565b90610d9a8261137d565b610da38161137d565b14155f610ac6565b909150610dc4601083901c6001600160a01b0316610693565b6001600160a01b039091161415905f610abe565b610de190613171565b90610aaa565b631edddbd360e21b5f5260045ffd5b506002548211610a55565b63016ed19f60e21b5f5260045ffd5b3461031a57602036600319011261031a57600435610e2d81610309565b5f516020613be35f395f51905f52546001600160a01b031633141580610e74575b6103a957600b80546001600160a01b0319166001600160a01b0392909216919091179055005b50610e7e33613856565b15610e4e565b3461031a57602036600319011261031a57600435610ea181610309565b5f516020613be35f395f51905f52546001600160a01b031633141580610ef9575b6103a9576001600160a01b03168015610eea576001600160601b0360a01b5f5416175f555f80f35b634fef68cf60e01b5f5260045ffd5b50610f0333613856565b15610ec2565b3461031a57602036600319011261031a576004355f526007602052602060405f2054604051908152f35b3461031a57602036600319011261031a576004355f908152600f6020908152604091829020805460019091015483516001600160a01b03909216825291810191909152f35b3461031a57602036600319011261031a576020610f9f600435610f9a81610309565b613952565b6040519015158152f35b5f91031261031a57565b3461031a575f36600319011261031a576020600e54604051908152f35b3461031a575f36600319011261031a576037546040516001600160a01b039091168152602090f35b90600182811c92168015611026575b602083101461101257565b634e487b7160e01b5f52602260045260245ffd5b91607f1691611007565b634e487b7160e01b5f52604160045260245ffd5b60a081019081106001600160401b0382111761105f57604052565b611030565b6101e081019081106001600160401b0382111761105f57604052565b90601f801991011681019081106001600160401b0382111761105f57604052565b9060405191825f8254926110b484610ff8565b808452936001811690811561111f57506001146110db575b506110d992500383611080565b565b90505f9291925260205f20905f915b8183106111035750509060206110d9928201015f6110cc565b60209193508060019154838589010152019101909184926110ea565b9050602092506110d994915060ff191682840152151560051b8201015f6110cc565b805180835260209291819084018484015e5f828201840152601f01601f1916010190565b90602061040c928181520190611141565b3461031a57602036600319011261031a5760043561119381610309565b60018060a01b03165f5260096020526106786111b160405f206110a1565b604051918291602083526020830190611141565b3461031a57602036600319011261031a5760043560018060a01b035f516020613be35f395f51905f52541633141580611208575b6103a957801561039a57600e55005b5061121233613856565b156111f9565b8015150361031a57565b604090600319011261031a5760043561123a81610309565b9060243561040c81611218565b3461031a5761125536611222565b9060018060a01b035f516020613be35f395f51905f525416331415806112ac575b6103a9576001600160a01b0316908115610e01576112aa915f52601060205260405f209060ff801983541691151516179055565b005b506112b633613856565b15611276565b3461031a57602036600319011261031a576004356112d981610309565b5f516020613be35f395f51905f52546001600160a01b031633141580611320575b6103a957600d80546001600160a01b0319166001600160a01b0392909216919091179055005b5061132a33613856565b156112fa565b3461031a57602036600319011261031a57602061134e60043561337b565b6040516001600160a01b039091168152f35b3461031a575f36600319011261031a576020600554604051908152f35b6005111561138757565b634e487b7160e01b5f52602160045260245ffd5b9060058210156113875752565b9b9561040c9f9e9a929860e06101e09f9a8f909a6114879f989461141c6114769f979b611436976114659f61144d9c6114599f611407926113ed8a6113f79315159052565b60208a019061139b565b6001600160a01b03166040880152565b60608601526001600160a01b03166080850152565b60a083015260c08201526001600160a01b03909216910152565b6101008c01526001600160401b03166101208b0152565b61ffff16610140890152565b61ffff16610160870152565b6001600160a01b0316610180850152565b6001600160a01b03166101a0830152565b816101c08201520190611141565b3461031a57602036600319011261031a576004355f52600360205260405f2080546114c48160ff9060081c1690565b90601081901c6001600160a01b031660018401546002850154919490916001600160a01b03166003820154600483015460058401549091906001600160a01b03166006850154600786015493916001600160401b03851692604086901c61ffff1694605087901c61ffff169660601c60088a01549098906001600160a01b031699600901611551906110a1565b9a6040519e8f9e8f9e60ff166106789f6113a8565b3461031a5761157436611222565b9060018060a01b035f516020613be35f395f51905f525416331415806115c9575b6103a9576001600160a01b0316908115610e01576112aa915f52600160205260405f209060ff801983541691151516179055565b506115d333613856565b15611595565b604051906110d960a083611080565b604051906110d9604083611080565b604051906110d96101e083611080565b9291926001600160401b03821161105f5760405191611630601f8201601f191660200184611080565b82948184528183011161031a578281602093845f960137010152565b604036600319011261031a5760043561166481610309565b6024356001600160401b03811161031a573660238201121561031a57611694903690602481600401359101611607565b906001600160a01b037f0000000000000000000000000000000000000000000000000000000000000000163081149081156117b0575b506117a1575f516020613be35f395f51905f52546001600160a01b031633141580611791575b6103a9576040516352d1902d60e01b8152916020836004816001600160a01b0386165afa5f9381611770575b5061173d57634c9c8ce360e01b5f526001600160a01b03821660045260245ffd5b905f516020613c035f395f51905f52830361175c576112aa9250613a8c565b632a87526960e21b5f52600483905260245ffd5b61178a91945060203d6020116107d3576107c28183611080565b925f61171c565b5061179b33613856565b156116f0565b63703e46dd60e11b5f5260045ffd5b5f516020613c035f395f51905f52546001600160a01b0316141590505f6116ca565b3461031a575f36600319011261031a577f00000000000000000000000000000000000000000000000000000000000000006001600160a01b031630036117a15760206040515f516020613c035f395f51905f528152f35b3461031a575f36600319011261031a57600d546040516001600160a01b039091168152602090f35b3461031a575f36600319011261031a57600b546040516001600160a01b039091168152602090f35b3461031a575f36600319011261031a5760055460025460408051928352602083019190915290f35b3461031a57606036600319011261031a576004356024356118c181610309565b604435916118cd61387d565b6118e2610460825f52600360205260405f2090565b916118f06104738451151590565b6109d357606083019081511561039a576001600160a01b03811615611d7e575b6001600160a01b038116801515959086611cf0575b5060408501516001600160a01b031680611cea5750600a546001600160a01b0316925b6001600160a01b03841690811561039a57516040516323b872dd60e01b8152336004820152306024820152604481018290529091602090829060649082905f905af180156107da57611ccd575b5080936119a861014088015161ffff1690565b61ffff8116611c87575b50505060c085015180611bfd575b506119e96119e36101206001600160401b0342169701516001600160401b031690565b86612ffe565b600d54909290611a0390610693906001600160a01b031681565b604051630dac2ec760e21b81523360048201529790602090899060249082905f905af19687156107da57610678985f98611ba8575b5092611b439288969592611ab57f78fa14bbe463485c400695716c8977d8adacd35b76d5e6ef52f3a6f02e58e39e96611a87611a726115d9565b8c81526001600160401b039092166020830152565b6001600160401b0386166040820152606081018990523360808201526107278a5f52600460205260405f2090565b611b6c575b5050611acb6105c385600554613148565b611add865f52600760205260405f2090565b611ae8858254613148565b9055611afc865f52600860205260405f2090565b611b06815461313a565b9055335f908152600660205260409020611b20815461313a565b9055604080519485526001600160401b0390911660208501523393918291820190565b0390a4611b5c60015f516020613c235f395f51905f5255565b6040519081529081906020820190565b611ba191611b8a611b7b6115e8565b6001600160a01b039093168352565b6020820152610771875f52600f60205260405f2090565b5f80611aba565b611ab59850927f78fa14bbe463485c400695716c8977d8adacd35b76d5e6ef52f3a6f02e58e39e9491969592611bef611b439560203d6020116107d3576107c28183611080565b995092959691945092611a38565b6080860151611c1690610693906001600160a01b031681565b9060a087015190823b1561031a57604051637921219560e11b815233600482015261dead60248201526044810192909252606482015260a060848201525f60a482018190529091829060c490829084905af180156107da57156119c057806108725f611c8193611080565b5f6119c0565b611cc5929550611ca761089e611ca1611cae9361ffff1690565b88612f5e565b8096612fb7565b6101808801519095906001600160a01b03166108c0565b5f80806119b2565b611ce59060203d6020116108f4576108e78183611080565b611995565b92611948565b6001600160a01b0383165f908152601060205260409020611d149061047390610921565b6109b1576040516331a9108f60e11b81526004810183905290602090829060249082905afa9081156107da575f91611d5f575b50336001600160a01b0390911603610973575f611925565b611d78915060203d6020116109aa5761099c8183611080565b5f611d47565b506011546001600160a01b0316611910565b3461031a575f36600319011261031a57611da8613a59565b5f516020613be35f395f51905f5280546001600160a01b031981169091555f906001600160a01b03167f8be0079c531659141344cd1fd0a4f28419497f9722a3daafe3b4186f6b6457e08280a3005b3461031a575f36600319011261031a57600a546040516001600160a01b039091168152602090f35b3461031a575f36600319011261031a575f516020613be35f395f51905f52546040516001600160a01b039091168152602090f35b3461031a57602036600319011261031a576004356001600160401b03811161031a573660238201121561031a578060040135906001600160401b03821161031a57366024838301011161031a57602401908015611fd957335f52600960205260405f206001600160401b03821161105f57611ed882611ed28354610ff8565b836131dd565b5f601f8311600114611f4b5791611f3b91611f2a82807f9f6e2f1e58ea1a1233a3baace51c54a5340ab45fb837f1881c76e0ccee42c0fc965f91611f40575b508160011b915f199060031b1c19161790565b90555b60405191829133958361345e565b0390a2005b90508701355f611f17565b601f19831690611f5e835f5260205f2090565b915f5b818110611fc1575091611f3b9391857f9f6e2f1e58ea1a1233a3baace51c54a5340ab45fb837f1881c76e0ccee42c0fc969410611fa8575b5050600182811b019055611f2d565b8601355f19600385901b60f8161c191690555f80611f99565b9192602060018192868a013581550194019201611f61565b63ee5b9f8960e01b5f5260045ffd5b3461031a57602036600319011261031a576004355f52600460205260a060405f208054906001810154906001600160401b036002820154916003600180881b039101541692604051948552818116602086015260401c16604084015260608301526080820152f35b3461031a57602036600319011261031a5760043561206d81610309565b60018060a01b03165f526006602052602060405f2054604051908152f35b3461031a57602036600319011261031a576004356120a761387d565b6120c16120bc825f52600460205260405f2090565b6132f4565b6080810180519192916001600160a01b03161561237a5751336001600160a01b039091160361236b5761210d61210160408401516001600160401b031690565b6001600160401b031690565b421061235c5761212961046083515f52600360205260405f2090565b60408101516001600160a01b0316806123565750600a546001600160a01b0316925b6001600160a01b03841690811561039a576060810151600d5490939061217b90610693906001600160a01b031681565b803b1561031a5760405163206ac64960e21b815233600482015260248101879052905f908290604490829084905af180156107da57612342575b506121e26121cb865f52600460205260405f2090565b60035f918281558260018201558260028201550155565b335f9081526006602052604090206121fa8154612fa9565b905561220b6105c385600554612fb7565b61221e82515f52600760205260405f2090565b612229858254612fb7565b90555f958461223e61016084015161ffff1690565b61ffff81166122f9575b505060405163a9059cbb60e01b815233600482015260248101869052936020925084915060449082905f905af19081156107da577f45a95ca4774c5802ed943435ca09bb6dfbc9378f6b2e482d071d8cae8ae23158926122c3926122dc575b5051604080519485526020850196909652943393918291820190565b0390a46112aa60015f516020613c235f395f51905f5255565b6122f49060203d6020116108f4576108e78183611080565b6122a7565b61232a985061233993965061018061232161089e61231b6108c09461ffff1690565b85612f5e565b998a8094612fb7565b9701516001600160a01b031690565b5f808080612248565b806108725f61235093611080565b5f6121b5565b9261214b565b63342ad40160e11b5f5260045ffd5b630463b9b160e11b5f5260045ffd5b63673f032f60e11b5f5260045ffd5b3461031a57602036600319011261031a576004356123a681610309565b5f516020613be35f395f51905f52546001600160a01b03163314158061240f575b6103a9576001600160a01b0316801515806123f8575b6109b1576001600160601b0360a01b60115416176011555f80f35b50805f52601060205260ff60405f205416156123dd565b5061241933613856565b156123c7565b3461031a575f36600319011261031a57610678604051612440604082611080565b60058152640352e302e360dc1b6020820152604051918291602083526020830190611141565b3461031a57602036600319011261031a5760043561248381610309565b60018060a01b03165f526010602052602060ff60405f2054166040519015158152f35b3461031a57602036600319011261031a576004356124c381610309565b5f516020613be35f395f51905f52546001600160a01b03163314158061250a575b6103a957600c80546001600160a01b0319166001600160a01b0392909216919091179055005b5061251433613856565b156124e4565b3461031a57602036600319011261031a576004355f52600460205260405f206040519061254682611044565b8054825260018101546001600160401b038082166020850152604091821c169083015260028101546060830152600301546001600160a01b0316608082018190521561237a576101c06125a861046061067893515f52600360205260405f2090565b015160405191829182611165565b3461031a575f36600319011261031a576011546040516001600160a01b039091168152602090f35b3461031a57602036600319011261031a576004355f526008602052602060405f2054604051908152f35b3461031a57602036600319011261031a576004355f9081526007602090815260408083205460088352928190205481519384529183019190915290f35b3461031a575f36600319011261031a575f546040516001600160a01b039091168152602090f35b3461031a575f36600319011261031a576020600254604051908152f35b3461031a57602036600319011261031a576004355f60806040516126ac81611044565b82815282602082015282604082015282606082015201525f52600460205261067860405f20604051906126de82611044565b805482526001600160401b036001820154818116602085015260401c16604083015260028101546060830152600360018060a01b0391015416608082015260405191829182919091608060a0820193805183526001600160401b0360208201511660208401526001600160401b036040820151166040840152606081015160608401528160018060a01b0391015116910152565b3461031a57602036600319011261031a576004356001600160401b03811161031a576127a29036906004016109fc565b6127ab33613952565b15610e0157604081013590811561039a57610100810161271061ffff6127d083613188565b16118015612a2c575b610cee5760a08201359283151580612a10575b610cee57602083016001600160a01b0361280582613171565b16612a015750600a546001600160a01b0316905b6001600160a01b0382161561039a575f8060c086016128388188613197565b90506129d3575b5060025461284c90613485565b9661285688600255565b61285f8761317b565b9561286c60608901613171565b9360808901359361287f60e08b016131c9565b9261288990613188565b936128976101208c01613188565b956128a56101408d01613171565b976128b46101608e018e613197565b9a909b6128bf6115f7565b809e6128cb8260019052565b6128d89060208301612dec565b6001600160a01b039091166040919091015260608d01526001600160a01b031660808c015260a08b015260c08a01526001600160a01b031660e08901526101008801526001600160401b031661012087015261ffff1661014086015261ffff166101608501526001600160a01b0316610180840152336101a0840152369061295f92611607565b6101c0820152612977835f52600360205260405f2090565b9061298191613571565b61298a9061317b565b6129938161137d565b60405160ff919091168152339082907fc2406d594e0bdf93ffb23fcfb3256dbb23d547682c1f8c56cfa6a9adb910750c90602090a3604051908152602090f35b9150506129f3610c5a6129ec610c61610c5a858a613197565b9287613197565b60208151910120905f61283f565b612a0a90613171565b90612819565b506001600160a01b03612a2560608501613171565b16156127ec565b50612710612a40610d116101208501613188565b116127d9565b3461031a575f36600319011261031a57600c546040516001600160a01b039091168152602090f35b3461031a57602036600319011261031a576112aa600435612a8e81610309565b612a96613a59565b6136ec565b3461031a5760a036600319011261031a57600435612ab881610309565b60243590612ac582610309565b604435612ad181610309565b606435612add81610309565b608435915f516020613c435f395f51905f5254946001600160401b03612b1a612b0d6104738960ff9060401c1690565b976001600160401b031690565b1680159081612c34575b6001149081612c2a575b159081612c21575b50612c1257612b799486612b7060016001600160401b03195f516020613c435f395f51905f525416175f516020613c435f395f51905f5255565b612bd85761375d565b612b7f57005b612ba960ff60401b195f516020613c435f395f51905f5254165f516020613c435f395f51905f5255565b604051600181527fc7f505b2f371ae2175ee4913f4499e1f2633a7b5936321eed1cdaeb6115181d290602090a1005b612c0d6801000000000000000060ff60401b195f516020613c435f395f51905f525416175f516020613c435f395f51905f5255565b61375d565b63f92ee8a960e01b5f5260045ffd5b9050155f612b36565b303b159150612b2e565b879150612b24565b6102006101c061040c9360208452612c5960208501825115159052565b612c6b6020820151604086019061139b565b60408101516001600160a01b0316606085015260608101516080858101919091528101516001600160a01b031660a085015260a081015160c085015260c081015160e0850152612ccb60e082015161010086019060018060a01b03169052565b610100810151610120850152612cf36101208201516101408601906001600160401b03169052565b61014081015161ffff1661016085015261016081015161ffff166101808501526101808101516001600160a01b03166101a08501526101a08101516001600160a01b0316848301520151916101e0808201520190611141565b3461031a57602036600319011261031a57610678612de061046060043560606101c0604051612d7a81611064565b5f81525f60208201525f60408201525f838201525f60808201525f60a08201525f60c08201525f60e08201525f6101008201525f6101208201525f6101408201525f6101608201525f6101808201525f6101a082015201525f52600360205260405f2090565b60405191829182612c3c565b60058210156113875752565b90612f226009612e066115f7565b93612e55612e458254612e22612e1c8260ff1690565b15158952565b612e36600882901c60ff1660208a01612dec565b60101c6001600160a01b031690565b6001600160a01b03166040870152565b6001810154606086015260028101546001600160a01b03166080860152600381015460a0860152600481015460c086015260058101546001600160a01b031660e08601526006810154610100860152612f08612ef76007830154612ed3612ec2826001600160401b031690565b6001600160401b03166101208a0152565b61ffff604082901c1661014089015261ffff605082901c1661016089015260601c90565b6001600160a01b0316610180870152565b60088101546001600160a01b03166101a0860152016110a1565b6101c0830152565b9081602091031261031a575161040c81610309565b6040513d5f823e3d90fd5b634e487b7160e01b5f52601160045260245ffd5b81810292918115918404141715612f7157565b612f4a565b9081602091031261031a575161040c81611218565b8115612f95570490565b634e487b7160e01b5f52601260045260245ffd5b5f19810191908211612f7157565b91908203918211612f7157565b15612fcb57565b60405162461bcd60e51b815260206004820152600b60248201526a119bdc99d94e88191d5cdd60aa1b6044820152606490fd5b906001600160401b03809116911601906001600160401b038211612f7157565b6001600160401b03811161105f5760051b60200190565b9061303f8261301e565b61304c6040519182611080565b828152809261305d601f199161301e565b0190602036910137565b9081602091031261031a575190565b600360806110d99380518455600184016130b36001600160401b0360208401511682906001600160401b03166001600160401b0319825416179055565b60408281015182546fffffffffffffffff00000000000000001916911b6fffffffffffffffff000000000000000016179055606081015160028501550151910180546001600160a01b0319166001600160a01b03909216919091179055565b80518210156131265760209160051b010190565b634e487b7160e01b5f52603260045260245ffd5b9060018201809211612f7157565b91908201809211612f7157565b92919061316c6020916040865260408601906103c8565b930152565b3561040c81610309565b35600581101561031a5790565b3561ffff8116810361031a5790565b903590601e198136030182121561031a57018035906001600160401b03821161031a5760200191813603831361031a57565b356001600160401b038116810361031a5790565b601f82116131ea57505050565b5f5260205f20906020601f840160051c83019310613222575b601f0160051c01905b818110613217575050565b5f815560010161320c565b9091508190613203565b9092916001600160401b03811161105f576132518161324b8454610ff8565b846131dd565b5f601f821160011461328f5781906132809394955f92613284575b50508160011b915f199060031b1c19161790565b9055565b013590505f8061326c565b601f198216946132a2845f5260205f2090565b915f5b8781106132dc5750836001959697106132c3575b505050811b019055565b01355f19600384901b60f8161c191690555f80806132b9565b909260206001819286860135815501940191016132a5565b9060405161330181611044565b8254815260018301546001600160401b038181166020840152604091821c1690820152600283015460608201526003909201546001600160a01b03166080830152565b90604051604081018181106001600160401b0382111761105f5760405282546001600160a01b031681526001909201546020830152565b6133906120bc825f52600460205260405f2090565b60808101519091906001600160a01b03161561237a576133bb6133c0915f52600f60205260405f2090565b613344565b80516133d4906001600160a01b0316610693565b806134055750506101a06133f761046061040c93515f52600360205260405f2090565b01516001600160a01b031690565b6020918201516040516331a9108f60e11b815260048101919091529250829060249082906001600160a01b03165afa9081156107da575f91613445575090565b61040c915060203d6020116109aa5761099c8183611080565b90918060409360208452816020850152848401375f828201840152601f01601f1916010190565b5f198114612f715760010190565b9060058110156113875761ff0082549160081b169061ff001916179055565b91909182516001600160401b03811161105f576134d38161324b8454610ff8565b6020601f821160011461350d5781906132809394955f926135025750508160011b915f199060031b1c19161790565b015190505f8061326c565b601f19821690613520845f5260205f2090565b915f5b8181106135595750958360019596971061354157505050811b019055565b01515f1960f88460031b161c191690555f80806132b9565b9192602060018192868b015181550194019201613523565b60096101c06110d9936135996135878251151590565b859060ff801983541691151516179055565b6135b060208201516135aa8161137d565b85613493565b60408101516135e6906001600160a01b0316855462010000600160b01b03191660109190911b62010000600160b01b0316178555565b6060810151600185015560808101516002850180546001600160a01b039283166001600160a01b03199182161790915560a0830151600387015560c0830151600487015560e083015160058701805491909316911617905561010081015160068501556101208101516136bc906007860190613682906001600160401b0316825467ffffffffffffffff19166001600160401b03909116178255565b613695610b8161014085015161ffff1690565b6136a8610bb761016085015161ffff1690565b6101808301516001600160a01b0316610be0565b6101a08101516008850180546001600160a01b0319166001600160a01b03909216919091179055015191016134b2565b6001600160a01b0316801561374a575f516020613be35f395f51905f5280546001600160a01b0319811683179091556001600160a01b03167f8be0079c531659141344cd1fd0a4f28419497f9722a3daafe3b4186f6b6457e05f80a3565b631e4fbdf760e01b5f525f60045260245ffd5b939290919361376a613b2b565b613772613b2b565b61377b336136ec565b6001600160a01b0316801561039a576001600160a01b0382161561237a57613826946138219382613804936001600160601b0360a01b600a541617600a556001600160601b0360a01b603754161760375560018060a01b03166001600160601b0360a01b600b541617600b5560018060a01b03166001600160601b0360a01b600c541617600c55565b60018060a01b03166001600160601b0360a01b600d541617600d55565b600e55565b5f80546001600160a01b03191633179055335f9081526001602052604090206110d990805460ff19166001179055565b6001600160a01b0316801515908161386c575090565b5f546001600160a01b031614919050565b60025f516020613c235f395f51905f5254146138a65760025f516020613c235f395f51905f5255565b633ee5aeb560e01b5f5260045ffd5b91811561394d57600c546001600160a01b03169081156139455750905b6001600160a01b03821615610cee5760405163a9059cbb60e01b81526001600160a01b0390921660048301526024820152906020908290815f816044810103926001600160a01b03165af180156107da5761392a5750565b6139429060203d6020116108f4576108e78183611080565b50565b9050906138d2565b505050565b5f516020613be35f395f51905f52546001600160a01b039182169116811490811561397b575090565b90505f52600160205260ff60405f20541690565b805191908290602001825e015f815290565b8051604051606160f81b6020820190815260f09290921b6001600160f01b0319166021820152600160ff1b6023820152600360fd1b60248201819052600360fa1b6025830152602682018190525f6027830152603960f81b602883015260298201529091613a43908290613a3590613a2f613a22602a85015f815260010190565b60f360f81b815260010190565b9061398f565b03601f198101835282611080565b51905ff0906001600160a01b03821615610cee57565b5f516020613be35f395f51905f52546001600160a01b03163303613a7957565b63118cdaa760e01b5f523360045260245ffd5b90813b15613b0a575f516020613c035f395f51905f5280546001600160a01b0319166001600160a01b0384169081179091557fbc7cd75a20ee27fd9adebab32041f755214dbc6bffa90cc0225b39da2e5c2d3b5f80a2805115613af25761394291613b56565b505034613afb57565b63b398979f60e01b5f5260045ffd5b50634c9c8ce360e01b5f9081526001600160a01b0391909116600452602490fd5b60ff5f516020613c435f395f51905f525460401c1615613b4757565b631afcd79f60e31b5f5260045ffd5b905f8091602081519101845af48080613bb6575b15613b7957505061040c613bc9565b15613b9e57639996b31560e01b5f9081526001600160a01b0391909116600452602490fd5b3d15155f03612f3f5763d6bda27560e01b5f5260045ffd5b503d151580613b6a5750813b1515613b6a565b604051903d82523d5f602084013e60203d83010160405256fe9016d09d72d40fdae2fd8ceac6b6234c7706214fd39c1cd1e609a0528c199300360894a13ba1a3210667c828492db98dca3e2076cc3735a920a3ca505d382bbc9b779b17422d0df92223018b32b4d1fa46e071723d6817e2486d003becc55f00f0c57e16840df040f15088dc2f81fe391c3923bec73e23a9662efc9c229c6a00a2646970667358221220cf6a828c96f91a16d1d41cc0caf0972923e9e246c6ee00082b0b4f55156e423a64736f6c634300081c0033f0c57e16840df040f15088dc2f81fe391c3923bec73e23a9662efc9c229c6a00","linkReferences":{}},"methodIdentifiers":{"UPGRADE_INTERFACE_VERSION()":"ad3cb1cc","allowedRoyaltyCollections(address)":"bb4ed3eb","craft(uint256,address,uint256)":"6ebc5a1d","craftBatch(uint256,uint256,address,uint256)":"0afca728","createRecipe((uint8,address,uint256,address,uint256,uint256,bytes,uint64,uint16,uint16,address,string))":"f13f8905","defaultInputErc20()":"2a101ea2","defaultInputToken()":"8155db7b","defaultRoyaltyCollection()":"cf4c6eab","destroy(uint256)":"9d118770","feeRouter()":"f29ebf61","feeToken()":"647846a5","forgeName(address)":"2ab0f838","getGlobalStats()":"6b4169c3","getPosition(uint256)":"eb02c301","getRecipe(uint256)":"f8d12a41","getRecipeStats(uint256)":"dd135e91","getUpgrader()":"e4d7437b","initialize(address,address,address,address,uint256)":"f7013ef6","isAdmin(address)":"24d7806c","maxBatchSize()":"2913daa0","nextRecipeId()":"e821cc72","owner()":"8da5cb5b","positionRoyaltySeat(uint256)":"21fc01f1","positionTokenURI(uint256)":"c927ca0d","positions(uint256)":"99fbab88","positionsToken()":"634ad1b6","proxiableUUID()":"52d1902d","recipes(uint256)":"443c227c","renounceOwnership()":"715018a6","royaltyReceiverForPosition(uint256)":"39a54b25","setAdmin(address,bool)":"4b0bddd2","setDefaultInputToken(address)":"034c942d","setDefaultRoyaltyCollection(address)":"a2db2cc3","setFeeRouter(address)":"c267ada4","setFeeToken(address)":"15cce224","setForgeName(string)":"910d122b","setMaxBatchSize(uint256)":"2b26a6bf","setPositionsToken(address)":"33f2583f","setRoyaltyCollection(address,bool)":"314d730d","setUpgrader(address)":"1b878f71","totalInputByRecipe(uint256)":"204f8fb5","totalInputLocked()":"3bc17e41","totalPositionsByRecipe(uint256)":"d82a5ea4","transferOwnership(address)":"f2fde38b","updateRecipe(uint256,(uint8,address,uint256,address,uint256,uint256,bytes,uint64,uint16,uint16,address,string))":"1144d5d4","upgradeToAndCall(address,bytes)":"4f1ef286","userActivePositions(address)":"9b1cfd56"},"id":1}