{"abi":[{"type":"constructor","inputs":[],"stateMutability":"nonpayable"},{"type":"function","name":"UPGRADE_INTERFACE_VERSION","inputs":[],"outputs":[{"name":"","type":"string","internalType":"string"}],"stateMutability":"view"},{"type":"function","name":"allowedRoyaltyCollections","inputs":[{"name":"","type":"address","internalType":"address"}],"outputs":[{"name":"","type":"bool","internalType":"bool"}],"stateMutability":"view"},{"type":"function","name":"craft","inputs":[{"name":"recipeId","type":"uint256","internalType":"uint256"},{"name":"seatCollection","type":"address","internalType":"address"},{"name":"seatTokenId","type":"uint256","internalType":"uint256"}],"outputs":[{"name":"positionId","type":"uint256","internalType":"uint256"}],"stateMutability":"nonpayable"},{"type":"function","name":"craftBatch","inputs":[{"name":"recipeId","type":"uint256","internalType":"uint256"},{"name":"count","type":"uint256","internalType":"uint256"},{"name":"seatCollection","type":"address","internalType":"address"},{"name":"seatTokenId","type":"uint256","internalType":"uint256"}],"outputs":[{"name":"positionIds","type":"uint256[]","internalType":"uint256[]"}],"stateMutability":"nonpayable"},{"type":"function","name":"createRecipe","inputs":[{"name":"cfg","type":"tuple","internalType":"struct MasterForgeV1.RecipeConfig","components":[{"name":"itemClass","type":"uint8","internalType":"enum MasterForgeV1Storage.ItemClass"},{"name":"inputToken","type":"address","internalType":"address"},{"name":"inputPerUnit","type":"uint256","internalType":"uint256"},{"name":"coalToken1155","type":"address","internalType":"address"},{"name":"coalTokenId","type":"uint256","internalType":"uint256"},{"name":"coalPerUnit","type":"uint256","internalType":"uint256"},{"name":"imageData","type":"bytes","internalType":"bytes"},{"name":"lockDuration","type":"uint64","internalType":"uint64"},{"name":"craftFeeBps","type":"uint16","internalType":"uint16"},{"name":"destroyFeeBps","type":"uint16","internalType":"uint16"},{"name":"feeRecipient","type":"address","internalType":"address"},{"name":"uri","type":"string","internalType":"string"}]}],"outputs":[{"name":"recipeId","type":"uint256","internalType":"uint256"}],"stateMutability":"nonpayable"},{"type":"function","name":"defaultInputErc20","inputs":[],"outputs":[{"name":"","type":"address","internalType":"contract IERC20"}],"stateMutability":"view"},{"type":"function","name":"defaultInputToken","inputs":[],"outputs":[{"name":"","type":"address","internalType":"address"}],"stateMutability":"view"},{"type":"function","name":"defaultRoyaltyCollection","inputs":[],"outputs":[{"name":"","type":"address","internalType":"address"}],"stateMutability":"view"},{"type":"function","name":"destroy","inputs":[{"name":"positionId","type":"uint256","internalType":"uint256"}],"outputs":[],"stateMutability":"nonpayable"},{"type":"function","name":"feeRouter","inputs":[],"outputs":[{"name":"","type":"address","internalType":"address"}],"stateMutability":"view"},{"type":"function","name":"feeToken","inputs":[],"outputs":[{"name":"","type":"address","internalType":"address"}],"stateMutability":"view"},{"type":"function","name":"forgeName","inputs":[{"name":"","type":"address","internalType":"address"}],"outputs":[{"name":"","type":"string","internalType":"string"}],"stateMutability":"view"},{"type":"function","name":"getGlobalStats","inputs":[],"outputs":[{"name":"_totalInputLocked","type":"uint256","internalType":"uint256"},{"name":"_nextRecipeId","type":"uint256","internalType":"uint256"}],"stateMutability":"view"},{"type":"function","name":"getPosition","inputs":[{"name":"positionId","type":"uint256","internalType":"uint256"}],"outputs":[{"name":"","type":"tuple","internalType":"struct MasterForgeV1Storage.Position","components":[{"name":"recipeId","type":"uint256","internalType":"uint256"},{"name":"createdAt","type":"uint64","internalType":"uint64"},{"name":"unlockAt","type":"uint64","internalType":"uint64"},{"name":"inputAmountLocked","type":"uint256","internalType":"uint256"},{"name":"owner","type":"address","internalType":"address"}]}],"stateMutability":"view"},{"type":"function","name":"getRecipe","inputs":[{"name":"recipeId","type":"uint256","internalType":"uint256"}],"outputs":[{"name":"","type":"tuple","internalType":"struct MasterForgeV1Storage.Recipe","components":[{"name":"active","type":"bool","internalType":"bool"},{"name":"itemClass","type":"uint8","internalType":"enum MasterForgeV1Storage.ItemClass"},{"name":"inputToken","type":"address","internalType":"address"},{"name":"inputPerUnit","type":"uint256","internalType":"uint256"},{"name":"coalToken1155","type":"address","internalType":"address"},{"name":"coalTokenId","type":"uint256","internalType":"uint256"},{"name":"coalPerUnit","type":"uint256","internalType":"uint256"},{"name":"imagePointer","type":"address","internalType":"address"},{"name":"imageHash","type":"bytes32","internalType":"bytes32"},{"name":"lockDuration","type":"uint64","internalType":"uint64"},{"name":"craftFeeBps","type":"uint16","internalType":"uint16"},{"name":"destroyFeeBps","type":"uint16","internalType":"uint16"},{"name":"feeRecipient","type":"address","internalType":"address"},{"name":"forgeCreator","type":"address","internalType":"address"},{"name":"uri","type":"string","internalType":"string"}]}],"stateMutability":"view"},{"type":"function","name":"getRecipeStats","inputs":[{"name":"recipeId","type":"uint256","internalType":"uint256"}],"outputs":[{"name":"totalInput","type":"uint256","internalType":"uint256"},{"name":"totalPositions","type":"uint256","internalType":"uint256"}],"stateMutability":"view"},{"type":"function","name":"getUpgrader","inputs":[],"outputs":[{"name":"","type":"address","internalType":"address"}],"stateMutability":"view"},{"type":"function","name":"initialize","inputs":[{"name":"defaultInputToken_","type":"address","internalType":"address"},{"name":"feeToken_","type":"address","internalType":"address"},{"name":"feeRouter_","type":"address","internalType":"address"},{"name":"positionsToken_","type":"address","internalType":"address"},{"name":"maxBatchSize_","type":"uint256","internalType":"uint256"}],"outputs":[],"stateMutability":"nonpayable"},{"type":"function","name":"isAdmin","inputs":[{"name":"account","type":"address","internalType":"address"}],"outputs":[{"name":"","type":"bool","internalType":"bool"}],"stateMutability":"view"},{"type":"function","name":"maxBatchSize","inputs":[],"outputs":[{"name":"","type":"uint256","internalType":"uint256"}],"stateMutability":"view"},{"type":"function","name":"nextRecipeId","inputs":[],"outputs":[{"name":"","type":"uint256","internalType":"uint256"}],"stateMutability":"view"},{"type":"function","name":"owner","inputs":[],"outputs":[{"name":"","type":"address","internalType":"address"}],"stateMutability":"view"},{"type":"function","name":"positionRoyaltySeat","inputs":[{"name":"","type":"uint256","internalType":"uint256"}],"outputs":[{"name":"collection","type":"address","internalType":"address"},{"name":"tokenId","type":"uint256","internalType":"uint256"}],"stateMutability":"view"},{"type":"function","name":"positionTokenURI","inputs":[{"name":"positionId","type":"uint256","internalType":"uint256"}],"outputs":[{"name":"","type":"string","internalType":"string"}],"stateMutability":"view"},{"type":"function","name":"positions","inputs":[{"name":"","type":"uint256","internalType":"uint256"}],"outputs":[{"name":"recipeId","type":"uint256","internalType":"uint256"},{"name":"createdAt","type":"uint64","internalType":"uint64"},{"name":"unlockAt","type":"uint64","internalType":"uint64"},{"name":"inputAmountLocked","type":"uint256","internalType":"uint256"},{"name":"owner","type":"address","internalType":"address"}],"stateMutability":"view"},{"type":"function","name":"positionsToken","inputs":[],"outputs":[{"name":"","type":"address","internalType":"address"}],"stateMutability":"view"},{"type":"function","name":"proxiableUUID","inputs":[],"outputs":[{"name":"","type":"bytes32","internalType":"bytes32"}],"stateMutability":"view"},{"type":"function","name":"recipes","inputs":[{"name":"","type":"uint256","internalType":"uint256"}],"outputs":[{"name":"active","type":"bool","internalType":"bool"},{"name":"itemClass","type":"uint8","internalType":"enum MasterForgeV1Storage.ItemClass"},{"name":"inputToken","type":"address","internalType":"address"},{"name":"inputPerUnit","type":"uint256","internalType":"uint256"},{"name":"coalToken1155","type":"address","internalType":"address"},{"name":"coalTokenId","type":"uint256","internalType":"uint256"},{"name":"coalPerUnit","type":"uint256","internalType":"uint256"},{"name":"imagePointer","type":"address","internalType":"address"},{"name":"imageHash","type":"bytes32","internalType":"bytes32"},{"name":"lockDuration","type":"uint64","internalType":"uint64"},{"name":"craftFeeBps","type":"uint16","internalType":"uint16"},{"name":"destroyFeeBps","type":"uint16","internalType":"uint16"},{"name":"feeRecipient","type":"address","internalType":"address"},{"name":"forgeCreator","type":"address","internalType":"address"},{"name":"uri","type":"string","internalType":"string"}],"stateMutability":"view"},{"type":"function","name":"renounceOwnership","inputs":[],"outputs":[],"stateMutability":"nonpayable"},{"type":"function","name":"royaltyReceiverForPosition","inputs":[{"name":"positionId","type":"uint256","internalType":"uint256"}],"outputs":[{"name":"","type":"address","internalType":"address"}],"stateMutability":"view"},{"type":"function","name":"setAdmin","inputs":[{"name":"admin","type":"address","internalType":"address"},{"name":"enabled","type":"bool","internalType":"bool"}],"outputs":[],"stateMutability":"nonpayable"},{"type":"function","name":"setDefaultInputToken","inputs":[{"name":"token","type":"address","internalType":"address"}],"outputs":[],"stateMutability":"nonpayable"},{"type":"function","name":"setDefaultRoyaltyCollection","inputs":[{"name":"collection","type":"address","internalType":"address"}],"outputs":[],"stateMutability":"nonpayable"},{"type":"function","name":"setFeeRouter","inputs":[{"name":"router","type":"address","internalType":"address"}],"outputs":[],"stateMutability":"nonpayable"},{"type":"function","name":"setFeeToken","inputs":[{"name":"token","type":"address","internalType":"address"}],"outputs":[],"stateMutability":"nonpayable"},{"type":"function","name":"setForgeName","inputs":[{"name":"name","type":"string","internalType":"string"}],"outputs":[],"stateMutability":"nonpayable"},{"type":"function","name":"setMaxBatchSize","inputs":[{"name":"newMax","type":"uint256","internalType":"uint256"}],"outputs":[],"stateMutability":"nonpayable"},{"type":"function","name":"setPositionsToken","inputs":[{"name":"token","type":"address","internalType":"address"}],"outputs":[],"stateMutability":"nonpayable"},{"type":"function","name":"setRoyaltyCollection","inputs":[{"name":"collection","type":"address","internalType":"address"},{"name":"allowed","type":"bool","internalType":"bool"}],"outputs":[],"stateMutability":"nonpayable"},{"type":"function","name":"setUpgrader","inputs":[{"name":"newUpgrader","type":"address","internalType":"address"}],"outputs":[],"stateMutability":"nonpayable"},{"type":"function","name":"totalInputByRecipe","inputs":[{"name":"","type":"uint256","internalType":"uint256"}],"outputs":[{"name":"","type":"uint256","internalType":"uint256"}],"stateMutability":"view"},{"type":"function","name":"totalInputLocked","inputs":[],"outputs":[{"name":"","type":"uint256","internalType":"uint256"}],"stateMutability":"view"},{"type":"function","name":"totalPositionsByRecipe","inputs":[{"name":"","type":"uint256","internalType":"uint256"}],"outputs":[{"name":"","type":"uint256","internalType":"uint256"}],"stateMutability":"view"},{"type":"function","name":"transferOwnership","inputs":[{"name":"newOwner","type":"address","internalType":"address"}],"outputs":[],"stateMutability":"nonpayable"},{"type":"function","name":"updateRecipe","inputs":[{"name":"recipeId","type":"uint256","internalType":"uint256"},{"name":"cfg","type":"tuple","internalType":"struct MasterForgeV1.RecipeConfig","components":[{"name":"itemClass","type":"uint8","internalType":"enum MasterForgeV1Storage.ItemClass"},{"name":"inputToken","type":"address","internalType":"address"},{"name":"inputPerUnit","type":"uint256","internalType":"uint256"},{"name":"coalToken1155","type":"address","internalType":"address"},{"name":"coalTokenId","type":"uint256","internalType":"uint256"},{"name":"coalPerUnit","type":"uint256","internalType":"uint256"},{"name":"imageData","type":"bytes","internalType":"bytes"},{"name":"lockDuration","type":"uint64","internalType":"uint64"},{"name":"craftFeeBps","type":"uint16","internalType":"uint16"},{"name":"destroyFeeBps","type":"uint16","internalType":"uint16"},{"name":"feeRecipient","type":"address","internalType":"address"},{"name":"uri","type":"string","internalType":"string"}]}],"outputs":[],"stateMutability":"nonpayable"},{"type":"function","name":"upgradeToAndCall","inputs":[{"name":"newImplementation","type":"address","internalType":"address"},{"name":"data","type":"bytes","internalType":"bytes"}],"outputs":[],"stateMutability":"payable"},{"type":"function","name":"userActivePositions","inputs":[{"name":"","type":"address","internalType":"address"}],"outputs":[{"name":"","type":"uint256","internalType":"uint256"}],"stateMutability":"view"},{"type":"event","name":"Crafted","inputs":[{"name":"user","type":"address","indexed":true,"internalType":"address"},{"name":"positionId","type":"uint256","indexed":true,"internalType":"uint256"},{"name":"recipeId","type":"uint256","indexed":true,"internalType":"uint256"},{"name":"inputAmount","type":"uint256","indexed":false,"internalType":"uint256"},{"name":"unlockAt","type":"uint64","indexed":false,"internalType":"uint64"}],"anonymous":false},{"type":"event","name":"CraftedBatch","inputs":[{"name":"user","type":"address","indexed":true,"internalType":"address"},{"name":"recipeId","type":"uint256","indexed":true,"internalType":"uint256"},{"name":"positionIds","type":"uint256[]","indexed":false,"internalType":"uint256[]"},{"name":"totalInputAmount","type":"uint256","indexed":false,"internalType":"uint256"}],"anonymous":false},{"type":"event","name":"Destroyed","inputs":[{"name":"user","type":"address","indexed":true,"internalType":"address"},{"name":"positionId","type":"uint256","indexed":true,"internalType":"uint256"},{"name":"recipeId","type":"uint256","indexed":true,"internalType":"uint256"},{"name":"amountReturned","type":"uint256","indexed":false,"internalType":"uint256"},{"name":"feeTaken","type":"uint256","indexed":false,"internalType":"uint256"}],"anonymous":false},{"type":"event","name":"ForgeNameUpdated","inputs":[{"name":"forge","type":"address","indexed":true,"internalType":"address"},{"name":"name","type":"string","indexed":false,"internalType":"string"}],"anonymous":false},{"type":"event","name":"Initialized","inputs":[{"name":"version","type":"uint64","indexed":false,"internalType":"uint64"}],"anonymous":false},{"type":"event","name":"OwnershipTransferred","inputs":[{"name":"previousOwner","type":"address","indexed":true,"internalType":"address"},{"name":"newOwner","type":"address","indexed":true,"internalType":"address"}],"anonymous":false},{"type":"event","name":"RecipeCreated","inputs":[{"name":"recipeId","type":"uint256","indexed":true,"internalType":"uint256"},{"name":"creator","type":"address","indexed":true,"internalType":"address"},{"name":"itemClass","type":"uint8","indexed":false,"internalType":"uint8"}],"anonymous":false},{"type":"event","name":"RecipeUpdated","inputs":[{"name":"recipeId","type":"uint256","indexed":true,"internalType":"uint256"}],"anonymous":false},{"type":"event","name":"Upgraded","inputs":[{"name":"implementation","type":"address","indexed":true,"internalType":"address"}],"anonymous":false},{"type":"error","name":"AddressEmptyCode","inputs":[{"name":"target","type":"address","internalType":"address"}]},{"type":"error","name":"BatchTooLarge","inputs":[]},{"type":"error","name":"DeploymentFailed","inputs":[]},{"type":"error","name":"ERC1967InvalidImplementation","inputs":[{"name":"implementation","type":"address","internalType":"address"}]},{"type":"error","name":"ERC1967NonPayable","inputs":[]},{"type":"error","name":"FailedCall","inputs":[]},{"type":"error","name":"InvalidAdminAddress","inputs":[]},{"type":"error","name":"InvalidFeeConfig","inputs":[]},{"type":"error","name":"InvalidForgeName","inputs":[]},{"type":"error","name":"InvalidInitialization","inputs":[]},{"type":"error","name":"InvalidInputAmount","inputs":[]},{"type":"error","name":"InvalidPosition","inputs":[]},{"type":"error","name":"InvalidRecipe","inputs":[]},{"type":"error","name":"LockNotExpired","inputs":[]},{"type":"error","name":"NotInitializing","inputs":[]},{"type":"error","name":"NotRoyaltySeatOwner","inputs":[]},{"type":"error","name":"OwnableInvalidOwner","inputs":[{"name":"owner","type":"address","internalType":"address"}]},{"type":"error","name":"OwnableUnauthorizedAccount","inputs":[{"name":"account","type":"address","internalType":"address"}]},{"type":"error","name":"RecipeNotActive","inputs":[]},{"type":"error","name":"ReentrancyGuardReentrantCall","inputs":[]},{"type":"error","name":"UUPSUnauthorizedCallContext","inputs":[]},{"type":"error","name":"UUPSUnsupportedProxiableUUID","inputs":[{"name":"slot","type":"bytes32","internalType":"bytes32"}]},{"type":"error","name":"UnauthorizedPositionOwner","inputs":[]},{"type":"error","name":"UnauthorizedUpgrader","inputs":[]},{"type":"error","name":"UnsupportedRoyaltyCollection","inputs":[]},{"type":"error","name":"UpgraderZeroAddress","inputs":[]}],"bytecode":{"object":"0x60a080604052346100e6573060805260017f9b779b17422d0df92223018b32b4d1fa46e071723d6817e2486d003becc55f00555f516020613e8c5f395f51905f525460ff8160401c166100d7576002600160401b03196001600160401b03821601610084575b604051613da190816100eb8239608051818181611fc5015261206a0152f35b6001600160401b0319166001600160401b039081175f516020613e8c5f395f51905f525581527fc7f505b2f371ae2175ee4913f4499e1f2633a7b5936321eed1cdaeb6115181d290602090a15f80610065565b63f92ee8a960e01b5f5260045ffd5b5f80fdfe60806040526004361015610011575f80fd5b5f5f3560e01c8063034c942d146133c55780630afca72814612cb65780631144d5d41461277657806315cce224146127095780631b878f711461268a578063204f8fb51461266057806321fc01f11461261c57806324d7806c146125ee5780632913daa0146125d05780632a101ea2146125a75780632ab0f838146125585780632b26a6bf14612503578063314d730d1461248f57806333f2583f1461242257806339a54b25146123f15780633bc17e41146123d3578063443c227c146122bd5780634b0bddd21461222b5780634f1ef2861461201957806352d1902d14611fb2578063634ad1b614611f89578063647846a514611f605780636b4169c314611f3b5780636ebc5a1d146118e8578063715018a61461187f5780638155db7b146118565780638da5cb5b14611821578063910d122b1461168057806399fbab88146116175780639b1cfd56146115de5780639d118770146111f2578063a2db2cc314611151578063ad3cb1cc14611108578063bb4ed3eb146110c9578063c267ada41461104d578063c927ca0d14610eca578063cf4c6eab14610ea1578063d82a5ea414610e77578063dd135e9114610e3b578063e4d7437b14610e14578063e821cc7214610df6578063eb02c30114610d31578063f13f890514610730578063f29ebf6114610707578063f2fde38b146106da578063f7013ef61461047f5763f8d12a411461021f575f80fd5b3461047c57602036600319011261047c5760405161023c81613509565b8181528160208201528160408201528160608201528160808201528160a08201528160c08201528160e08201528161010082015281610120820152816101408201528161016082015281610180820152816101a08201526101c001606090526004358152600360205260409020604051906102b682613509565b80549160ff83161515815260208101918360081c60ff166102d790846136e9565b6040820193600160a01b600190039060101c168452600181015460608301908152600160a01b60019003600283015416906080840191825260038301549160a0850192835260048401549260c08601938452600160a01b6001900360058601541660e0870190815260068601549061010088019182526007870154956101208901936001600160401b03881685526101408a01958860401c61ffff1687526101608b01978960501c61ffff1689526101808c019960601c8a52600160a01b6001900360088c0154169a6101a08d019b8c526009016103b490613590565b9b6101c081019c8d526040519e8f9e8f9260208452511515602084015251604083016103df91613683565b516001600160a01b03908116606090920191909152905160808e01529051811660a08d0152905160c08c0152905160e08b0152905181166101008a0152905161012089015290516001600160401b0316610140880152905161ffff9081166101608801529151909116610180860152905181166101a08501529051166101c0830152516101e08083015261047890610200830190613630565b0390f35b80fd5b503461047c5760a036600319011261047c5761049961345c565b6104a1613488565b6104a9613472565b6064356001600160a01b03811692908390036106d6575f516020613d4c5f395f51905f5254936001600160401b0360ff8660401c16159516801590816106ce575b60011490816106c4575b1590816106bb575b506106ac578460016001600160401b03195f516020613d4c5f395f51905f525416175f516020613d4c5f395f51905f5255610677575b61053a613c34565b610542613c34565b61054b33613a31565b6001600160a01b0316801561066857831561065957806001600160601b0360a01b600a541617600a556001600160601b0360a01b603754161760375560018060a01b03166001600160601b0360a01b600b541617600b5560018060a01b03166001600160601b0360a01b600c541617600c556001600160601b0360a01b600d541617600d55608435600e55336001600160601b0360a01b835416178255338252600160205260408220600160ff198254161790556106065780f35b60ff60401b195f516020613d4c5f395f51905f5254165f516020613d4c5f395f51905f52557fc7f505b2f371ae2175ee4913f4499e1f2633a7b5936321eed1cdaeb6115181d2602060405160018152a180f35b63673f032f60e11b8652600486fd5b63340dabef60e01b8652600486fd5b6801000000000000000060ff60401b195f516020613d4c5f395f51905f525416175f516020613d4c5f395f51905f5255610532565b63f92ee8a960e01b8652600486fd5b9050155f6104fc565b303b1591506104f4565b8691506104ea565b8480fd5b503461047c57602036600319011261047c576107046106f761345c565b6106ff613c01565b613a31565b80f35b503461047c578060031936011261047c57600c546040516001600160a01b039091168152602090f35b503461047c57602036600319011261047c576001600160401b036004351161047c5760043560040161018060031960043536030112610d2d5761077233613b18565b15610d1e576044600435013515610d0f57610104600435019061271061ffff61079a8461372a565b16118015610cf2575b610cc55760a46004350135151580610cd4575b610cc5576004356024016001600160a01b036107d182613716565b16610cb65750600a546001600160a01b0316925b6001600160a01b03841615610ca7578092819360c4600435016108088186613739565b9050610bf5575b50600254945f198614610be15760018601600255600585351015610bdd5761083b606460043501613716565b9261084a60e46004350161376b565b906108549061372a565b6108636101246004350161372a565b9161087361014460043501613716565b93610884610164600435018a613739565b969097604051809d61089582613509565b600182526108a78d35602084016136e9565b600160a01b600190031690604001528c600435604401359060600152600160a01b600190031660808d01526004356084013560a08d015260043560a4013560c08d0152600160a01b600190031660e08c01526101008b01526001600160401b03166101208a015261ffff1661014089015261ffff16610160880152600160a01b6001900316610180870152336101a08701523690610944926136a4565b6101c08501526001830181526003602052604081208451151561097390829060ff801983541691151516179055565b60208501516005811015610bc9578154604087810151610100600160b01b031990921660089390931b61ff00169290921760109190911b62010000600160b01b0316178255606080870151600184015560808701516002840180546001600160a01b03199081166001600160a01b039384161790915560a0890151600386015560c0890151600486015560e0890151600586018054909216921691909117905561010087015160068401556101208701516101408801516101608901516101808a015160509190911b61ffff60501b166001600160401b039093169190941b61ffff60401b1617176bffffffffffffffffffffffff199290911b919091161760078201556101c0906009906101a08701516008820180546001600160a01b0319166001600160a01b0392909216919091179055919095015180519095909101906001600160401b038111610bb557602095610ad882610ad285546134d1565b8561377f565b8690601f8311600114610b5457610b069291859183610b49575b50508160011b915f199060031b1c19161790565b90555b5060ff604051913516815233907fc2406d594e0bdf93ffb23fcfb3256dbb23d547682c1f8c56cfa6a9adb910750c846001850192a3600160405191018152f35b015190505f80610af2565b8385528185209190601f198416865b818110610b9e5750908460019594939210610b86575b505050811b019055610b09565b01515f1960f88460031b161c191690555f8080610b79565b92938a600181928786015181550195019301610b63565b634e487b7160e01b83526041600452602483fd5b634e487b7160e01b83526021600452602483fd5b8380fd5b634e487b7160e01b84526011600452602484fd5b945050610c0c610c058585613739565b36916136a4565b6020610c69602c83519360405193849181830196606160f81b885261ffff60f01b9060f01b1660218401526880600c6000396000f360b81b60238401528051918291018484015e810187838201520301601f19810183528261356f565b519083f06001600160a01b03811615610c9857610c05610c8a919585613739565b60208151910120935f61080f565b633011642560e01b8352600483fd5b63340dabef60e01b8152600490fd5b610cbf90613716565b926107e5565b632b00a33d60e11b8352600483fd5b506001600160a01b03610ceb600435606401613716565b16156107b6565b5061271061ffff610d086101246004350161372a565b16116107a3565b63340dabef60e01b8252600482fd5b63016ed19f60e21b8252600482fd5b5080fd5b503461047c57602036600319011261047c5760408160a09260808351610d5681613539565b828152826020820152828582015282606082015201526004358152600460205220604051610d8381613539565b8154918282526001600160401b0360018201548160208501818316815281604087019360401c16835260806002860154956060880196875260036001808c1b039101541696019586526040519687525116602086015251166040840152516060830152600180841b039051166080820152f35b503461047c578060031936011261047c576020600254604051908152f35b503461047c578060031936011261047c57546040516001600160a01b039091168152602090f35b503461047c57602036600319011261047c5760409081600435918281526007602052818120549281526008602052205482519182526020820152f35b503461047c57602036600319011261047c5760406020916004358152600883522054604051908152f35b503461047c578060031936011261047c576011546040516001600160a01b039091168152602090f35b503461047c57602036600319011261047c57600435815260046020526040812060405190610ef782613539565b8054825260018101546001600160401b038181166020850152604091821c169083015260028101546060830152600301546001600160a01b0316608082018190521561103e576040610478926101c092518152600360205220611025600960405192610f6284613509565b805460ff811615158552610f7f60ff8260081c16602087016136e9565b60101c6001600160a01b039081166040868101919091526001830154606080880191909152600284015483166080880152600384015460a0880152600484015460c08801526005840154831660e0880152600684015461010088015260078401546001600160401b0381166101208901529182901c61ffff908116610140890152605083901c166101608801521c6101808601526008820154166101a085015201613590565b9182910152604051918291602083526020830190613630565b63673f032f60e11b8252600482fd5b503461047c57602036600319011261047c5761106761345c565b5f516020613cec5f395f51905f52546001600160a01b0316331415806110b9575b6110aa5760018060a01b03166001600160601b0360a01b600c541617600c5580f35b636fd8ea8d60e11b8252600482fd5b506110c333613aa2565b15611088565b503461047c57602036600319011261047c5760209060ff906040906001600160a01b036110f461345c565b168152601084522054166040519015158152f35b503461047c578060031936011261047c575061047860405161112b60408261356f565b60058152640352e302e360dc1b6020820152604051918291602083526020830190613630565b503461047c57602036600319011261047c5761116b61345c565b5f516020613cec5f395f51905f52546001600160a01b0316331415806111e2575b6110aa576001600160a01b0316801515806111cb575b6111bc576001600160601b0360a01b601154161760115580f35b633a36651760e01b8252600482fd5b50808252601060205260ff604083205416156111a2565b506111ec33613aa2565b1561118c565b503461047c57602036600319011261047c5760043561120f613ac9565b8082526004602052604082209060405161122881613539565b8254815260018301546001600160401b038082166020840152604091821c169082019081526002840154606083019081526003909401546001600160a01b031660808301818152901561065957516001600160a01b031633036115cf57516001600160401b031642106115c0578051845260036020526040842090604051936112b085613509565b825460ff8116151586526112cd60ff8260081c16602088016136e9565b604086019060018060a01b039060101c1681526001840154606087015260018060a01b036002850154166080870152600384015460a0870152600484015460c087015260018060a01b0360058501541660e087015260068401546101008701526007840154956001600160401b03871661012082015261ffff8760401c166101408201526101c061138d600961016084019761ffff8b60501c16895261018085019a60601c8b5260018060a01b036008820154166101a086015201613590565b910152516001600160a01b0316806115ba5750600a546001600160a01b0316945b6001600160a01b0386169182156115ab5751600d5490969088906001600160a01b0316803b15610d2d5760405163206ac64960e21b8152336004820152602481018990529082908290604490829084905af180156115a057611587575b5086905260046020528760036040822082815582600182015582600282015501553388526006602052604088208054905f198201918211611573575561145387600554613a04565b6005558351885260076020526040882061146e888254613a04565b9055879661ffff8196511680611537575b505060405163a9059cbb60e01b815233600482015260248101869052926020925083915060449082908a905af1801561152c576114ff575b50519260405191825260208201527f45a95ca4774c5802ed943435ca09bb6dfbc9378f6b2e482d071d8cae8ae2315860403392a460015f516020613d2c5f395f51905f525580f35b6115209060203d602011611525575b611518818361356f565b8101906139d9565b6114b7565b503d61150e565b6040513d88823e3d90fd5b611559985061156a93965061154f61271091836139f1565b0497888092613a04565b95516001600160a01b031691613b55565b5f80808061147f565b634e487b7160e01b8a52601160045260248afd5b816115919161356f565b61159c57875f61140b565b8780fd5b6040513d84823e3d90fd5b63340dabef60e01b8852600488fd5b946113ae565b63342ad40160e11b8452600484fd5b630463b9b160e11b8552600485fd5b503461047c57602036600319011261047c576020906040906001600160a01b0361160661345c565b168152600683522054604051908152f35b503461047c57602036600319011261047c57604060a09160043581526004602052208054906001810154906001600160401b036002820154916003600180881b039101541692604051948552818116602086015260401c16604084015260608301526080820152f35b503461047c57602036600319011261047c57600435906001600160401b03821161047c573660238301121561047c5781600401356001600160401b038111610d2d573660248285010111610d2d57801561181257338252600960205260408220926116f5826116ef86546134d1565b8661377f565b8293601f831160011461178a57611745838086977f9f6e2f1e58ea1a1233a3baace51c54a5340ab45fb837f1881c76e0ccee42c0fc96979161177c575b508160011b915f199060031b1c19161790565b90555b826024604051926020845282602085015201604083013783604084830101526040813394601f80199101168101030190a280f35b60249150850101355f611732565b80845260208420601f19841695855b8781106117f75750847f9f6e2f1e58ea1a1233a3baace51c54a5340ab45fb837f1881c76e0ccee42c0fc959697106117db575b5050600184811b019055611748565b8301602401355f19600387901b60f8161c191690555f806117cc565b90916020600181926024868901013581550193019101611799565b63ee5b9f8960e01b8252600482fd5b503461047c578060031936011261047c575f516020613cec5f395f51905f52546040516001600160a01b039091168152602090f35b503461047c578060031936011261047c57600a546040516001600160a01b039091168152602090f35b503461047c578060031936011261047c57611898613c01565b5f516020613cec5f395f51905f5280546001600160a01b0319811690915581906001600160a01b03167f8be0079c531659141344cd1fd0a4f28419497f9722a3daafe3b4186f6b6457e08280a380f35b503461047c57606036600319011261047c57600435611905613488565b9160443591611912613ac9565b808252600360205260408220926040519061192c82613509565b84549060ff8216151583528160081c60ff16602084019061194c916136e9565b6040830191600160a01b600190039060101c16825260018601549160608401928352600160a01b6001900360028801541660808501908152600388015460a08601908152600489015460c08701908152600160a01b6001900360058b01541660e088015260068a015461010088015260078a01549a6101208801976001600160401b038d16895261014081019b8d60401c61ffff168d528d60501c61ffff166101608301526101808201809e60601c9052600160a01b600190036008820154166101a0830152600901611a1e90613590565b6101c08201525115611f2c57865115611f1d576001600160a01b03811615611f0b575b6001600160a01b0316958615159485611e6e575b516001600160a01b031680611e685750600a546001600160a01b0316905b6001600160a01b038216908115611e5957516040516323b872dd60e01b81523360048201523060248201526044810182905290916020908290818f816064810103925af18015611e4e57611e31575b5061ffff819c511680611df0575b50505088999a5097959697519182611d49575b505050611afd6001600160401b0380421696511686613a11565b600d54604051630dac2ec760e21b8152336004820152986020918a916024918391906001600160a01b03165af1978815611d3e578598611d06575b50600360405191611b4883613539565b88835260208084019889526001600160401b039182166040808601828152606087018f815233608089019081528f8d526004909552828c20975188559b5160018801805492516001600160801b03199093169190961617911b67ffffffffffffffff60401b1617909255975160028401559651910180546001600160a01b0319166001600160a01b0392909216919091179055611cb9575b5050611bee856005546136f5565b600555828152600760205260408120611c088682546136f5565b905582815260086020526040812080549060018201809211611ca5575533815260066020526040812080549160018301809311611c9157509160209591859355604051918252858201527f78fa14bbe463485c400695716c8977d8adacd35b76d5e6ef52f3a6f02e58e39e60403392a460015f516020613d2c5f395f51905f5255604051908152f35b634e487b7160e01b81526011600452602490fd5b634e487b7160e01b83526011600452602483fd5b60019060405192611cc984613554565b83526020808401918252878552600f905260408420925183546001600160a01b03191660a084901b84900391909116178355519101555f80611be0565b9097506020813d602011611d36575b81611d226020938361356f565b81010312611d325751965f611b38565b5f80fd5b3d9150611d15565b6040513d87823e3d90fd5b9091929394955060018060a01b039051169051813b15611dec57604051637921219560e11b815233600482015261dead60248201526044810191909152606481019290925260a060848301525f60a48301528790829060c490829084905af18015611de157908794939291611dc0575b8080611ae3565b84611dcf91959293949561356f565b611ddd57908592915f611db9565b8580fd5b6040513d89823e3d90fd5b8880fd5b8b9c5090611e14612710611e0c611e2595949d9e9c9d846139f1565b048092613a04565b9d516001600160a01b031691613b55565b8a999897965f80611ad0565b611e499060203d60201161152557611518818361356f565b611ac2565b6040513d8e823e3d90fd5b63340dabef60e01b8c5260048cfd5b90611a73565b878b52601060205260ff60408c20541615611efc576040516331a9108f60e11b8152600481018890526020816024818c5afa908115611e4e578c91611ecd575b506001600160a01b03163314611a5557635bddf40d60e11b8b5260048bfd5b611eef915060203d602011611ef5575b611ee7818361356f565b8101906137ce565b5f611eae565b503d611edd565b633a36651760e01b8b5260048bfd5b506011546001600160a01b0316611a41565b63340dabef60e01b8a5260048afd5b630d01809b60e21b8a5260048afd5b503461047c578060031936011261047c57604060055460025482519182526020820152f35b503461047c578060031936011261047c57600b546040516001600160a01b039091168152602090f35b503461047c578060031936011261047c57600d546040516001600160a01b039091168152602090f35b503461047c578060031936011261047c577f00000000000000000000000000000000000000000000000000000000000000006001600160a01b0316300361200a5760206040515f516020613d0c5f395f51905f528152f35b63703e46dd60e11b8152600490fd5b50604036600319011261047c5761202e61345c565b906024356001600160401b038111610d2d5736602382011215610d2d5761205f9036906024816004013591016136a4565b916001600160a01b037f000000000000000000000000000000000000000000000000000000000000000016308114908115612209575b506121fa575f516020613cec5f395f51905f52546001600160a01b0316331415806121ea575b6110aa576040516352d1902d60e01b8152926001600160a01b0382169190602085600481865afa809585966121b6575b5061210457634c9c8ce360e01b84526004839052602484fd5b9091845f516020613d0c5f395f51905f5281036121a45750823b15612192575f516020613d0c5f395f51905f5280546001600160a01b031916821790557fbc7cd75a20ee27fd9adebab32041f755214dbc6bffa90cc0225b39da2e5c2d3b8480a28051156121795761217591613c5f565b5080f35b5050346121835780f35b63b398979f60e01b8152600490fd5b634c9c8ce360e01b8452600452602483fd5b632a87526960e21b8552600452602484fd5b9095506020813d6020116121e2575b816121d26020938361356f565b810103126106d65751945f6120eb565b3d91506121c5565b506121f433613aa2565b156120bb565b63703e46dd60e11b8252600482fd5b5f516020613d0c5f395f51905f52546001600160a01b0316141590505f612095565b503461047c5761223a36613654565b9060018060a01b035f516020613cec5f395f51905f525416331415806122ad575b61229e576001600160a01b0316801561228f57906107049183526001602052604083209060ff801983541691151516179055565b63016ed19f60e21b8352600483fd5b636fd8ea8d60e11b8352600483fd5b506122b733613aa2565b1561225b565b503461047c57602036600319011261047c576040906004358152600360205220805461047860018301549260018060a01b03600282015416906003810154600482015460018060a01b03600584015416600684015491600785015493612332600960018060a01b036008890154169701613590565b966040519a8a60ff8d9c1615158c5261235460208d0160ff8360081c16613683565b60018060a01b039060101c1660408c015260608b015260808a015260a089015260c088015260e08701526101008601526001600160401b03811661012086015261ffff8160401c1661014086015261ffff8160501c1661016086015260601c6101808501526101a08401526101e06101c08401526101e0830190613630565b503461047c578060031936011261047c576020600554604051908152f35b503461047c57602036600319011261047c5760206124106004356137ed565b6040516001600160a01b039091168152f35b503461047c57602036600319011261047c5761243c61345c565b5f516020613cec5f395f51905f52546001600160a01b03163314158061247f575b6110aa5760018060a01b03166001600160601b0360a01b600d541617600d5580f35b5061248933613aa2565b1561245d565b503461047c5761249e36613654565b9060018060a01b035f516020613cec5f395f51905f525416331415806124f3575b61229e576001600160a01b0316801561228f57906107049183526010602052604083209060ff801983541691151516179055565b506124fd33613aa2565b156124bf565b503461047c57602036600319011261047c5760043560018060a01b035f516020613cec5f395f51905f52541633141580612548575b6110aa578015610d0f57600e5580f35b5061255233613aa2565b15612538565b503461047c57602036600319011261047c5761047890612593906040906001600160a01b0361258561345c565b168152600960205220613590565b604051918291602083526020830190613630565b503461047c578060031936011261047c576037546040516001600160a01b039091168152602090f35b503461047c578060031936011261047c576020600e54604051908152f35b503461047c57602036600319011261047c57602061261261260d61345c565b613b18565b6040519015158152f35b503461047c57602036600319011261047c576004358152600f6020908152604091829020805460019091015483516001600160a01b03909216825291810191909152f35b503461047c57602036600319011261047c5760406020916004358152600783522054604051908152f35b503461047c57602036600319011261047c576126a461345c565b5f516020613cec5f395f51905f52546001600160a01b0316331415806126f9575b6110aa576001600160a01b031680156126ea5781546001600160a01b03191617815580f35b634fef68cf60e01b8252600482fd5b5061270333613aa2565b156126c5565b503461047c57602036600319011261047c5761272361345c565b5f516020613cec5f395f51905f52546001600160a01b031633141580612766575b6110aa5760018060a01b03166001600160601b0360a01b600b541617600b5580f35b5061277033613aa2565b15612744565b503461047c57604036600319011261047c57602435906004356001600160401b038311610d2d57826004016101806003198536030112612cb2576127b933613b18565b1561228f5781158015612ca7575b612c985781835260036020526040832093845460ff811615612c8957602482016001600160a01b036127f882613716565b16612c7a5750601081901c6001600160a01b0316905b600187015460448401351491821592612c5e575b508115612c25575b508015612bff575b8015612bed575b8015612bdb575b612bcc57610104810161271061ffff6128588361372a565b16118015612bb1575b612ba257600586018054879291906001600160a01b0316612b485760c484019061288b8287613739565b9050612a60575b505061295e92612957600995936128f96128d8610164955b6001600160401b0360076128c060e4890161376b565b950194166001600160401b031985541617845561372a565b825469ffff0000000000000000191660409190911b61ffff60401b16178255565b612925612909610124850161372a565b825461ffff60501b191660509190911b61ffff60501b16178255565b6129326101448401613716565b81546001600160601b031660609190911b6bffffffffffffffffffffffff1916179055565b0190613739565b91909401906001600160401b038111612a4c576129858161297f84546134d1565b8461377f565b83601f82116001146129e957819085966129b4949596926129de5750508160011b915f199060031b1c19161790565b90555b7f867d05df8640c6f9d1ecd5fa526b051f771859ca5824838bddc58abd6ad076648280a280f35b013590505f80610af2565b601f198216958386526020862091865b888110612a3457508360019596979810612a1b575b505050811b0190556129b7565b01355f19600384901b60f8161c191690555f8080612a0e565b909260206001819286860135815501940191016129f9565b634e487b7160e01b84526041600452602484fd5b90919250612a71610c058387613739565b6020612ace602c83519360405193849181830196606160f81b885261ffff60f01b9060f01b1660218401526880600c6000396000f360b81b60238401528051918291018484015e81018c838201520301601f19810183528261356f565b519088f06001600160a01b03811615612b3957886128f96128d860099896612b1e610c056101649861295e9b986129579860018060a01b03166001600160601b0360a01b8254161790558a613739565b60208151910120600685015595505050939550819450612892565b633011642560e01b8852600488fd5b5060c48301612b578186613739565b9050612b79575b5061295e92612957600995936128f96128d8610164956128aa565b612b89919250610c059085613739565b60208151910120600687015403612ba25785905f612b5e565b632b00a33d60e11b8552600485fd5b5061271061ffff612bc5610124850161372a565b1611612861565b632b00a33d60e11b8452600484fd5b50600485015460a48201351415612840565b50600385015460848201351415612839565b50612c0c60648201613716565b60028601546001600160a01b0391821691161415612832565b833591506005821015611ddd5760081c60ff16906005821015612c4a5714155f61282a565b634e487b7160e01b86526021600452602486fd5b601082901c6001600160a01b039081169116141591505f612822565b612c8390613716565b9061280e565b630d01809b60e21b8552600485fd5b631edddbd360e21b8352600483fd5b5060025482116127c7565b8280fd5b5034611d32576080366003190112611d3257602435600435612cd6613472565b60643592612ce2613ac9565b80158080156133ba575b6133ab57835f52600360205260405f209260405195612d0a87613509565b84549660ff881615158152612d2860ff8960081c16602083016136e9565b604081019760018060a01b039060101c1688526001860154926060820193845260018060a01b036002880154166080830190815260038801549160a0840192835260048901549060c0850191825260018060a01b0360058b01541660e086015260068a015461010086015260078a0154906101208601956001600160401b0383168752612df3600961014083019d8e61ffff8760401c16905261ffff8660501c1661016085015261018084019560601c865260018060a01b036008820154166101a085015201613590565b6101c0820152511561339c578751156132f5576001600160a01b03811661339757506011546001600160a01b03165b6001600160a01b03168015159c9097908d61330a575b516001600160a01b0316806133045750600a546001600160a01b0316905b6001600160a01b0382169081156132f5578b612e7291516139f1565b6040516323b872dd60e01b8152336004820152306024820152604481018290529091602090829060649082905f905af18015613299576132d8575b5061ffff819c5116806132a4575b505050508790519182613205575b505050506001600160401b03905116926131f1578385049685612eec868a6139f1565b036131be57612f056001600160401b0342169485613a11565b612f0e86613b01565b98612f1c6040519a8b61356f565b868a52601f19612f2b88613b01565b013660208c01376001600160401b038b9216915b87811061300e5750505050505050612fa6604061047896612f62856005546136f5565b6005558581526007602052818120612f7b8682546136f5565b90558581526008602052818120612f938582546136f5565b90553381526006602052209182546136f5565b90557f869fe5676a67bfff8290a6511f86c144b06140f233b2a42c7c62c4a785a11c3760405160408152612fdd604082018661349e565b9260208201528033930390a360015f516020613d2c5f395f51905f525560405191829160208352602083019061349e565b600d54604051630dac2ec760e21b8152336004820152908d906020908390602490829085906001600160a01b03165af19182156131b157818d91889394613179575b506003906040519261306184613539565b835260208084018d815260408086018b8152606087018b815233608089019081528a875260049095529482902096518755915160018701805493516001600160801b03199094166001600160401b0392909216919091179290911b67ffffffffffffffff60401b169190911790559051600284015551910180546001600160a01b0319166001600160a01b039290921691909117905561312c575b8b5182101561311857600582901b8c0160200152600101612f3f565b634e487b7160e01b8d52603260045260248dfd5b60405160018e61313b83613554565b89835260208084018a8152858352600f9091526040909120925183546001600160a01b03191660a084901b84900391909116178355519101556130fc565b93505050506020813d82116131a9575b816131966020938361356f565b81010312611d325751848b8e6003613050565b3d9150613189565b50604051903d90823e3d90fd5b60405162461bcd60e51b815260206004820152600b60248201526a119bdc99d94e88191d5cdd60aa1b6044820152606490fd5b634e487b7160e01b88526012600452602488fd5b5192516001600160a01b03909316929161321f91906139f1565b823b15611d3257604051637921219560e11b815233600482015261dead60248201526044810192909252606482015260a060848201525f60a482018190529091829060c490829084905af180156132995761327d575b808681612ec9565b61328a9199505f9061356f565b5f976001600160401b03613275565b6040513d5f823e3d90fd5b8b94939c50906132be612710611e0c6132cf9594846139f1565b9c516001600160a01b031691613b55565b905f8080612ebb565b6132f09060203d60201161152557611518818361356f565b612ead565b63340dabef60e01b5f5260045ffd5b90612e56565b885f52601060205260ff60405f20541615613388576040516331a9108f60e11b8152600481018990526020816024818d5afa908115613299575f91613369575b506001600160a01b03163314612e3857635bddf40d60e11b5f5260045ffd5b613382915060203d602011611ef557611ee7818361356f565b5f61334a565b633a36651760e01b5f5260045ffd5b612e22565b630d01809b60e21b5f5260045ffd5b6305beb17160e11b5f5260045ffd5b50600e548211612cec565b34611d32576020366003190112611d32576133de61345c565b5f516020613cec5f395f51905f52546001600160a01b03163314158061344c575b61343d576001600160a01b031680156132f557806001600160601b0360a01b600a541617600a556001600160601b0360a01b60375416176037555f80f35b636fd8ea8d60e11b5f5260045ffd5b5061345633613aa2565b156133ff565b600435906001600160a01b0382168203611d3257565b604435906001600160a01b0382168203611d3257565b602435906001600160a01b0382168203611d3257565b90602080835192838152019201905f5b8181106134bb5750505090565b82518452602093840193909201916001016134ae565b90600182811c921680156134ff575b60208310146134eb57565b634e487b7160e01b5f52602260045260245ffd5b91607f16916134e0565b6101e081019081106001600160401b0382111761352557604052565b634e487b7160e01b5f52604160045260245ffd5b60a081019081106001600160401b0382111761352557604052565b604081019081106001600160401b0382111761352557604052565b90601f801991011681019081106001600160401b0382111761352557604052565b9060405191825f8254926135a3846134d1565b808452936001811690811561360e57506001146135ca575b506135c89250038361356f565b565b90505f9291925260205f20905f915b8183106135f25750509060206135c8928201015f6135bb565b60209193508060019154838589010152019101909184926135d9565b9050602092506135c894915060ff191682840152151560051b8201015f6135bb565b805180835260209291819084018484015e5f828201840152601f01601f1916010190565b6040906003190112611d32576004356001600160a01b0381168103611d3257906024358015158103611d325790565b9060058210156136905752565b634e487b7160e01b5f52602160045260245ffd5b9291926001600160401b03821161352557604051916136cd601f8201601f19166020018461356f565b829481845281830111611d32578281602093845f960137010152565b60058210156136905752565b9190820180921161370257565b634e487b7160e01b5f52601160045260245ffd5b356001600160a01b0381168103611d325790565b3561ffff81168103611d325790565b903590601e1981360301821215611d3257018035906001600160401b038211611d3257602001918136038313611d3257565b356001600160401b0381168103611d325790565b601f821161378c57505050565b5f5260205f20906020601f840160051c830193106137c4575b601f0160051c01905b8181106137b9575050565b5f81556001016137ae565b90915081906137a5565b90816020910312611d3257516001600160a01b0381168103611d325790565b805f52600460205260405f20906040519161380783613539565b8054835260018101546001600160401b038181166020860152604091821c169084015260028101546060840152600301546001600160a01b031660808301819052156139ca575f52600f60205260405f20602060405161386681613554565b82546001600160a01b031680825260019093015491018190528161397e575050515f52600360205260405f2060405161389e81613509565b815460ff8116151582526138bb60ff8260081c16602084016136e9565b60101c6001600160a01b039081166040838101919091526001840154606080850191909152600285015483166080850152600385015460a0850152600485015460c08501526005850154831660e0850152600685015461010085015260078501546001600160401b0381166101208601529182901c61ffff908116610140860152605083901c166101608501521c6101808301526008830154166101a08201908152916101c09061396e90600901613590565b910152516001600160a01b031690565b60209192506024604051809481936331a9108f60e11b835260048301525afa908115613299575f916139ae575090565b6139c7915060203d602011611ef557611ee7818361356f565b90565b63673f032f60e11b5f5260045ffd5b90816020910312611d3257518015158103611d325790565b8181029291811591840414171561370257565b9190820391821161370257565b906001600160401b03809116911601906001600160401b03821161370257565b6001600160a01b03168015613a8f575f516020613cec5f395f51905f5280546001600160a01b0319811683179091556001600160a01b03167f8be0079c531659141344cd1fd0a4f28419497f9722a3daafe3b4186f6b6457e05f80a3565b631e4fbdf760e01b5f525f60045260245ffd5b6001600160a01b03168015159081613ab8575090565b5f546001600160a01b031614919050565b60025f516020613d2c5f395f51905f525414613af25760025f516020613d2c5f395f51905f5255565b633ee5aeb560e01b5f5260045ffd5b6001600160401b0381116135255760051b60200190565b5f516020613cec5f395f51905f52546001600160a01b0391821691168114908115613b41575090565b90505f52600160205260ff60405f20541690565b918115613bfc57600c546001600160a01b0316908115613bf45750905b6001600160a01b03821615613be55760405163a9059cbb60e01b81526001600160a01b0390921660048301526024820152906020908290815f816044810103926001600160a01b03165af1801561329957613bca5750565b613be29060203d60201161152557611518818361356f565b50565b632b00a33d60e11b5f5260045ffd5b905090613b72565b505050565b5f516020613cec5f395f51905f52546001600160a01b03163303613c2157565b63118cdaa760e01b5f523360045260245ffd5b60ff5f516020613d4c5f395f51905f525460401c1615613c5057565b631afcd79f60e31b5f5260045ffd5b905f8091602081519101845af48080613cd8575b15613c935750506040513d81523d5f602083013e60203d82010160405290565b15613cb857639996b31560e01b5f9081526001600160a01b0391909116600452602490fd5b3d15613cc9576040513d5f823e3d90fd5b63d6bda27560e01b5f5260045ffd5b503d151580613c735750813b1515613c7356fe9016d09d72d40fdae2fd8ceac6b6234c7706214fd39c1cd1e609a0528c199300360894a13ba1a3210667c828492db98dca3e2076cc3735a920a3ca505d382bbc9b779b17422d0df92223018b32b4d1fa46e071723d6817e2486d003becc55f00f0c57e16840df040f15088dc2f81fe391c3923bec73e23a9662efc9c229c6a00a26469706673582212204f300f75adf7e1bd6b1c82611a6905467111247c94a076e0b49613d16c4df27664736f6c634300081c0033f0c57e16840df040f15088dc2f81fe391c3923bec73e23a9662efc9c229c6a00","linkReferences":{}},"methodIdentifiers":{"UPGRADE_INTERFACE_VERSION()":"ad3cb1cc","allowedRoyaltyCollections(address)":"bb4ed3eb","craft(uint256,address,uint256)":"6ebc5a1d","craftBatch(uint256,uint256,address,uint256)":"0afca728","createRecipe((uint8,address,uint256,address,uint256,uint256,bytes,uint64,uint16,uint16,address,string))":"f13f8905","defaultInputErc20()":"2a101ea2","defaultInputToken()":"8155db7b","defaultRoyaltyCollection()":"cf4c6eab","destroy(uint256)":"9d118770","feeRouter()":"f29ebf61","feeToken()":"647846a5","forgeName(address)":"2ab0f838","getGlobalStats()":"6b4169c3","getPosition(uint256)":"eb02c301","getRecipe(uint256)":"f8d12a41","getRecipeStats(uint256)":"dd135e91","getUpgrader()":"e4d7437b","initialize(address,address,address,address,uint256)":"f7013ef6","isAdmin(address)":"24d7806c","maxBatchSize()":"2913daa0","nextRecipeId()":"e821cc72","owner()":"8da5cb5b","positionRoyaltySeat(uint256)":"21fc01f1","positionTokenURI(uint256)":"c927ca0d","positions(uint256)":"99fbab88","positionsToken()":"634ad1b6","proxiableUUID()":"52d1902d","recipes(uint256)":"443c227c","renounceOwnership()":"715018a6","royaltyReceiverForPosition(uint256)":"39a54b25","setAdmin(address,bool)":"4b0bddd2","setDefaultInputToken(address)":"034c942d","setDefaultRoyaltyCollection(address)":"a2db2cc3","setFeeRouter(address)":"c267ada4","setFeeToken(address)":"15cce224","setForgeName(string)":"910d122b","setMaxBatchSize(uint256)":"2b26a6bf","setPositionsToken(address)":"33f2583f","setRoyaltyCollection(address,bool)":"314d730d","setUpgrader(address)":"1b878f71","totalInputByRecipe(uint256)":"204f8fb5","totalInputLocked()":"3bc17e41","totalPositionsByRecipe(uint256)":"d82a5ea4","transferOwnership(address)":"f2fde38b","updateRecipe(uint256,(uint8,address,uint256,address,uint256,uint256,bytes,uint64,uint16,uint16,address,string))":"1144d5d4","upgradeToAndCall(address,bytes)":"4f1ef286","userActivePositions(address)":"9b1cfd56"},"id":1}