{"abi":[{"type":"constructor","inputs":[],"stateMutability":"nonpayable"},{"type":"function","name":"adminMint","inputs":[{"name":"to","type":"address","internalType":"address"},{"name":"id","type":"uint256","internalType":"uint256"},{"name":"amount","type":"uint256","internalType":"uint256"}],"outputs":[],"stateMutability":"nonpayable"},{"type":"function","name":"balanceOf","inputs":[{"name":"account","type":"address","internalType":"address"},{"name":"id","type":"uint256","internalType":"uint256"}],"outputs":[{"name":"","type":"uint256","internalType":"uint256"}],"stateMutability":"view"},{"type":"function","name":"balanceOfBatch","inputs":[{"name":"accounts","type":"address[]","internalType":"address[]"},{"name":"ids","type":"uint256[]","internalType":"uint256[]"}],"outputs":[{"name":"","type":"uint256[]","internalType":"uint256[]"}],"stateMutability":"view"},{"type":"function","name":"burnItem","inputs":[{"name":"from","type":"address","internalType":"address"},{"name":"itemId","type":"uint256","internalType":"uint256"},{"name":"amount","type":"uint256","internalType":"uint256"}],"outputs":[],"stateMutability":"nonpayable"},{"type":"function","name":"contractURI","inputs":[],"outputs":[{"name":"","type":"string","internalType":"string"}],"stateMutability":"view"},{"type":"function","name":"externalImageBaseURI","inputs":[],"outputs":[{"name":"","type":"string","internalType":"string"}],"stateMutability":"view"},{"type":"function","name":"getItemData","inputs":[{"name":"itemId","type":"uint256","internalType":"uint256"}],"outputs":[{"name":"template","type":"tuple","internalType":"struct ItemCatalog.ItemTemplate","components":[{"name":"rarity","type":"uint8","internalType":"uint8"},{"name":"primaryTrait","type":"uint8","internalType":"uint8"},{"name":"primaryDelta","type":"int16","internalType":"int16"},{"name":"secondaryTrait","type":"uint8","internalType":"uint8"},{"name":"secondaryDelta","type":"int16","internalType":"int16"},{"name":"imagePtr","type":"address","internalType":"address"},{"name":"name","type":"string","internalType":"string"},{"name":"description","type":"string","internalType":"string"}]}],"stateMutability":"view"},{"type":"function","name":"initialize","inputs":[{"name":"baseURI","type":"string","internalType":"string"},{"name":"_itemCatalog","type":"address","internalType":"address"}],"outputs":[],"stateMutability":"nonpayable"},{"type":"function","name":"isApprovedForAll","inputs":[{"name":"account","type":"address","internalType":"address"},{"name":"operator","type":"address","internalType":"address"}],"outputs":[{"name":"","type":"bool","internalType":"bool"}],"stateMutability":"view"},{"type":"function","name":"itemCatalog","inputs":[],"outputs":[{"name":"","type":"address","internalType":"address"}],"stateMutability":"view"},{"type":"function","name":"mintItem","inputs":[{"name":"to","type":"address","internalType":"address"},{"name":"itemId","type":"uint256","internalType":"uint256"},{"name":"amount","type":"uint256","internalType":"uint256"}],"outputs":[],"stateMutability":"nonpayable"},{"type":"function","name":"name","inputs":[],"outputs":[{"name":"","type":"string","internalType":"string"}],"stateMutability":"view"},{"type":"function","name":"owner","inputs":[],"outputs":[{"name":"","type":"address","internalType":"address"}],"stateMutability":"view"},{"type":"function","name":"renounceOwnership","inputs":[],"outputs":[],"stateMutability":"nonpayable"},{"type":"function","name":"safeBatchTransferFrom","inputs":[{"name":"from","type":"address","internalType":"address"},{"name":"to","type":"address","internalType":"address"},{"name":"ids","type":"uint256[]","internalType":"uint256[]"},{"name":"values","type":"uint256[]","internalType":"uint256[]"},{"name":"data","type":"bytes","internalType":"bytes"}],"outputs":[],"stateMutability":"nonpayable"},{"type":"function","name":"safeTransferFrom","inputs":[{"name":"from","type":"address","internalType":"address"},{"name":"to","type":"address","internalType":"address"},{"name":"id","type":"uint256","internalType":"uint256"},{"name":"value","type":"uint256","internalType":"uint256"},{"name":"data","type":"bytes","internalType":"bytes"}],"outputs":[],"stateMutability":"nonpayable"},{"type":"function","name":"setApprovalForAll","inputs":[{"name":"operator","type":"address","internalType":"address"},{"name":"approved","type":"bool","internalType":"bool"}],"outputs":[],"stateMutability":"nonpayable"},{"type":"function","name":"setContractURI","inputs":[{"name":"newContractURI","type":"string","internalType":"string"}],"outputs":[],"stateMutability":"nonpayable"},{"type":"function","name":"setExternalImageBaseURI","inputs":[{"name":"base","type":"string","internalType":"string"}],"outputs":[],"stateMutability":"nonpayable"},{"type":"function","name":"setName","inputs":[{"name":"newName","type":"string","internalType":"string"}],"outputs":[],"stateMutability":"nonpayable"},{"type":"function","name":"setStabilizer","inputs":[{"name":"_stabilizer","type":"address","internalType":"address"}],"outputs":[],"stateMutability":"nonpayable"},{"type":"function","name":"setSymbol","inputs":[{"name":"newSymbol","type":"string","internalType":"string"}],"outputs":[],"stateMutability":"nonpayable"},{"type":"function","name":"spYield","inputs":[{"name":"itemId","type":"uint256","internalType":"uint256"}],"outputs":[{"name":"","type":"uint8","internalType":"uint8"}],"stateMutability":"view"},{"type":"function","name":"stabilizer","inputs":[],"outputs":[{"name":"","type":"address","internalType":"address"}],"stateMutability":"view"},{"type":"function","name":"supportsInterface","inputs":[{"name":"interfaceId","type":"bytes4","internalType":"bytes4"}],"outputs":[{"name":"","type":"bool","internalType":"bool"}],"stateMutability":"view"},{"type":"function","name":"symbol","inputs":[],"outputs":[{"name":"","type":"string","internalType":"string"}],"stateMutability":"view"},{"type":"function","name":"transferOwnership","inputs":[{"name":"newOwner","type":"address","internalType":"address"}],"outputs":[],"stateMutability":"nonpayable"},{"type":"function","name":"uri","inputs":[{"name":"itemId","type":"uint256","internalType":"uint256"}],"outputs":[{"name":"","type":"string","internalType":"string"}],"stateMutability":"view"},{"type":"event","name":"ApprovalForAll","inputs":[{"name":"account","type":"address","indexed":true,"internalType":"address"},{"name":"operator","type":"address","indexed":true,"internalType":"address"},{"name":"approved","type":"bool","indexed":false,"internalType":"bool"}],"anonymous":false},{"type":"event","name":"Initialized","inputs":[{"name":"version","type":"uint64","indexed":false,"internalType":"uint64"}],"anonymous":false},{"type":"event","name":"OwnershipTransferred","inputs":[{"name":"previousOwner","type":"address","indexed":true,"internalType":"address"},{"name":"newOwner","type":"address","indexed":true,"internalType":"address"}],"anonymous":false},{"type":"event","name":"TransferBatch","inputs":[{"name":"operator","type":"address","indexed":true,"internalType":"address"},{"name":"from","type":"address","indexed":true,"internalType":"address"},{"name":"to","type":"address","indexed":true,"internalType":"address"},{"name":"ids","type":"uint256[]","indexed":false,"internalType":"uint256[]"},{"name":"values","type":"uint256[]","indexed":false,"internalType":"uint256[]"}],"anonymous":false},{"type":"event","name":"TransferSingle","inputs":[{"name":"operator","type":"address","indexed":true,"internalType":"address"},{"name":"from","type":"address","indexed":true,"internalType":"address"},{"name":"to","type":"address","indexed":true,"internalType":"address"},{"name":"id","type":"uint256","indexed":false,"internalType":"uint256"},{"name":"value","type":"uint256","indexed":false,"internalType":"uint256"}],"anonymous":false},{"type":"event","name":"URI","inputs":[{"name":"value","type":"string","indexed":false,"internalType":"string"},{"name":"id","type":"uint256","indexed":true,"internalType":"uint256"}],"anonymous":false},{"type":"error","name":"ERC1155InsufficientBalance","inputs":[{"name":"sender","type":"address","internalType":"address"},{"name":"balance","type":"uint256","internalType":"uint256"},{"name":"needed","type":"uint256","internalType":"uint256"},{"name":"tokenId","type":"uint256","internalType":"uint256"}]},{"type":"error","name":"ERC1155InvalidApprover","inputs":[{"name":"approver","type":"address","internalType":"address"}]},{"type":"error","name":"ERC1155InvalidArrayLength","inputs":[{"name":"idsLength","type":"uint256","internalType":"uint256"},{"name":"valuesLength","type":"uint256","internalType":"uint256"}]},{"type":"error","name":"ERC1155InvalidOperator","inputs":[{"name":"operator","type":"address","internalType":"address"}]},{"type":"error","name":"ERC1155InvalidReceiver","inputs":[{"name":"receiver","type":"address","internalType":"address"}]},{"type":"error","name":"ERC1155InvalidSender","inputs":[{"name":"sender","type":"address","internalType":"address"}]},{"type":"error","name":"ERC1155MissingApprovalForAll","inputs":[{"name":"operator","type":"address","internalType":"address"},{"name":"owner","type":"address","internalType":"address"}]},{"type":"error","name":"InvalidInitialization","inputs":[]},{"type":"error","name":"NotInitializing","inputs":[]},{"type":"error","name":"OwnableInvalidOwner","inputs":[{"name":"owner","type":"address","internalType":"address"}]},{"type":"error","name":"OwnableUnauthorizedAccount","inputs":[{"name":"account","type":"address","internalType":"address"}]}],"bytecode":{"object":"0x608060405234801562000010575f80fd5b506200001b62000021565b620000d5565b7ff0c57e16840df040f15088dc2f81fe391c3923bec73e23a9662efc9c229c6a00805468010000000000000000900460ff1615620000725760405163f92ee8a960e01b815260040160405180910390fd5b80546001600160401b0390811614620000d25780546001600160401b0319166001600160401b0390811782556040519081527fc7f505b2f371ae2175ee4913f4499e1f2633a7b5936321eed1cdaeb6115181d29060200160405180910390a15b50565b61329180620000e35f395ff3fe608060405234801561000f575f80fd5b50600436106101b9575f3560e01c80638bc6976e116100f3578063d258153511610093578063e8a3d4851161006e578063e8a3d485146103eb578063e985e9c5146103f3578063f242432a14610406578063f2fde38b14610419575f80fd5b8063d2581535146103b2578063db7f521a146103c5578063dec01c1c146103d8575f80fd5b806395d89b41116100ce57806395d89b4114610371578063a22cb46514610379578063b84c82461461038c578063c47f00271461039f575f80fd5b80638bc6976e1461030e5780638da5cb5b1461032e578063938e3d7b1461035e575f80fd5b80635f4c76961161015e5780636b39dd8b116101395780636b39dd8b146102d9578063715018a6146102e15780637ab4339d146102e95780637e47961c146102fc575f80fd5b80635f4c76961461027657806368f4af4d146102a1578063696a50b4146102c6575f80fd5b806306fdde031161019957806306fdde031461021b5780630e89341c146102305780632eb2c2d6146102435780634e1273f414610256575f80fd5b80624a84cb146101bd578062fdd58e146101d257806301ffc9a7146101f8575b5f80fd5b6101d06101cb366004612001565b61042c565b005b6101e56101e0366004612033565b610453565b6040519081526020015b60405180910390f35b61020b610206366004612072565b610488565b60405190151581526020016101ef565b6102236104d7565b6040516101ef91906120da565b61022361023e3660046120ec565b610567565b6101d0610251366004612278565b610b34565b61026961026436600461231e565b610ba0565b6040516101ef9190612413565b600154610289906001600160a01b031681565b6040516001600160a01b0390911681526020016101ef565b6102b46102af3660046120ec565b610c6a565b60405160ff90911681526020016101ef565b6101d06102d4366004612001565b610cf8565b610223610d51565b6101d0610ddd565b6101d06102f7366004612425565b610df0565b5f54610289906001600160a01b031681565b61032161031c3660046120ec565b61102c565b6040516101ef9190612486565b7f9016d09d72d40fdae2fd8ceac6b6234c7706214fd39c1cd1e609a0528c199300546001600160a01b0316610289565b6101d061036c36600461253a565b6110e0565b6102236110f5565b6101d06103873660046125a5565b611104565b6101d061039a36600461253a565b611113565b6101d06103ad36600461253a565b611128565b6101d06103c0366004612001565b61113d565b6101d06103d33660046125d5565b6111a1565b6101d06103e636600461253a565b6111ca565b6102236111df565b61020b6104013660046125f0565b611256565b6101d061041436600461261c565b6112a2565b6101d06104273660046125d5565b611301565b61043461133e565b61044e83838360405180602001604052805f815250611399565b505050565b5f8181525f8051602061323c833981519152602090815260408083206001600160a01b03861684529091529020545b92915050565b5f6001600160e01b03198216636cdb3d1360e11b14806104b857506001600160e01b031982166303a24d0760e21b145b8061048257506301ffc9a760e01b6001600160e01b0319831614610482565b6060600380546104e69061267f565b80601f01602080910402602001604051908101604052809291908181526020018280546105129061267f565b801561055d5780601f106105345761010080835404028352916020019161055d565b820191905f5260205f20905b81548152906001019060200180831161054057829003601f168201915b5050505050905090565b600154604051630c550f3d60e21b8152600481018390526060916001600160a01b0316905f9082906331543cf4906024015f60405180830381865afa1580156105b2573d5f803e3d5ffd5b505050506040513d5f823e601f3d908101601f191682016040526105d9919081019061272a565b805190915060609060ff1661060b575060408051808201909152600681526521b7b6b6b7b760d11b6020820152610687565b815160ff165f190161063c57506040805180820190915260088152672ab731b7b6b6b7b760c11b6020820152610687565b815160ff166001190161066a57506040805180820190915260048152635261726560e01b6020820152610687565b506040805180820190915260048152634570696360e01b60208201525b602082015160609060ff166106bb575060408051808201909152600881526753616c696e69747960c01b602082015261077b565b600160ff16836020015160ff16036106ec57506040805180820190915260028152610e0960f31b602082015261077b565b600260ff16836020015160ff1603610726575060408051808201909152600b81526a54656d706572617475726560a81b602082015261077b565b600360ff16836020015160ff160361075e57506040805180820190915260098152684672657175656e637960b81b602082015261077b565b506040805180820190915260048152634e6f6e6560e01b60208201525b60c083015160e08401516040515f9261079c92909182908790602001612836565b60408051601f19818403018152919052845190915060ff166003146109165780826107ca86604001516113f4565b6040516020016107dc93929190612985565b60408051601f198184030181529190526060858101519192509060ff16610822575060408051808201909152600881526753616c696e69747960c01b60208201526108e2565b600160ff16856060015160ff160361085357506040805180820190915260028152610e0960f31b60208201526108e2565b600260ff16856060015160ff160361088d575060408051808201909152600b81526a54656d706572617475726560a81b60208201526108e2565b600360ff16856060015160ff16036108c557506040805180820190915260098152684672657175656e637960b81b60208201526108e2565b506040805180820190915260048152634e6f6e6560e01b60208201525b81816108f187608001516113f4565b60405160200161090393929190612a60565b6040516020818303038152906040529150505b835160ff9081165f9081526002602052604090205482916109379116611445565b604051602001610948929190612b3f565b60405160208183030381529060405290508060405160200161096a9190612bb0565b60408051601f19818403018152602083019091525f825260a08601519092506001600160a01b031615610a2c5760a08501516040805163f867555160e01b81526001600160a01b03928316600482015260248101919091526009604482015268696d6167652f706e6760b81b60648201529087169063f8675551906084015f60405180830381865afa158015610a02573d5f803e3d5ffd5b505050506040513d5f823e601f3d908101601f19168201604052610a299190810190612bd4565b90505b60605f60068054610a3c9061267f565b9050118015610a4b57505f8251115b15610a82576006610a5b8a611549565b604051602001610a6c929190612c74565b6040516020818303038152906040529050610a8c565b815115610a8c5750805b815115610adc578281604051602001610aa6929190612ca7565b60405160208183030381529060405292508282604051602001610aca929190612cf9565b60405160208183030381529060405292505b82604051602001610aed9190612d50565b6040516020818303038152906040529250610b07836115d8565b604051602001610b179190612d74565b604051602081830303815290604052975050505050505050919050565b336001600160a01b0386168114801590610b555750610b538682611256565b155b15610b8b5760405163711bec9160e11b81526001600160a01b038083166004830152871660248201526044015b60405180910390fd5b610b9886868686866115e4565b505050505050565b60608151835114610bd15781518351604051635b05999160e01b815260048101929092526024820152604401610b82565b5f83516001600160401b03811115610beb57610beb612103565b604051908082528060200260200182016040528015610c14578160200160208202803683370190505b5090505f5b8451811015610c6257602080820286010151610c3d90602080840287010151610453565b828281518110610c4f57610c4f612db8565b6020908102919091010152600101610c19565b509392505050565b600154604051630c550f3d60e21b8152600481018390525f916001600160a01b031690829082906331543cf4906024015f60405180830381865afa158015610cb4573d5f803e3d5ffd5b505050506040513d5f823e601f3d908101601f19168201604052610cdb919081019061272a565b5160ff9081165f9081526002602052604090205416949350505050565b5f546001600160a01b031633146104345760405162461bcd60e51b815260206004820152601e60248201527f4974656d546f6b656e313135353a206f6e6c792073746162696c697a657200006044820152606401610b82565b60068054610d5e9061267f565b80601f0160208091040260200160405190810160405280929190818152602001828054610d8a9061267f565b8015610dd55780601f10610dac57610100808354040283529160200191610dd5565b820191905f5260205f20905b815481529060010190602001808311610db857829003601f168201915b505050505081565b610de561133e565b610dee5f611649565b565b5f610df96116b9565b805490915060ff600160401b82041615906001600160401b03165f81158015610e1f5750825b90505f826001600160401b03166001148015610e3a5750303b155b905081158015610e48575080155b15610e665760405163f92ee8a960e01b815260040160405180910390fd5b845467ffffffffffffffff191660011785558315610e9057845460ff60401b1916600160401b1785555b610e99876116e1565b610ea2336116f2565b600180546001600160a01b0319166001600160a01b03881617905560408051808201909152601681527553746162696c697a6174696f6e204974656d7320563160501b6020820152600390610ef79082612e10565b506040805180820190915260058152644954454d5360d81b6020820152600490610f219082612e10565b50600260208190527fac33ff75c19e70fe83507db0d683fd3465c996598dc972688b7ace676c89077b805460ff199081166001179091557fe90b7bceb6e7df5418fb78d8ee546e97c83a08bbccc01a0644d599ccd2a7c2e0805482169092179091557f679795a0195a1b76cdebb7c51d74e058aee92919b8c3389af86ef24535e8a28c8054821660039081179091555f527f88601476d11616a71c5be67555bd1dff4b1cbf21533d2669b768b61518cfe1c380549091166005179055831561102357845460ff60401b19168555604051600181527fc7f505b2f371ae2175ee4913f4499e1f2633a7b5936321eed1cdaeb6115181d29060200160405180910390a15b50505050505050565b60408051610100810182525f8082526020820181905281830181905260608083018290526080830182905260a083019190915260c0820181905260e08201526001549151630c550f3d60e21b81526004810184905290916001600160a01b03169081906331543cf4906024015f60405180830381865afa1580156110b2573d5f803e3d5ffd5b505050506040513d5f823e601f3d908101601f191682016040526110d9919081019061272a565b9392505050565b6110e861133e565b600561044e828483612ecb565b6060600480546104e69061267f565b61110f338383611703565b5050565b61111b61133e565b600461044e828483612ecb565b61113061133e565b600361044e828483612ecb565b5f546001600160a01b031633146111965760405162461bcd60e51b815260206004820152601e60248201527f4974656d546f6b656e313135353a206f6e6c792073746162696c697a657200006044820152606401610b82565b61044e8383836117a8565b6111a961133e565b5f80546001600160a01b0319166001600160a01b0392909216919091179055565b6111d261133e565b600661044e828483612ecb565b60605f600580546111ef9061267f565b9050111561120457600580546104e69061267f565b5f60036040516020016112179190612f84565b6040516020818303038152906040529050611231816115d8565b6040516020016112419190612d74565b60405160208183030381529060405291505090565b6001600160a01b039182165f9081527f88be536d5240c274a3b1d3a1be54482fd9caa294f08c62a7cde569f49a3c45016020908152604080832093909416825291909152205460ff1690565b336001600160a01b03861681148015906112c357506112c18682611256565b155b156112f45760405163711bec9160e11b81526001600160a01b03808316600483015287166024820152604401610b82565b610b98868686868661180e565b61130961133e565b6001600160a01b03811661133257604051631e4fbdf760e01b81525f6004820152602401610b82565b61133b81611649565b50565b336113707f9016d09d72d40fdae2fd8ceac6b6234c7706214fd39c1cd1e609a0528c199300546001600160a01b031690565b6001600160a01b031614610dee5760405163118cdaa760e01b8152336004820152602401610b82565b6001600160a01b0384166113c257604051632bfa23e760e11b81525f6004820152602401610b82565b60408051600180825260208201869052818301908152606082018590526080820190925290610b985f8784848761188d565b60605f8260010b121561143c5761141661140d83613087565b61ffff16611445565b60405160200161142691906130a6565b6040516020818303038152906040529050919050565b6104828261ffff165b6060815f0361146b5750506040805180820190915260018152600360fc1b602082015290565b815f5b8115611494578061147e816130ce565b915061148d9050600a836130fa565b915061146e565b5f816001600160401b038111156114ad576114ad612103565b6040519080825280601f01601f1916602001820160405280156114d7576020820181803683370190505b5090505b8415611541576114ec60018361310d565b91506114f9600a86613120565b611504906030613133565b60f81b81838151811061151957611519612db8565b60200101906001600160f81b03191690815f1a90535061153a600a866130fa565b94506114db565b949350505050565b60605f611555836118e0565b60010190505f816001600160401b0381111561157357611573612103565b6040519080825280601f01601f19166020018201604052801561159d576020820181803683370190505b5090508181016020015b5f19016f181899199a1a9b1b9c1cb0b131b232b360811b600a86061a8153600a85049450846115a757509392505050565b6060610482825f6119b7565b6001600160a01b03841661160d57604051632bfa23e760e11b81525f6004820152602401610b82565b6001600160a01b03851661163557604051626a0d4560e21b81525f6004820152602401610b82565b611642858585858561188d565b5050505050565b7f9016d09d72d40fdae2fd8ceac6b6234c7706214fd39c1cd1e609a0528c19930080546001600160a01b031981166001600160a01b03848116918217845560405192169182907f8be0079c531659141344cd1fd0a4f28419497f9722a3daafe3b4186f6b6457e0905f90a3505050565b5f807ff0c57e16840df040f15088dc2f81fe391c3923bec73e23a9662efc9c229c6a00610482565b6116e9611b36565b61133b81611b5b565b6116fa611b36565b61133b81611b6c565b5f8051602061323c8339815191526001600160a01b0383166117395760405162ced3e160e81b81525f6004820152602401610b82565b6001600160a01b038481165f818152600184016020908152604080832094881680845294825291829020805460ff191687151590811790915591519182527f17307eab39ab6107e8899845ad3d59bd9653f200f220920489ca2b5937696c31910160405180910390a350505050565b6001600160a01b0383166117d057604051626a0d4560e21b81525f6004820152602401610b82565b604080516001808252602082018590528183019081526060820184905260a082019092525f608082018181529192916116429187918590859061188d565b6001600160a01b03841661183757604051632bfa23e760e11b81525f6004820152602401610b82565b6001600160a01b03851661185f57604051626a0d4560e21b81525f6004820152602401610b82565b6040805160018082526020820186905281830190815260608201859052608082019092529061102387878484875b61189985858585611b74565b6001600160a01b0384161561164257825133906001036118d257602084810151908401516118cb838989858589611d93565b5050610b98565b610b98818787878787611eb4565b5f8072184f03e93ff9f4daa797ed6e38ed64bf6a1f0160401b831061191e5772184f03e93ff9f4daa797ed6e38ed64bf6a1f0160401b830492506040015b6d04ee2d6d415b85acef8100000000831061194a576d04ee2d6d415b85acef8100000000830492506020015b662386f26fc10000831061196857662386f26fc10000830492506010015b6305f5e1008310611980576305f5e100830492506008015b612710831061199457612710830492506004015b606483106119a6576064830492506002015b600a83106104825760010192915050565b606082515f036119d5575060408051602081019091525f8152610482565b5f82611a05576003845160026119eb9190613133565b6119f591906130fa565b611a00906004613146565b611a2a565b600384516004611a159190613146565b611a20906002613133565b611a2a91906130fa565b905060405191507f4142434445464748494a4b4c4d4e4f505152535455565758595a616263646566601f5261067083027f6768696a6b6c6d6e6f707172737475767778797a303132333435363738392b2f18603f526020820181810185865187016020810180515f82525b82841015611ae8576003840193508351603f8160121c16518753600187019650603f81600c1c16518753600187019650603f8160061c16518753600187019650603f811651875350600186019550611a95565b905250859050611b2957600386510660018114611b0c5760028114611b1f57611b27565b603d6001840353603d6002840353611b27565b603d60018403535b505b9183525060405292915050565b611b3e611f9b565b610dee57604051631afcd79f60e31b815260040160405180910390fd5b611b63611b36565b61133b81611fb4565b611309611b36565b805182515f8051602061323c8339815191529114611bb25782518251604051635b05999160e01b815260048101929092526024820152604401610b82565b335f5b8451811015611cb4576020818102868101820151908601909101516001600160a01b03891615611c66575f828152602086815260408083206001600160a01b038d16845290915290205481811015611c40576040516303dee4c560e01b81526001600160a01b038b166004820152602481018290526044810183905260648101849052608401610b82565b5f838152602087815260408083206001600160a01b038e16845290915290209082900390555b6001600160a01b03881615611caa575f828152602086815260408083206001600160a01b038c16845290915281208054839290611ca4908490613133565b90915550505b5050600101611bb5565b508351600103611d345760208401515f906020850151909150866001600160a01b0316886001600160a01b0316846001600160a01b03167fc3d58168c5ae7397731d063d5bbf3d657854427343f4c083240f7aacaa2d0f628585604051611d25929190918252602082015260400190565b60405180910390a45050610b98565b846001600160a01b0316866001600160a01b0316826001600160a01b03167f4a39dc06d4c0dbc64b70af90fd698a233a518aa5d07e595d983b8c0526c8f7fb8787604051611d8392919061315d565b60405180910390a4505050505050565b6001600160a01b0384163b15610b985760405163f23a6e6160e01b81526001600160a01b0385169063f23a6e6190611dd7908990899088908890889060040161318a565b6020604051808303815f875af1925050508015611e11575060408051601f3d908101601f19168201909252611e0e918101906131c3565b60015b611e78573d808015611e3e576040519150601f19603f3d011682016040523d82523d5f602084013e611e43565b606091505b5080515f03611e7057604051632bfa23e760e11b81526001600160a01b0386166004820152602401610b82565b805160208201fd5b6001600160e01b0319811663f23a6e6160e01b1461102357604051632bfa23e760e11b81526001600160a01b0386166004820152602401610b82565b6001600160a01b0384163b15610b985760405163bc197c8160e01b81526001600160a01b0385169063bc197c8190611ef890899089908890889088906004016131de565b6020604051808303815f875af1925050508015611f32575060408051601f3d908101601f19168201909252611f2f918101906131c3565b60015b611f5f573d808015611e3e576040519150601f19603f3d011682016040523d82523d5f602084013e611e43565b6001600160e01b0319811663bc197c8160e01b1461102357604051632bfa23e760e11b81526001600160a01b0386166004820152602401610b82565b5f611fa46116b9565b54600160401b900460ff16919050565b5f8051602061323c8339815191527f88be536d5240c274a3b1d3a1be54482fd9caa294f08c62a7cde569f49a3c450261044e8382612e10565b6001600160a01b038116811461133b575f80fd5b5f805f60608486031215612013575f80fd5b833561201e81611fed565b95602085013595506040909401359392505050565b5f8060408385031215612044575f80fd5b823561204f81611fed565b946020939093013593505050565b6001600160e01b03198116811461133b575f80fd5b5f60208284031215612082575f80fd5b81356110d98161205d565b5f5b838110156120a757818101518382015260200161208f565b50505f910152565b5f81518084526120c681602086016020860161208d565b601f01601f19169290920160200192915050565b602081525f6110d960208301846120af565b5f602082840312156120fc575f80fd5b5035919050565b634e487b7160e01b5f52604160045260245ffd5b60405161010081016001600160401b038111828210171561213a5761213a612103565b60405290565b604051601f8201601f191681016001600160401b038111828210171561216857612168612103565b604052919050565b5f6001600160401b0382111561218857612188612103565b5060051b60200190565b5f82601f8301126121a1575f80fd5b813560206121b66121b183612170565b612140565b8083825260208201915060208460051b8701019350868411156121d7575f80fd5b602086015b848110156121f357803583529183019183016121dc565b509695505050505050565b5f6001600160401b0382111561221657612216612103565b50601f01601f191660200190565b5f6122316121b1846121fe565b9050828152838383011115612244575f80fd5b828260208301375f602084830101529392505050565b5f82601f830112612269575f80fd5b6110d983833560208501612224565b5f805f805f60a0868803121561228c575f80fd5b853561229781611fed565b945060208601356122a781611fed565b935060408601356001600160401b03808211156122c2575f80fd5b6122ce89838a01612192565b945060608801359150808211156122e3575f80fd5b6122ef89838a01612192565b93506080880135915080821115612304575f80fd5b506123118882890161225a565b9150509295509295909350565b5f806040838503121561232f575f80fd5b82356001600160401b0380821115612345575f80fd5b818501915085601f830112612358575f80fd5b813560206123686121b183612170565b82815260059290921b84018101918181019089841115612386575f80fd5b948201945b838610156123ad57853561239e81611fed565b8252948201949082019061238b565b965050860135925050808211156123c2575f80fd5b506123cf85828601612192565b9150509250929050565b5f815180845260208085019450602084015f5b83811015612408578151875295820195908201906001016123ec565b509495945050505050565b602081525f6110d960208301846123d9565b5f8060408385031215612436575f80fd5b82356001600160401b0381111561244b575f80fd5b8301601f8101851361245b575f80fd5b61246a85823560208401612224565b925050602083013561247b81611fed565b809150509250929050565b6020815260ff82511660208201525f60208301516124a9604084018260ff169052565b5060408301516124be606084018260010b9052565b50606083015160ff811660808401525060808301516124e260a084018260010b9052565b5060a08301516001600160a01b03811660c08401525060c08301516101008060e08501526125146101208501836120af565b915060e0850151601f19858403018286015261253083826120af565b9695505050505050565b5f806020838503121561254b575f80fd5b82356001600160401b0380821115612561575f80fd5b818501915085601f830112612574575f80fd5b813581811115612582575f80fd5b866020828501011115612593575f80fd5b60209290920196919550909350505050565b5f80604083850312156125b6575f80fd5b82356125c181611fed565b91506020830135801515811461247b575f80fd5b5f602082840312156125e5575f80fd5b81356110d981611fed565b5f8060408385031215612601575f80fd5b823561260c81611fed565b9150602083013561247b81611fed565b5f805f805f60a08688031215612630575f80fd5b853561263b81611fed565b9450602086013561264b81611fed565b9350604086013592506060860135915060808601356001600160401b03811115612673575f80fd5b6123118882890161225a565b600181811c9082168061269357607f821691505b6020821081036126b157634e487b7160e01b5f52602260045260245ffd5b50919050565b805160ff811681146126c7575f80fd5b919050565b8051600181900b81146126c7575f80fd5b80516126c781611fed565b5f82601f8301126126f7575f80fd5b81516127056121b1826121fe565b818152846020838601011115612719575f80fd5b61154182602083016020870161208d565b5f6020828403121561273a575f80fd5b81516001600160401b0380821115612750575f80fd5b908301906101008286031215612764575f80fd5b61276c612117565b612775836126b7565b8152612783602084016126b7565b6020820152612794604084016126cc565b60408201526127a5606084016126b7565b60608201526127b6608084016126cc565b60808201526127c760a084016126dd565b60a082015260c0830151828111156127dd575f80fd5b6127e9878286016126e8565b60c08301525060e083015182811115612800575f80fd5b61280c878286016126e8565b60e08301525095945050505050565b5f815161282c81856020860161208d565b9290920192915050565b683d913730b6b2911d1160b91b815284515f9061285a816009850160208a0161208d565b61088b60f21b60099184019182018190526e113232b9b1b934b83a34b7b7111d1160891b600b830152865161289681601a850160208b0161208d565b601a9201918201527f22636f6c6c656374696f6e223a2253746162696c697a6174696f6e204974656d601c820152651cc8158cc88b60d21b603c8201526d2261747472696275746573223a5b60901b60428201527f7b2274726169745f74797065223a224974656d204e616d65222c2276616c7565605082015262111d1160e91b607082015261297a61293361297461294182607386018a61281b565b61227d60f01b815260020190565b7f2c7b2274726169745f74797065223a22526172697479222c2276616c7565223a8152601160f91b602082015260210190565b8661281b565b979650505050505050565b5f845161299681846020890161208d565b80830190507f2c7b2274726169745f74797065223a225072696d617279205472616974222c228152673b30b63ab2911d1160c11b602082015284516129e281602884016020890161208d565b61227d60f01b602892909101918201527f2c7b2274726169745f74797065223a225072696d6172792044656c7461204d61602a8201527033b734ba3ab2329116113b30b63ab2911d60791b604a8201528351612a4581605b84016020880161208d565b607d60f81b605b9290910191820152605c0195945050505050565b5f8451612a7181846020890161208d565b80830190507f2c7b2274726169745f74797065223a225365636f6e646172792054726169742281526916113b30b63ab2911d1160b11b60208201528451612abf81602a84016020890161208d565b61227d60f01b602a92909101918201527f2c7b2274726169745f74797065223a225365636f6e646172792044656c746120602c8201527226b0b3b734ba3ab2329116113b30b63ab2911d60691b604c8201528351612b2481605f84016020880161208d565b607d60f81b605f929091019182015260600195945050505050565b5f8351612b5081846020880161208d565b80830190507f2c7b2274726169745f74797065223a225350205969656c64222c2276616c7565815261111d60f11b60208201528351612b9681602284016020880161208d565b607d60f81b60229290910191820152602301949350505050565b5f8251612bc181846020870161208d565b605d60f81b920191825250600101919050565b5f60208284031215612be4575f80fd5b81516001600160401b03811115612bf9575f80fd5b611541848285016126e8565b5f8154612c118161267f565b60018281168015612c295760018114612c3e57612c6a565b60ff1984168752821515830287019450612c6a565b855f526020805f205f5b85811015612c615781548a820152908401908201612c48565b50505082870194505b5050505092915050565b5f612c7f8285612c05565b8351612c8f81836020880161208d565b632e706e6760e01b9101908152600401949350505050565b5f8351612cb881846020880161208d565b69161134b6b0b3b2911d1160b11b9083019081528351612cdf81600a84016020880161208d565b601160f91b600a9290910191820152600b01949350505050565b5f8351612d0a81846020880161208d565b6e161134b6b0b3b2afb230ba30911d1160891b9083019081528351612d3681600f84016020880161208d565b601160f91b600f9290910191820152601001949350505050565b5f8251612d6181846020870161208d565b607d60f81b920191825250600101919050565b7f646174613a6170706c69636174696f6e2f6a736f6e3b6261736536342c00000081525f8251612dab81601d85016020870161208d565b91909101601d0192915050565b634e487b7160e01b5f52603260045260245ffd5b601f82111561044e57805f5260205f20601f840160051c81016020851015612df15750805b601f840160051c820191505b81811015611642575f8155600101612dfd565b81516001600160401b03811115612e2957612e29612103565b612e3d81612e37845461267f565b84612dcc565b602080601f831160018114612e70575f8415612e595750858301515b5f19600386901b1c1916600185901b178555610b98565b5f85815260208120601f198616915b82811015612e9e57888601518255948401946001909101908401612e7f565b5085821015612ebb57878501515f19600388901b60f8161c191681555b5050505050600190811b01905550565b6001600160401b03831115612ee257612ee2612103565b612ef683612ef0835461267f565b83612dcc565b5f601f841160018114612f27575f8515612f105750838201355b5f19600387901b1c1916600186901b178355611642565b5f83815260208120601f198716915b82811015612f565786850135825560209485019460019092019101612f36565b5086821015612f72575f1960f88860031b161c19848701351681555b505060018560011b0183555050505050565b683d913730b6b2911d1160b91b81525f612fa16009830184612c05565b7f222c226465736372697074696f6e223a224f6e2d636861696e20746f6f6c732c81527f206172746966616374732c20616e6420616e6f6d616c6965732075736564206960208201527f6e2073746162696c697a696e67206372656174757265732077697468696e207460408201527f6865204e4d47492065636f73797374656d2e222c2265787465726e616c5f757260608201527f6c223a2268747470733a2f2f7870726d696e742e636f6d222c22696d616765226080820152633a22227d60e01b60a082015260a4019392505050565b634e487b7160e01b5f52601160045260245ffd5b5f8160010b617fff19810361309e5761309e613073565b5f0392915050565b602d60f81b81525f82516130c181600185016020870161208d565b9190910160010192915050565b5f600182016130df576130df613073565b5060010190565b634e487b7160e01b5f52601260045260245ffd5b5f82613108576131086130e6565b500490565b8181038181111561048257610482613073565b5f8261312e5761312e6130e6565b500690565b8082018082111561048257610482613073565b808202811582820484141761048257610482613073565b604081525f61316f60408301856123d9565b828103602084015261318181856123d9565b95945050505050565b6001600160a01b03868116825285166020820152604081018490526060810183905260a0608082018190525f9061297a908301846120af565b5f602082840312156131d3575f80fd5b81516110d98161205d565b6001600160a01b0386811682528516602082015260a0604082018190525f90613209908301866123d9565b828103606084015261321b81866123d9565b9050828103608084015261322f81856120af565b9897505050505050505056fe88be536d5240c274a3b1d3a1be54482fd9caa294f08c62a7cde569f49a3c4500a2646970667358221220d399d6cb0c2ddc47d7d99a58a3f597169f7baaf97ca6305ea6e5936458036ef364736f6c63430008180033","linkReferences":{}},"methodIdentifiers":{"adminMint(address,uint256,uint256)":"004a84cb","balanceOf(address,uint256)":"00fdd58e","balanceOfBatch(address[],uint256[])":"4e1273f4","burnItem(address,uint256,uint256)":"d2581535","contractURI()":"e8a3d485","externalImageBaseURI()":"6b39dd8b","getItemData(uint256)":"8bc6976e","initialize(string,address)":"7ab4339d","isApprovedForAll(address,address)":"e985e9c5","itemCatalog()":"5f4c7696","mintItem(address,uint256,uint256)":"696a50b4","name()":"06fdde03","owner()":"8da5cb5b","renounceOwnership()":"715018a6","safeBatchTransferFrom(address,address,uint256[],uint256[],bytes)":"2eb2c2d6","safeTransferFrom(address,address,uint256,uint256,bytes)":"f242432a","setApprovalForAll(address,bool)":"a22cb465","setContractURI(string)":"938e3d7b","setExternalImageBaseURI(string)":"dec01c1c","setName(string)":"c47f0027","setStabilizer(address)":"db7f521a","setSymbol(string)":"b84c8246","spYield(uint256)":"68f4af4d","stabilizer()":"7e47961c","supportsInterface(bytes4)":"01ffc9a7","symbol()":"95d89b41","transferOwnership(address)":"f2fde38b","uri(uint256)":"0e89341c"},"id":11}