{"abi":[{"type":"constructor","inputs":[],"stateMutability":"nonpayable"},{"type":"function","name":"adminMint","inputs":[{"name":"to","type":"address","internalType":"address"},{"name":"id","type":"uint256","internalType":"uint256"},{"name":"amount","type":"uint256","internalType":"uint256"}],"outputs":[],"stateMutability":"nonpayable"},{"type":"function","name":"balanceOf","inputs":[{"name":"account","type":"address","internalType":"address"},{"name":"id","type":"uint256","internalType":"uint256"}],"outputs":[{"name":"","type":"uint256","internalType":"uint256"}],"stateMutability":"view"},{"type":"function","name":"balanceOfBatch","inputs":[{"name":"accounts","type":"address[]","internalType":"address[]"},{"name":"ids","type":"uint256[]","internalType":"uint256[]"}],"outputs":[{"name":"","type":"uint256[]","internalType":"uint256[]"}],"stateMutability":"view"},{"type":"function","name":"burnItem","inputs":[{"name":"from","type":"address","internalType":"address"},{"name":"itemId","type":"uint256","internalType":"uint256"},{"name":"amount","type":"uint256","internalType":"uint256"}],"outputs":[],"stateMutability":"nonpayable"},{"type":"function","name":"contractURI","inputs":[],"outputs":[{"name":"","type":"string","internalType":"string"}],"stateMutability":"view"},{"type":"function","name":"externalImageBaseURI","inputs":[],"outputs":[{"name":"","type":"string","internalType":"string"}],"stateMutability":"view"},{"type":"function","name":"getItemData","inputs":[{"name":"itemId","type":"uint256","internalType":"uint256"}],"outputs":[{"name":"template","type":"tuple","internalType":"struct ItemCatalog.ItemTemplate","components":[{"name":"rarity","type":"uint8","internalType":"uint8"},{"name":"primaryTrait","type":"uint8","internalType":"uint8"},{"name":"primaryDelta","type":"int16","internalType":"int16"},{"name":"secondaryTrait","type":"uint8","internalType":"uint8"},{"name":"secondaryDelta","type":"int16","internalType":"int16"},{"name":"imagePtr","type":"address","internalType":"address"},{"name":"name","type":"string","internalType":"string"},{"name":"description","type":"string","internalType":"string"}]}],"stateMutability":"view"},{"type":"function","name":"initialize","inputs":[{"name":"baseURI","type":"string","internalType":"string"},{"name":"_itemCatalog","type":"address","internalType":"address"}],"outputs":[],"stateMutability":"nonpayable"},{"type":"function","name":"isApprovedForAll","inputs":[{"name":"account","type":"address","internalType":"address"},{"name":"operator","type":"address","internalType":"address"}],"outputs":[{"name":"","type":"bool","internalType":"bool"}],"stateMutability":"view"},{"type":"function","name":"itemCatalog","inputs":[],"outputs":[{"name":"","type":"address","internalType":"address"}],"stateMutability":"view"},{"type":"function","name":"mintItem","inputs":[{"name":"to","type":"address","internalType":"address"},{"name":"itemId","type":"uint256","internalType":"uint256"},{"name":"amount","type":"uint256","internalType":"uint256"}],"outputs":[],"stateMutability":"nonpayable"},{"type":"function","name":"name","inputs":[],"outputs":[{"name":"","type":"string","internalType":"string"}],"stateMutability":"view"},{"type":"function","name":"owner","inputs":[],"outputs":[{"name":"","type":"address","internalType":"address"}],"stateMutability":"view"},{"type":"function","name":"renounceOwnership","inputs":[],"outputs":[],"stateMutability":"nonpayable"},{"type":"function","name":"safeBatchTransferFrom","inputs":[{"name":"from","type":"address","internalType":"address"},{"name":"to","type":"address","internalType":"address"},{"name":"ids","type":"uint256[]","internalType":"uint256[]"},{"name":"values","type":"uint256[]","internalType":"uint256[]"},{"name":"data","type":"bytes","internalType":"bytes"}],"outputs":[],"stateMutability":"nonpayable"},{"type":"function","name":"safeTransferFrom","inputs":[{"name":"from","type":"address","internalType":"address"},{"name":"to","type":"address","internalType":"address"},{"name":"id","type":"uint256","internalType":"uint256"},{"name":"value","type":"uint256","internalType":"uint256"},{"name":"data","type":"bytes","internalType":"bytes"}],"outputs":[],"stateMutability":"nonpayable"},{"type":"function","name":"setApprovalForAll","inputs":[{"name":"operator","type":"address","internalType":"address"},{"name":"approved","type":"bool","internalType":"bool"}],"outputs":[],"stateMutability":"nonpayable"},{"type":"function","name":"setCatalog","inputs":[{"name":"newCatalog","type":"address","internalType":"address"}],"outputs":[],"stateMutability":"nonpayable"},{"type":"function","name":"setContractURI","inputs":[{"name":"newContractURI","type":"string","internalType":"string"}],"outputs":[],"stateMutability":"nonpayable"},{"type":"function","name":"setExternalImageBaseURI","inputs":[{"name":"base","type":"string","internalType":"string"}],"outputs":[],"stateMutability":"nonpayable"},{"type":"function","name":"setName","inputs":[{"name":"newName","type":"string","internalType":"string"}],"outputs":[],"stateMutability":"nonpayable"},{"type":"function","name":"setStabilizer","inputs":[{"name":"_stabilizer","type":"address","internalType":"address"}],"outputs":[],"stateMutability":"nonpayable"},{"type":"function","name":"setSymbol","inputs":[{"name":"newSymbol","type":"string","internalType":"string"}],"outputs":[],"stateMutability":"nonpayable"},{"type":"function","name":"spYield","inputs":[{"name":"itemId","type":"uint256","internalType":"uint256"}],"outputs":[{"name":"","type":"uint8","internalType":"uint8"}],"stateMutability":"view"},{"type":"function","name":"stabilizer","inputs":[],"outputs":[{"name":"","type":"address","internalType":"address"}],"stateMutability":"view"},{"type":"function","name":"supportsInterface","inputs":[{"name":"interfaceId","type":"bytes4","internalType":"bytes4"}],"outputs":[{"name":"","type":"bool","internalType":"bool"}],"stateMutability":"view"},{"type":"function","name":"symbol","inputs":[],"outputs":[{"name":"","type":"string","internalType":"string"}],"stateMutability":"view"},{"type":"function","name":"transferOwnership","inputs":[{"name":"newOwner","type":"address","internalType":"address"}],"outputs":[],"stateMutability":"nonpayable"},{"type":"function","name":"uri","inputs":[{"name":"itemId","type":"uint256","internalType":"uint256"}],"outputs":[{"name":"","type":"string","internalType":"string"}],"stateMutability":"view"},{"type":"event","name":"ApprovalForAll","inputs":[{"name":"account","type":"address","indexed":true,"internalType":"address"},{"name":"operator","type":"address","indexed":true,"internalType":"address"},{"name":"approved","type":"bool","indexed":false,"internalType":"bool"}],"anonymous":false},{"type":"event","name":"CatalogUpdated","inputs":[{"name":"newCatalog","type":"address","indexed":true,"internalType":"address"}],"anonymous":false},{"type":"event","name":"Initialized","inputs":[{"name":"version","type":"uint64","indexed":false,"internalType":"uint64"}],"anonymous":false},{"type":"event","name":"OwnershipTransferred","inputs":[{"name":"previousOwner","type":"address","indexed":true,"internalType":"address"},{"name":"newOwner","type":"address","indexed":true,"internalType":"address"}],"anonymous":false},{"type":"event","name":"TransferBatch","inputs":[{"name":"operator","type":"address","indexed":true,"internalType":"address"},{"name":"from","type":"address","indexed":true,"internalType":"address"},{"name":"to","type":"address","indexed":true,"internalType":"address"},{"name":"ids","type":"uint256[]","indexed":false,"internalType":"uint256[]"},{"name":"values","type":"uint256[]","indexed":false,"internalType":"uint256[]"}],"anonymous":false},{"type":"event","name":"TransferSingle","inputs":[{"name":"operator","type":"address","indexed":true,"internalType":"address"},{"name":"from","type":"address","indexed":true,"internalType":"address"},{"name":"to","type":"address","indexed":true,"internalType":"address"},{"name":"id","type":"uint256","indexed":false,"internalType":"uint256"},{"name":"value","type":"uint256","indexed":false,"internalType":"uint256"}],"anonymous":false},{"type":"event","name":"URI","inputs":[{"name":"value","type":"string","indexed":false,"internalType":"string"},{"name":"id","type":"uint256","indexed":true,"internalType":"uint256"}],"anonymous":false},{"type":"error","name":"ERC1155InsufficientBalance","inputs":[{"name":"sender","type":"address","internalType":"address"},{"name":"balance","type":"uint256","internalType":"uint256"},{"name":"needed","type":"uint256","internalType":"uint256"},{"name":"tokenId","type":"uint256","internalType":"uint256"}]},{"type":"error","name":"ERC1155InvalidApprover","inputs":[{"name":"approver","type":"address","internalType":"address"}]},{"type":"error","name":"ERC1155InvalidArrayLength","inputs":[{"name":"idsLength","type":"uint256","internalType":"uint256"},{"name":"valuesLength","type":"uint256","internalType":"uint256"}]},{"type":"error","name":"ERC1155InvalidOperator","inputs":[{"name":"operator","type":"address","internalType":"address"}]},{"type":"error","name":"ERC1155InvalidReceiver","inputs":[{"name":"receiver","type":"address","internalType":"address"}]},{"type":"error","name":"ERC1155InvalidSender","inputs":[{"name":"sender","type":"address","internalType":"address"}]},{"type":"error","name":"ERC1155MissingApprovalForAll","inputs":[{"name":"operator","type":"address","internalType":"address"},{"name":"owner","type":"address","internalType":"address"}]},{"type":"error","name":"InvalidInitialization","inputs":[]},{"type":"error","name":"NotInitializing","inputs":[]},{"type":"error","name":"OwnableInvalidOwner","inputs":[{"name":"owner","type":"address","internalType":"address"}]},{"type":"error","name":"OwnableUnauthorizedAccount","inputs":[{"name":"account","type":"address","internalType":"address"}]}],"bytecode":{"object":"0x608060405234801562000010575f80fd5b506200001b62000021565b620000d5565b7ff0c57e16840df040f15088dc2f81fe391c3923bec73e23a9662efc9c229c6a00805468010000000000000000900460ff1615620000725760405163f92ee8a960e01b815260040160405180910390fd5b80546001600160401b0390811614620000d25780546001600160401b0319166001600160401b0390811782556040519081527fc7f505b2f371ae2175ee4913f4499e1f2633a7b5936321eed1cdaeb6115181d29060200160405180910390a15b50565b61336c80620000e35f395ff3fe608060405234801561000f575f80fd5b50600436106101c4575f3560e01c80637e47961c116100fe578063c47f00271161009e578063e8a3d4851161006e578063e8a3d48514610409578063e985e9c514610411578063f242432a14610424578063f2fde38b14610437575f80fd5b8063c47f0027146103bd578063d2581535146103d0578063db7f521a146103e3578063dec01c1c146103f6575f80fd5b8063938e3d7b116100d9578063938e3d7b1461037c57806395d89b411461038f578063a22cb46514610397578063b84c8246146103aa575f80fd5b80637e47961c1461031a5780638bc6976e1461032c5780638da5cb5b1461034c575f80fd5b80634e1273f411610169578063696a50b411610144578063696a50b4146102e45780636b39dd8b146102f7578063715018a6146102ff5780637ab4339d14610307575f80fd5b80634e1273f4146102745780635f4c76961461029457806368f4af4d146102bf575f80fd5b806306fdde03116101a457806306fdde03146102265780630e89341c1461023b57806324cf86dd1461024e5780632eb2c2d614610261575f80fd5b80624a84cb146101c8578062fdd58e146101dd57806301ffc9a714610203575b5f80fd5b6101db6101d63660046120dc565b61044a565b005b6101f06101eb36600461210e565b610471565b6040519081526020015b60405180910390f35b61021661021136600461214d565b6104a6565b60405190151581526020016101fa565b61022e6104f5565b6040516101fa91906121b5565b61022e6102493660046121c7565b610585565b6101db61025c3660046121de565b610b52565b6101db61026f36600461236e565b610c14565b610287610282366004612414565b610c7b565b6040516101fa9190612509565b6001546102a7906001600160a01b031681565b6040516001600160a01b0390911681526020016101fa565b6102d26102cd3660046121c7565b610d45565b60405160ff90911681526020016101fa565b6101db6102f23660046120dc565b610dd3565b61022e610e2c565b6101db610eb8565b6101db61031536600461251b565b610ecb565b5f546102a7906001600160a01b031681565b61033f61033a3660046121c7565b611107565b6040516101fa919061257c565b7f9016d09d72d40fdae2fd8ceac6b6234c7706214fd39c1cd1e609a0528c199300546001600160a01b03166102a7565b6101db61038a366004612630565b6111bb565b61022e6111d0565b6101db6103a536600461269b565b6111df565b6101db6103b8366004612630565b6111ee565b6101db6103cb366004612630565b611203565b6101db6103de3660046120dc565b611218565b6101db6103f13660046121de565b61127c565b6101db610404366004612630565b6112a5565b61022e6112ba565b61021661041f3660046126cb565b611331565b6101db6104323660046126f7565b61137d565b6101db6104453660046121de565b6113dc565b610452611419565b61046c83838360405180602001604052805f815250611474565b505050565b5f8181525f80516020613317833981519152602090815260408083206001600160a01b03861684529091529020545b92915050565b5f6001600160e01b03198216636cdb3d1360e11b14806104d657506001600160e01b031982166303a24d0760e21b145b806104a057506301ffc9a760e01b6001600160e01b03198316146104a0565b6060600380546105049061275a565b80601f01602080910402602001604051908101604052809291908181526020018280546105309061275a565b801561057b5780601f106105525761010080835404028352916020019161057b565b820191905f5260205f20905b81548152906001019060200180831161055e57829003601f168201915b5050505050905090565b600154604051630c550f3d60e21b8152600481018390526060916001600160a01b0316905f9082906331543cf4906024015f60405180830381865afa1580156105d0573d5f803e3d5ffd5b505050506040513d5f823e601f3d908101601f191682016040526105f79190810190612805565b805190915060609060ff16610629575060408051808201909152600681526521b7b6b6b7b760d11b60208201526106a5565b815160ff165f190161065a57506040805180820190915260088152672ab731b7b6b6b7b760c11b60208201526106a5565b815160ff166001190161068857506040805180820190915260048152635261726560e01b60208201526106a5565b506040805180820190915260048152634570696360e01b60208201525b602082015160609060ff166106d9575060408051808201909152600881526753616c696e69747960c01b6020820152610799565b600160ff16836020015160ff160361070a57506040805180820190915260028152610e0960f31b6020820152610799565b600260ff16836020015160ff1603610744575060408051808201909152600b81526a54656d706572617475726560a81b6020820152610799565b600360ff16836020015160ff160361077c57506040805180820190915260098152684672657175656e637960b81b6020820152610799565b506040805180820190915260048152634e6f6e6560e01b60208201525b60c083015160e08401516040515f926107ba92909182908790602001612911565b60408051601f19818403018152919052845190915060ff166003146109345780826107e886604001516114cf565b6040516020016107fa93929190612a60565b60408051601f198184030181529190526060858101519192509060ff16610840575060408051808201909152600881526753616c696e69747960c01b6020820152610900565b600160ff16856060015160ff160361087157506040805180820190915260028152610e0960f31b6020820152610900565b600260ff16856060015160ff16036108ab575060408051808201909152600b81526a54656d706572617475726560a81b6020820152610900565b600360ff16856060015160ff16036108e357506040805180820190915260098152684672657175656e637960b81b6020820152610900565b506040805180820190915260048152634e6f6e6560e01b60208201525b818161090f87608001516114cf565b60405160200161092193929190612b3b565b6040516020818303038152906040529150505b835160ff9081165f9081526002602052604090205482916109559116611520565b604051602001610966929190612c1a565b6040516020818303038152906040529050806040516020016109889190612c8b565b60408051601f19818403018152602083019091525f825260a08601519092506001600160a01b031615610a4a5760a08501516040805163f867555160e01b81526001600160a01b03928316600482015260248101919091526009604482015268696d6167652f706e6760b81b60648201529087169063f8675551906084015f60405180830381865afa158015610a20573d5f803e3d5ffd5b505050506040513d5f823e601f3d908101601f19168201604052610a479190810190612caf565b90505b60605f60068054610a5a9061275a565b9050118015610a6957505f8251115b15610aa0576006610a798a611624565b604051602001610a8a929190612d4f565b6040516020818303038152906040529050610aaa565b815115610aaa5750805b815115610afa578281604051602001610ac4929190612d82565b60405160208183030381529060405292508282604051602001610ae8929190612dd4565b60405160208183030381529060405292505b82604051602001610b0b9190612e2b565b6040516020818303038152906040529250610b25836116b3565b604051602001610b359190612e4f565b604051602081830303815290604052975050505050505050919050565b610b5a611419565b6001600160a01b038116610bcb5760405162461bcd60e51b815260206004820152602d60248201527f4974656d546f6b656e313135353a20636174616c6f672063616e6e6f7420626560448201526c207a65726f206164647265737360981b60648201526084015b60405180910390fd5b600180546001600160a01b0319166001600160a01b0383169081179091556040517f92f9c420481b575d4a74e9f2f3115948e66d72c4c7db17643df0270e762698c0905f90a250565b336001600160a01b0386168114801590610c355750610c338682611331565b155b15610c665760405163711bec9160e11b81526001600160a01b03808316600483015287166024820152604401610bc2565b610c7386868686866116bf565b505050505050565b60608151835114610cac5781518351604051635b05999160e01b815260048101929092526024820152604401610bc2565b5f83516001600160401b03811115610cc657610cc66121f9565b604051908082528060200260200182016040528015610cef578160200160208202803683370190505b5090505f5b8451811015610d3d57602080820286010151610d1890602080840287010151610471565b828281518110610d2a57610d2a612e93565b6020908102919091010152600101610cf4565b509392505050565b600154604051630c550f3d60e21b8152600481018390525f916001600160a01b031690829082906331543cf4906024015f60405180830381865afa158015610d8f573d5f803e3d5ffd5b505050506040513d5f823e601f3d908101601f19168201604052610db69190810190612805565b5160ff9081165f9081526002602052604090205416949350505050565b5f546001600160a01b031633146104525760405162461bcd60e51b815260206004820152601e60248201527f4974656d546f6b656e313135353a206f6e6c792073746162696c697a657200006044820152606401610bc2565b60068054610e399061275a565b80601f0160208091040260200160405190810160405280929190818152602001828054610e659061275a565b8015610eb05780601f10610e8757610100808354040283529160200191610eb0565b820191905f5260205f20905b815481529060010190602001808311610e9357829003601f168201915b505050505081565b610ec0611419565b610ec95f611724565b565b5f610ed4611794565b805490915060ff600160401b82041615906001600160401b03165f81158015610efa5750825b90505f826001600160401b03166001148015610f155750303b155b905081158015610f23575080155b15610f415760405163f92ee8a960e01b815260040160405180910390fd5b845467ffffffffffffffff191660011785558315610f6b57845460ff60401b1916600160401b1785555b610f74876117bc565b610f7d336117cd565b600180546001600160a01b0319166001600160a01b03881617905560408051808201909152601681527553746162696c697a6174696f6e204974656d7320563160501b6020820152600390610fd29082612eeb565b506040805180820190915260058152644954454d5360d81b6020820152600490610ffc9082612eeb565b50600260208190527fac33ff75c19e70fe83507db0d683fd3465c996598dc972688b7ace676c89077b805460ff199081166001179091557fe90b7bceb6e7df5418fb78d8ee546e97c83a08bbccc01a0644d599ccd2a7c2e0805482169092179091557f679795a0195a1b76cdebb7c51d74e058aee92919b8c3389af86ef24535e8a28c8054821660039081179091555f527f88601476d11616a71c5be67555bd1dff4b1cbf21533d2669b768b61518cfe1c38054909116600517905583156110fe57845460ff60401b19168555604051600181527fc7f505b2f371ae2175ee4913f4499e1f2633a7b5936321eed1cdaeb6115181d29060200160405180910390a15b50505050505050565b60408051610100810182525f8082526020820181905281830181905260608083018290526080830182905260a083019190915260c0820181905260e08201526001549151630c550f3d60e21b81526004810184905290916001600160a01b03169081906331543cf4906024015f60405180830381865afa15801561118d573d5f803e3d5ffd5b505050506040513d5f823e601f3d908101601f191682016040526111b49190810190612805565b9392505050565b6111c3611419565b600561046c828483612fa6565b6060600480546105049061275a565b6111ea3383836117de565b5050565b6111f6611419565b600461046c828483612fa6565b61120b611419565b600361046c828483612fa6565b5f546001600160a01b031633146112715760405162461bcd60e51b815260206004820152601e60248201527f4974656d546f6b656e313135353a206f6e6c792073746162696c697a657200006044820152606401610bc2565b61046c838383611883565b611284611419565b5f80546001600160a01b0319166001600160a01b0392909216919091179055565b6112ad611419565b600661046c828483612fa6565b60605f600580546112ca9061275a565b905011156112df57600580546105049061275a565b5f60036040516020016112f2919061305f565b604051602081830303815290604052905061130c816116b3565b60405160200161131c9190612e4f565b60405160208183030381529060405291505090565b6001600160a01b039182165f9081527f88be536d5240c274a3b1d3a1be54482fd9caa294f08c62a7cde569f49a3c45016020908152604080832093909416825291909152205460ff1690565b336001600160a01b038616811480159061139e575061139c8682611331565b155b156113cf5760405163711bec9160e11b81526001600160a01b03808316600483015287166024820152604401610bc2565b610c7386868686866118e9565b6113e4611419565b6001600160a01b03811661140d57604051631e4fbdf760e01b81525f6004820152602401610bc2565b61141681611724565b50565b3361144b7f9016d09d72d40fdae2fd8ceac6b6234c7706214fd39c1cd1e609a0528c199300546001600160a01b031690565b6001600160a01b031614610ec95760405163118cdaa760e01b8152336004820152602401610bc2565b6001600160a01b03841661149d57604051632bfa23e760e11b81525f6004820152602401610bc2565b60408051600180825260208201869052818301908152606082018590526080820190925290610c735f87848487611968565b60605f8260010b1215611517576114f16114e883613162565b61ffff16611520565b6040516020016115019190613181565b6040516020818303038152906040529050919050565b6104a08261ffff165b6060815f036115465750506040805180820190915260018152600360fc1b602082015290565b815f5b811561156f5780611559816131a9565b91506115689050600a836131d5565b9150611549565b5f816001600160401b03811115611588576115886121f9565b6040519080825280601f01601f1916602001820160405280156115b2576020820181803683370190505b5090505b841561161c576115c76001836131e8565b91506115d4600a866131fb565b6115df90603061320e565b60f81b8183815181106115f4576115f4612e93565b60200101906001600160f81b03191690815f1a905350611615600a866131d5565b94506115b6565b949350505050565b60605f611630836119bb565b60010190505f816001600160401b0381111561164e5761164e6121f9565b6040519080825280601f01601f191660200182016040528015611678576020820181803683370190505b5090508181016020015b5f19016f181899199a1a9b1b9c1cb0b131b232b360811b600a86061a8153600a850494508461168257509392505050565b60606104a0825f611a92565b6001600160a01b0384166116e857604051632bfa23e760e11b81525f6004820152602401610bc2565b6001600160a01b03851661171057604051626a0d4560e21b81525f6004820152602401610bc2565b61171d8585858585611968565b5050505050565b7f9016d09d72d40fdae2fd8ceac6b6234c7706214fd39c1cd1e609a0528c19930080546001600160a01b031981166001600160a01b03848116918217845560405192169182907f8be0079c531659141344cd1fd0a4f28419497f9722a3daafe3b4186f6b6457e0905f90a3505050565b5f807ff0c57e16840df040f15088dc2f81fe391c3923bec73e23a9662efc9c229c6a006104a0565b6117c4611c11565b61141681611c36565b6117d5611c11565b61141681611c47565b5f805160206133178339815191526001600160a01b0383166118145760405162ced3e160e81b81525f6004820152602401610bc2565b6001600160a01b038481165f818152600184016020908152604080832094881680845294825291829020805460ff191687151590811790915591519182527f17307eab39ab6107e8899845ad3d59bd9653f200f220920489ca2b5937696c31910160405180910390a350505050565b6001600160a01b0383166118ab57604051626a0d4560e21b81525f6004820152602401610bc2565b604080516001808252602082018590528183019081526060820184905260a082019092525f6080820181815291929161171d91879185908590611968565b6001600160a01b03841661191257604051632bfa23e760e11b81525f6004820152602401610bc2565b6001600160a01b03851661193a57604051626a0d4560e21b81525f6004820152602401610bc2565b604080516001808252602082018690528183019081526060820185905260808201909252906110fe87878484875b61197485858585611c4f565b6001600160a01b0384161561171d57825133906001036119ad57602084810151908401516119a6838989858589611e6e565b5050610c73565b610c73818787878787611f8f565b5f8072184f03e93ff9f4daa797ed6e38ed64bf6a1f0160401b83106119f95772184f03e93ff9f4daa797ed6e38ed64bf6a1f0160401b830492506040015b6d04ee2d6d415b85acef81000000008310611a25576d04ee2d6d415b85acef8100000000830492506020015b662386f26fc100008310611a4357662386f26fc10000830492506010015b6305f5e1008310611a5b576305f5e100830492506008015b6127108310611a6f57612710830492506004015b60648310611a81576064830492506002015b600a83106104a05760010192915050565b606082515f03611ab0575060408051602081019091525f81526104a0565b5f82611ae057600384516002611ac6919061320e565b611ad091906131d5565b611adb906004613221565b611b05565b600384516004611af09190613221565b611afb90600261320e565b611b0591906131d5565b905060405191507f4142434445464748494a4b4c4d4e4f505152535455565758595a616263646566601f5261067083027f6768696a6b6c6d6e6f707172737475767778797a303132333435363738392b2f18603f526020820181810185865187016020810180515f82525b82841015611bc3576003840193508351603f8160121c16518753600187019650603f81600c1c16518753600187019650603f8160061c16518753600187019650603f811651875350600186019550611b70565b905250859050611c0457600386510660018114611be75760028114611bfa57611c02565b603d6001840353603d6002840353611c02565b603d60018403535b505b9183525060405292915050565b611c19612076565b610ec957604051631afcd79f60e31b815260040160405180910390fd5b611c3e611c11565b6114168161208f565b6113e4611c11565b805182515f805160206133178339815191529114611c8d5782518251604051635b05999160e01b815260048101929092526024820152604401610bc2565b335f5b8451811015611d8f576020818102868101820151908601909101516001600160a01b03891615611d41575f828152602086815260408083206001600160a01b038d16845290915290205481811015611d1b576040516303dee4c560e01b81526001600160a01b038b166004820152602481018290526044810183905260648101849052608401610bc2565b5f838152602087815260408083206001600160a01b038e16845290915290209082900390555b6001600160a01b03881615611d85575f828152602086815260408083206001600160a01b038c16845290915281208054839290611d7f90849061320e565b90915550505b5050600101611c90565b508351600103611e0f5760208401515f906020850151909150866001600160a01b0316886001600160a01b0316846001600160a01b03167fc3d58168c5ae7397731d063d5bbf3d657854427343f4c083240f7aacaa2d0f628585604051611e00929190918252602082015260400190565b60405180910390a45050610c73565b846001600160a01b0316866001600160a01b0316826001600160a01b03167f4a39dc06d4c0dbc64b70af90fd698a233a518aa5d07e595d983b8c0526c8f7fb8787604051611e5e929190613238565b60405180910390a4505050505050565b6001600160a01b0384163b15610c735760405163f23a6e6160e01b81526001600160a01b0385169063f23a6e6190611eb29089908990889088908890600401613265565b6020604051808303815f875af1925050508015611eec575060408051601f3d908101601f19168201909252611ee99181019061329e565b60015b611f53573d808015611f19576040519150601f19603f3d011682016040523d82523d5f602084013e611f1e565b606091505b5080515f03611f4b57604051632bfa23e760e11b81526001600160a01b0386166004820152602401610bc2565b805160208201fd5b6001600160e01b0319811663f23a6e6160e01b146110fe57604051632bfa23e760e11b81526001600160a01b0386166004820152602401610bc2565b6001600160a01b0384163b15610c735760405163bc197c8160e01b81526001600160a01b0385169063bc197c8190611fd390899089908890889088906004016132b9565b6020604051808303815f875af192505050801561200d575060408051601f3d908101601f1916820190925261200a9181019061329e565b60015b61203a573d808015611f19576040519150601f19603f3d011682016040523d82523d5f602084013e611f1e565b6001600160e01b0319811663bc197c8160e01b146110fe57604051632bfa23e760e11b81526001600160a01b0386166004820152602401610bc2565b5f61207f611794565b54600160401b900460ff16919050565b5f805160206133178339815191527f88be536d5240c274a3b1d3a1be54482fd9caa294f08c62a7cde569f49a3c450261046c8382612eeb565b6001600160a01b0381168114611416575f80fd5b5f805f606084860312156120ee575f80fd5b83356120f9816120c8565b95602085013595506040909401359392505050565b5f806040838503121561211f575f80fd5b823561212a816120c8565b946020939093013593505050565b6001600160e01b031981168114611416575f80fd5b5f6020828403121561215d575f80fd5b81356111b481612138565b5f5b8381101561218257818101518382015260200161216a565b50505f910152565b5f81518084526121a1816020860160208601612168565b601f01601f19169290920160200192915050565b602081525f6111b4602083018461218a565b5f602082840312156121d7575f80fd5b5035919050565b5f602082840312156121ee575f80fd5b81356111b4816120c8565b634e487b7160e01b5f52604160045260245ffd5b60405161010081016001600160401b0381118282101715612230576122306121f9565b60405290565b604051601f8201601f191681016001600160401b038111828210171561225e5761225e6121f9565b604052919050565b5f6001600160401b0382111561227e5761227e6121f9565b5060051b60200190565b5f82601f830112612297575f80fd5b813560206122ac6122a783612266565b612236565b8083825260208201915060208460051b8701019350868411156122cd575f80fd5b602086015b848110156122e957803583529183019183016122d2565b509695505050505050565b5f6001600160401b0382111561230c5761230c6121f9565b50601f01601f191660200190565b5f6123276122a7846122f4565b905082815283838301111561233a575f80fd5b828260208301375f602084830101529392505050565b5f82601f83011261235f575f80fd5b6111b48383356020850161231a565b5f805f805f60a08688031215612382575f80fd5b853561238d816120c8565b9450602086013561239d816120c8565b935060408601356001600160401b03808211156123b8575f80fd5b6123c489838a01612288565b945060608801359150808211156123d9575f80fd5b6123e589838a01612288565b935060808801359150808211156123fa575f80fd5b5061240788828901612350565b9150509295509295909350565b5f8060408385031215612425575f80fd5b82356001600160401b038082111561243b575f80fd5b818501915085601f83011261244e575f80fd5b8135602061245e6122a783612266565b82815260059290921b8401810191818101908984111561247c575f80fd5b948201945b838610156124a3578535612494816120c8565b82529482019490820190612481565b965050860135925050808211156124b8575f80fd5b506124c585828601612288565b9150509250929050565b5f815180845260208085019450602084015f5b838110156124fe578151875295820195908201906001016124e2565b509495945050505050565b602081525f6111b460208301846124cf565b5f806040838503121561252c575f80fd5b82356001600160401b03811115612541575f80fd5b8301601f81018513612551575f80fd5b6125608582356020840161231a565b9250506020830135612571816120c8565b809150509250929050565b6020815260ff82511660208201525f602083015161259f604084018260ff169052565b5060408301516125b4606084018260010b9052565b50606083015160ff811660808401525060808301516125d860a084018260010b9052565b5060a08301516001600160a01b03811660c08401525060c08301516101008060e085015261260a61012085018361218a565b915060e0850151601f198584030182860152612626838261218a565b9695505050505050565b5f8060208385031215612641575f80fd5b82356001600160401b0380821115612657575f80fd5b818501915085601f83011261266a575f80fd5b813581811115612678575f80fd5b866020828501011115612689575f80fd5b60209290920196919550909350505050565b5f80604083850312156126ac575f80fd5b82356126b7816120c8565b915060208301358015158114612571575f80fd5b5f80604083850312156126dc575f80fd5b82356126e7816120c8565b91506020830135612571816120c8565b5f805f805f60a0868803121561270b575f80fd5b8535612716816120c8565b94506020860135612726816120c8565b9350604086013592506060860135915060808601356001600160401b0381111561274e575f80fd5b61240788828901612350565b600181811c9082168061276e57607f821691505b60208210810361278c57634e487b7160e01b5f52602260045260245ffd5b50919050565b805160ff811681146127a2575f80fd5b919050565b8051600181900b81146127a2575f80fd5b80516127a2816120c8565b5f82601f8301126127d2575f80fd5b81516127e06122a7826122f4565b8181528460208386010111156127f4575f80fd5b61161c826020830160208701612168565b5f60208284031215612815575f80fd5b81516001600160401b038082111561282b575f80fd5b90830190610100828603121561283f575f80fd5b61284761220d565b61285083612792565b815261285e60208401612792565b602082015261286f604084016127a7565b604082015261288060608401612792565b6060820152612891608084016127a7565b60808201526128a260a084016127b8565b60a082015260c0830151828111156128b8575f80fd5b6128c4878286016127c3565b60c08301525060e0830151828111156128db575f80fd5b6128e7878286016127c3565b60e08301525095945050505050565b5f8151612907818560208601612168565b9290920192915050565b683d913730b6b2911d1160b91b815284515f90612935816009850160208a01612168565b61088b60f21b60099184019182018190526e113232b9b1b934b83a34b7b7111d1160891b600b830152865161297181601a850160208b01612168565b601a9201918201527f22636f6c6c656374696f6e223a2253746162696c697a6174696f6e204974656d601c820152651cc8158cc88b60d21b603c8201526d2261747472696275746573223a5b60901b60428201527f7b2274726169745f74797065223a224974656d204e616d65222c2276616c7565605082015262111d1160e91b6070820152612a55612a0e612a4f612a1c82607386018a6128f6565b61227d60f01b815260020190565b7f2c7b2274726169745f74797065223a22526172697479222c2276616c7565223a8152601160f91b602082015260210190565b866128f6565b979650505050505050565b5f8451612a71818460208901612168565b80830190507f2c7b2274726169745f74797065223a225072696d617279205472616974222c228152673b30b63ab2911d1160c11b60208201528451612abd816028840160208901612168565b61227d60f01b602892909101918201527f2c7b2274726169745f74797065223a225072696d6172792044656c7461204d61602a8201527033b734ba3ab2329116113b30b63ab2911d60791b604a8201528351612b2081605b840160208801612168565b607d60f81b605b9290910191820152605c0195945050505050565b5f8451612b4c818460208901612168565b80830190507f2c7b2274726169745f74797065223a225365636f6e646172792054726169742281526916113b30b63ab2911d1160b11b60208201528451612b9a81602a840160208901612168565b61227d60f01b602a92909101918201527f2c7b2274726169745f74797065223a225365636f6e646172792044656c746120602c8201527226b0b3b734ba3ab2329116113b30b63ab2911d60691b604c8201528351612bff81605f840160208801612168565b607d60f81b605f929091019182015260600195945050505050565b5f8351612c2b818460208801612168565b80830190507f2c7b2274726169745f74797065223a225350205969656c64222c2276616c7565815261111d60f11b60208201528351612c71816022840160208801612168565b607d60f81b60229290910191820152602301949350505050565b5f8251612c9c818460208701612168565b605d60f81b920191825250600101919050565b5f60208284031215612cbf575f80fd5b81516001600160401b03811115612cd4575f80fd5b61161c848285016127c3565b5f8154612cec8161275a565b60018281168015612d045760018114612d1957612d45565b60ff1984168752821515830287019450612d45565b855f526020805f205f5b85811015612d3c5781548a820152908401908201612d23565b50505082870194505b5050505092915050565b5f612d5a8285612ce0565b8351612d6a818360208801612168565b632e706e6760e01b9101908152600401949350505050565b5f8351612d93818460208801612168565b69161134b6b0b3b2911d1160b11b9083019081528351612dba81600a840160208801612168565b601160f91b600a9290910191820152600b01949350505050565b5f8351612de5818460208801612168565b6e161134b6b0b3b2afb230ba30911d1160891b9083019081528351612e1181600f840160208801612168565b601160f91b600f9290910191820152601001949350505050565b5f8251612e3c818460208701612168565b607d60f81b920191825250600101919050565b7f646174613a6170706c69636174696f6e2f6a736f6e3b6261736536342c00000081525f8251612e8681601d850160208701612168565b91909101601d0192915050565b634e487b7160e01b5f52603260045260245ffd5b601f82111561046c57805f5260205f20601f840160051c81016020851015612ecc5750805b601f840160051c820191505b8181101561171d575f8155600101612ed8565b81516001600160401b03811115612f0457612f046121f9565b612f1881612f12845461275a565b84612ea7565b602080601f831160018114612f4b575f8415612f345750858301515b5f19600386901b1c1916600185901b178555610c73565b5f85815260208120601f198616915b82811015612f7957888601518255948401946001909101908401612f5a565b5085821015612f9657878501515f19600388901b60f8161c191681555b5050505050600190811b01905550565b6001600160401b03831115612fbd57612fbd6121f9565b612fd183612fcb835461275a565b83612ea7565b5f601f841160018114613002575f8515612feb5750838201355b5f19600387901b1c1916600186901b17835561171d565b5f83815260208120601f198716915b828110156130315786850135825560209485019460019092019101613011565b508682101561304d575f1960f88860031b161c19848701351681555b505060018560011b0183555050505050565b683d913730b6b2911d1160b91b81525f61307c6009830184612ce0565b7f222c226465736372697074696f6e223a224f6e2d636861696e20746f6f6c732c81527f206172746966616374732c20616e6420616e6f6d616c6965732075736564206960208201527f6e2073746162696c697a696e67206372656174757265732077697468696e207460408201527f6865204e4d47492065636f73797374656d2e222c2265787465726e616c5f757260608201527f6c223a2268747470733a2f2f7870726d696e742e636f6d222c22696d616765226080820152633a22227d60e01b60a082015260a4019392505050565b634e487b7160e01b5f52601160045260245ffd5b5f8160010b617fff1981036131795761317961314e565b5f0392915050565b602d60f81b81525f825161319c816001850160208701612168565b9190910160010192915050565b5f600182016131ba576131ba61314e565b5060010190565b634e487b7160e01b5f52601260045260245ffd5b5f826131e3576131e36131c1565b500490565b818103818111156104a0576104a061314e565b5f82613209576132096131c1565b500690565b808201808211156104a0576104a061314e565b80820281158282048414176104a0576104a061314e565b604081525f61324a60408301856124cf565b828103602084015261325c81856124cf565b95945050505050565b6001600160a01b03868116825285166020820152604081018490526060810183905260a0608082018190525f90612a559083018461218a565b5f602082840312156132ae575f80fd5b81516111b481612138565b6001600160a01b0386811682528516602082015260a0604082018190525f906132e4908301866124cf565b82810360608401526132f681866124cf565b9050828103608084015261330a818561218a565b9897505050505050505056fe88be536d5240c274a3b1d3a1be54482fd9caa294f08c62a7cde569f49a3c4500a26469706673582212204abc9c9590f3a8c1f49cd31eb4d414fa5eae96540dce474cf453c5f03a9ad28164736f6c63430008180033","linkReferences":{}},"methodIdentifiers":{"adminMint(address,uint256,uint256)":"004a84cb","balanceOf(address,uint256)":"00fdd58e","balanceOfBatch(address[],uint256[])":"4e1273f4","burnItem(address,uint256,uint256)":"d2581535","contractURI()":"e8a3d485","externalImageBaseURI()":"6b39dd8b","getItemData(uint256)":"8bc6976e","initialize(string,address)":"7ab4339d","isApprovedForAll(address,address)":"e985e9c5","itemCatalog()":"5f4c7696","mintItem(address,uint256,uint256)":"696a50b4","name()":"06fdde03","owner()":"8da5cb5b","renounceOwnership()":"715018a6","safeBatchTransferFrom(address,address,uint256[],uint256[],bytes)":"2eb2c2d6","safeTransferFrom(address,address,uint256,uint256,bytes)":"f242432a","setApprovalForAll(address,bool)":"a22cb465","setCatalog(address)":"24cf86dd","setContractURI(string)":"938e3d7b","setExternalImageBaseURI(string)":"dec01c1c","setName(string)":"c47f0027","setStabilizer(address)":"db7f521a","setSymbol(string)":"b84c8246","spYield(uint256)":"68f4af4d","stabilizer()":"7e47961c","supportsInterface(bytes4)":"01ffc9a7","symbol()":"95d89b41","transferOwnership(address)":"f2fde38b","uri(uint256)":"0e89341c"},"id":5}