{"abi":[{"type":"constructor","inputs":[],"stateMutability":"nonpayable"},{"type":"function","name":"adminMint","inputs":[{"name":"to","type":"address","internalType":"address"},{"name":"id","type":"uint256","internalType":"uint256"},{"name":"amount","type":"uint256","internalType":"uint256"}],"outputs":[],"stateMutability":"nonpayable"},{"type":"function","name":"balanceOf","inputs":[{"name":"account","type":"address","internalType":"address"},{"name":"id","type":"uint256","internalType":"uint256"}],"outputs":[{"name":"","type":"uint256","internalType":"uint256"}],"stateMutability":"view"},{"type":"function","name":"balanceOfBatch","inputs":[{"name":"accounts","type":"address[]","internalType":"address[]"},{"name":"ids","type":"uint256[]","internalType":"uint256[]"}],"outputs":[{"name":"","type":"uint256[]","internalType":"uint256[]"}],"stateMutability":"view"},{"type":"function","name":"burnItem","inputs":[{"name":"from","type":"address","internalType":"address"},{"name":"itemId","type":"uint256","internalType":"uint256"},{"name":"amount","type":"uint256","internalType":"uint256"}],"outputs":[],"stateMutability":"nonpayable"},{"type":"function","name":"contractURI","inputs":[],"outputs":[{"name":"","type":"string","internalType":"string"}],"stateMutability":"view"},{"type":"function","name":"externalImageBaseURI","inputs":[],"outputs":[{"name":"","type":"string","internalType":"string"}],"stateMutability":"view"},{"type":"function","name":"getItemData","inputs":[{"name":"itemId","type":"uint256","internalType":"uint256"}],"outputs":[{"name":"template","type":"tuple","internalType":"struct ItemCatalog.ItemTemplate","components":[{"name":"rarity","type":"uint8","internalType":"uint8"},{"name":"primaryTrait","type":"uint8","internalType":"uint8"},{"name":"primaryDelta","type":"int16","internalType":"int16"},{"name":"secondaryTrait","type":"uint8","internalType":"uint8"},{"name":"secondaryDelta","type":"int16","internalType":"int16"},{"name":"imagePtr","type":"address","internalType":"address"},{"name":"name","type":"string","internalType":"string"},{"name":"description","type":"string","internalType":"string"}]}],"stateMutability":"view"},{"type":"function","name":"initialize","inputs":[{"name":"baseURI","type":"string","internalType":"string"},{"name":"_itemCatalog","type":"address","internalType":"address"}],"outputs":[],"stateMutability":"nonpayable"},{"type":"function","name":"isApprovedForAll","inputs":[{"name":"account","type":"address","internalType":"address"},{"name":"operator","type":"address","internalType":"address"}],"outputs":[{"name":"","type":"bool","internalType":"bool"}],"stateMutability":"view"},{"type":"function","name":"itemCatalog","inputs":[],"outputs":[{"name":"","type":"address","internalType":"address"}],"stateMutability":"view"},{"type":"function","name":"mintItem","inputs":[{"name":"to","type":"address","internalType":"address"},{"name":"itemId","type":"uint256","internalType":"uint256"},{"name":"amount","type":"uint256","internalType":"uint256"}],"outputs":[],"stateMutability":"nonpayable"},{"type":"function","name":"name","inputs":[],"outputs":[{"name":"","type":"string","internalType":"string"}],"stateMutability":"view"},{"type":"function","name":"owner","inputs":[],"outputs":[{"name":"","type":"address","internalType":"address"}],"stateMutability":"view"},{"type":"function","name":"renounceOwnership","inputs":[],"outputs":[],"stateMutability":"nonpayable"},{"type":"function","name":"safeBatchTransferFrom","inputs":[{"name":"from","type":"address","internalType":"address"},{"name":"to","type":"address","internalType":"address"},{"name":"ids","type":"uint256[]","internalType":"uint256[]"},{"name":"values","type":"uint256[]","internalType":"uint256[]"},{"name":"data","type":"bytes","internalType":"bytes"}],"outputs":[],"stateMutability":"nonpayable"},{"type":"function","name":"safeTransferFrom","inputs":[{"name":"from","type":"address","internalType":"address"},{"name":"to","type":"address","internalType":"address"},{"name":"id","type":"uint256","internalType":"uint256"},{"name":"value","type":"uint256","internalType":"uint256"},{"name":"data","type":"bytes","internalType":"bytes"}],"outputs":[],"stateMutability":"nonpayable"},{"type":"function","name":"setApprovalForAll","inputs":[{"name":"operator","type":"address","internalType":"address"},{"name":"approved","type":"bool","internalType":"bool"}],"outputs":[],"stateMutability":"nonpayable"},{"type":"function","name":"setCatalog","inputs":[{"name":"newCatalog","type":"address","internalType":"address"}],"outputs":[],"stateMutability":"nonpayable"},{"type":"function","name":"setContractURI","inputs":[{"name":"newContractURI","type":"string","internalType":"string"}],"outputs":[],"stateMutability":"nonpayable"},{"type":"function","name":"setExternalImageBaseURI","inputs":[{"name":"base","type":"string","internalType":"string"}],"outputs":[],"stateMutability":"nonpayable"},{"type":"function","name":"setName","inputs":[{"name":"newName","type":"string","internalType":"string"}],"outputs":[],"stateMutability":"nonpayable"},{"type":"function","name":"setStabilizer","inputs":[{"name":"_stabilizer","type":"address","internalType":"address"}],"outputs":[],"stateMutability":"nonpayable"},{"type":"function","name":"setSymbol","inputs":[{"name":"newSymbol","type":"string","internalType":"string"}],"outputs":[],"stateMutability":"nonpayable"},{"type":"function","name":"spYield","inputs":[{"name":"itemId","type":"uint256","internalType":"uint256"}],"outputs":[{"name":"","type":"uint8","internalType":"uint8"}],"stateMutability":"view"},{"type":"function","name":"stabilizer","inputs":[],"outputs":[{"name":"","type":"address","internalType":"address"}],"stateMutability":"view"},{"type":"function","name":"supportsInterface","inputs":[{"name":"interfaceId","type":"bytes4","internalType":"bytes4"}],"outputs":[{"name":"","type":"bool","internalType":"bool"}],"stateMutability":"view"},{"type":"function","name":"symbol","inputs":[],"outputs":[{"name":"","type":"string","internalType":"string"}],"stateMutability":"view"},{"type":"function","name":"transferOwnership","inputs":[{"name":"newOwner","type":"address","internalType":"address"}],"outputs":[],"stateMutability":"nonpayable"},{"type":"function","name":"uri","inputs":[{"name":"itemId","type":"uint256","internalType":"uint256"}],"outputs":[{"name":"","type":"string","internalType":"string"}],"stateMutability":"view"},{"type":"event","name":"ApprovalForAll","inputs":[{"name":"account","type":"address","indexed":true,"internalType":"address"},{"name":"operator","type":"address","indexed":true,"internalType":"address"},{"name":"approved","type":"bool","indexed":false,"internalType":"bool"}],"anonymous":false},{"type":"event","name":"CatalogUpdated","inputs":[{"name":"newCatalog","type":"address","indexed":true,"internalType":"address"}],"anonymous":false},{"type":"event","name":"Initialized","inputs":[{"name":"version","type":"uint64","indexed":false,"internalType":"uint64"}],"anonymous":false},{"type":"event","name":"OwnershipTransferred","inputs":[{"name":"previousOwner","type":"address","indexed":true,"internalType":"address"},{"name":"newOwner","type":"address","indexed":true,"internalType":"address"}],"anonymous":false},{"type":"event","name":"TransferBatch","inputs":[{"name":"operator","type":"address","indexed":true,"internalType":"address"},{"name":"from","type":"address","indexed":true,"internalType":"address"},{"name":"to","type":"address","indexed":true,"internalType":"address"},{"name":"ids","type":"uint256[]","indexed":false,"internalType":"uint256[]"},{"name":"values","type":"uint256[]","indexed":false,"internalType":"uint256[]"}],"anonymous":false},{"type":"event","name":"TransferSingle","inputs":[{"name":"operator","type":"address","indexed":true,"internalType":"address"},{"name":"from","type":"address","indexed":true,"internalType":"address"},{"name":"to","type":"address","indexed":true,"internalType":"address"},{"name":"id","type":"uint256","indexed":false,"internalType":"uint256"},{"name":"value","type":"uint256","indexed":false,"internalType":"uint256"}],"anonymous":false},{"type":"event","name":"URI","inputs":[{"name":"value","type":"string","indexed":false,"internalType":"string"},{"name":"id","type":"uint256","indexed":true,"internalType":"uint256"}],"anonymous":false},{"type":"error","name":"ERC1155InsufficientBalance","inputs":[{"name":"sender","type":"address","internalType":"address"},{"name":"balance","type":"uint256","internalType":"uint256"},{"name":"needed","type":"uint256","internalType":"uint256"},{"name":"tokenId","type":"uint256","internalType":"uint256"}]},{"type":"error","name":"ERC1155InvalidApprover","inputs":[{"name":"approver","type":"address","internalType":"address"}]},{"type":"error","name":"ERC1155InvalidArrayLength","inputs":[{"name":"idsLength","type":"uint256","internalType":"uint256"},{"name":"valuesLength","type":"uint256","internalType":"uint256"}]},{"type":"error","name":"ERC1155InvalidOperator","inputs":[{"name":"operator","type":"address","internalType":"address"}]},{"type":"error","name":"ERC1155InvalidReceiver","inputs":[{"name":"receiver","type":"address","internalType":"address"}]},{"type":"error","name":"ERC1155InvalidSender","inputs":[{"name":"sender","type":"address","internalType":"address"}]},{"type":"error","name":"ERC1155MissingApprovalForAll","inputs":[{"name":"operator","type":"address","internalType":"address"},{"name":"owner","type":"address","internalType":"address"}]},{"type":"error","name":"InvalidInitialization","inputs":[]},{"type":"error","name":"NotInitializing","inputs":[]},{"type":"error","name":"OwnableInvalidOwner","inputs":[{"name":"owner","type":"address","internalType":"address"}]},{"type":"error","name":"OwnableUnauthorizedAccount","inputs":[{"name":"account","type":"address","internalType":"address"}]}],"bytecode":{"object":"0x6080806040523460aa575f5160206135fa5f395f51905f525460ff8160401c16609b576002600160401b03196001600160401b038216016049575b60405161354b90816100af8239f35b6001600160401b0319166001600160401b039081175f5160206135fa5f395f51905f525581527fc7f505b2f371ae2175ee4913f4499e1f2633a7b5936321eed1cdaeb6115181d290602090a15f80603a565b63f92ee8a960e01b5f5260045ffd5b5f80fdfe60806040526004361015610011575f80fd5b5f3560e01c80624a84cb146101e2578062fdd58e146101dd57806301ffc9a7146101d857806306fdde03146101d35780630e89341c146101ce57806324cf86dd146101c95780632eb2c2d6146101c45780634e1273f4146101bf5780635f4c7696146101ba57806368f4af4d146101b5578063696a50b4146101b05780636b39dd8b146101ab578063715018a6146101a65780637ab4339d146101a15780637e47961c1461019c5780638bc6976e146101975780638da5cb5b14610192578063938e3d7b1461018d57806395d89b4114610188578063a22cb46514610183578063b84c82461461017e578063c47f002714610179578063d258153514610174578063db7f521a1461016f578063dec01c1c1461016a578063e8a3d48514610165578063e985e9c514610160578063f242432a1461015b5763f2fde38b14610156575f80fd5b611e6a565b611d80565b611d3b565b611d0c565b611c27565b611be1565b611a34565b611962565b61187d565b6117d3565b61172e565b61163d565b6115ba565b6114f7565b61143d565b61129c565b611235565b611190565b61107d565b610fe2565b610fba565b610ef9565b610e23565b610c14565b61043d565b610376565b6102d0565b610252565b61021f565b6001600160a01b038116036101f857565b5f80fd5b60609060031901126101f857600435610214816101e7565b906024359060443590565b346101f857610250610230366101fc565b90610239612a6e565b60405192610248602085610d10565b5f8452612aa1565b005b346101f85760403660031901126101f85760206102b5600435610274816101e7565b6024355f527f88be536d5240c274a3b1d3a1be54482fd9caa294f08c62a7cde569f49a3c4500835260405f209060018060a01b03165f5260205260405f2090565b54604051908152f35b6001600160e01b03198116036101f857565b346101f85760203660031901126101f85760206004356102ef816102be565b63ffffffff60e01b16636cdb3d1360e11b811490811561032d575b811561031c575b506040519015158152f35b6301ffc9a760e01b1490505f610311565b6303a24d0760e21b8114915061030a565b805180835260209291819084018484015e5f828201840152601f01601f1916010190565b90602061037392818152019061033e565b90565b346101f8575f3660031901126101f8576040515f600354610396816110a3565b808452906001811690811561041957506001146103ce575b6103ca836103be81850382610d10565b60405191829182610362565b0390f35b60035f9081525f5160206134965f395f51905f52939250905b8082106103ff575090915081016020016103be6103ae565b9192600181602092548385880101520191019092916103e7565b60ff191660208086019190915291151560051b840190910191506103be90506103ae565b346101f85760203660031901126101f85760043560015461047490610468906001600160a01b031681565b6001600160a01b031690565b604051630c550f3d60e21b8152600481018390525f81602481855afa908115610945575f91610bf2575b5060ff6104ac825160ff1690565b1680610bc557506104bb612112565b602082015160ff1680610b8357506104d16121c8565b905b60c083015160e0840151604051683d913730b6b2911d1160b91b6020820152928392909161050460298501836121ee565b61088b60f21b81526002016e113232b9b1b934b83a34b7b7111d1160891b8152600f01610530916121ee565b61088b60f21b81526002017f22636f6c6c656374696f6e223a2253746162696c697a6174696f6e204974656d8152651cc8158cc88b60d21b60208201526026016d2261747472696275746573223a5b60901b8152600e017f7b2274726169745f74797065223a224974656d204e616d65222c2276616c7565815262111d1160e91b60208201526023016105c2916121ee565b61227d60f01b81526002017f2c7b2274726169745f74797065223a22526172697479222c2276616c7565223a8152601160f91b6020820152602101610606916121ee565b61227d60f01b815260020103601f19810182526106239082610d10565b80918380516106329060ff1690565b60ff16600314159361071b936106a6936106fb9361070e9761094a575b6106ed92506106e0915061068e610688610681610670610693945160ff1690565b60ff165f52600260205260405f2090565b5460ff1690565b60ff1690565b612cd2565b6106da60405196879560208701906121ee565b7f2c7b2274726169745f74797065223a225350205969656c64222c2276616c7565815261111d60f11b602082015260220190565b906121ee565b607d60f81b815260010190565b03601f198101835282610d10565b6106ed60405193849260208401906121ee565b605d60f81b815260010190565b809261073960a061072a611e97565b9401516001600160a01b031690565b906001600160a01b0382166108a5575b50506106e06107cd6106ed946103be946107d2946103ca98606061076e6006546110a3565b15158061089b575b1561088b57506107b061078b6107a092612d82565b6106ed6040519384926106da60208501612225565b632e706e6760e01b815260040190565b8251610807575b5050506106ed60405193849260208401906121ee565b6130c2565b6040517f646174613a6170706c69636174696f6e2f6a736f6e3b6261736536342c0000006020820152928391603d83016106da565b610868935061084d610883936106936108379461085a61084d6106ed966106da604051998a9560208701906121ee565b69161134b6b0b3b2911d1160b11b8152600a0190565b601160f91b815260010190565b03601f198101865285610d10565b6e161134b6b0b3b2afb230ba30911d1160891b8152600f0190565b5f80806107b7565b90508251156107b05750816107b0565b5083511515610776565b6040805163f867555160e01b81526001600160a01b0393909316600484015260248301526009604483015268696d6167652f706e6760b81b6064830152909492505f90859060849082905afa8015610945576107cd6106ed946103be946107d2946106e0946103ca995f91610923575b509650945096509450610749565b61093f91503d805f833e6109378183610d10565b810190612200565b5f610915565b61209d565b610a589350610ad9926106ed6106e0610993946106da6109db6109cd61097f61097a6040610a1e9a015160010b90565b612bf1565b936106da6040519a8b9960208b01906121ee565b7f2c7b2274726169745f74797065223a225072696d617279205472616974222c228152673b30b63ab2911d1160c11b602082015260280190565b61227d60f01b815260020190565b7f2c7b2274726169745f74797065223a225072696d6172792044656c7461204d6181527033b734ba3ab2329116113b30b63ab2911d60791b602082015260310190565b606088015160ff168080610ae15750506106ed6106e0896106da610a946109cd61097f61097a6080610a4e6121c8565b965b015160010b90565b7f2c7b2274726169745f74797065223a225365636f6e646172792054726169742281526916113b30b63ab2911d1160b11b6020820152602a0190565b7f2c7b2274726169745f74797065223a225365636f6e646172792044656c74612081527226b0b3b734ba3ab2329116113b30b63ab2911d60691b602082015260330190565b5f808761064f565b60ff1660018103610b145750506106ed6106e0896106da610a946109cd61097f61097a6080610b0e6121a8565b96610a50565b600203610b3c57506106ed6106e0896106da610a946109cd61097f61097a6080610b0e61217f565b600303610b63576106ed6106e0896106da610a946109cd61097f61097a6080610b0e612158565b6106ed6106e0896106da610a946109cd61097f61097a6080610b0e612136565b60ff1660018103610b9d5750610b976121a8565b906104d3565b60028103610bae5750610b9761217f565b600303610bbd57610b97612158565b610b97612136565b60018103610bdb5750610bd66120ec565b6104bb565b600203610bea57610bd66120ca565b610bd66120a8565b610c0e91503d805f833e610c068183610d10565b810190611fc4565b5f61049e565b346101f85760203660031901126101f857600435610c31816101e7565b610c39612a6e565b6001600160a01b03168015610c8057600180546001600160a01b031916821790557f92f9c420481b575d4a74e9f2f3115948e66d72c4c7db17643df0270e762698c05f80a2005b60405162461bcd60e51b815260206004820152602d60248201527f4974656d546f6b656e313135353a20636174616c6f672063616e6e6f7420626560448201526c207a65726f206164647265737360981b6064820152608490fd5b634e487b7160e01b5f52604160045260245ffd5b61010081019081106001600160401b03821117610d0b57604052565b610cdb565b90601f801991011681019081106001600160401b03821117610d0b57604052565b60405190610d4161010083610d10565b565b6001600160401b038111610d0b5760051b60200190565b9080601f830112156101f8578135610d7181610d43565b92610d7f6040519485610d10565b81845260208085019260051b8201019283116101f857602001905b828210610da75750505090565b8135815260209182019101610d9a565b6001600160401b038111610d0b57601f01601f191660200190565b929192610dde82610db7565b91610dec6040519384610d10565b8294818452818301116101f8578281602093845f960137010152565b9080601f830112156101f85781602061037393359101610dd2565b346101f85760a03660031901126101f857600435610e40816101e7565b60243590610e4d826101e7565b6044356001600160401b0381116101f857610e6c903690600401610d5a565b6064356001600160401b0381116101f857610e8b903690600401610d5a565b90608435936001600160401b0385116101f857610eaf610250953690600401610e08565b9361230e565b90602080835192838152019201905f5b818110610ed25750505090565b8251845260209384019390920191600101610ec5565b906020610373928181520190610eb5565b346101f85760403660031901126101f8576004356001600160401b0381116101f857366023820112156101f857806004013590610f3582610d43565b91610f436040519384610d10565b8083526024602084019160051b830101913683116101f857602401905b828210610fa057836024356001600160401b0381116101f8576103ca91610f8e610f94923690600401610d5a565b9061238c565b60405191829182610ee8565b602080918335610faf816101e7565b815201910190610f60565b346101f8575f3660031901126101f8576001546040516001600160a01b039091168152602090f35b346101f85760203660031901126101f857600154604051630c550f3d60e21b81526004803590820152905f90829060249082906001600160a01b03165afa9081156109455761068160ff6103ca9361104f935f91611063575b50511660ff165f52600260205260405f2090565b60405160ff90911681529081906020820190565b61107791503d805f833e610c068183610d10565b5f61103b565b346101f85761025061108e366101fc565b9061023960018060a01b035f54163314612421565b90600182811c921680156110d1575b60208310146110bd57565b634e487b7160e01b5f52602260045260245ffd5b91607f16916110b2565b604051905f82600554916110ee836110a3565b80835292600181169081156111715750600114611112575b610d4192500383610d10565b5060055f90815290917f036b6384b5eca791c62761152d0c79bb0604c104a5fb6f4eb0703f3154bb3db05b818310611155575050906020610d4192820101611106565b602091935080600191548385890101520191019091849261113d565b60209250610d4194915060ff191682840152151560051b820101611106565b346101f8575f3660031901126101f8576040515f6006546111b0816110a3565b808452906001811690811561041957506001146111d7576103ca836103be81850382610d10565b60065f9081527ff652222313e28459528d920b65115c16c04f3efc82aaedc97be59f3f377c0d3f939250905b80821061121b575090915081016020016103be6103ae565b919260018160209254838588010152019101909291611203565b346101f8575f3660031901126101f85761124d612a6e565b5f5160206134b65f395f51905f5280546001600160a01b031981169091555f906001600160a01b03167f8be0079c531659141344cd1fd0a4f28419497f9722a3daafe3b4186f6b6457e08280a3005b346101f85760403660031901126101f8576004356001600160401b0381116101f857366023820112156101f8576112dd903690602481600401359101610dd2565b602435906112ea826101e7565b5f5160206134d65f395f51905f5254916001600160401b0361131b60ff604086901c1615946001600160401b031690565b1680159081611435575b600114908161142b575b159081611422575b506114135761137a918361137160016001600160401b03195f5160206134d65f395f51905f525416175f5160206134d65f395f51905f5255565b6113d95761267c565b61138057005b6113aa60ff60401b195f5160206134d65f395f51905f5254165f5160206134d65f395f51905f5255565b604051600181527fc7f505b2f371ae2175ee4913f4499e1f2633a7b5936321eed1cdaeb6115181d290602090a1005b61140e6801000000000000000060ff60401b195f5160206134d65f395f51905f525416175f5160206134d65f395f51905f5255565b61267c565b63f92ee8a960e01b5f5260045ffd5b9050155f611337565b303b15915061132f565b849150611325565b346101f8575f3660031901126101f8575f546040516001600160a01b039091168152602090f35b90610373916020815260ff825116602082015261148b6020830151604083019060ff169052565b604082015160010b6060820152606082015160ff166080820152608082015160010b60a082015260a08201516001600160a01b031660c082015260e06114e160c08401516101008385015261012084019061033e565b92015190610100601f198285030191015261033e565b346101f85760203660031901126101f85761157e5f600435606060e060405161151f81610cef565b84815284602082015284604082015284838201528460808201528460a08201528260c0820152015261155e61046861046860015460018060a01b031690565b6040518080958194630c550f3d60e21b8352600483019190602083019252565b03915afa8015610945576103ca915f916115a0575b5060405191829182611464565b6115b491503d805f833e610c068183610d10565b5f611593565b346101f8575f3660031901126101f8575f5160206134b65f395f51905f52546040516001600160a01b039091168152602090f35b9060206003198301126101f8576004356001600160401b0381116101f857826023820112156101f8578060040135926001600160401b0384116101f857602484830101116101f8576024019190565b346101f85761164b366115ee565b611653612a6e565b6001600160401b038111610d0b57611675816116706005546110a3565b612483565b5f601f82116001146116b25781906116a2935f926116a7575b50508160011b915f199060031b1c19161790565b600555005b013590505f8061168e565b60055f52601f198216927f036b6384b5eca791c62761152d0c79bb0604c104a5fb6f4eb0703f3154bb3db0915f5b858110611716575083600195106116fd575b505050811b01600555005b01355f19600384901b60f8161c191690555f80806116f2565b909260206001819286860135815501940191016116e0565b346101f8575f3660031901126101f8576040515f60045461174e816110a3565b80845290600181169081156104195750600114611775576103ca836103be81850382610d10565b60045f9081527f8a35acfbc15ff81a39ae7d344fd709f28e8600b4aa8c65c6b64bfe7fe36bd19b939250905b8082106117b9575090915081016020016103be6103ae565b9192600181602092548385880101520191019092916117a1565b346101f85760403660031901126101f8576004356117f0816101e7565b6024358015158091036101f8576001600160a01b03821691821561186b576118309061181b33611ed8565b9060018060a01b03165f5260205260405f2090565b60ff1981541660ff83161790556040519081527f17307eab39ab6107e8899845ad3d59bd9653f200f220920489ca2b5937696c3160203392a3005b62ced3e160e81b5f525f60045260245ffd5b346101f85761188b366115ee565b611893612a6e565b6001600160401b038111610d0b576118b5816118b06004546110a3565b6124c6565b5f601f82116001146118e65781906118e1935f926116a75750508160011b915f199060031b1c19161790565b600455005b60045f52601f198216927f8a35acfbc15ff81a39ae7d344fd709f28e8600b4aa8c65c6b64bfe7fe36bd19b915f5b85811061194a57508360019510611931575b505050811b01600455005b01355f19600384901b60f8161c191690555f8080611926565b90926020600181928686013581550194019101611914565b346101f857611970366115ee565b611978612a6e565b6001600160401b038111610d0b5761199a816119956003546110a3565b6124fe565b5f601f82116001146119cb5781906119c6935f926116a75750508160011b915f199060031b1c19161790565b600355005b60035f52601f198216925f5160206134965f395f51905f52915f5b858110611a1c57508360019510611a03575b505050811b01600355005b01355f19600384901b60f8161c191690555f80806119f8565b909260206001819286860135815501940191016119e6565b346101f857611a42366101fc565b90611a5760018060a01b035f54163314612421565b6001600160a01b038316918215611bcf57611a8f60405192600184526020840152604083019160018352606084015260808301604052565b906020905f604051611aa18482610d10565b528051835190818103611bba5750505f5b8151811015611b32578060051b838082850101519186010151611ad88861181b84611eab565b54818110611afb578861181b6001959493611af4930393611eab565b5501611ab2565b6040516303dee4c560e01b81526001600160a01b038a16600482015260248101919091526044810182905260648101839052608490fd5b505f92849260018351148514611b86579182015191015160408051928352602083019190915233917fc3d58168c5ae7397731d063d5bbf3d657854427343f4c083240f7aacaa2d0f6291819081015b0390a4005b50611b817f4a39dc06d4c0dbc64b70af90fd698a233a518aa5d07e595d983b8c0526c8f7fb9160405191829133958361320c565b635b05999160e01b5f5260045260245260445ffd5b626a0d4560e21b5f525f60045260245ffd5b346101f85760203660031901126101f857600435611bfe816101e7565b611c06612a6e565b5f80546001600160a01b0319166001600160a01b0392909216919091179055005b346101f857611c35366115ee565b611c3d612a6e565b6001600160401b038111610d0b57611c5f81611c5a6006546110a3565b612536565b5f601f8211600114611c90578190611c8b935f926116a75750508160011b915f199060031b1c19161790565b600655005b60065f52601f198216927ff652222313e28459528d920b65115c16c04f3efc82aaedc97be59f3f377c0d3f915f5b858110611cf457508360019510611cdb575b505050811b01600655005b01355f19600384901b60f8161c191690555f8080611cd0565b90926020600181928686013581550194019101611cbe565b346101f8575f3660031901126101f8576103ca611d276128cc565b60405191829160208352602083019061033e565b346101f85760403660031901126101f857602060ff611d74600435611d5f816101e7565b61181b60243591611d6f836101e7565b611ed8565b54166040519015158152f35b346101f85760a03660031901126101f857600435611d9d816101e7565b602435611da9816101e7565b60443590606435926084356001600160401b0381116101f857611dd0903690600401610e08565b926001600160a01b0382163381141580611e59575b611e43576001600160a01b03841615611e305715611bcf5761025094611e2860405192600184526020840152604083019160018352606084015260808301604052565b929091612eec565b632bfa23e760e11b5f525f60045260245ffd5b63711bec9160e11b5f523360045260245260445ffd5b50611e6433846129e9565b15611de5565b346101f85760203660031901126101f857610250600435611e8a816101e7565b611e92612a6e565b6129fd565b60405190611ea6602083610d10565b5f8252565b5f527f88be536d5240c274a3b1d3a1be54482fd9caa294f08c62a7cde569f49a3c450060205260405f2090565b6001600160a01b03165f9081527f88be536d5240c274a3b1d3a1be54482fd9caa294f08c62a7cde569f49a3c45016020526040902090565b611f53915f527f88be536d5240c274a3b1d3a1be54482fd9caa294f08c62a7cde569f49a3c450060205260405f209060018060a01b03165f5260205260405f2090565b5490565b519060ff821682036101f857565b51908160010b82036101f857565b5190610d41826101e7565b81601f820112156101f857805190611f9582610db7565b92611fa36040519485610d10565b828452602083830101116101f857815f9260208093018386015e8301015290565b6020818303126101f8578051906001600160401b0382116101f85701610100818303126101f857611ff3610d31565b91611ffd82611f57565b835261200b60208301611f57565b602084015261201c60408301611f65565b604084015261202d60608301611f57565b606084015261203e60808301611f65565b608084015261204f60a08301611f73565b60a084015260c08201516001600160401b0381116101f85781612073918401611f7e565b60c084015260e08201516001600160401b0381116101f8576120959201611f7e565b60e082015290565b6040513d5f823e3d90fd5b604051906120b7604083610d10565b60048252634570696360e01b6020830152565b604051906120d9604083610d10565b60048252635261726560e01b6020830152565b604051906120fb604083610d10565b60088252672ab731b7b6b6b7b760c11b6020830152565b60405190612121604083610d10565b600682526521b7b6b6b7b760d11b6020830152565b60405190612145604083610d10565b60048252634e6f6e6560e01b6020830152565b60405190612167604083610d10565b60098252684672657175656e637960b81b6020830152565b6040519061218e604083610d10565b600b82526a54656d706572617475726560a81b6020830152565b604051906121b7604083610d10565b60028252610e0960f31b6020830152565b604051906121d7604083610d10565b600882526753616c696e69747960c01b6020830152565b805191908290602001825e015f815290565b906020828203126101f85781516001600160401b0381116101f8576103739201611f7e565b6006545f9291612234826110a3565b916001811690811561229a575060011461224c575050565b60065f90815292935090917ff652222313e28459528d920b65115c16c04f3efc82aaedc97be59f3f377c0d3f5b8382106122865750500190565b600181602092548486015201910190612279565b60ff1916825250811515909102019150565b6003545f92916122bb826110a3565b916001811690811561229a57506001146122d3575050565b60035f90815292935090915f5160206134965f395f51905f525b8382106122fa5750500190565b6001816020925484860152019101906122ed565b939291906001600160a01b0385163381141580612347575b611e43576001600160a01b03821615611e305715611bcf57610d4194612eec565b5060ff6123573361181b89611ed8565b541615612326565b634e487b7160e01b5f52603260045260245ffd5b80518210156123875760209160051b010190565b61235f565b9190918051835180820361240c5750508051906123a882610d43565b916123b66040519384610d10565b8083526123c5601f1991610d43565b013660208401375f5b815181101561240557806123f460019260051b6020808287010151918901015190611f10565b6123fe8286612373565b52016123ce565b5090925050565b635b05999160e01b5f5260045260245260445ffd5b1561242857565b60405162461bcd60e51b815260206004820152601e60248201527f4974656d546f6b656e313135353a206f6e6c792073746162696c697a657200006044820152606490fd5b818110612478575050565b5f815560010161246d565b90601f8211612490575050565b610d419160055f5260205f20906020601f840160051c830193106124bc575b601f0160051c019061246d565b90915081906124af565b90601f82116124d3575050565b610d419160045f5260205f20906020601f840160051c830193106124bc57601f0160051c019061246d565b90601f821161250b575050565b610d419160035f5260205f20906020601f840160051c830193106124bc57601f0160051c019061246d565b90601f8211612543575050565b610d419160065f5260205f20906020601f840160051c830193106124bc57601f0160051c019061246d565b90601f821161257b575050565b610d41915f5160206134f65f395f51905f525f5260205f20906020601f840160051c830193106124bc57601f0160051c019061246d565b6125bd6003546110a3565b601f81116125ed575b507f53746162696c697a6174696f6e204974656d732056310000000000000000002c600355565b60035f5261261290601f0160051c5f5160206134965f395f51905f529081019061246d565b5f6125c6565b6126236004546110a3565b601f811161263e575b50600a644954454d5360d81b01600455565b60045f5261267690601f0160051c7f8a35acfbc15ff81a39ae7d344fd709f28e8600b4aa8c65c6b64bfe7fe36bd19b9081019061246d565b5f61262c565b6126846131e1565b61268c6131e1565b8051906001600160401b038211610d0b576126bd826126b85f5160206134f65f395f51905f52546110a3565b61256e565b602090601f831160011461282d5791806126f09261272b95945f926128225750508160011b915f199060031b1c19161790565b5f5160206134f65f395f51905f52555b61270933612ed8565b60018060a01b03166bffffffffffffffffffffffff60a01b6001541617600155565b6127336125b2565b61273b612618565b5f805260026020526127747fac33ff75c19e70fe83507db0d683fd3465c996598dc972688b7ace676c89077b805460ff19166001179055565b60015f5260026020526127ae7fe90b7bceb6e7df5418fb78d8ee546e97c83a08bbccc01a0644d599ccd2a7c2e0805460ff19166002179055565b60025f8190526020526127e87f679795a0195a1b76cdebb7c51d74e058aee92919b8c3389af86ef24535e8a28c805460ff19166003179055565b60035f526002602052610d417f88601476d11616a71c5be67555bd1dff4b1cbf21533d2669b768b61518cfe1c3805460ff19166005179055565b015190505f8061168e565b5f5160206134f65f395f51905f525f52601f19831691907ff429cb5e2ec84cbb765e76b31964a56ccde03e7a6122d6cc4afb19edc55edeed925f5b8181106128b4575091600193918561272b9796941061289c575b505050811b015f5160206134f65f395f51905f5255612700565b01515f1960f88460031b161c191690555f8080612882565b92936020600181928786015181550195019301612868565b6128d76005546110a3565b6129e1576106ed6103736107d2604051683d913730b6b2911d1160b91b60208201526107cd60a48261290b602982016122ac565b7f222c226465736372697074696f6e223a224f6e2d636861696e20746f6f6c732c81527f206172746966616374732c20616e6420616e6f6d616c6965732075736564206960208201527f6e2073746162696c697a696e67206372656174757265732077697468696e207460408201527f6865204e4d47492065636f73797374656d2e222c2265787465726e616c5f757260608201527f6c223a2268747470733a2f2f7870726d696e742e636f6d222c22696d616765226080820152633a22227d60e01b60a0820152036084810184520182610d10565b6103736110db565b60ff9161181b6129f892611ed8565b541690565b6001600160a01b03168015612a5b575f5160206134b65f395f51905f5280546001600160a01b0319811683179091556001600160a01b03167f8be0079c531659141344cd1fd0a4f28419497f9722a3daafe3b4186f6b6457e05f80a3565b631e4fbdf760e01b5f525f60045260245ffd5b5f5160206134b65f395f51905f52546001600160a01b03163303612a8e57565b63118cdaa760e01b5f523360045260245ffd5b6001600160a01b03811693929091908415611e3057612add60405192600184526020840152604083019160018352606084015260808301604052565b928151845190818103611bba5750505f5b8251811015612b2b578060019160051b612b23612b1b8761181b602080868b010151958c01015194611eab565b918254612cb4565b905501612aee565b5092919360018251145f14612ba2576020828101518482015160408051928352928201525f9133917fc3d58168c5ae7397731d063d5bbf3d657854427343f4c083240f7aacaa2d0f629190a45b8051600103612b975790602080610d4195930151910151915f336133f7565b610d41935f336132c8565b5f6040517f4a39dc06d4c0dbc64b70af90fd698a233a518aa5d07e595d983b8c0526c8f7fb339180612bd588888361320c565b0390a4612b78565b634e487b7160e01b5f52601160045260245ffd5b8060010b5f8112612c0a575061ffff6103739116612cd2565b9050617fff198114612c4557610373612c2b61ffff6106ed935f0316612cd2565b604051928391602d60f81b602084015260218301906121ee565b612bdd565b5f198114612c455760010190565b90612c6282610db7565b612c6f6040519182610d10565b8281528092612c80601f1991610db7565b0190602036910137565b5f19810191908211612c4557565b6030019081603011612c4557565b9060028201809211612c4557565b91908201809211612c4557565b908151811015612387570160200190565b908115612d61575f82805b612d42575080612ced8492612c58565b915b612cf857509150565b612d04612d3b91612c8a565b93612d27612d17610688600a8406612c98565b60f81b6001600160f81b03191690565b5f1a612d338685612cc1565b53600a900490565b9283612cef565b9290612d50612d5891612c4a565b93600a900490565b80939193612cdd565b9050604051612d71604082610d10565b60018152600360fc1b602082015290565b805f9172184f03e93ff9f4daa797ed6e38ed64bf6a1f0160401b821015612eb5575b806d04ee2d6d415b85acef8100000000600a921015612e99575b662386f26fc10000811015612e84575b6305f5e100811015612e72575b612710811015612e62575b6064811015612e53575b1015612e48575b612e336021612e0860018501612c58565b938401015b5f1901916f181899199a1a9b1b9c1cb0b131b232b360811b600a82061a8353600a900490565b8015612e4357612e339091612e0d565b505090565b600190910190612df7565b60029060649004930192612df0565b6004906127109004930192612de6565b6008906305f5e1009004930192612ddb565b601090662386f26fc100009004930192612dce565b6020906d04ee2d6d415b85acef81000000009004930192612dbe565b506040915072184f03e93ff9f4daa797ed6e38ed64bf6a1f0160401b8104612da4565b610d4190612ee46131e1565b611e926131e1565b9493929091938451825190818103611bba5750506001600160a01b038681169586151595918516801515939192905f5b8451811015612fdd578060051b90898988602080868b010151958c01015192612f6c575b93600194612f52575b50505001612f1c565b612f629161181b612b1b92611eab565b90555f8981612f49565b50509091612f7d8d61181b83611eab565b54828110612fa6578291898f612f9d600197968f95039161181b85611eab565b55909450612f40565b6040516303dee4c560e01b81526001600160a01b038f16600482015260248101919091526044810183905260648101829052608490fd5b5091989593929790965060018851145f146130705760208881015186820151604080519283529282015233917fc3d58168c5ae7397731d063d5bbf3d657854427343f4c083240f7aacaa2d0f6291a45b613039575b5050505050565b845160010361305f5760208061305596015192015192336133f7565b5f80808080613032565b61306b949192336132c8565b613055565b6040517f4a39dc06d4c0dbc64b70af90fd698a233a518aa5d07e595d983b8c0526c8f7fb3391806130a2898d8361320c565b0390a461302d565b600281901b91906001600160fe1b03811603612c4557565b908151156131d7576130e66130e16130da8451612ca6565b6003900490565b6130aa565b90604051917f4142434445464748494a4b4c4d4e4f505152535455565758595a616263646566601f527f6768696a6b6c6d6e6f707172737475767778797a303132333435363738392b2f603f52602083018480518101602081018051915f82525b80891061319b575060209596975090600392915251068060011461318657600214613179575b50808452830101604052565b603d905f1901535f61316d565b50603d90815f1982015360011901535f61316d565b939760036004910198603f8a51818160121c165183538181600c1c16516001840153818160061c16516002840153165160038201530193613147565b9050610373611e97565b60ff5f5160206134d65f395f51905f525460401c16156131fd57565b631afcd79f60e31b5f5260045ffd5b909161322361037393604084526040840190610eb5565b916020818403910152610eb5565b908160209103126101f85751610373816102be565b6001600160a01b0391821681529116602082015260a060408201819052610373949193919261328b929161327d9190860190610eb5565b908482036060860152610eb5565b91608081840391015261033e565b3d156132c3573d906132aa82610db7565b916132b86040519384610d10565b82523d5f602084013e565b606090565b9091949293853b6132dc575b505050505050565b6020936132fe91604051968795869563bc197c8160e01b875260048701613246565b03815f6001600160a01b0387165af15f918161338d575b5061334f5750613323613299565b805191908261334857632bfa23e760e11b5f526001600160a01b03821660045260245ffd5b6020915001fd5b6001600160e01b0319166343e6837f60e01b0161337257505f80808080806132d4565b632bfa23e760e11b5f526001600160a01b031660045260245ffd5b6133b091925060203d6020116133b7575b6133a88183610d10565b810190613231565b905f613315565b503d61339e565b6001600160a01b039182168152911660208201526040810191909152606081019190915260a0608082018190526103739291019061033e565b9091949293853b61340a57505050505050565b60209361342c91604051968795869563f23a6e6160e01b8752600487016133be565b03815f6001600160a01b0387165af15f9181613474575b506134515750613323613299565b6001600160e01b031916630dc5919f60e01b0161337257505f80808080806132d4565b61348e91925060203d6020116133b7576133a88183610d10565b905f61344356fec2575a0e9e593c00f959f8c92f12db2869c3395a3b0502d05e2516446f71f85b9016d09d72d40fdae2fd8ceac6b6234c7706214fd39c1cd1e609a0528c199300f0c57e16840df040f15088dc2f81fe391c3923bec73e23a9662efc9c229c6a0088be536d5240c274a3b1d3a1be54482fd9caa294f08c62a7cde569f49a3c4502a2646970667358221220109ad6fef48814c2d34ca5ef558fd24cfdb803072f7aedb6c0737f02f228a28564736f6c634300081c0033f0c57e16840df040f15088dc2f81fe391c3923bec73e23a9662efc9c229c6a00","linkReferences":{}},"methodIdentifiers":{"adminMint(address,uint256,uint256)":"004a84cb","balanceOf(address,uint256)":"00fdd58e","balanceOfBatch(address[],uint256[])":"4e1273f4","burnItem(address,uint256,uint256)":"d2581535","contractURI()":"e8a3d485","externalImageBaseURI()":"6b39dd8b","getItemData(uint256)":"8bc6976e","initialize(string,address)":"7ab4339d","isApprovedForAll(address,address)":"e985e9c5","itemCatalog()":"5f4c7696","mintItem(address,uint256,uint256)":"696a50b4","name()":"06fdde03","owner()":"8da5cb5b","renounceOwnership()":"715018a6","safeBatchTransferFrom(address,address,uint256[],uint256[],bytes)":"2eb2c2d6","safeTransferFrom(address,address,uint256,uint256,bytes)":"f242432a","setApprovalForAll(address,bool)":"a22cb465","setCatalog(address)":"24cf86dd","setContractURI(string)":"938e3d7b","setExternalImageBaseURI(string)":"dec01c1c","setName(string)":"c47f0027","setStabilizer(address)":"db7f521a","setSymbol(string)":"b84c8246","spYield(uint256)":"68f4af4d","stabilizer()":"7e47961c","supportsInterface(bytes4)":"01ffc9a7","symbol()":"95d89b41","transferOwnership(address)":"f2fde38b","uri(uint256)":"0e89341c"},"id":19}