{"abi":[{"type":"function","name":"initialize","inputs":[{"name":"proxyAdmins","type":"address[]","internalType":"address[]"},{"name":"newOwner","type":"address","internalType":"address"}],"outputs":[],"stateMutability":"nonpayable"},{"type":"function","name":"owner","inputs":[],"outputs":[{"name":"","type":"address","internalType":"address"}],"stateMutability":"view"},{"type":"function","name":"renounceOwnership","inputs":[],"outputs":[],"stateMutability":"nonpayable"},{"type":"function","name":"transferOwnership","inputs":[{"name":"newOwner","type":"address","internalType":"address"}],"outputs":[],"stateMutability":"nonpayable"},{"type":"event","name":"Initialized","inputs":[{"name":"version","type":"uint64","indexed":false,"internalType":"uint64"}],"anonymous":false},{"type":"event","name":"OwnershipTransferred","inputs":[{"name":"previousOwner","type":"address","indexed":true,"internalType":"address"},{"name":"newOwner","type":"address","indexed":true,"internalType":"address"}],"anonymous":false},{"type":"error","name":"InvalidInitialization","inputs":[]},{"type":"error","name":"NotInitializing","inputs":[]},{"type":"error","name":"OwnableInvalidOwner","inputs":[{"name":"owner","type":"address","internalType":"address"}]},{"type":"error","name":"OwnableUnauthorizedAccount","inputs":[{"name":"account","type":"address","internalType":"address"}]}],"bytecode":{"object":"0x608060405234801561000f575f80fd5b506104e68061001d5f395ff3fe608060405234801561000f575f80fd5b506004361061004a575f3560e01c8063462d0b2e1461004e578063715018a6146100635780638da5cb5b1461006b578063f2fde38b146100a9575b5f80fd5b61006161005c3660046103ff565b6100bc565b005b610061610262565b7f9016d09d72d40fdae2fd8ceac6b6234c7706214fd39c1cd1e609a0528c19930054604080516001600160a01b039092168252519081900360200190f35b6100616100b736600461047c565b610275565b7ff0c57e16840df040f15088dc2f81fe391c3923bec73e23a9662efc9c229c6a008054600160401b810460ff16159067ffffffffffffffff165f811580156101015750825b90505f8267ffffffffffffffff16600114801561011d5750303b155b90508115801561012b575080155b156101495760405163f92ee8a960e01b815260040160405180910390fd5b845467ffffffffffffffff19166001178555831561017357845460ff60401b1916600160401b1785555b61017c336102b7565b5f5b87811015610211578888828181106101985761019861049c565b90506020020160208101906101ad919061047c565b60405163f2fde38b60e01b81526001600160a01b038981166004830152919091169063f2fde38b906024015f604051808303815f87803b1580156101ef575f80fd5b505af1158015610201573d5f803e3d5ffd5b50506001909201915061017e9050565b50831561025857845460ff60401b19168555604051600181527fc7f505b2f371ae2175ee4913f4499e1f2633a7b5936321eed1cdaeb6115181d29060200160405180910390a15b5050505050505050565b61026a6102c8565b6102735f610323565b565b61027d6102c8565b6001600160a01b0381166102ab57604051631e4fbdf760e01b81525f60048201526024015b60405180910390fd5b6102b481610323565b50565b6102bf610393565b6102b4816103dc565b336102fa7f9016d09d72d40fdae2fd8ceac6b6234c7706214fd39c1cd1e609a0528c199300546001600160a01b031690565b6001600160a01b0316146102735760405163118cdaa760e01b81523360048201526024016102a2565b7f9016d09d72d40fdae2fd8ceac6b6234c7706214fd39c1cd1e609a0528c19930080546001600160a01b031981166001600160a01b03848116918217845560405192169182907f8be0079c531659141344cd1fd0a4f28419497f9722a3daafe3b4186f6b6457e0905f90a3505050565b7ff0c57e16840df040f15088dc2f81fe391c3923bec73e23a9662efc9c229c6a0054600160401b900460ff1661027357604051631afcd79f60e31b815260040160405180910390fd5b61027d610393565b80356001600160a01b03811681146103fa575f80fd5b919050565b5f805f60408486031215610411575f80fd5b833567ffffffffffffffff80821115610428575f80fd5b818601915086601f83011261043b575f80fd5b813581811115610449575f80fd5b8760208260051b850101111561045d575f80fd5b60209283019550935061047391860190506103e4565b90509250925092565b5f6020828403121561048c575f80fd5b610495826103e4565b9392505050565b634e487b7160e01b5f52603260045260245ffdfea2646970667358221220b2b4c7345abea07bf0d95b0cd7776e700acefbed4d71e3e0e83fe442a42cfbe264736f6c63430008180033","linkReferences":{}},"methodIdentifiers":{"initialize(address[],address)":"462d0b2e","owner()":"8da5cb5b","renounceOwnership()":"715018a6","transferOwnership(address)":"f2fde38b"},"id":2}