{"abi":[{"type":"function","name":"initialize","inputs":[{"name":"proxyAdmins","type":"address[]","internalType":"address[]"},{"name":"newOwner","type":"address","internalType":"address"}],"outputs":[],"stateMutability":"nonpayable"},{"type":"function","name":"owner","inputs":[],"outputs":[{"name":"","type":"address","internalType":"address"}],"stateMutability":"view"},{"type":"function","name":"renounceOwnership","inputs":[],"outputs":[],"stateMutability":"nonpayable"},{"type":"function","name":"transferOwnership","inputs":[{"name":"newOwner","type":"address","internalType":"address"}],"outputs":[],"stateMutability":"nonpayable"},{"type":"event","name":"Initialized","inputs":[{"name":"version","type":"uint64","indexed":false,"internalType":"uint64"}],"anonymous":false},{"type":"event","name":"OwnershipTransferred","inputs":[{"name":"previousOwner","type":"address","indexed":true,"internalType":"address"},{"name":"newOwner","type":"address","indexed":true,"internalType":"address"}],"anonymous":false},{"type":"error","name":"InvalidInitialization","inputs":[]},{"type":"error","name":"NotInitializing","inputs":[]},{"type":"error","name":"OwnableInvalidOwner","inputs":[{"name":"owner","type":"address","internalType":"address"}]},{"type":"error","name":"OwnableUnauthorizedAccount","inputs":[{"name":"account","type":"address","internalType":"address"}]}],"bytecode":{"object":"0x60808060405234601557610497908161001a8239f35b5f80fdfe60806040526004361015610011575f80fd5b5f3560e01c8063462d0b2e1461011b578063715018a6146100b45780638da5cb5b146100805763f2fde38b14610045575f80fd5b3461007c57602036600319011261007c576004356001600160a01b038116810361007c5761007a906100756103c3565b610352565b005b5f80fd5b3461007c575f36600319011261007c575f5160206104225f395f51905f52546040516001600160a01b039091168152602090f35b3461007c575f36600319011261007c576100cc6103c3565b5f5160206104225f395f51905f5280546001600160a01b031981169091555f906001600160a01b03167f8be0079c531659141344cd1fd0a4f28419497f9722a3daafe3b4186f6b6457e08280a3005b3461007c57604036600319011261007c5760043567ffffffffffffffff811161007c573660238201121561007c57806004013567ffffffffffffffff811161007c573660248260051b8401011161007c576024356001600160a01b038116929083900361007c575f5160206104425f395f51905f525460ff8160401c16159067ffffffffffffffff81168015908161034a575b6001149081610340575b159081610337575b506103285767ffffffffffffffff1981166001175f5160206104425f395f51905f5255816102fc575b506101f26103f6565b6101fa6103f6565b61020333610352565b5f5b8381101561029e576024600582901b840101356001600160a01b038116919082900361007c57813b1561007c575f809260246040518095819363f2fde38b60e01b83528b60048401525af1801561029357610265575b6001915001610205565b67ffffffffffffffff821161027f5760019160405261025b565b634e487b7160e01b5f52604160045260245ffd5b6040513d5f823e3d90fd5b506102a557005b68ff0000000000000000195f5160206104425f395f51905f5254165f5160206104425f395f51905f52557fc7f505b2f371ae2175ee4913f4499e1f2633a7b5936321eed1cdaeb6115181d2602060405160018152a1005b68ffffffffffffffffff191668010000000000000001175f5160206104425f395f51905f5255846101e9565b63f92ee8a960e01b5f5260045ffd5b905015866101c0565b303b1591506101b8565b8391506101ae565b6001600160a01b031680156103b0575f5160206104225f395f51905f5280546001600160a01b0319811683179091556001600160a01b03167f8be0079c531659141344cd1fd0a4f28419497f9722a3daafe3b4186f6b6457e05f80a3565b631e4fbdf760e01b5f525f60045260245ffd5b5f5160206104225f395f51905f52546001600160a01b031633036103e357565b63118cdaa760e01b5f523360045260245ffd5b60ff5f5160206104425f395f51905f525460401c161561041257565b631afcd79f60e31b5f5260045ffdfe9016d09d72d40fdae2fd8ceac6b6234c7706214fd39c1cd1e609a0528c199300f0c57e16840df040f15088dc2f81fe391c3923bec73e23a9662efc9c229c6a00a26469706673582212205dc7fc9da337976c5fb58182bb9c8909547cb80d67c35fc5b17320145d2fcd2464736f6c634300081c0033","linkReferences":{}},"methodIdentifiers":{"initialize(address[],address)":"462d0b2e","owner()":"8da5cb5b","renounceOwnership()":"715018a6","transferOwnership(address)":"f2fde38b"},"id":6}