{"abi":[{"type":"receive","stateMutability":"payable"},{"type":"function","name":"transferOwnerships","inputs":[{"name":"proxyAdmins","type":"address[]","internalType":"address[]"},{"name":"newOwner","type":"address","internalType":"address"}],"outputs":[],"stateMutability":"nonpayable"}],"bytecode":{"object":"0x608060405234801561000f575f80fd5b506101e98061001d5f395ff3fe608060405260043610610020575f3560e01c80634ab8e2c11461002b575f80fd5b3661002757005b5f80fd5b348015610036575f80fd5b5061004a610045366004610102565b61004c565b005b5f5b828110156100e1578383828181106100685761006861017f565b905060200201602081019061007d9190610193565b60405163f2fde38b60e01b81526001600160a01b038481166004830152919091169063f2fde38b906024015f604051808303815f87803b1580156100bf575f80fd5b505af11580156100d1573d5f803e3d5ffd5b50506001909201915061004e9050565b50505050565b80356001600160a01b03811681146100fd575f80fd5b919050565b5f805f60408486031215610114575f80fd5b833567ffffffffffffffff8082111561012b575f80fd5b818601915086601f83011261013e575f80fd5b81358181111561014c575f80fd5b8760208260051b8501011115610160575f80fd5b60209283019550935061017691860190506100e7565b90509250925092565b634e487b7160e01b5f52603260045260245ffd5b5f602082840312156101a3575f80fd5b6101ac826100e7565b939250505056fea264697066735822122039500518f894d288a2f217228cf7575ca844a7259f672b76b021b9587374b06164736f6c63430008180033","linkReferences":{}},"methodIdentifiers":{"transferOwnerships(address[],address)":"4ab8e2c1"},"id":0}