{"abi":[{"type":"function","name":"initialize","inputs":[{"name":"_proxyAdmins","type":"address[]","internalType":"address[]"},{"name":"_newOwner","type":"address","internalType":"address"}],"outputs":[],"stateMutability":"nonpayable"},{"type":"function","name":"newOwner","inputs":[],"outputs":[{"name":"","type":"address","internalType":"address"}],"stateMutability":"view"},{"type":"function","name":"ownershipTransferred","inputs":[],"outputs":[{"name":"","type":"bool","internalType":"bool"}],"stateMutability":"view"},{"type":"function","name":"proxyAdmins","inputs":[{"name":"","type":"uint256","internalType":"uint256"}],"outputs":[{"name":"","type":"address","internalType":"address"}],"stateMutability":"view"}],"bytecode":{"object":"0x608060405234801561000f575f80fd5b506103a88061001d5f395ff3fe608060405234801561000f575f80fd5b506004361061004a575f3560e01c8063462d0b2e1461004e5780639096063514610063578063d4ee1d9014610093578063e6cfe6fc146100a6575b5f80fd5b61006161005c3660046102aa565b6100ca565b005b610076610071366004610327565b6101f3565b6040516001600160a01b0390911681526020015b60405180910390f35b600154610076906001600160a01b031681565b6001546100ba90600160a01b900460ff1681565b604051901515815260200161008a565b600154600160a01b900460ff161561011e5760405162461bcd60e51b8152602060048201526013602482015272105b1c9958591e481d1c985b9cd9995c9c9959606a1b604482015260640160405180910390fd5b6101295f848461021a565b50600180546001600160a01b0319166001600160a01b0383161790555f5b828110156101da578383828181106101615761016161033e565b90506020020160208101906101769190610352565b60405163f2fde38b60e01b81526001600160a01b038481166004830152919091169063f2fde38b906024015f604051808303815f87803b1580156101b8575f80fd5b505af11580156101ca573d5f803e3d5ffd5b5050600190920191506101479050565b50506001805460ff60a01b1916600160a01b1790555050565b5f8181548110610201575f80fd5b5f918252602090912001546001600160a01b0316905081565b828054828255905f5260205f2090810192821561026b579160200282015b8281111561026b5781546001600160a01b0319166001600160a01b03843516178255602090920191600190910190610238565b5061027792915061027b565b5090565b5b80821115610277575f815560010161027c565b80356001600160a01b03811681146102a5575f80fd5b919050565b5f805f604084860312156102bc575f80fd5b833567ffffffffffffffff808211156102d3575f80fd5b818601915086601f8301126102e6575f80fd5b8135818111156102f4575f80fd5b8760208260051b8501011115610308575f80fd5b60209283019550935061031e918601905061028f565b90509250925092565b5f60208284031215610337575f80fd5b5035919050565b634e487b7160e01b5f52603260045260245ffd5b5f60208284031215610362575f80fd5b61036b8261028f565b939250505056fea2646970667358221220d05e52224d2474081a486726c363df91b145ff453d7dac3cd4db366838bcc57564736f6c63430008180033","linkReferences":{}},"methodIdentifiers":{"initialize(address[],address)":"462d0b2e","newOwner()":"d4ee1d90","ownershipTransferred()":"e6cfe6fc","proxyAdmins(uint256)":"90960635"},"id":1}