{"abi":[{"type":"function","name":"initialize","inputs":[{"name":"_proxyAdmins","type":"address[]","internalType":"address[]"},{"name":"_newOwner","type":"address","internalType":"address"}],"outputs":[],"stateMutability":"nonpayable"},{"type":"function","name":"newOwner","inputs":[],"outputs":[{"name":"","type":"address","internalType":"address"}],"stateMutability":"view"},{"type":"function","name":"ownershipTransferred","inputs":[],"outputs":[{"name":"","type":"bool","internalType":"bool"}],"stateMutability":"view"},{"type":"function","name":"proxyAdmins","inputs":[{"name":"","type":"uint256","internalType":"uint256"}],"outputs":[{"name":"","type":"address","internalType":"address"}],"stateMutability":"view"}],"bytecode":{"object":"0x60808060405234601557610346908161001a8239f35b5f80fdfe6080806040526004361015610012575f80fd5b5f3560e01c908163462d0b2e146100de575080639096063514610099578063d4ee1d90146100715763e6cfe6fc14610048575f80fd5b3461006d575f36600319011261006d57602060ff60015460a01c166040519015158152f35b5f80fd5b3461006d575f36600319011261006d576001546040516001600160a01b039091168152602090f35b3461006d57602036600319011261006d576004355f5481101561006d575f80525f5160206102f15f395f51905f5201546040516001600160a01b039091168152602090f35b3461006d57604036600319011261006d5760043567ffffffffffffffff811161006d573660238201121561006d5780600401359067ffffffffffffffff821161006d573660248360051b8301011161006d576024356001600160a01b038116939084900361006d5760ff60015460a01c166102a45750680100000000000000008211610210575f54825f5580831061026c575b50602481015f80525f5b838110610244575050600180546001600160a01b031916841790555f5b8281101561022f576001600160a01b036101ba600583901b84016024016102dc565b1690813b1561006d575f809260246040518095819363f2fde38b60e01b83528a60048401525af18015610224576101f6575b6001915001610198565b67ffffffffffffffff8211610210576001916040526101ec565b634e487b7160e01b5f52604160045260245ffd5b6040513d5f823e3d90fd5b6001805460ff60a01b1916600160a01b179055005b6001906020610252846102dc565b930192815f5160206102f15f395f51905f5201550161017b565b5f5160206102f15f395f51905f5201825f5160206102f15f395f51905f52015b8181106102995750610171565b5f815560010161028c565b62461bcd60e51b8152602060048201526013602482015272105b1c9958591e481d1c985b9cd9995c9c9959606a1b6044820152606490fd5b356001600160a01b038116810361006d579056fe290decd9548b62a8d60345a988386fc84ba6bc95484008f6362f93160ef3e563a2646970667358221220954ac4dc9392bcb1fcf75a28ec589e8f6348f46b1ccb53769a7ba8f610a3487264736f6c634300081c0033","linkReferences":{}},"methodIdentifiers":{"initialize(address[],address)":"462d0b2e","newOwner()":"d4ee1d90","ownershipTransferred()":"e6cfe6fc","proxyAdmins(uint256)":"90960635"},"id":5}