{"abi":[{"type":"function","name":"COMMON_MAX","inputs":[],"outputs":[{"name":"","type":"int16","internalType":"int16"}],"stateMutability":"view"},{"type":"function","name":"COMMON_MIN","inputs":[],"outputs":[{"name":"","type":"int16","internalType":"int16"}],"stateMutability":"view"},{"type":"function","name":"EPIC_RARITY_FRACTION","inputs":[],"outputs":[{"name":"","type":"uint256","internalType":"uint256"}],"stateMutability":"view"},{"type":"function","name":"EPIC_UNLOCK_DAY","inputs":[],"outputs":[{"name":"","type":"uint8","internalType":"uint8"}],"stateMutability":"view"},{"type":"function","name":"RARE_MAX","inputs":[],"outputs":[{"name":"","type":"int16","internalType":"int16"}],"stateMutability":"view"},{"type":"function","name":"RARE_MIN","inputs":[],"outputs":[{"name":"","type":"int16","internalType":"int16"}],"stateMutability":"view"},{"type":"function","name":"RARITY_COMMON","inputs":[],"outputs":[{"name":"","type":"uint8","internalType":"uint8"}],"stateMutability":"view"},{"type":"function","name":"RARITY_EPIC","inputs":[],"outputs":[{"name":"","type":"uint8","internalType":"uint8"}],"stateMutability":"view"},{"type":"function","name":"RARITY_RARE","inputs":[],"outputs":[{"name":"","type":"uint8","internalType":"uint8"}],"stateMutability":"view"},{"type":"function","name":"RARITY_UNCOMMON","inputs":[],"outputs":[{"name":"","type":"uint8","internalType":"uint8"}],"stateMutability":"view"},{"type":"function","name":"SECONDARY_SCALE_MAX","inputs":[],"outputs":[{"name":"","type":"uint256","internalType":"uint256"}],"stateMutability":"view"},{"type":"function","name":"SECONDARY_SCALE_MIN","inputs":[],"outputs":[{"name":"","type":"uint256","internalType":"uint256"}],"stateMutability":"view"},{"type":"function","name":"TRAIT_FREQUENCY","inputs":[],"outputs":[{"name":"","type":"uint8","internalType":"uint8"}],"stateMutability":"view"},{"type":"function","name":"TRAIT_NONE","inputs":[],"outputs":[{"name":"","type":"uint8","internalType":"uint8"}],"stateMutability":"view"},{"type":"function","name":"TRAIT_PH","inputs":[],"outputs":[{"name":"","type":"uint8","internalType":"uint8"}],"stateMutability":"view"},{"type":"function","name":"TRAIT_SALINITY","inputs":[],"outputs":[{"name":"","type":"uint8","internalType":"uint8"}],"stateMutability":"view"},{"type":"function","name":"TRAIT_TEMPERATURE","inputs":[],"outputs":[{"name":"","type":"uint8","internalType":"uint8"}],"stateMutability":"view"},{"type":"function","name":"UNCOMMON_MAX","inputs":[],"outputs":[{"name":"","type":"int16","internalType":"int16"}],"stateMutability":"view"},{"type":"function","name":"UNCOMMON_MIN","inputs":[],"outputs":[{"name":"","type":"int16","internalType":"int16"}],"stateMutability":"view"}],"bytecode":{"object":"0x610207610035600b8282823980515f1a60731461002957634e487b7160e01b5f525f60045260245ffd5b305f52607381538281f3fe7300000000000000000000000000000000000000003014608060405260043610610126575f3560e01c8063638da7e3116100b45780639378b19b116100795780639378b19b146101c15780639b306ba1146101585780639e94bb9314610191578063c91dbd1d146101c9578063e5243684146101b1575f80fd5b8063638da7e3146101a95780637aad878914610151578063844620651461012a57806384770ad5146101b15780638e88f4f0146101b9575f80fd5b80630c08d0c5116100fa5780630c08d0c51461016057806310ecf510146101765780633d1ba60a1461019157806357033b0c146101995780636371e8df146101a1575f80fd5b8062c84c201461012a57806302c0637014610149578063040dee00146101515780630469e94514610158575b5f80fd5b610132600381565b60405160ff90911681526020015b60405180910390f35b610132600481565b6101325f81565b610132600181565b610168601e81565b604051908152602001610140565b61017e600281565b60405160019190910b8152602001610140565b610132600281565b610132600781565b610168600f81565b61017e600581565b61017e600381565b61016860c881565b61017e600481565b61017e60068156fea26469706673582212203bc7db24430f119fd84666e802d78a06bdd3145749f228402000cf5fddb71c0b64736f6c63430008180033","linkReferences":{}},"methodIdentifiers":{"COMMON_MAX()":"e5243684","COMMON_MIN()":"10ecf510","EPIC_RARITY_FRACTION()":"8e88f4f0","EPIC_UNLOCK_DAY()":"57033b0c","RARE_MAX()":"c91dbd1d","RARE_MIN()":"9378b19b","RARITY_COMMON()":"7aad8789","RARITY_EPIC()":"00c84c20","RARITY_RARE()":"9e94bb93","RARITY_UNCOMMON()":"0469e945","SECONDARY_SCALE_MAX()":"0c08d0c5","SECONDARY_SCALE_MIN()":"6371e8df","TRAIT_FREQUENCY()":"84462065","TRAIT_NONE()":"02c06370","TRAIT_PH()":"9b306ba1","TRAIT_SALINITY()":"040dee00","TRAIT_TEMPERATURE()":"3d1ba60a","UNCOMMON_MAX()":"638da7e3","UNCOMMON_MIN()":"84770ad5"},"id":8}