{"abi":[{"type":"function","name":"COMMON_MAX","inputs":[],"outputs":[{"name":"","type":"int16","internalType":"int16"}],"stateMutability":"view"},{"type":"function","name":"COMMON_MIN","inputs":[],"outputs":[{"name":"","type":"int16","internalType":"int16"}],"stateMutability":"view"},{"type":"function","name":"EPIC_RARITY_FRACTION","inputs":[],"outputs":[{"name":"","type":"uint256","internalType":"uint256"}],"stateMutability":"view"},{"type":"function","name":"EPIC_UNLOCK_DAY","inputs":[],"outputs":[{"name":"","type":"uint8","internalType":"uint8"}],"stateMutability":"view"},{"type":"function","name":"RARE_MAX","inputs":[],"outputs":[{"name":"","type":"int16","internalType":"int16"}],"stateMutability":"view"},{"type":"function","name":"RARE_MIN","inputs":[],"outputs":[{"name":"","type":"int16","internalType":"int16"}],"stateMutability":"view"},{"type":"function","name":"RARITY_COMMON","inputs":[],"outputs":[{"name":"","type":"uint8","internalType":"uint8"}],"stateMutability":"view"},{"type":"function","name":"RARITY_EPIC","inputs":[],"outputs":[{"name":"","type":"uint8","internalType":"uint8"}],"stateMutability":"view"},{"type":"function","name":"RARITY_RARE","inputs":[],"outputs":[{"name":"","type":"uint8","internalType":"uint8"}],"stateMutability":"view"},{"type":"function","name":"RARITY_UNCOMMON","inputs":[],"outputs":[{"name":"","type":"uint8","internalType":"uint8"}],"stateMutability":"view"},{"type":"function","name":"SECONDARY_SCALE_MAX","inputs":[],"outputs":[{"name":"","type":"uint256","internalType":"uint256"}],"stateMutability":"view"},{"type":"function","name":"SECONDARY_SCALE_MIN","inputs":[],"outputs":[{"name":"","type":"uint256","internalType":"uint256"}],"stateMutability":"view"},{"type":"function","name":"TRAIT_FREQUENCY","inputs":[],"outputs":[{"name":"","type":"uint8","internalType":"uint8"}],"stateMutability":"view"},{"type":"function","name":"TRAIT_NONE","inputs":[],"outputs":[{"name":"","type":"uint8","internalType":"uint8"}],"stateMutability":"view"},{"type":"function","name":"TRAIT_PH","inputs":[],"outputs":[{"name":"","type":"uint8","internalType":"uint8"}],"stateMutability":"view"},{"type":"function","name":"TRAIT_SALINITY","inputs":[],"outputs":[{"name":"","type":"uint8","internalType":"uint8"}],"stateMutability":"view"},{"type":"function","name":"TRAIT_TEMPERATURE","inputs":[],"outputs":[{"name":"","type":"uint8","internalType":"uint8"}],"stateMutability":"view"},{"type":"function","name":"UNCOMMON_MAX","inputs":[],"outputs":[{"name":"","type":"int16","internalType":"int16"}],"stateMutability":"view"},{"type":"function","name":"UNCOMMON_MIN","inputs":[],"outputs":[{"name":"","type":"int16","internalType":"int16"}],"stateMutability":"view"}],"bytecode":{"object":"0x60808060405234601957610228908161001e823930815050f35b5f80fdfe60806040526004361015610011575f80fd5b5f3560e01c8062c84c20146101b157806302c0637014610112578063040dee001461013e5780630469e9451461010d5780630c08d0c51461019b57806310ecf510146101855780633d1ba60a1461010857806357033b0c1461016f5780636371e8df14610159578063638da7e3146101435780637aad87891461013e57806384462065146100e957806384770ad5146100e95780638e88f4f0146101285780639378b19b146101125780639b306ba11461010d5780639e94bb9314610108578063c91dbd1d146100ee5763e5243684146100e9575f80fd5b6101b1565b5f36600319011261010457602060405160068152f35b5f80fd5b610185565b6101dc565b5f36600319011261010457602060405160048152f35b5f36600319011261010457602060405160c88152f35b6101c7565b5f36600319011261010457602060405160058152f35b5f366003190112610104576020604051600f8152f35b5f36600319011261010457602060405160078152f35b5f36600319011261010457602060405160028152f35b5f366003190112610104576020604051601e8152f35b5f36600319011261010457602060405160038152f35b5f3660031901126101045760206040515f8152f35b5f36600319011261010457602060405160018152f3fea26469706673582212207c374328abe056c2c0cd8a5e0844d73be209845294e7ea9816413d39076a2bdd64736f6c634300081c0033","linkReferences":{}},"methodIdentifiers":{"COMMON_MAX()":"e5243684","COMMON_MIN()":"10ecf510","EPIC_RARITY_FRACTION()":"8e88f4f0","EPIC_UNLOCK_DAY()":"57033b0c","RARE_MAX()":"c91dbd1d","RARE_MIN()":"9378b19b","RARITY_COMMON()":"7aad8789","RARITY_EPIC()":"00c84c20","RARITY_RARE()":"9e94bb93","RARITY_UNCOMMON()":"0469e945","SECONDARY_SCALE_MAX()":"0c08d0c5","SECONDARY_SCALE_MIN()":"6371e8df","TRAIT_FREQUENCY()":"84462065","TRAIT_NONE()":"02c06370","TRAIT_PH()":"9b306ba1","TRAIT_SALINITY()":"040dee00","TRAIT_TEMPERATURE()":"3d1ba60a","UNCOMMON_MAX()":"638da7e3","UNCOMMON_MIN()":"84770ad5"},"id":17}