{"abi":[{"type":"function","name":"deployImage","inputs":[{"name":"imageBytes","type":"bytes","internalType":"bytes"}],"outputs":[{"name":"imagePtr","type":"address","internalType":"address"}],"stateMutability":"nonpayable"},{"type":"function","name":"readImage","inputs":[{"name":"imagePtr","type":"address","internalType":"address"}],"outputs":[{"name":"imageBytes","type":"bytes","internalType":"bytes"}],"stateMutability":"view"}],"bytecode":{"object":"0x608080604052346015576102f7908161001a8239f35b5f80fdfe60806040526004361015610011575f80fd5b5f3560e01c8063b16aab1e146100345763f17126071461002f575f80fd5b610095565b34610091576020366003190112610091576004356001600160a01b038116810361009157604061006560209261014d565b815192839181835280519182918282860152018484015e5f828201840152601f01601f19168101030190f35b5f80fd5b346100915760203660031901126100915760043567ffffffffffffffff811161009157366023820112156100915780600401359067ffffffffffffffff82116100915736602483830101116100915761010e9160246100f49201610206565b6040516001600160a01b0390911681529081906020820190565b0390f35b634e487b7160e01b5f52604160045260245ffd5b90601f8019910116810190811067ffffffffffffffff82111761014857604052565b610112565b906001600160a01b0382161561017c57813b5f60405193601f19603f840116850160405282855260208501903c565b90506040516020810181811067ffffffffffffffff821117610148576040525f815290565b908092918237015f815290565b156101b557565b60405162461bcd60e51b8152602060048201526024808201527f4974656d496d6167654465706c6f7965723a206465706c6f796d656e742066616044820152631a5b195960e21b6064820152608490fd5b604051606160f81b6020820190815260f084901b6001600160f01b0319166021830152600160ff1b6023830152600360fd1b60248301819052600360fa1b6025840152602683018190525f6027840152603960f81b602884015260298301529290916102a691839161029891610292610285602a86015f815260010190565b60f360f81b815260010190565b916101a1565b03601f198101835282610126565b51905ff0906102bf6001600160a01b03831615156101ae565b56fea264697066735822122029f8e73e4340c94fc2be4fd893bd566c6e0f0fc593d1679313b2929975f20d1464736f6c634300081c0033","linkReferences":{}},"methodIdentifiers":{"deployImage(bytes)":"f1712607","readImage(address)":"b16aab1e"},"id":18}