{"abi":[{"type":"function","name":"deployImage","inputs":[{"name":"imageBytes","type":"bytes","internalType":"bytes"}],"outputs":[{"name":"imagePtr","type":"address","internalType":"address"}],"stateMutability":"nonpayable"},{"type":"function","name":"readImage","inputs":[{"name":"imagePtr","type":"address","internalType":"address"}],"outputs":[{"name":"imageBytes","type":"bytes","internalType":"bytes"}],"stateMutability":"view"}],"bytecode":{"object":"0x608060405234801561000f575f80fd5b506103178061001d5f395ff3fe608060405234801561000f575f80fd5b5060043610610034575f3560e01c8063b16aab1e14610038578063f171260714610061575b5f80fd5b61004b610046366004610178565b61008c565b60405161005891906101a5565b60405180910390f35b61007461006f3660046101f1565b6100d7565b6040516001600160a01b039091168152602001610058565b60606001600160a01b0382166100af57505060408051602081019091525f815290565b813b6040519150601f19601f6020830101168201604052808252805f60208401853c50919050565b6040515f9081906100f09084908690829060200161025d565b60405160208183030381529060405290508051602082015ff091506001600160a01b0382166101715760405162461bcd60e51b8152602060048201526024808201527f4974656d496d6167654465706c6f7965723a206465706c6f796d656e742066616044820152631a5b195960e21b606482015260840160405180910390fd5b5092915050565b5f60208284031215610188575f80fd5b81356001600160a01b038116811461019e575f80fd5b9392505050565b5f602080835283518060208501525f5b818110156101d1578581018301518582016040015282016101b5565b505f604082860101526040601f19601f8301168501019250505092915050565b5f8060208385031215610202575f80fd5b823567ffffffffffffffff80821115610219575f80fd5b818501915085601f83011261022c575f80fd5b81358181111561023a575f80fd5b86602082850101111561024b575f80fd5b60209290920196919550909350505050565b606160f81b815260f084901b6001600160f01b0319166001820152600160ff1b6003820152600360fd1b60048201819052600360fa1b6005830152600682018190525f60078301819052603960f81b60088401526009830191909152600a820181905260f360f81b600b8301528284600c840137505f9101600c019081529291505056fea2646970667358221220fd1f18932122d3da965f8192f4032fbf7ff9273c0586a79f3dbdbaf98ad01b2064736f6c63430008180033","linkReferences":{}},"methodIdentifiers":{"deployImage(bytes)":"f1712607","readImage(address)":"b16aab1e"},"id":10}