{"abi":[{"type":"constructor","inputs":[],"stateMutability":"nonpayable"},{"type":"function","name":"approve","inputs":[{"name":"to","type":"address","internalType":"address"},{"name":"tokenId","type":"uint256","internalType":"uint256"}],"outputs":[],"stateMutability":"nonpayable"},{"type":"function","name":"balanceOf","inputs":[{"name":"owner","type":"address","internalType":"address"}],"outputs":[{"name":"","type":"uint256","internalType":"uint256"}],"stateMutability":"view"},{"type":"function","name":"burnPosition","inputs":[{"name":"from","type":"address","internalType":"address"},{"name":"tokenId","type":"uint256","internalType":"uint256"}],"outputs":[],"stateMutability":"nonpayable"},{"type":"function","name":"getApproved","inputs":[{"name":"tokenId","type":"uint256","internalType":"uint256"}],"outputs":[{"name":"","type":"address","internalType":"address"}],"stateMutability":"view"},{"type":"function","name":"getUpgrader","inputs":[],"outputs":[{"name":"","type":"address","internalType":"address"}],"stateMutability":"view"},{"type":"function","name":"initialize","inputs":[{"name":"name_","type":"string","internalType":"string"},{"name":"symbol_","type":"string","internalType":"string"},{"name":"royaltyBps","type":"uint96","internalType":"uint96"},{"name":"masterForge_","type":"address","internalType":"address"}],"outputs":[],"stateMutability":"nonpayable"},{"type":"function","name":"isApprovedForAll","inputs":[{"name":"owner","type":"address","internalType":"address"},{"name":"operator","type":"address","internalType":"address"}],"outputs":[{"name":"","type":"bool","internalType":"bool"}],"stateMutability":"view"},{"type":"function","name":"masterForge","inputs":[],"outputs":[{"name":"","type":"address","internalType":"address"}],"stateMutability":"view"},{"type":"function","name":"mintPosition","inputs":[{"name":"to","type":"address","internalType":"address"}],"outputs":[{"name":"tokenId","type":"uint256","internalType":"uint256"}],"stateMutability":"nonpayable"},{"type":"function","name":"name","inputs":[],"outputs":[{"name":"","type":"string","internalType":"string"}],"stateMutability":"view"},{"type":"function","name":"owner","inputs":[],"outputs":[{"name":"","type":"address","internalType":"address"}],"stateMutability":"view"},{"type":"function","name":"ownerOf","inputs":[{"name":"tokenId","type":"uint256","internalType":"uint256"}],"outputs":[{"name":"","type":"address","internalType":"address"}],"stateMutability":"view"},{"type":"function","name":"renounceOwnership","inputs":[],"outputs":[],"stateMutability":"nonpayable"},{"type":"function","name":"royaltyInfo","inputs":[{"name":"tokenId","type":"uint256","internalType":"uint256"},{"name":"salePrice","type":"uint256","internalType":"uint256"}],"outputs":[{"name":"receiver","type":"address","internalType":"address"},{"name":"royaltyAmount","type":"uint256","internalType":"uint256"}],"stateMutability":"view"},{"type":"function","name":"safeTransferFrom","inputs":[{"name":"from","type":"address","internalType":"address"},{"name":"to","type":"address","internalType":"address"},{"name":"tokenId","type":"uint256","internalType":"uint256"}],"outputs":[],"stateMutability":"nonpayable"},{"type":"function","name":"safeTransferFrom","inputs":[{"name":"from","type":"address","internalType":"address"},{"name":"to","type":"address","internalType":"address"},{"name":"tokenId","type":"uint256","internalType":"uint256"},{"name":"data","type":"bytes","internalType":"bytes"}],"outputs":[],"stateMutability":"nonpayable"},{"type":"function","name":"setApprovalForAll","inputs":[{"name":"operator","type":"address","internalType":"address"},{"name":"approved","type":"bool","internalType":"bool"}],"outputs":[],"stateMutability":"nonpayable"},{"type":"function","name":"setMasterForge","inputs":[{"name":"newMasterForge","type":"address","internalType":"address"}],"outputs":[],"stateMutability":"nonpayable"},{"type":"function","name":"setUpgrader","inputs":[{"name":"newUpgrader","type":"address","internalType":"address"}],"outputs":[],"stateMutability":"nonpayable"},{"type":"function","name":"supportsInterface","inputs":[{"name":"interfaceId","type":"bytes4","internalType":"bytes4"}],"outputs":[{"name":"","type":"bool","internalType":"bool"}],"stateMutability":"view"},{"type":"function","name":"symbol","inputs":[],"outputs":[{"name":"","type":"string","internalType":"string"}],"stateMutability":"view"},{"type":"function","name":"tokenURI","inputs":[{"name":"tokenId","type":"uint256","internalType":"uint256"}],"outputs":[{"name":"","type":"string","internalType":"string"}],"stateMutability":"view"},{"type":"function","name":"totalSupply","inputs":[],"outputs":[{"name":"","type":"uint256","internalType":"uint256"}],"stateMutability":"view"},{"type":"function","name":"transferFrom","inputs":[{"name":"from","type":"address","internalType":"address"},{"name":"to","type":"address","internalType":"address"},{"name":"tokenId","type":"uint256","internalType":"uint256"}],"outputs":[],"stateMutability":"nonpayable"},{"type":"function","name":"transferOwnership","inputs":[{"name":"newOwner","type":"address","internalType":"address"}],"outputs":[],"stateMutability":"nonpayable"},{"type":"event","name":"Approval","inputs":[{"name":"owner","type":"address","indexed":true,"internalType":"address"},{"name":"approved","type":"address","indexed":true,"internalType":"address"},{"name":"tokenId","type":"uint256","indexed":true,"internalType":"uint256"}],"anonymous":false},{"type":"event","name":"ApprovalForAll","inputs":[{"name":"owner","type":"address","indexed":true,"internalType":"address"},{"name":"operator","type":"address","indexed":true,"internalType":"address"},{"name":"approved","type":"bool","indexed":false,"internalType":"bool"}],"anonymous":false},{"type":"event","name":"Initialized","inputs":[{"name":"version","type":"uint64","indexed":false,"internalType":"uint64"}],"anonymous":false},{"type":"event","name":"OwnershipTransferred","inputs":[{"name":"previousOwner","type":"address","indexed":true,"internalType":"address"},{"name":"newOwner","type":"address","indexed":true,"internalType":"address"}],"anonymous":false},{"type":"event","name":"Transfer","inputs":[{"name":"from","type":"address","indexed":true,"internalType":"address"},{"name":"to","type":"address","indexed":true,"internalType":"address"},{"name":"tokenId","type":"uint256","indexed":true,"internalType":"uint256"}],"anonymous":false},{"type":"error","name":"ERC2981InvalidDefaultRoyalty","inputs":[{"name":"numerator","type":"uint256","internalType":"uint256"},{"name":"denominator","type":"uint256","internalType":"uint256"}]},{"type":"error","name":"ERC2981InvalidDefaultRoyaltyReceiver","inputs":[{"name":"receiver","type":"address","internalType":"address"}]},{"type":"error","name":"ERC2981InvalidTokenRoyalty","inputs":[{"name":"tokenId","type":"uint256","internalType":"uint256"},{"name":"numerator","type":"uint256","internalType":"uint256"},{"name":"denominator","type":"uint256","internalType":"uint256"}]},{"type":"error","name":"ERC2981InvalidTokenRoyaltyReceiver","inputs":[{"name":"tokenId","type":"uint256","internalType":"uint256"},{"name":"receiver","type":"address","internalType":"address"}]},{"type":"error","name":"ERC721IncorrectOwner","inputs":[{"name":"sender","type":"address","internalType":"address"},{"name":"tokenId","type":"uint256","internalType":"uint256"},{"name":"owner","type":"address","internalType":"address"}]},{"type":"error","name":"ERC721InsufficientApproval","inputs":[{"name":"operator","type":"address","internalType":"address"},{"name":"tokenId","type":"uint256","internalType":"uint256"}]},{"type":"error","name":"ERC721InvalidApprover","inputs":[{"name":"approver","type":"address","internalType":"address"}]},{"type":"error","name":"ERC721InvalidOperator","inputs":[{"name":"operator","type":"address","internalType":"address"}]},{"type":"error","name":"ERC721InvalidOwner","inputs":[{"name":"owner","type":"address","internalType":"address"}]},{"type":"error","name":"ERC721InvalidReceiver","inputs":[{"name":"receiver","type":"address","internalType":"address"}]},{"type":"error","name":"ERC721InvalidSender","inputs":[{"name":"sender","type":"address","internalType":"address"}]},{"type":"error","name":"ERC721NonexistentToken","inputs":[{"name":"tokenId","type":"uint256","internalType":"uint256"}]},{"type":"error","name":"InvalidInitialization","inputs":[]},{"type":"error","name":"InvalidMasterForgeAddress","inputs":[]},{"type":"error","name":"NotInitializing","inputs":[]},{"type":"error","name":"OwnableInvalidOwner","inputs":[{"name":"owner","type":"address","internalType":"address"}]},{"type":"error","name":"OwnableUnauthorizedAccount","inputs":[{"name":"account","type":"address","internalType":"address"}]},{"type":"error","name":"UnauthorizedMasterForge","inputs":[]},{"type":"error","name":"UnauthorizedPositionOwner","inputs":[]},{"type":"error","name":"UnauthorizedUpgrader","inputs":[]}],"bytecode":{"object":"0x6080806040523460aa575f516020611bc05f395f51905f525460ff8160401c16609b576002600160401b03196001600160401b038216016049575b604051611b1190816100af8239f35b6001600160401b0319166001600160401b039081175f516020611bc05f395f51905f525581527fc7f505b2f371ae2175ee4913f4499e1f2633a7b5936321eed1cdaeb6115181d290602090a15f80603a565b63f92ee8a960e01b5f5260045ffd5b5f80fdfe6080806040526004361015610012575f80fd5b5f3560e01c90816301ffc9a7146113bd5750806306fdde0314611313578063081812fc146112ca578063095ea7b3146111de57806318160ddd146111c15780631b878f711461114e57806323b872dd14611137578063261cb178146110b05780632a55205a14610f5157806336b0bb1c14610cf757806342842e0e14610cc85780636352211e14610c9857806370a0823114610c49578063715018a614610be257806379738b0214610bba57806381ab192414610a895780638da5cb5b14610a5557806395d89b411461095f578063a22cb465146108c7578063b1e3b0e81461032a578063b88d4fde146102be578063c87b56dd146101d1578063e4d7437b146101aa578063e985e9c51461015e5763f2fde38b1461012f575f80fd5b3461015a57602036600319011261015a5761015861014b611466565b61015361182a565b61179c565b005b5f80fd5b3461015a57604036600319011261015a57610177611466565b61018861018261147c565b91611764565b9060018060a01b03165f52602052602060ff60405f2054166040519015158152f35b3461015a575f36600319011261015a575f546040516001600160a01b039091168152602090f35b3461015a57602036600319011261015a5760015460405163c927ca0d60e01b81526004803590820152905f90829060249082906001600160a01b03165afa80156102b3575f90610238575b61023490604051918291602083526020830190611442565b0390f35b503d805f833e61024881836114cc565b81019060208183031261015a5780519067ffffffffffffffff821161015a57019080601f8301121561015a57815161027f816114ee565b9161028d60405193846114cc565b8183526020828501011161015a576020815f928261023496018386015e8301015261021c565b6040513d5f823e3d90fd5b3461015a57608036600319011261015a576102d7611466565b6102df61147c565b906044356064359267ffffffffffffffff841161015a573660238501121561015a5761031861015894369060248160040135910161150a565b92610324838383611596565b3361185d565b3461015a57608036600319011261015a5760043567ffffffffffffffff811161015a5761035b903690600401611540565b60243567ffffffffffffffff811161015a5761037b903690600401611540565b6044356001600160601b03811680820361015a576064356001600160a01b038116939084900361015a575f516020611a7c5f395f51905f52549460ff8660401c16159567ffffffffffffffff8116801590816108bf575b60011490816108b5575b1590816108ac575b5061089d5767ffffffffffffffff1981166001175f516020611a7c5f395f51905f525586610871575b506104166119d0565b61041e6119d0565b6104266119d0565b80519067ffffffffffffffff821161061d5781906104515f5160206119fc5f395f51905f525461155e565b601f81116107f3575b50602090601f831160011461076a575f9261075f575b50508160011b915f199060031b1c1916175f5160206119fc5f395f51905f52555b80519067ffffffffffffffff821161061d5781906104bc5f516020611a9c5f395f51905f525461155e565b601f81116106e5575b50602090601f8311600114610667575f9261065c575b50508160011b915f199060031b1c1916175f516020611a9c5f395f51905f52555b6105046119d0565b61050c6119d0565b6105153361179c565b61051d6119d0565b612710811161064457331561063157604051604081019080821067ffffffffffffffff83111761061d57604091909152338082526020909101919091526001600160a01b031960a09290921b821681177fdaedc9ab023613a7caf35e703657e986ccfad7e3eb0af93a2853f8d65dd86b00555f8054909216179055801561060e576001600160601b0360a01b60015416176001556105b757005b68ff0000000000000000195f516020611a7c5f395f51905f5254165f516020611a7c5f395f51905f52557fc7f505b2f371ae2175ee4913f4499e1f2633a7b5936321eed1cdaeb6115181d2602060405160018152a1005b63a21dce1960e01b5f5260045ffd5b634e487b7160e01b5f52604160045260245ffd5b635b6cc80560e11b5f525f60045260245ffd5b636f483d0960e01b5f5260045261271060245260445ffd5b0151905086806104db565b5f516020611a9c5f395f51905f525f9081528281209350601f198516905b8181106106cd57509084600195949392106106b5575b505050811b015f516020611a9c5f395f51905f52556104fc565b01515f1960f88460031b161c1916905586808061069b565b92936020600181928786015181550195019301610685565b5f516020611a9c5f395f51905f525f529091507ff4bad0a69248f59680a4f2b3000328cec71a413447c96781cfe5996daa8c456e601f840160051c81019160208510610755575b90601f859493920160051c01905b81811061074757506104c5565b5f815584935060010161073a565b909150819061072c565b015190508780610470565b5f5160206119fc5f395f51905f525f9081525f516020611abc5f395f51905f529350601f198516905b8181106107db57509084600195949392106107c3575b505050811b015f5160206119fc5f395f51905f5255610491565b01515f1960f88460031b161c191690558780806107a9565b92936020600181928786015181550195019301610793565b9091505f5160206119fc5f395f51905f525f52601f830160051c5f516020611abc5f395f51905f5201906020841061085c575b90601f8493920160051c5f516020611abc5f395f51905f5201905b81811061084e575061045a565b5f8155849350600101610841565b5f516020611abc5f395f51905f529150610826565b68ffffffffffffffffff191668010000000000000001175f516020611a7c5f395f51905f52558661040d565b63f92ee8a960e01b5f5260045ffd5b905015886103e4565b303b1591506103dc565b8891506103d2565b3461015a57604036600319011261015a576108e0611466565b6024359081151580920361015a576001600160a01b031690811561094c5761090733611764565b825f5260205260405f2060ff1981541660ff83161790556040519081527f17307eab39ab6107e8899845ad3d59bd9653f200f220920489ca2b5937696c3160203392a3005b50630b61174360e31b5f5260045260245ffd5b3461015a575f36600319011261015a576040515f5f516020611a9c5f395f51905f525461098b8161155e565b8084529060018116908115610a3157506001146109c7575b610234836109b3818503826114cc565b604051918291602083526020830190611442565b5f516020611a9c5f395f51905f525f9081527ff4bad0a69248f59680a4f2b3000328cec71a413447c96781cfe5996daa8c456e939250905b808210610a17575090915081016020016109b36109a3565b9192600181602092548385880101520191019092916109ff565b60ff191660208086019190915291151560051b840190910191506109b390506109a3565b3461015a575f36600319011261015a575f516020611a1c5f395f51905f52546040516001600160a01b039091168152602090f35b3461015a57604036600319011261015a57610aa2611466565b60015460243591906001600160a01b03163303610bab57610ac28261180d565b6001600160a01b03918216911603610b9c576003545f198101908111610b8857600355610aee81611981565b6001600160a01b0381168015919083905f908415610b6a575b8282525f516020611a3c5f395f51905f526020526040822080546001600160a01b03191690557fddf252ad1be2c89b69c2b068fc378daa952ba7f163c4a11628f55a4df523b3ef8280a450610b5857005b637e27328960e01b5f5260045260245ffd5b610b73836119a7565b610b7c8461172c565b82198154019055610b07565b634e487b7160e01b5f52601160045260245ffd5b630463b9b160e11b5f5260045ffd5b633486bbe760e11b5f5260045ffd5b3461015a575f36600319011261015a576001546040516001600160a01b039091168152602090f35b3461015a575f36600319011261015a57610bfa61182a565b5f516020611a1c5f395f51905f5280546001600160a01b031981169091555f906001600160a01b03167f8be0079c531659141344cd1fd0a4f28419497f9722a3daafe3b4186f6b6457e08280a3005b3461015a57602036600319011261015a57610c62611466565b6001600160a01b03811615610c8557610c7c60209161172c565b54604051908152f35b6322718ad960e21b5f525f60045260245ffd5b3461015a57602036600319011261015a576020610cb660043561180d565b6040516001600160a01b039091168152f35b3461015a57610158610cd936611492565b9060405192610ce96020856114cc565b5f8452610324838383611596565b3461015a57602036600319011261015a57610d10611466565b6001546001600160a01b03163303610bab576002545f198114610b88576001018060025560035460018101809111610b8857600355602090604051610d5583826114cc565b5f81526001600160a01b038416938415610f3e57610d7283611981565b6001600160a01b03811680151591908590889084610f20575b610d948661172c565b805460010190555f8381525f516020611a3c5f395f51905f528a526040812080546001600160a01b031916841790557fddf252ad1be2c89b69c2b068fc378daa952ba7f163c4a11628f55a4df523b3ef9080a450610f0d573b610dfb575b50604051908152f35b82610e349160405180938192630a85bd0160e11b83523360048401525f6024840152866044840152608060648401526084830190611442565b03815f885af15f9181610ecd575b50610e975750503d15610e8f573d90610e5a826114ee565b91610e6860405193846114cc565b82523d5f8284013e5b81519182610e8c5783633250574960e11b5f5260045260245ffd5b01fd5b606090610e71565b919290916001600160e01b03191663757a42ff60e11b01610ebb5750819083610df2565b633250574960e11b5f5260045260245ffd5b9091508381813d8311610f06575b610ee581836114cc565b8101031261015a57516001600160e01b03198116810361015a579085610e42565b503d610edb565b6339e3563760e11b5f525f60045260245ffd5b610f29836119a7565b610f328461172c565b80545f19019055610d8b565b633250574960e11b5f525f60045260245ffd5b3461015a57604036600319011261015a576004355f8181527fdaedc9ab023613a7caf35e703657e986ccfad7e3eb0af93a2853f8d65dd86b016020526040902054602435906001600160a01b0381169060a01c8115611079575b6001600160601b031691828102928184041490151715610b885790602060018060a01b0360015416936024604051809681936339a54b2560e01b835260048301525afa80156102b3575f90611034575b604093506001600160a01b03811661102a575b5082516001600160a01b03909216825261271090046020820152f35b915061271061100e565b50916020813d602011611071575b8161104f602093836114cc565b8101031261015a5751916001600160a01b038316830361015a57604092610ffb565b3d9150611042565b50507fdaedc9ab023613a7caf35e703657e986ccfad7e3eb0af93a2853f8d65dd86b00546001600160a01b0381169060a01c610fab565b3461015a57602036600319011261015a576110c9611466565b5f516020611a1c5f395f51905f52546001600160a01b031633141580611123575b611114576001600160a01b0316801561060e576001600160601b0360a01b60015416176001555f80f35b636fd8ea8d60e11b5f5260045ffd5b505f546001600160a01b03163314156110ea565b3461015a5761015861114836611492565b91611596565b3461015a57602036600319011261015a57611167611466565b5f516020611a1c5f395f51905f52546001600160a01b0316331415806111ad575b611114575f80546001600160a01b0319166001600160a01b0392909216919091179055005b505f546001600160a01b0316331415611188565b3461015a575f36600319011261015a576020600354604051908152f35b3461015a57604036600319011261015a576111f7611466565b6024356112038161180d565b331515806112b7575b80611294575b6112815781906001600160a01b0384811691167f8c5be1e5ebec7d5bd14f71427d1e84f3dd0314c0f7b2291e5b200ac8c7c3b9255f80a45f9081525f516020611a5c5f395f51905f526020526040902080546001600160a01b0319166001600160a01b03909216919091179055005b63a9fbf51f60e01b5f523360045260245ffd5b5061129e81611764565b335f908152602091909152604090205460ff1615611212565b506001600160a01b03811633141561120c565b3461015a57602036600319011261015a576020610cb66004356112ec8161180d565b505f9081525f516020611a5c5f395f51905f5260205260409020546001600160a01b031690565b3461015a575f36600319011261015a576040515f5f5160206119fc5f395f51905f525461133f8161155e565b8084529060018116908115610a31575060011461136657610234836109b3818503826114cc565b5f5160206119fc5f395f51905f525f9081525f516020611abc5f395f51905f52939250905b8082106113a3575090915081016020016109b36109a3565b91926001816020925483858801015201910190929161138b565b3461015a57602036600319011261015a576004359063ffffffff60e01b821680920361015a5760209163152a902d60e11b81149081156113ff575b5015158152f35b6380ac58cd60e01b811491508115611431575b8115611420575b50836113f8565b6301ffc9a760e01b14905083611419565b635b5e139f60e01b81149150611412565b805180835260209291819084018484015e5f828201840152601f01601f1916010190565b600435906001600160a01b038216820361015a57565b602435906001600160a01b038216820361015a57565b606090600319011261015a576004356001600160a01b038116810361015a57906024356001600160a01b038116810361015a579060443590565b90601f8019910116810190811067ffffffffffffffff82111761061d57604052565b67ffffffffffffffff811161061d57601f01601f191660200190565b929192611516826114ee565b9161152460405193846114cc565b82948184528183011161015a578281602093845f960137010152565b9080601f8301121561015a5781602061155b9335910161150a565b90565b90600182811c9216801561158c575b602083101461157857565b634e487b7160e01b5f52602260045260245ffd5b91607f169161156d565b9091906001600160a01b0383168015610f3e57826115b381611981565b9133151580611679575b506001600160a01b038316956115d7908761165b5761172c565b60018154019055815f525f516020611a3c5f395f51905f5260205260405f20816001600160601b0360a01b825416179055857fddf252ad1be2c89b69c2b068fc378daa952ba7f163c4a11628f55a4df523b3ef5f80a4506001600160a01b031680830361164357505050565b6364283d7b60e01b5f5260045260245260445260645ffd5b611664846119a7565b61166d8561172c565b80545f1901905561172c565b909150806116c6575b1561168f5783905f6115bd565b836001600160a01b0383166116b057637e27328960e01b5f5260045260245ffd5b63177e802f60e01b5f523360045260245260445ffd5b506001600160a01b0382163314801561170a575b8061168257505f8481525f516020611a5c5f395f51905f5260205260409020546001600160a01b03163314611682565b5061171482611764565b335f908152602091909152604090205460ff166116da565b6001600160a01b03165f9081527f80bb2b638cc20bc4d0a60d66940f3ab4a00c1d7b313497ca82fb0b4ab00793036020526040902090565b6001600160a01b03165f9081527f80bb2b638cc20bc4d0a60d66940f3ab4a00c1d7b313497ca82fb0b4ab00793056020526040902090565b6001600160a01b031680156117fa575f516020611a1c5f395f51905f5280546001600160a01b0319811683179091556001600160a01b03167f8be0079c531659141344cd1fd0a4f28419497f9722a3daafe3b4186f6b6457e05f80a3565b631e4fbdf760e01b5f525f60045260245ffd5b61181681611981565b906001600160a01b03821615610b58575090565b5f516020611a1c5f395f51905f52546001600160a01b0316330361184a57565b63118cdaa760e01b5f523360045260245ffd5b823b61186b575b5050505050565b604051630a85bd0160e11b81526001600160a01b0391821660048201529181166024830152604482019390935260806064820152911691602090829081906118b7906084830190611442565b03815f865af15f918161193c575b5061191a57503d15611913573d6118db816114ee565b906118e960405192836114cc565b81523d5f602083013e5b8051908161190e5782633250574960e11b5f5260045260245ffd5b602001fd5b60606118f3565b6001600160e01b03191663757a42ff60e11b01610ebb57505f80808080611864565b9091506020813d602011611979575b81611958602093836114cc565b8101031261015a57516001600160e01b03198116810361015a57905f6118c5565b3d915061194b565b5f9081525f516020611a3c5f395f51905f5260205260409020546001600160a01b031690565b5f525f516020611a5c5f395f51905f5260205260405f206001600160601b0360a01b8154169055565b60ff5f516020611a7c5f395f51905f525460401c16156119ec57565b631afcd79f60e31b5f5260045ffdfe80bb2b638cc20bc4d0a60d66940f3ab4a00c1d7b313497ca82fb0b4ab00793009016d09d72d40fdae2fd8ceac6b6234c7706214fd39c1cd1e609a0528c19930080bb2b638cc20bc4d0a60d66940f3ab4a00c1d7b313497ca82fb0b4ab007930280bb2b638cc20bc4d0a60d66940f3ab4a00c1d7b313497ca82fb0b4ab0079304f0c57e16840df040f15088dc2f81fe391c3923bec73e23a9662efc9c229c6a0080bb2b638cc20bc4d0a60d66940f3ab4a00c1d7b313497ca82fb0b4ab007930137c58c799b6609234b945e882912ee9ad34948a1dfaa20a97485e1a7752bbf81a2646970667358221220281f2acb24ae3c7feab819173320bba763d541be8ad5ad41c65c8fa2d0d9520764736f6c634300081c0033f0c57e16840df040f15088dc2f81fe391c3923bec73e23a9662efc9c229c6a00","linkReferences":{}},"methodIdentifiers":{"approve(address,uint256)":"095ea7b3","balanceOf(address)":"70a08231","burnPosition(address,uint256)":"81ab1924","getApproved(uint256)":"081812fc","getUpgrader()":"e4d7437b","initialize(string,string,uint96,address)":"b1e3b0e8","isApprovedForAll(address,address)":"e985e9c5","masterForge()":"79738b02","mintPosition(address)":"36b0bb1c","name()":"06fdde03","owner()":"8da5cb5b","ownerOf(uint256)":"6352211e","renounceOwnership()":"715018a6","royaltyInfo(uint256,uint256)":"2a55205a","safeTransferFrom(address,address,uint256)":"42842e0e","safeTransferFrom(address,address,uint256,bytes)":"b88d4fde","setApprovalForAll(address,bool)":"a22cb465","setMasterForge(address)":"261cb178","setUpgrader(address)":"1b878f71","supportsInterface(bytes4)":"01ffc9a7","symbol()":"95d89b41","tokenURI(uint256)":"c87b56dd","totalSupply()":"18160ddd","transferFrom(address,address,uint256)":"23b872dd","transferOwnership(address)":"f2fde38b"},"id":0}