{"abi":[{"type":"constructor","inputs":[],"stateMutability":"nonpayable"},{"type":"function","name":"BONDED_SP_REWARD","inputs":[],"outputs":[{"name":"","type":"uint8","internalType":"uint8"}],"stateMutability":"view"},{"type":"function","name":"DAILY_DRIP_DEFAULT","inputs":[],"outputs":[{"name":"","type":"uint8","internalType":"uint8"}],"stateMutability":"view"},{"type":"function","name":"DAILY_DRIP_ENHANCED","inputs":[],"outputs":[{"name":"","type":"uint8","internalType":"uint8"}],"stateMutability":"view"},{"type":"function","name":"DAY_SECONDS","inputs":[],"outputs":[{"name":"","type":"uint256","internalType":"uint256"}],"stateMutability":"view"},{"type":"function","name":"GAME_START","inputs":[],"outputs":[{"name":"","type":"uint256","internalType":"uint256"}],"stateMutability":"view"},{"type":"function","name":"LOCK_COST_0","inputs":[],"outputs":[{"name":"","type":"uint8","internalType":"uint8"}],"stateMutability":"view"},{"type":"function","name":"LOCK_COST_1","inputs":[],"outputs":[{"name":"","type":"uint8","internalType":"uint8"}],"stateMutability":"view"},{"type":"function","name":"LOCK_COST_2","inputs":[],"outputs":[{"name":"","type":"uint8","internalType":"uint8"}],"stateMutability":"view"},{"type":"function","name":"LOCK_COST_3","inputs":[],"outputs":[{"name":"","type":"uint8","internalType":"uint8"}],"stateMutability":"view"},{"type":"function","name":"LOCK_PCT","inputs":[],"outputs":[{"name":"","type":"uint8","internalType":"uint8"}],"stateMutability":"view"},{"type":"function","name":"RESONANCE_DAYS","inputs":[],"outputs":[{"name":"","type":"uint8","internalType":"uint8"}],"stateMutability":"view"},{"type":"function","name":"STREAK_DAYS","inputs":[],"outputs":[{"name":"","type":"uint8","internalType":"uint8"}],"stateMutability":"view"},{"type":"function","name":"TRAIT_MAX","inputs":[],"outputs":[{"name":"","type":"uint16","internalType":"uint16"}],"stateMutability":"view"},{"type":"function","name":"TRAIT_MIN","inputs":[],"outputs":[{"name":"","type":"uint16","internalType":"uint16"}],"stateMutability":"view"},{"type":"function","name":"VIBES_MAX","inputs":[],"outputs":[{"name":"","type":"uint8","internalType":"uint8"}],"stateMutability":"view"},{"type":"function","name":"VIBES_MIN","inputs":[],"outputs":[{"name":"","type":"uint8","internalType":"uint8"}],"stateMutability":"view"},{"type":"function","name":"adminShiftTime","inputs":[{"name":"secondsDelta","type":"int256","internalType":"int256"}],"outputs":[],"stateMutability":"nonpayable"},{"type":"function","name":"applyItem","inputs":[{"name":"creatureId","type":"uint256","internalType":"uint256"},{"name":"itemId","type":"uint256","internalType":"uint256"}],"outputs":[],"stateMutability":"nonpayable"},{"type":"function","name":"burnItemForSP","inputs":[{"name":"creatureId","type":"uint256","internalType":"uint256"},{"name":"itemId","type":"uint256","internalType":"uint256"}],"outputs":[],"stateMutability":"nonpayable"},{"type":"function","name":"claimDailyItems","inputs":[{"name":"creatureId","type":"uint256","internalType":"uint256"}],"outputs":[],"stateMutability":"nonpayable"},{"type":"function","name":"claimDailyItemsBatch","inputs":[{"name":"creatureIds","type":"uint256[]","internalType":"uint256[]"}],"outputs":[],"stateMutability":"nonpayable"},{"type":"function","name":"currentDay","inputs":[],"outputs":[{"name":"","type":"uint256","internalType":"uint256"}],"stateMutability":"view"},{"type":"function","name":"enforceGoobsOwnership","inputs":[],"outputs":[{"name":"","type":"bool","internalType":"bool"}],"stateMutability":"view"},{"type":"function","name":"getCreatureState","inputs":[{"name":"creatureId","type":"uint256","internalType":"uint256"}],"outputs":[{"name":"","type":"tuple","internalType":"struct CreatureStabilizer.CreatureState","components":[{"name":"vibes","type":"uint8","internalType":"uint8"},{"name":"lockedCount","type":"uint8","internalType":"uint8"},{"name":"targetSal","type":"uint16","internalType":"uint16"},{"name":"targetPH","type":"uint16","internalType":"uint16"},{"name":"targetTemp","type":"uint16","internalType":"uint16"},{"name":"targetFreq","type":"uint16","internalType":"uint16"},{"name":"currSal","type":"uint16","internalType":"uint16"},{"name":"currPH","type":"uint16","internalType":"uint16"},{"name":"currTemp","type":"uint16","internalType":"uint16"},{"name":"currFreq","type":"uint16","internalType":"uint16"},{"name":"lockedSal","type":"bool","internalType":"bool"},{"name":"lockedPH","type":"bool","internalType":"bool"},{"name":"lockedTemp","type":"bool","internalType":"bool"},{"name":"lockedFreq","type":"bool","internalType":"bool"},{"name":"stabilizedAt","type":"uint40","internalType":"uint40"},{"name":"consecutiveVibeMax","type":"uint16","internalType":"uint16"},{"name":"enhancedDrip","type":"bool","internalType":"bool"},{"name":"bondedSP","type":"uint16","internalType":"uint16"}]}],"stateMutability":"view"},{"type":"function","name":"getDailyItems","inputs":[{"name":"creatureId","type":"uint256","internalType":"uint256"}],"outputs":[{"name":"day","type":"uint32","internalType":"uint32"},{"name":"templateIds","type":"uint256[]","internalType":"uint256[]"},{"name":"amounts","type":"uint256[]","internalType":"uint256[]"}],"stateMutability":"view"},{"type":"function","name":"globalEntropy","inputs":[],"outputs":[{"name":"","type":"bytes32","internalType":"bytes32"}],"stateMutability":"view"},{"type":"function","name":"goobs","inputs":[],"outputs":[{"name":"","type":"address","internalType":"contract IGoobs"}],"stateMutability":"view"},{"type":"function","name":"incubate","inputs":[{"name":"creatureId","type":"uint256","internalType":"uint256"}],"outputs":[],"stateMutability":"nonpayable"},{"type":"function","name":"initialize","inputs":[{"name":"_itemToken","type":"address","internalType":"address"},{"name":"_itemCatalog","type":"address","internalType":"address"},{"name":"_daySeconds","type":"uint256","internalType":"uint256"},{"name":"_entropySeed","type":"bytes32","internalType":"bytes32"}],"outputs":[],"stateMutability":"nonpayable"},{"type":"function","name":"initializeCreature","inputs":[{"name":"creatureId","type":"uint256","internalType":"uint256"},{"name":"targetSal","type":"uint16","internalType":"uint16"},{"name":"targetPH","type":"uint16","internalType":"uint16"},{"name":"targetTemp","type":"uint16","internalType":"uint16"},{"name":"targetFreq","type":"uint16","internalType":"uint16"},{"name":"currSal","type":"uint16","internalType":"uint16"},{"name":"currPH","type":"uint16","internalType":"uint16"},{"name":"currTemp","type":"uint16","internalType":"uint16"},{"name":"currFreq","type":"uint16","internalType":"uint16"}],"outputs":[],"stateMutability":"nonpayable"},{"type":"function","name":"itemCatalog","inputs":[],"outputs":[{"name":"","type":"address","internalType":"address"}],"stateMutability":"view"},{"type":"function","name":"itemToken","inputs":[],"outputs":[{"name":"","type":"address","internalType":"address"}],"stateMutability":"view"},{"type":"function","name":"lastClaimDay","inputs":[{"name":"","type":"uint256","internalType":"uint256"}],"outputs":[{"name":"","type":"uint32","internalType":"uint32"}],"stateMutability":"view"},{"type":"function","name":"lastVibesDay","inputs":[{"name":"","type":"uint256","internalType":"uint256"}],"outputs":[{"name":"","type":"uint32","internalType":"uint32"}],"stateMutability":"view"},{"type":"function","name":"lockTrait","inputs":[{"name":"creatureId","type":"uint256","internalType":"uint256"},{"name":"traitIndex","type":"uint8","internalType":"uint8"}],"outputs":[],"stateMutability":"nonpayable"},{"type":"function","name":"owner","inputs":[],"outputs":[{"name":"","type":"address","internalType":"address"}],"stateMutability":"view"},{"type":"function","name":"renounceOwnership","inputs":[],"outputs":[],"stateMutability":"nonpayable"},{"type":"function","name":"sendVibes","inputs":[{"name":"creatureId","type":"uint256","internalType":"uint256"}],"outputs":[],"stateMutability":"nonpayable"},{"type":"function","name":"setDaySeconds","inputs":[{"name":"newDaySeconds","type":"uint256","internalType":"uint256"}],"outputs":[],"stateMutability":"nonpayable"},{"type":"function","name":"setEnforceGoobsOwnership","inputs":[{"name":"_enforce","type":"bool","internalType":"bool"}],"outputs":[],"stateMutability":"nonpayable"},{"type":"function","name":"setGoobs","inputs":[{"name":"_goobs","type":"address","internalType":"address"}],"outputs":[],"stateMutability":"nonpayable"},{"type":"function","name":"setItemToken","inputs":[{"name":"_itemToken","type":"address","internalType":"address"}],"outputs":[],"stateMutability":"nonpayable"},{"type":"function","name":"timeOffset","inputs":[],"outputs":[{"name":"","type":"int256","internalType":"int256"}],"stateMutability":"view"},{"type":"function","name":"transferOwnership","inputs":[{"name":"newOwner","type":"address","internalType":"address"}],"outputs":[],"stateMutability":"nonpayable"},{"type":"function","name":"walletSP","inputs":[{"name":"","type":"address","internalType":"address"}],"outputs":[{"name":"","type":"uint32","internalType":"uint32"}],"stateMutability":"view"},{"type":"event","name":"DripGranted","inputs":[{"name":"creatureId","type":"uint256","indexed":true,"internalType":"uint256"},{"name":"numItems","type":"uint8","indexed":false,"internalType":"uint8"}],"anonymous":false},{"type":"event","name":"Evolved","inputs":[{"name":"creatureId","type":"uint256","indexed":true,"internalType":"uint256"}],"anonymous":false},{"type":"event","name":"Initialized","inputs":[{"name":"version","type":"uint64","indexed":false,"internalType":"uint64"}],"anonymous":false},{"type":"event","name":"ItemApplied","inputs":[{"name":"creatureId","type":"uint256","indexed":true,"internalType":"uint256"},{"name":"user","type":"address","indexed":true,"internalType":"address"},{"name":"itemId","type":"uint256","indexed":false,"internalType":"uint256"}],"anonymous":false},{"type":"event","name":"ItemBurnedForSP","inputs":[{"name":"creatureId","type":"uint256","indexed":true,"internalType":"uint256"},{"name":"user","type":"address","indexed":true,"internalType":"address"},{"name":"itemId","type":"uint256","indexed":false,"internalType":"uint256"},{"name":"sp","type":"uint8","indexed":false,"internalType":"uint8"}],"anonymous":false},{"type":"event","name":"ItemGranted","inputs":[{"name":"creatureId","type":"uint256","indexed":true,"internalType":"uint256"},{"name":"to","type":"address","indexed":true,"internalType":"address"},{"name":"itemId","type":"uint256","indexed":false,"internalType":"uint256"}],"anonymous":false},{"type":"event","name":"OwnershipTransferred","inputs":[{"name":"previousOwner","type":"address","indexed":true,"internalType":"address"},{"name":"newOwner","type":"address","indexed":true,"internalType":"address"}],"anonymous":false},{"type":"event","name":"Stabilized","inputs":[{"name":"creatureId","type":"uint256","indexed":true,"internalType":"uint256"}],"anonymous":false},{"type":"event","name":"StreakCompleted","inputs":[{"name":"creatureId","type":"uint256","indexed":true,"internalType":"uint256"}],"anonymous":false},{"type":"event","name":"TraitLocked","inputs":[{"name":"creatureId","type":"uint256","indexed":true,"internalType":"uint256"},{"name":"traitIndex","type":"uint8","indexed":false,"internalType":"uint8"},{"name":"lockIndex","type":"uint8","indexed":false,"internalType":"uint8"}],"anonymous":false},{"type":"event","name":"VibesUpdated","inputs":[{"name":"creatureId","type":"uint256","indexed":true,"internalType":"uint256"},{"name":"newValue","type":"uint8","indexed":false,"internalType":"uint8"}],"anonymous":false},{"type":"error","name":"InvalidInitialization","inputs":[]},{"type":"error","name":"NotInitializing","inputs":[]},{"type":"error","name":"OwnableInvalidOwner","inputs":[{"name":"owner","type":"address","internalType":"address"}]},{"type":"error","name":"OwnableUnauthorizedAccount","inputs":[{"name":"account","type":"address","internalType":"address"}]},{"type":"error","name":"ReentrancyGuardReentrantCall","inputs":[]}],"bytecode":{"object":"0x608060405234801562000010575f80fd5b5060017f9b779b17422d0df92223018b32b4d1fa46e071723d6817e2486d003becc55f00556200003f62000045565b620000f9565b7ff0c57e16840df040f15088dc2f81fe391c3923bec73e23a9662efc9c229c6a00805468010000000000000000900460ff1615620000965760405163f92ee8a960e01b815260040160405180910390fd5b80546001600160401b0390811614620000f65780546001600160401b0319166001600160401b0390811782556040519081527fc7f505b2f371ae2175ee4913f4499e1f2633a7b5936321eed1cdaeb6115181d29060200160405180910390a15b50565b61424f80620001075f395ff3fe608060405234801561000f575f80fd5b5060043610610276575f3560e01c80635f4c769611610156578063a438b0e5116100ca578063cf5afd8c11610084578063cf5afd8c1461053f578063d14711d814610721578063d2d5f5b114610734578063f2fde38b14610747578063fa2a5d4f1461075a578063feae0e411461077f575f80fd5b8063a438b0e5146104c2578063ac0496e1146104cb578063b98072ef146104de578063b993418d146104e6578063c3f141e7146104f9578063c4e9b14e1461051b575f80fd5b8063777f54401161011b578063777f54401461042c57806379ac27ed1461043f5780637b87a560146104475780637ecac2c71461045a5780638da5cb5b1461047f57806394c4bbd6146104af575f80fd5b80635f4c7696146103d457806360bd01c4146103ff578063707419fa14610408578063715018a61461041b57806372b9fb1614610423575f80fd5b80633e3a9f20116101ed5780634fd4f5e1116101b25780634fd4f5e114610388578063520ae5661461033357806357072cbe1461039b57806358e6d53c146103a35780635c9302c9146103b95780635cbfb706146103c1575f80fd5b80633e3a9f2014610320578063441ad3e514610333578063495db1101461033b5780634cbc07781461034e5780634d0ec635146102f3575f80fd5b80632913827d1161023e5780632913827d146102d05780632bdab3ea146102e357806333d2e525146102eb57806335741b71146102f357806339f3275d146102fa5780633c6d21f31461030d575f80fd5b8063025cf3c11461027a578063067fe9ee1461028f578063116d2b85146102ae57806318d138af146102b6578063242a91461461028f575b5f80fd5b61028d6102883660046138b3565b610787565b005b610297600a81565b60405160ff90911681526020015b60405180910390f35b610297600281565b6102bd5f81565b60405161ffff90911681526020016102a5565b61028d6102de366004613944565b6108c6565b610297600581565b610297600181565b6102975f81565b61028d610308366004613975565b610b5f565b61028d61031b366004613a10565b610f67565b61028d61032e366004613944565b611132565b610297600781565b61028d610349366004613a27565b6112f3565b61037361035c366004613a10565b60066020525f908152604090205463ffffffff1681565b60405163ffffffff90911681526020016102a5565b61028d610396366004613a10565b611319565b610297600c81565b6103ab5f5481565b6040519081526020016102a5565b6103ab61133a565b61028d6103cf366004613a10565b61138f565b6008546103e7906001600160a01b031681565b6040516001600160a01b0390911681526020016102a5565b6103ab60095481565b61028d610416366004613a5a565b611524565b61028d61154e565b6103ab60015481565b6007546103e7906001600160a01b031681565b6102bd606481565b600a546103e7906001600160a01b031681565b610373610468366004613a10565b60056020525f908152604090205463ffffffff1681565b7f9016d09d72d40fdae2fd8ceac6b6234c7706214fd39c1cd1e609a0528c199300546001600160a01b03166103e7565b61028d6104bd366004613a83565b611561565b6103ab60025481565b61028d6104d9366004613a5a565b61186c565b610297600881565b61028d6104f4366004613a10565b6118f8565b61050c610507366004613a10565b611967565b6040516102a593929190613aeb565b600a5461052f90600160a01b900460ff1681565b60405190151581526020016102a5565b61071461054d366004613a10565b60408051610240810182525f80825260208201819052918101829052606081018290526080810182905260a0810182905260c0810182905260e08101829052610100810182905261012081018290526101408101829052610160810182905261018081018290526101a081018290526101c081018290526101e081018290526102008101829052610220810191909152505f90815260036020908152604091829020825161024081018452905460ff808216835261010080830482169484019490945261ffff620100008304811695840195909552600160201b820485166060840152600160301b820485166080840152600160401b8204851660a0840152600160501b8204851660c0840152600160601b8204851660e0840152600160701b8204851693830193909352600160801b81048416610120830152600160901b810483161515610140830152600160981b810483161515610160830152600160a01b810483161515610180830152600160a81b8104831615156101a083015264ffffffffff600160b01b8204166101c0830152600160d81b810484166101e0830152600160e81b81049092161515610200820152600160f01b90910490911661022082015290565b6040516102a59190613b25565b61028d61072f366004613a10565b611afd565b61028d610742366004613c63565b611c25565b61028d610755366004613a5a565b611d5e565b610373610768366004613a5a565b60046020525f908152604090205463ffffffff1681565b610297600381565b5f5b815181101561087f57600a54600160a01b900460ff1680156107b55750600a546001600160a01b031615155b1561087757600a54825133916001600160a01b031690636352211e908590859081106107e3576107e3613ca6565b60200260200101516040518263ffffffff1660e01b815260040161080991815260200190565b602060405180830381865afa158015610824573d5f803e3d5ffd5b505050506040513d601f19601f820116820180604052508101906108489190613cc5565b6001600160a01b0316146108775760405162461bcd60e51b815260040161086e90613ce0565b60405180910390fd5b600101610789565b505f61088961133a565b90505f5b82518110156108c1576108b98382815181106108ab576108ab613ca6565b602002602001015183611d98565b60010161088d565b505050565b6108ce611e40565b600a548290600160a01b900460ff1680156108f35750600a546001600160a01b031615155b1561098957600a546040516331a9108f60e11b81526004810183905233916001600160a01b031690636352211e90602401602060405180830381865afa15801561093f573d5f803e3d5ffd5b505050506040513d601f19601f820116820180604052508101906109639190613cc5565b6001600160a01b0316146109895760405162461bcd60e51b815260040161086e90613ce0565b60075460405163d258153560e01b81526001600160a01b039091169063d2581535906109be9033908690600190600401613d22565b5f604051808303815f87803b1580156109d5575f80fd5b505af11580156109e7573d5f803e3d5ffd5b5050600854604051630c550f3d60e21b8152600481018690526001600160a01b0390911692505f915082906331543cf4906024015f60405180830381865afa158015610a35573d5f803e3d5ffd5b505050506040513d5f823e601f3d908101601f19168201604052610a5c9190810190613ddf565b80519091505f9060ff16610a7257506001610aac565b815160ff165f1901610a8657506002610aac565b815160ff1660011901610a9b57506003610aac565b815160ff1660021901610aac575060055b335f908152600460205260408120805460ff84169290610ad390849063ffffffff16613ee5565b92506101000a81548163ffffffff021916908363ffffffff160217905550336001600160a01b0316867fc6605fb6ce27111f3f1f44a9d8790b7e20bfe1e035d9c07b620d234c726988c88784604051610b3992919091825260ff16602082015260400190565b60405180910390a350505050610b5b60015f805160206141fa83398151915255565b5050565b600a548990600160a01b900460ff168015610b845750600a546001600160a01b031615155b15610c1a57600a546040516331a9108f60e11b81526004810183905233916001600160a01b031690636352211e90602401602060405180830381865afa158015610bd0573d5f803e3d5ffd5b505050506040513d601f19601f82011682018060405250810190610bf49190613cc5565b6001600160a01b031614610c1a5760405162461bcd60e51b815260040161086e90613ce0565b5f8a8152600360205260409020805462010000900461ffff16158015610c4a57508054600160201b900461ffff16155b8015610c6057508054600160301b900461ffff16155b8015610c7657508054600160401b900461ffff16155b610cd25760405162461bcd60e51b815260206004820152602760248201527f437265617475726553746162696c697a65723a20616c726561647920696e69746044820152661a585b1a5e995960ca1b606482015260840161086e565b5f610cdf60056064613f02565b905080610cec888d611e5b565b1015610d495760405162461bcd60e51b815260206004820152602660248201527f437265617475726553746162696c697a65723a2073616c696e69747920746f6f60448201526520636c6f736560d01b606482015260840161086e565b80610d54878c611e5b565b1015610da25760405162461bcd60e51b815260206004820181905260248201527f437265617475726553746162696c697a65723a20704820746f6f20636c6f7365604482015260640161086e565b80610dad868b611e5b565b1015610e0d5760405162461bcd60e51b815260206004820152602960248201527f437265617475726553746162696c697a65723a2074656d706572617475726520604482015268746f6f20636c6f736560b81b606482015260840161086e565b80610e18858a611e5b565b1015610e765760405162461bcd60e51b815260206004820152602760248201527f437265617475726553746162696c697a65723a206672657175656e637920746f6044820152666f20636c6f736560c81b606482015260840161086e565b508054600965ffffffff0000199091166201000061ffff9c8d160265ffff00000000191617600160201b9a8c169a909a029990991769ffffffff0000000000001916600160301b988b169890980269ffff0000000000000000191697909717600160401b968a16969096029590951763ffffffff60501b1916600160501b9489169490940261ffff60601b191693909317600160601b928816929092029190911763ffffffff60701b1916600160701b9187169190910261ffff60801b191617600160801b91909516029390931775ffffffff00000000000000000000000000000000ffff19169190911790555050565b600a548190600160a01b900460ff168015610f8c5750600a546001600160a01b031615155b1561102257600a546040516331a9108f60e11b81526004810183905233916001600160a01b031690636352211e90602401602060405180830381865afa158015610fd8573d5f803e3d5ffd5b505050506040513d601f19601f82011682018060405250810190610ffc9190613cc5565b6001600160a01b0316146110225760405162461bcd60e51b815260040161086e90613ce0565b5f8281526003602052604081209061103861133a565b5f8581526006602052604090205490915063ffffffff1681116110b25760405162461bcd60e51b815260206004820152602c60248201527f437265617475726553746162696c697a65723a20616c72656164792073656e7460448201526b20766962657320746f64617960a01b606482015260840161086e565b6110bd828583611ed1565b6110c682611f9b565b6110d08285611fd6565b5f84815260066020908152604091829020805463ffffffff191663ffffffff85161790558354915160ff909216825285917f020523ae04999ed19ad477fccdeae325bed3fa4858333f0cb774e3b0d816d9ca910160405180910390a250505050565b61113a611e40565b600a548290600160a01b900460ff16801561115f5750600a546001600160a01b031615155b156111f557600a546040516331a9108f60e11b81526004810183905233916001600160a01b031690636352211e90602401602060405180830381865afa1580156111ab573d5f803e3d5ffd5b505050506040513d601f19601f820116820180604052508101906111cf9190613cc5565b6001600160a01b0316146111f55760405162461bcd60e51b815260040161086e90613ce0565b5f8381526003602052604090208054600461010090910460ff161061122c5760405162461bcd60e51b815260040161086e90613f19565b5f611236846120bc565b60075460405163d258153560e01b81529192506001600160a01b03169063d25815359061126c9033908890600190600401613d22565b5f604051808303815f87803b158015611283575f80fd5b505af1158015611295573d5f803e3d5ffd5b505050506112a38282612170565b604051848152339086907f135e259e62a010bf3ad36da04d45b2c41a4851f5a85d253f8e03a8636908ecf49060200160405180910390a3505050610b5b60015f805160206141fa83398151915255565b6112fb612191565b600a8054911515600160a01b0260ff60a01b19909216919091179055565b611321612191565b8060025f8282546113329190613f5f565b909155505050565b5f806002544261134a9190613f5f565b90505f81121561135b575f91505090565b600154819081101561136f575f9250505090565b5f5460015461137e9083613f7e565b6113889190613fa5565b9250505090565b5f8181526003602052604090208054600461010090910460ff1610156114025760405162461bcd60e51b815260206004820152602260248201527f437265617475726553746162696c697a65723a206e6f742073746162696c697a604482015261195960f21b606482015260840161086e565b611410600762015180613fb8565b815461142f9162ffffff1690600160b01b900464ffffffffff16613fd7565b64ffffffffff164210156114985760405162461bcd60e51b815260206004820152602a60248201527f437265617475726553746162696c697a65723a207265736f6e616e6365206e6f6044820152697420636f6d706c65746560b01b606482015260840161086e565b805460ff16600a146114f65760405162461bcd60e51b815260206004820152602160248201527f437265617475726553746162696c697a65723a207669626573206e6f74206d616044820152600f60fb1b606482015260840161086e565b60405182907fee75f3f4b2af8621eec1bf25c4abed6ef6ff6d3fed2f2e070d4034f2f91e5d2e905f90a25050565b61152c612191565b600a80546001600160a01b0319166001600160a01b0392909216919091179055565b611556612191565b61155f5f6121ec565b565b611569611e40565b600a548290600160a01b900460ff16801561158e5750600a546001600160a01b031615155b1561162457600a546040516331a9108f60e11b81526004810183905233916001600160a01b031690636352211e90602401602060405180830381865afa1580156115da573d5f803e3d5ffd5b505050506040513d601f19601f820116820180604052508101906115fe9190613cc5565b6001600160a01b0316146116245760405162461bcd60e51b815260040161086e90613ce0565b5f8381526003602052604090208054600461010090910460ff161061165b5760405162461bcd60e51b815260040161086e90613f19565b611665818461225c565b6116b15760405162461bcd60e51b815260206004820181905260248201527f437265617475726553746162696c697a65723a206e6f74206c6f636b61626c65604482015260640161086e565b80545f906116c690610100900460ff166123c1565b8254335f90815260046020526040902054919250600160f01b900461ffff169063ffffffff1660ff83166116fa8284613ff5565b10156117545760405162461bcd60e51b815260206004820152602360248201527f437265617475726553746162696c697a65723a20696e73756666696369656e7460448201526202053560ec1b606482015260840161086e565b61176084338585612406565b61176a84876124c5565b8354610100900460ff1684600161178083614008565b91906101000a81548160ff021916908360ff16021790555050867f70e1816a152da4bb1a10a1262f3db1ce046183d9a61fbe48032efe79fd393f10876001875f0160019054906101000a900460ff166117d99190614026565b6040805160ff93841681529290911660208301520160405180910390a28354600461010090910460ff161061185157835464ffffffffff60b01b1916600160b01b4264ffffffffff160217845560405187907f3266482e5f1d63579eeb85b29b21ff8dfe111bebe9656fbc9c33bda404ca1068905f90a25b5050505050610b5b60015f805160206141fa83398151915255565b611874612191565b6001600160a01b0381166118d65760405162461bcd60e51b815260206004820152602360248201527f437265617475726553746162696c697a65723a207a65726f206974656d20746f60448201526235b2b760e91b606482015260840161086e565b600780546001600160a01b0319166001600160a01b0392909216919091179055565b611900612191565b5f81116119635760405162461bcd60e51b815260206004820152602b60248201527f437265617475726553746162696c697a65723a204441595f5345434f4e44532060448201526a06d757374206265203e20360ac1b606482015260840161086e565b5f55565b5f8181526003602052604081208054606091829162010000900461ffff1615801561199c57508054600160201b900461ffff16155b80156119b257508054600160301b900461ffff16155b80156119c857508054600160401b900461ffff16155b15611a215760405162461bcd60e51b815260206004820152602360248201527f437265617475726553746162696c697a65723a206e6f7420696e697469616c696044820152621e995960ea1b606482015260840161086e565b8054600461010090910460ff1610611a4b5760405162461bcd60e51b815260040161086e90613f19565b611a5361133a565b5f8681526005602052604090205490945063ffffffff90811690851615611ae1578463ffffffff168163ffffffff1603611ae15760405162461bcd60e51b815260206004820152602960248201527f437265617475726553746162696c697a65723a20616c726561647920636c61696044820152686d656420746f64617960b81b606482015260840161086e565b611af1868663ffffffff16612544565b95979096509350505050565b611b05611e40565b600a548190600160a01b900460ff168015611b2a5750600a546001600160a01b031615155b15611bc057600a546040516331a9108f60e11b81526004810183905233916001600160a01b031690636352211e90602401602060405180830381865afa158015611b76573d5f803e3d5ffd5b505050506040513d601f19601f82011682018060405250810190611b9a9190613cc5565b6001600160a01b031614611bc05760405162461bcd60e51b815260040161086e90613ce0565b6040805160018082528183019092525f916020808301908036833701905050905082815f81518110611bf457611bf4613ca6565b602090810291909101015280611c0981610787565b505050611c2260015f805160206141fa83398151915255565b50565b5f611c2e61278f565b805490915060ff600160401b820416159067ffffffffffffffff165f81158015611c555750825b90505f8267ffffffffffffffff166001148015611c715750303b155b905081158015611c7f575080155b15611c9d5760405163f92ee8a960e01b815260040160405180910390fd5b845467ffffffffffffffff191660011785558315611cc757845460ff60401b1916600160401b1785555b611cd0336127b7565b600780546001600160a01b03808c166001600160a01b03199283161790925560088054928b16929091169190911790555f8790556009869055426001558315611d5357845460ff60401b19168555604051600181527fc7f505b2f371ae2175ee4913f4499e1f2633a7b5936321eed1cdaeb6115181d29060200160405180910390a15b505050505050505050565b611d66612191565b6001600160a01b038116611d8f57604051631e4fbdf760e01b81525f600482015260240161086e565b611c22816121ec565b5f8281526005602052604090205463ffffffff16819003611db7575050565b5f8281526003602052604090208054600461010090910460ff1610611ddb57505050565b81158015611dfa57505f8381526005602052604090205463ffffffff16155b15611e0857611e08836127c8565b8115611e1857611e188383612819565b505f91825260056020526040909120805463ffffffff191663ffffffff909216919091179055565b611e48612970565b60025f805160206141fa83398151915255565b5f8161ffff165f03611e82578261ffff165f03611e7957505f611ecb565b50612710611ecb565b61ffff8084169083165f818311611ea257611e9d8383613f7e565b611eac565b611eac8284613f7e565b905081611ebb82612710613f02565b611ec59190613fa5565b93505050505b92915050565b5f8281526006602052604090205463ffffffff1615801590611f0557505f8281526006602052604090205463ffffffff1681115b156108c1575f82815260066020526040812054600190611f2b9063ffffffff1684613f7e565b611f359190613f7e565b90505f81118015611f495750835460ff1615155b15611f9557835460ff168110611f6657835460ff19168455611f95565b8354819085905f90611f7c90849060ff16614026565b92506101000a81548160ff021916908360ff1602179055505b50505050565b8054600a60ff9091161015611c2257805460ff16815f611fba83614008565b91906101000a81548160ff021916908360ff1602179055505050565b815460ff16600919016120ac578154600160d81b900461ffff1682601b611ffc8361403f565b82546101009290920a61ffff81810219909316918316021790915583546007600160d81b909104909116109050610b5b5781546003908390601e9061204d908490600160f01b900461ffff1661405f565b825461ffff9182166101009390930a928302919092021990911617905550815462ffffff60d81b1916600160e81b17825560405181907fa3db9b60d6dfab293a91f7cf546ba95db220363be0f5ff1edac6e0deca39e47d905f90a25050565b50805462ffffff60d81b19169055565b60408051610100810182525f8082526020820181905281830181905260608083018290526080830182905260a083019190915260c0820181905260e08201526008549151630c550f3d60e21b81526004810184905290916001600160a01b03169081906331543cf4906024015f60405180830381865afa158015612142573d5f803e3d5ffd5b505050506040513d5f823e601f3d908101601f191682016040526121699190810190613ddf565b9392505050565b805160ff166002190161218757610b5b828261299f565b610b5b82826129bf565b336121c37f9016d09d72d40fdae2fd8ceac6b6234c7706214fd39c1cd1e609a0528c199300546001600160a01b031690565b6001600160a01b03161461155f5760405163118cdaa760e01b815233600482015260240161086e565b7f9016d09d72d40fdae2fd8ceac6b6234c7706214fd39c1cd1e609a0528c19930080546001600160a01b031981166001600160a01b03848116918217845560405192169182907f8be0079c531659141344cd1fd0a4f28419497f9722a3daafe3b4186f6b6457e0905f90a3505050565b5f60ff82166122b8578254600160901b900460ff161561227d57505f611ecb565b5f61228a60056064613f02565b845490915081906122ae9061ffff600160501b820481169162010000900416611e5b565b1115915050611ecb565b5f1960ff83160161230d578254600160981b900460ff16156122db57505f611ecb565b5f6122e860056064613f02565b845490915081906122ae9061ffff600160601b8204811691600160201b900416611e5b565b60011960ff831601612363578254600160a01b900460ff161561233157505f611ecb565b5f61233e60056064613f02565b845490915081906122ae9061ffff600160701b8204811691600160301b900416611e5b565b60021960ff8316016123b9578254600160a81b900460ff161561238757505f611ecb565b5f61239460056064613f02565b845490915081906122ae9061ffff600160801b8204811691600160401b900416611e5b565b505f92915050565b5f8160ff165f036123d357505f919050565b8160ff166001036123e657506008919050565b8160ff166002036123f95750600a919050565b50600c919050565b919050565b5f8161ffff168360ff161161241e578260ff16612420565b815b855490915081908690601e90612442908490600160f01b900461ffff1661407a565b92506101000a81548161ffff021916908361ffff160217905550808360ff1661246b919061407a565b6001600160a01b0385165f908152600460205260408120805461ffff93909316929091906124a090849063ffffffff16614095565b92506101000a81548163ffffffff021916908363ffffffff1602179055505050505050565b60ff81166124e257815460ff60901b1916600160901b1782555050565b5f1960ff82160161250257815460ff60981b1916600160981b1782555050565b60011960ff82160161252357815460ff60a01b1916600160a01b1782555050565b60021960ff821601610b5b57815460ff60a81b1916600160a81b1782555050565b5f82815260036020526040902060085460609182916001600160a01b03168415801561258157505f8681526005602052604090205463ffffffff16155b1561263c5760408051600580825260c08201909252906020820160a080368337505060408051600580825260c0820190925292965090506020820160a0803683370190505092505f5b6005811015612636575f6125ed886125e4846103e8613ff5565b600954866129e2565b90508086838151811061260257612602613ca6565b602002602001018181525050600185838151811061262257612622613ca6565b6020908102919091010152506001016125ca565b50612786565b841561276c575f61264c83612b29565b90508060ff1667ffffffffffffffff81111561266a5761266a613821565b604051908082528060200260200182016040528015612693578160200160208202803683370190505b5094508060ff1667ffffffffffffffff8111156126b2576126b2613821565b6040519080825280602002602001820160405280156126db578160200160208202803683370190505b5093505f5b8160ff168160ff161015612765575f6127168960ff84166127038b6103e8613f02565b61270d9190613ff5565b600954876129e2565b905080878360ff168151811061272e5761272e613ca6565b6020026020010181815250506001868360ff168151811061275157612751613ca6565b6020908102919091010152506001016126e0565b5050612786565b604080515f80825260208201908152818301909252945092505b50509250929050565b5f807ff0c57e16840df040f15088dc2f81fe391c3923bec73e23a9662efc9c229c6a00611ecb565b6127bf612b5a565b611c2281612b7f565b6008546001600160a01b03165f6127df8382612544565b5090505f5b8151811015611f95576128118483838151811061280357612803613ca6565b602002602001015185612b87565b6001016127e4565b5f6128248383612544565b505f84815260036020526040812091925061283e82612b29565b90505f5b83518110156129305760075484516001600160a01b039091169063696a50b490339087908590811061287657612876613ca6565b602002602001015160016040518463ffffffff1660e01b815260040161289e93929190613d22565b5f604051808303815f87803b1580156128b5575f80fd5b505af11580156128c7573d5f803e3d5ffd5b50505050336001600160a01b0316867ff4306090e36cecc25e65de11f13574cabc62cb5a6b13e1c1e3bb4d74437181d186848151811061290957612909613ca6565b602002602001015160405161292091815260200190565b60405180910390a3600101612842565b5060405160ff8216815285907ff673ee9bc83c902bf336e87eab7a63b7cc7af0069d1a270c0f2c4bdd243707d69060200160405180910390a25050505050565b5f805160206141fa8339815191525460020361155f57604051633ee5aeb560e01b815260040160405180910390fd5b5f6129a983612cfd565b90506129b58382612e1d565b6108c18382613050565b6129c982826132a3565b606081015160ff16600414610b5b57610b5b82826134c3565b604080516020808201879052818301869052606080830186905283518084039091018152608090920190925280519101205f905f612a2086836135f4565b60405163fb098ef760e01b815260ff821660048201529091505f906001600160a01b0386169063fb098ef7906024015f60405180830381865afa158015612a69573d5f803e3d5ffd5b505050506040513d5f823e601f3d908101601f19168201604052612a9091908101906140b2565b90505f815111612af15760405162461bcd60e51b815260206004820152602660248201527f4974656d47656e657261746f723a206e6f2074656d706c6174657320666f722060448201526572617269747960d01b606482015260840161086e565b80515f90612aff9085614133565b9050818181518110612b1357612b13613ca6565b6020026020010151945050505050949350505050565b80545f90600160e81b900460ff168015612b475750815460ff16600a145b612b52576001611ecb565b600292915050565b612b626136a7565b61155f57604051631afcd79f60e31b815260040160405180910390fd5b611d66612b5a565b604051630c550f3d60e21b8152600481018390525f906001600160a01b038316906331543cf4906024015f60405180830381865afa158015612bcb573d5f803e3d5ffd5b505050506040513d5f823e601f3d908101601f19168201604052612bf29190810190613ddf565b9050600360ff16815f015160ff1603612c5e5760405162461bcd60e51b815260206004820152602860248201527f437265617475726553746162696c697a65723a206570696320696e2073746172604482015267746572207061636b60c01b606482015260840161086e565b600754604051631a5a942d60e21b81526001600160a01b039091169063696a50b490612c939033908790600190600401613d22565b5f604051808303815f87803b158015612caa575f80fd5b505af1158015612cbc573d5f803e3d5ffd5b50506040518581523392508691507ff4306090e36cecc25e65de11f13574cabc62cb5a6b13e1c1e3bb4d74437181d19060200160405180910390a350505050565b80545f908190600160901b900460ff16612d455782545f90612d329061ffff600160501b820481169162010000900416611e5b565b905081811115612d43578091505f92505b505b8254600160981b900460ff16612d8b5782545f90612d779061ffff600160601b8204811691600160201b900416611e5b565b905081811115612d8957809150600192505b505b8254600160a01b900460ff16612dd15782545f90612dbd9061ffff600160701b8204811691600160301b900416611e5b565b905081811115612dcf57809150600292505b505b8254600160a81b900460ff16612e175782545f90612e039061ffff600160801b8204811691600160401b900416611e5b565b905081811115612e1557809150600392505b505b50919050565b60ff8116612ea95781545f90612e469061ffff620100008204811691600160501b900416614146565b83549091505f90612e6290839062010000900461ffff166136c0565b8454909150612e8590612e8090839062010000900461ffff16613f5f565b61379e565b845461ffff91909116600160501b0261ffff60501b1990911617845550610b5b9050565b5f1960ff821601612f365781545f90612ed69061ffff600160201b8204811691600160601b900416614146565b83549091505f90612ef3908390600160201b900461ffff166136c0565b8454909150612f1290612e80908390600160201b900461ffff16613f5f565b845461ffff91909116600160601b0261ffff60601b1990911617845550610b5b9050565b60011960ff821601612fc45781545f90612f649061ffff600160301b8204811691600160701b900416614146565b83549091505f90612f81908390600160301b900461ffff166136c0565b8454909150612fa090612e80908390600160301b900461ffff16613f5f565b845461ffff91909116600160701b0261ffff60701b1990911617845550610b5b9050565b60021960ff821601610b5b5781545f90612ff29061ffff600160401b8204811691600160801b900416614146565b83549091505f9061300f908390600160401b900461ffff166136c0565b845490915061302e90612e80908390600160401b900461ffff16613f5f565b845461ffff91909116600160801b0261ffff60801b1990911617845550505050565b8154600160901b900460ff1615801561306b575060ff811615155b156130e15781545f906130919061ffff620100008204811691600160501b900416614146565b90506130c360646130a383606e614165565b6130ad9190614194565b8454612e80919062010000900461ffff16613f5f565b835461ffff91909116600160501b0261ffff60501b19909116178355505b8154600160981b900460ff161580156130fe575060ff8116600114155b156131765781545f906131259061ffff600160201b8204811691600160601b900416614146565b9050613158606461313783606e614165565b6131419190614194565b8454612e809190600160201b900461ffff16613f5f565b835461ffff91909116600160601b0261ffff60601b19909116178355505b8154600160a01b900460ff16158015613193575060ff8116600214155b1561320b5781545f906131ba9061ffff600160301b8204811691600160701b900416614146565b90506131ed60646131cc83606e614165565b6131d69190614194565b8454612e809190600160301b900461ffff16613f5f565b835461ffff91909116600160701b0261ffff60701b19909116178355505b8154600160a81b900460ff16158015613228575060ff8116600314155b15610b5b5781545f9061324f9061ffff600160401b8204811691600160801b900416614146565b9050613282606461326183606e614165565b61326b9190614194565b8454612e809190600160401b900461ffff16613f5f565b835461ffff91909116600160801b0261ffff60801b19909116178355505050565b602081015160ff161580156132c157508154600160901b900460ff16155b1561333157815460408201515f916132ed9161ffff600160501b830481169262010000900416906137c3565b835490915061331090612e8090600184900b90600160501b900461ffff16613f5f565b835461ffff91909116600160501b0261ffff60501b19909116178355505050565b602081015160ff16600114801561335157508154600160981b900460ff16155b156133c257815460408201515f9161337e9161ffff600160601b8304811692600160201b900416906137c3565b83549091506133a190612e8090600184900b90600160601b900461ffff16613f5f565b835461ffff91909116600160601b0261ffff60601b19909116178355505050565b602081015160ff1660021480156133e257508154600160a01b900460ff16155b1561345357815460408201515f9161340f9161ffff600160701b8304811692600160301b900416906137c3565b835490915061343290612e8090600184900b90600160701b900461ffff16613f5f565b835461ffff91909116600160701b0261ffff60701b19909116178355505050565b602081015160ff16600314801561347357508154600160a81b900460ff16155b15610b5b57815460408201515f916134a09161ffff600160801b8304811692600160401b900416906137c3565b835490915061328290612e8090600184900b90600160801b900461ffff16613f5f565b606081015160ff161580156134e157508154600160901b900460ff16155b1561350d57815460808201515f916132ed9161ffff600160501b830481169262010000900416906137c3565b606081015160ff16600114801561352d57508154600160981b900460ff16155b1561355a57815460808201515f9161337e9161ffff600160601b8304811692600160201b900416906137c3565b606081015160ff16600214801561357a57508154600160a01b900460ff16155b156135a757815460808201515f9161340f9161ffff600160701b8304811692600160301b900416906137c3565b606081015160ff1660031480156135c757508154600160a81b900460ff16155b15610b5b57815460808201515f916134a09161ffff600160801b8304811692600160401b900416906137c3565b5f8061360261271084614133565b9050600784101561363e57611770811015613620575f915050611ecb565b612134811015613634576001915050611ecb565b6002915050611ecb565b60c8811015613651576003915050611ecb565b5f61264861366060c884613f7e565b61366a9190614133565b90506116f8811015613680575f92505050611ecb565b61208a81101561369557600192505050611ecb565b600292505050611ecb565b5092915050565b5f6136b061278f565b54600160401b900460ff16919050565b5f8161ffff165f036136de576136d7600284614194565b9050611ecb565b5f8261ffff165f85126136f157846136fa565b6136fa856141c0565b61370690612710613f02565b6137109190613fa5565b90505f61371f600560c8613f02565b90508082111561378a575f80861261373857600161373b565b5f195b90505f61374a60056002613f02565b613755906064613f02565b905061ffff86166127108361376a8385614165565b6137749190614165565b61377e9190614194565b95505050505050611ecb565b613795600286614194565b95945050505050565b5f808212156137ae57505f919050565b60648213156137bf57506064919050565b5090565b5f805f8360010b126137d557826137de565b6137de836141da565b90508361ffff168561ffff1610156137f7579050612169565b8361ffff168561ffff16111561381857613810816141da565b915050612169565b5f915050612169565b634e487b7160e01b5f52604160045260245ffd5b604051610100810167ffffffffffffffff8111828210171561385957613859613821565b60405290565b604051601f8201601f1916810167ffffffffffffffff8111828210171561388857613888613821565b604052919050565b5f67ffffffffffffffff8211156138a9576138a9613821565b5060051b60200190565b5f60208083850312156138c4575f80fd5b823567ffffffffffffffff8111156138da575f80fd5b8301601f810185136138ea575f80fd5b80356138fd6138f882613890565b61385f565b81815260059190911b8201830190838101908783111561391b575f80fd5b928401925b8284101561393957833582529284019290840190613920565b979650505050505050565b5f8060408385031215613955575f80fd5b50508035926020909101359150565b803561ffff81168114612401575f80fd5b5f805f805f805f805f6101208a8c03121561398e575f80fd5b8935985061399e60208b01613964565b97506139ac60408b01613964565b96506139ba60608b01613964565b95506139c860808b01613964565b94506139d660a08b01613964565b93506139e460c08b01613964565b92506139f260e08b01613964565b9150613a016101008b01613964565b90509295985092959850929598565b5f60208284031215613a20575f80fd5b5035919050565b5f60208284031215613a37575f80fd5b81358015158114612169575f80fd5b6001600160a01b0381168114611c22575f80fd5b5f60208284031215613a6a575f80fd5b813561216981613a46565b60ff81168114611c22575f80fd5b5f8060408385031215613a94575f80fd5b823591506020830135613aa681613a75565b809150509250929050565b5f815180845260208085019450602084015f5b83811015613ae057815187529582019590820190600101613ac4565b509495945050505050565b63ffffffff84168152606060208201525f613b096060830185613ab1565b8281036040840152613b1b8185613ab1565b9695505050505050565b815160ff16815261024081016020830151613b45602084018260ff169052565b506040830151613b5b604084018261ffff169052565b506060830151613b71606084018261ffff169052565b506080830151613b87608084018261ffff169052565b5060a0830151613b9d60a084018261ffff169052565b5060c0830151613bb360c084018261ffff169052565b5060e0830151613bc960e084018261ffff169052565b506101008381015161ffff90811691840191909152610120808501518216908401526101408085015115159084015261016080850151151590840152610180808501511515908401526101a0808501511515908401526101c08085015164ffffffffff16908401526101e080850151821690840152610200808501511515908401526102208085015191821681850152905b505092915050565b5f805f8060808587031215613c76575f80fd5b8435613c8181613a46565b93506020850135613c9181613a46565b93969395505050506040820135916060013590565b634e487b7160e01b5f52603260045260245ffd5b805161240181613a46565b5f60208284031215613cd5575f80fd5b815161216981613a46565b60208082526022908201527f437265617475726553746162696c697a65723a206e6f7420476f6f62206f776e60408201526132b960f11b606082015260800190565b6001600160a01b039390931683526020830191909152604082015260600190565b805161240181613a75565b8051600181900b8114612401575f80fd5b5f82601f830112613d6e575f80fd5b815167ffffffffffffffff811115613d8857613d88613821565b6020613d9c601f8301601f1916820161385f565b8281528582848701011115613daf575f80fd5b5f5b83811015613dcc578581018301518282018401528201613db1565b505f928101909101919091529392505050565b5f60208284031215613def575f80fd5b815167ffffffffffffffff80821115613e06575f80fd5b908301906101008286031215613e1a575f80fd5b613e22613835565b613e2b83613d43565b8152613e3960208401613d43565b6020820152613e4a60408401613d4e565b6040820152613e5b60608401613d43565b6060820152613e6c60808401613d4e565b6080820152613e7d60a08401613cba565b60a082015260c083015182811115613e93575f80fd5b613e9f87828601613d5f565b60c08301525060e083015182811115613eb6575f80fd5b613ec287828601613d5f565b60e08301525095945050505050565b634e487b7160e01b5f52601160045260245ffd5b63ffffffff8181168382160190808211156136a0576136a0613ed1565b8082028115828204841417611ecb57611ecb613ed1565b60208082526026908201527f437265617475726553746162696c697a65723a20616c726561647920737461626040820152651a5b1a5e995960d21b606082015260800190565b8082018281125f831280158216821582161715613c5b57613c5b613ed1565b81810381811115611ecb57611ecb613ed1565b634e487b7160e01b5f52601260045260245ffd5b5f82613fb357613fb3613f91565b500490565b62ffffff818116838216028082169190828114613c5b57613c5b613ed1565b64ffffffffff8181168382160190808211156136a0576136a0613ed1565b80820180821115611ecb57611ecb613ed1565b5f60ff821660ff810361401d5761401d613ed1565b60010192915050565b60ff8281168282160390811115611ecb57611ecb613ed1565b5f61ffff80831681810361405557614055613ed1565b6001019392505050565b61ffff8181168382160190808211156136a0576136a0613ed1565b61ffff8281168282160390808211156136a0576136a0613ed1565b63ffffffff8281168282160390808211156136a0576136a0613ed1565b5f60208083850312156140c3575f80fd5b825167ffffffffffffffff8111156140d9575f80fd5b8301601f810185136140e9575f80fd5b80516140f76138f882613890565b81815260059190911b82018301908381019087831115614115575f80fd5b928401925b828410156139395783518252928401929084019061411a565b5f8261414157614141613f91565b500690565b8181035f8312801583831316838312821617156136a0576136a0613ed1565b8082025f8212600160ff1b8414161561418057614180613ed1565b8181058314821517611ecb57611ecb613ed1565b5f826141a2576141a2613f91565b600160ff1b82145f19841416156141bb576141bb613ed1565b500590565b5f600160ff1b82016141d4576141d4613ed1565b505f0390565b5f8160010b617fff1981036141f1576141f1613ed1565b5f039291505056fe9b779b17422d0df92223018b32b4d1fa46e071723d6817e2486d003becc55f00a26469706673582212207f145ed265bbf71d6846a5377bc70cd7beefd7d7207b91499d2f49cd912d15c664736f6c63430008180033","linkReferences":{}},"methodIdentifiers":{"BONDED_SP_REWARD()":"feae0e41","DAILY_DRIP_DEFAULT()":"33d2e525","DAILY_DRIP_ENHANCED()":"116d2b85","DAY_SECONDS()":"58e6d53c","GAME_START()":"72b9fb16","LOCK_COST_0()":"4d0ec635","LOCK_COST_1()":"b98072ef","LOCK_COST_2()":"067fe9ee","LOCK_COST_3()":"57072cbe","LOCK_PCT()":"2bdab3ea","RESONANCE_DAYS()":"520ae566","STREAK_DAYS()":"441ad3e5","TRAIT_MAX()":"79ac27ed","TRAIT_MIN()":"18d138af","VIBES_MAX()":"242a9146","VIBES_MIN()":"35741b71","adminShiftTime(int256)":"4fd4f5e1","applyItem(uint256,uint256)":"3e3a9f20","burnItemForSP(uint256,uint256)":"2913827d","claimDailyItems(uint256)":"d14711d8","claimDailyItemsBatch(uint256[])":"025cf3c1","currentDay()":"5c9302c9","enforceGoobsOwnership()":"c4e9b14e","getCreatureState(uint256)":"cf5afd8c","getDailyItems(uint256)":"c3f141e7","globalEntropy()":"60bd01c4","goobs()":"7b87a560","incubate(uint256)":"5cbfb706","initialize(address,address,uint256,bytes32)":"d2d5f5b1","initializeCreature(uint256,uint16,uint16,uint16,uint16,uint16,uint16,uint16,uint16)":"39f3275d","itemCatalog()":"5f4c7696","itemToken()":"777f5440","lastClaimDay(uint256)":"7ecac2c7","lastVibesDay(uint256)":"4cbc0778","lockTrait(uint256,uint8)":"94c4bbd6","owner()":"8da5cb5b","renounceOwnership()":"715018a6","sendVibes(uint256)":"3c6d21f3","setDaySeconds(uint256)":"b993418d","setEnforceGoobsOwnership(bool)":"495db110","setGoobs(address)":"707419fa","setItemToken(address)":"ac0496e1","timeOffset()":"a438b0e5","transferOwnership(address)":"f2fde38b","walletSP(address)":"fa2a5d4f"},"id":6}