{"abi":[{"type":"constructor","inputs":[],"stateMutability":"nonpayable"},{"type":"function","name":"BONDED_SP_REWARD","inputs":[],"outputs":[{"name":"","type":"uint8","internalType":"uint8"}],"stateMutability":"view"},{"type":"function","name":"DAILY_DRIP_DEFAULT","inputs":[],"outputs":[{"name":"","type":"uint8","internalType":"uint8"}],"stateMutability":"view"},{"type":"function","name":"DAILY_DRIP_ENHANCED","inputs":[],"outputs":[{"name":"","type":"uint8","internalType":"uint8"}],"stateMutability":"view"},{"type":"function","name":"DAY_SECONDS","inputs":[],"outputs":[{"name":"","type":"uint256","internalType":"uint256"}],"stateMutability":"view"},{"type":"function","name":"GAME_START","inputs":[],"outputs":[{"name":"","type":"uint256","internalType":"uint256"}],"stateMutability":"view"},{"type":"function","name":"LOCK_COST_0","inputs":[],"outputs":[{"name":"","type":"uint8","internalType":"uint8"}],"stateMutability":"view"},{"type":"function","name":"LOCK_COST_1","inputs":[],"outputs":[{"name":"","type":"uint8","internalType":"uint8"}],"stateMutability":"view"},{"type":"function","name":"LOCK_COST_2","inputs":[],"outputs":[{"name":"","type":"uint8","internalType":"uint8"}],"stateMutability":"view"},{"type":"function","name":"LOCK_COST_3","inputs":[],"outputs":[{"name":"","type":"uint8","internalType":"uint8"}],"stateMutability":"view"},{"type":"function","name":"LOCK_PCT","inputs":[],"outputs":[{"name":"","type":"uint8","internalType":"uint8"}],"stateMutability":"view"},{"type":"function","name":"RESONANCE_DAYS","inputs":[],"outputs":[{"name":"","type":"uint8","internalType":"uint8"}],"stateMutability":"view"},{"type":"function","name":"STREAK_DAYS","inputs":[],"outputs":[{"name":"","type":"uint8","internalType":"uint8"}],"stateMutability":"view"},{"type":"function","name":"TRAIT_MAX","inputs":[],"outputs":[{"name":"","type":"uint16","internalType":"uint16"}],"stateMutability":"view"},{"type":"function","name":"TRAIT_MIN","inputs":[],"outputs":[{"name":"","type":"uint16","internalType":"uint16"}],"stateMutability":"view"},{"type":"function","name":"VIBES_MAX","inputs":[],"outputs":[{"name":"","type":"uint8","internalType":"uint8"}],"stateMutability":"view"},{"type":"function","name":"VIBES_MIN","inputs":[],"outputs":[{"name":"","type":"uint8","internalType":"uint8"}],"stateMutability":"view"},{"type":"function","name":"adminShiftTime","inputs":[{"name":"secondsDelta","type":"int256","internalType":"int256"}],"outputs":[],"stateMutability":"nonpayable"},{"type":"function","name":"applyItem","inputs":[{"name":"creatureId","type":"uint256","internalType":"uint256"},{"name":"itemId","type":"uint256","internalType":"uint256"}],"outputs":[],"stateMutability":"nonpayable"},{"type":"function","name":"batchSetTesters","inputs":[{"name":"accounts","type":"address[]","internalType":"address[]"},{"name":"approved","type":"bool","internalType":"bool"}],"outputs":[],"stateMutability":"nonpayable"},{"type":"function","name":"burnItemForSP","inputs":[{"name":"creatureId","type":"uint256","internalType":"uint256"},{"name":"itemId","type":"uint256","internalType":"uint256"}],"outputs":[],"stateMutability":"nonpayable"},{"type":"function","name":"claimDailyItems","inputs":[{"name":"creatureId","type":"uint256","internalType":"uint256"}],"outputs":[],"stateMutability":"nonpayable"},{"type":"function","name":"claimDailyItemsBatch","inputs":[{"name":"creatureIds","type":"uint256[]","internalType":"uint256[]"}],"outputs":[],"stateMutability":"nonpayable"},{"type":"function","name":"currentDay","inputs":[],"outputs":[{"name":"","type":"uint256","internalType":"uint256"}],"stateMutability":"view"},{"type":"function","name":"enforceGoobsOwnership","inputs":[],"outputs":[{"name":"","type":"bool","internalType":"bool"}],"stateMutability":"view"},{"type":"function","name":"getCreatureState","inputs":[{"name":"creatureId","type":"uint256","internalType":"uint256"}],"outputs":[{"name":"","type":"tuple","internalType":"struct CreatureStabilizer.CreatureState","components":[{"name":"vibes","type":"uint8","internalType":"uint8"},{"name":"lockedCount","type":"uint8","internalType":"uint8"},{"name":"targetSal","type":"uint16","internalType":"uint16"},{"name":"targetPH","type":"uint16","internalType":"uint16"},{"name":"targetTemp","type":"uint16","internalType":"uint16"},{"name":"targetFreq","type":"uint16","internalType":"uint16"},{"name":"currSal","type":"uint16","internalType":"uint16"},{"name":"currPH","type":"uint16","internalType":"uint16"},{"name":"currTemp","type":"uint16","internalType":"uint16"},{"name":"currFreq","type":"uint16","internalType":"uint16"},{"name":"lockedSal","type":"bool","internalType":"bool"},{"name":"lockedPH","type":"bool","internalType":"bool"},{"name":"lockedTemp","type":"bool","internalType":"bool"},{"name":"lockedFreq","type":"bool","internalType":"bool"},{"name":"stabilizedAt","type":"uint40","internalType":"uint40"},{"name":"consecutiveVibeMax","type":"uint16","internalType":"uint16"},{"name":"enhancedDrip","type":"bool","internalType":"bool"},{"name":"bondedSP","type":"uint16","internalType":"uint16"}]}],"stateMutability":"view"},{"type":"function","name":"getDailyItems","inputs":[{"name":"creatureId","type":"uint256","internalType":"uint256"}],"outputs":[{"name":"day","type":"uint32","internalType":"uint32"},{"name":"templateIds","type":"uint256[]","internalType":"uint256[]"},{"name":"amounts","type":"uint256[]","internalType":"uint256[]"}],"stateMutability":"view"},{"type":"function","name":"globalEntropy","inputs":[],"outputs":[{"name":"","type":"bytes32","internalType":"bytes32"}],"stateMutability":"view"},{"type":"function","name":"goobs","inputs":[],"outputs":[{"name":"","type":"address","internalType":"contract IGoobs"}],"stateMutability":"view"},{"type":"function","name":"incubate","inputs":[{"name":"creatureId","type":"uint256","internalType":"uint256"}],"outputs":[],"stateMutability":"nonpayable"},{"type":"function","name":"initialize","inputs":[{"name":"_itemToken","type":"address","internalType":"address"},{"name":"_itemCatalog","type":"address","internalType":"address"},{"name":"_daySeconds","type":"uint256","internalType":"uint256"},{"name":"_entropySeed","type":"bytes32","internalType":"bytes32"}],"outputs":[],"stateMutability":"nonpayable"},{"type":"function","name":"initializeCreature","inputs":[{"name":"creatureId","type":"uint256","internalType":"uint256"},{"name":"targetSal","type":"uint16","internalType":"uint16"},{"name":"targetPH","type":"uint16","internalType":"uint16"},{"name":"targetTemp","type":"uint16","internalType":"uint16"},{"name":"targetFreq","type":"uint16","internalType":"uint16"},{"name":"currSal","type":"uint16","internalType":"uint16"},{"name":"currPH","type":"uint16","internalType":"uint16"},{"name":"currTemp","type":"uint16","internalType":"uint16"},{"name":"currFreq","type":"uint16","internalType":"uint16"}],"outputs":[],"stateMutability":"nonpayable"},{"type":"function","name":"isTester","inputs":[{"name":"account","type":"address","internalType":"address"}],"outputs":[{"name":"","type":"bool","internalType":"bool"}],"stateMutability":"view"},{"type":"function","name":"isWhitelistEnabled","inputs":[],"outputs":[{"name":"","type":"bool","internalType":"bool"}],"stateMutability":"view"},{"type":"function","name":"itemCatalog","inputs":[],"outputs":[{"name":"","type":"address","internalType":"address"}],"stateMutability":"view"},{"type":"function","name":"itemToken","inputs":[],"outputs":[{"name":"","type":"address","internalType":"address"}],"stateMutability":"view"},{"type":"function","name":"lastClaimDay","inputs":[{"name":"","type":"uint256","internalType":"uint256"}],"outputs":[{"name":"","type":"uint32","internalType":"uint32"}],"stateMutability":"view"},{"type":"function","name":"lastVibesDay","inputs":[{"name":"","type":"uint256","internalType":"uint256"}],"outputs":[{"name":"","type":"uint32","internalType":"uint32"}],"stateMutability":"view"},{"type":"function","name":"lockTrait","inputs":[{"name":"creatureId","type":"uint256","internalType":"uint256"},{"name":"traitIndex","type":"uint8","internalType":"uint8"}],"outputs":[],"stateMutability":"nonpayable"},{"type":"function","name":"owner","inputs":[],"outputs":[{"name":"","type":"address","internalType":"address"}],"stateMutability":"view"},{"type":"function","name":"renounceOwnership","inputs":[],"outputs":[],"stateMutability":"nonpayable"},{"type":"function","name":"sendVibes","inputs":[{"name":"creatureId","type":"uint256","internalType":"uint256"}],"outputs":[],"stateMutability":"nonpayable"},{"type":"function","name":"setCatalog","inputs":[{"name":"newCatalog","type":"address","internalType":"address"}],"outputs":[],"stateMutability":"nonpayable"},{"type":"function","name":"setDaySeconds","inputs":[{"name":"newDaySeconds","type":"uint256","internalType":"uint256"}],"outputs":[],"stateMutability":"nonpayable"},{"type":"function","name":"setEnforceGoobsOwnership","inputs":[{"name":"_enforce","type":"bool","internalType":"bool"}],"outputs":[],"stateMutability":"nonpayable"},{"type":"function","name":"setGoobs","inputs":[{"name":"_goobs","type":"address","internalType":"address"}],"outputs":[],"stateMutability":"nonpayable"},{"type":"function","name":"setItemToken","inputs":[{"name":"_itemToken","type":"address","internalType":"address"}],"outputs":[],"stateMutability":"nonpayable"},{"type":"function","name":"setTester","inputs":[{"name":"account","type":"address","internalType":"address"},{"name":"approved","type":"bool","internalType":"bool"}],"outputs":[],"stateMutability":"nonpayable"},{"type":"function","name":"setWhitelistEnabled","inputs":[{"name":"enabled","type":"bool","internalType":"bool"}],"outputs":[],"stateMutability":"nonpayable"},{"type":"function","name":"timeOffset","inputs":[],"outputs":[{"name":"","type":"int256","internalType":"int256"}],"stateMutability":"view"},{"type":"function","name":"transferOwnership","inputs":[{"name":"newOwner","type":"address","internalType":"address"}],"outputs":[],"stateMutability":"nonpayable"},{"type":"function","name":"walletSP","inputs":[{"name":"","type":"address","internalType":"address"}],"outputs":[{"name":"","type":"uint32","internalType":"uint32"}],"stateMutability":"view"},{"type":"event","name":"CatalogUpdated","inputs":[{"name":"newCatalog","type":"address","indexed":true,"internalType":"address"}],"anonymous":false},{"type":"event","name":"DripGranted","inputs":[{"name":"creatureId","type":"uint256","indexed":true,"internalType":"uint256"},{"name":"numItems","type":"uint8","indexed":false,"internalType":"uint8"}],"anonymous":false},{"type":"event","name":"Evolved","inputs":[{"name":"creatureId","type":"uint256","indexed":true,"internalType":"uint256"}],"anonymous":false},{"type":"event","name":"Initialized","inputs":[{"name":"version","type":"uint64","indexed":false,"internalType":"uint64"}],"anonymous":false},{"type":"event","name":"ItemApplied","inputs":[{"name":"creatureId","type":"uint256","indexed":true,"internalType":"uint256"},{"name":"user","type":"address","indexed":true,"internalType":"address"},{"name":"itemId","type":"uint256","indexed":false,"internalType":"uint256"}],"anonymous":false},{"type":"event","name":"ItemBurnedForSP","inputs":[{"name":"creatureId","type":"uint256","indexed":true,"internalType":"uint256"},{"name":"user","type":"address","indexed":true,"internalType":"address"},{"name":"itemId","type":"uint256","indexed":false,"internalType":"uint256"},{"name":"sp","type":"uint8","indexed":false,"internalType":"uint8"}],"anonymous":false},{"type":"event","name":"ItemGranted","inputs":[{"name":"creatureId","type":"uint256","indexed":true,"internalType":"uint256"},{"name":"to","type":"address","indexed":true,"internalType":"address"},{"name":"itemId","type":"uint256","indexed":false,"internalType":"uint256"}],"anonymous":false},{"type":"event","name":"OwnershipTransferred","inputs":[{"name":"previousOwner","type":"address","indexed":true,"internalType":"address"},{"name":"newOwner","type":"address","indexed":true,"internalType":"address"}],"anonymous":false},{"type":"event","name":"Stabilized","inputs":[{"name":"creatureId","type":"uint256","indexed":true,"internalType":"uint256"}],"anonymous":false},{"type":"event","name":"StreakCompleted","inputs":[{"name":"creatureId","type":"uint256","indexed":true,"internalType":"uint256"}],"anonymous":false},{"type":"event","name":"TesterUpdated","inputs":[{"name":"account","type":"address","indexed":true,"internalType":"address"},{"name":"approved","type":"bool","indexed":false,"internalType":"bool"}],"anonymous":false},{"type":"event","name":"TraitLocked","inputs":[{"name":"creatureId","type":"uint256","indexed":true,"internalType":"uint256"},{"name":"traitIndex","type":"uint8","indexed":false,"internalType":"uint8"},{"name":"lockIndex","type":"uint8","indexed":false,"internalType":"uint8"}],"anonymous":false},{"type":"event","name":"VibesUpdated","inputs":[{"name":"creatureId","type":"uint256","indexed":true,"internalType":"uint256"},{"name":"newValue","type":"uint8","indexed":false,"internalType":"uint8"}],"anonymous":false},{"type":"event","name":"WhitelistEnabled","inputs":[{"name":"enabled","type":"bool","indexed":false,"internalType":"bool"}],"anonymous":false},{"type":"error","name":"InvalidInitialization","inputs":[]},{"type":"error","name":"NotInitializing","inputs":[]},{"type":"error","name":"OwnableInvalidOwner","inputs":[{"name":"owner","type":"address","internalType":"address"}]},{"type":"error","name":"OwnableUnauthorizedAccount","inputs":[{"name":"account","type":"address","internalType":"address"}]},{"type":"error","name":"ReentrancyGuardReentrantCall","inputs":[]}],"bytecode":{"object":"0x6080806040523460ce5760017f9b779b17422d0df92223018b32b4d1fa46e071723d6817e2486d003becc55f00555f51602061418e5f395f51905f525460ff8160401c1660bf576002600160401b03196001600160401b03821601606d575b6040516140bb90816100d38239f35b6001600160401b0319166001600160401b039081175f51602061418e5f395f51905f525581527fc7f505b2f371ae2175ee4913f4499e1f2633a7b5936321eed1cdaeb6115181d290602090a15f80605e565b63f92ee8a960e01b5f5260045ffd5b5f80fdfe60806040526004361015610011575f80fd5b5f5f3560e01c8063025cf3c114612e41578063052d9e7e14612dd9578063067fe9ee14612d7a578063116d2b8514612dbe578063184d69ab14612d9957806318d138af14612d7f578063242a914614612d7a57806324cf86dd14612cb25780632913827d14612a0d5780632bdab3ea146129f157806333d2e525146129d557806335741b71146116f557806339f3275d1461251f5780633c6d21f3146121075780633e3a9f201461176c578063441ad3e5146116c2578063495db1101461172a5780634cbc0778146116fa5780634d0ec635146116f55780634fd4f5e1146116c7578063520ae566146116c25780635373d2c81461164457806357072cbe1461162857806358e6d53c1461160b5780635c9302c9146115e85780635cbfb706146114095780635f4c7696146113e057806360bd01c4146113c2578063707419fa14611382578063715018a61461131957806372b9fb16146112fb578063777f5440146112d257806379ac27ed146112b65780637b87a5601461128d5780637ecac2c71461125d5780638da5cb5b1461122857806394c4bbd614610dfb578063a438b0e514610ddd578063ac0496e114610d45578063b751110f14610c5b578063b98072ef14610c3f578063b993418d14610bbe578063bd630dc714610b7f578063c3f141e7146109e8578063c4e9b14e146109c2578063cf5afd8c14610746578063d14711d81461047c578063d2d5f5b1146102d6578063f2fde38b146102a9578063fa2a5d4f146102695763feae0e411461024b575f80fd5b34610266578060031936011261026657602060405160038152f35b80fd5b50346102665760203660031901126102665760209063ffffffff906040906001600160a01b036102976130cf565b16815260048452205416604051908152f35b5034610266576020366003190112610266576102d36102c66130cf565b6102ce613920565b6134cf565b80f35b5034610266576080366003190112610266576102f06130cf565b6024356001600160a01b03811690819003610478575f5160206140665f395f51905f52549160ff8360401c1615926001600160401b03811680159081610470575b6001149081610466575b15908161045d575b5061044e5767ffffffffffffffff1981166001175f5160206140665f395f51905f525583610422575b50610375613e3e565b61037d613e3e565b610386336134cf565b60018060a01b03166001600160601b0360a01b60075416176007556001600160601b0360a01b60085416176008556044358255606435600955426001556103ca5780f35b68ff0000000000000000195f5160206140665f395f51905f5254165f5160206140665f395f51905f52557fc7f505b2f371ae2175ee4913f4499e1f2633a7b5936321eed1cdaeb6115181d2602060405160018152a180f35b68ffffffffffffffffff191668010000000000000001175f5160206140665f395f51905f52555f61036c565b63f92ee8a960e01b8552600485fd5b9050155f610343565b303b15915061033b565b859150610331565b8280fd5b5034610266576020366003190112610266576004359061049a613953565b600a5460ff8160a01c1691828093610734575b61069d575b60ff8260a81c169384610662575b6040948551916104d0878461305e565b6001835260208301601f19880136823783511561064e5752610614575b815b81518110156105cc5784806105ba575b61050c575b6001016104ef565b61051681836131a8565b5186516331a9108f60e11b815260048101919091526020816024816001600160a01b0389165afa9081156105b057849161056b575b5060019190610564906001600160a01b031633146131e4565b9050610504565b90506020813d82116105a8575b816105856020938361305e565b810103126105a4579061056461059c6001936131d0565b91925061054b565b8380fd5b3d9150610578565b87513d86823e3d90fd5b506001600160a01b03841615156104ff565b50906105d661343e565b91815b81518110156105ff57806105f9856105f3600194866131a8565b51613540565b016105d9565b8260015f5160206140465f395f51905f525580f35b5f5160206140265f395f51905f52546001600160a01b031633146104ed57338252600b60205261064960ff8684205416613149565b6104ed565b634e487b7160e01b85526032600452602485fd5b5f5160206140265f395f51905f52546001600160a01b031633146104c057338252600b60205261069860ff604084205416613149565b6104c0565b6040516331a9108f60e11b8152600481018590526020816024816001600160a01b0387165afa80156107295782906106ea575b6106e591506001600160a01b031633146131e4565b6104b2565b506020813d602011610721575b816107046020938361305e565b8101031261071d576107186106e5916131d0565b6106d0565b5080fd5b3d91506106f7565b6040513d84823e3d90fd5b506001600160a01b03821615156104ad565b50346102665760203660031901126102665760408161024092610220835161076d81613042565b82815282602082015282858201528260608201528260808201528260a08201528260c08201528260e08201528261010082015282610120820152826101408201528261016082015282610180820152826101a0820152826101c0820152826101e0820152826102008201520152600435815260036020522061ffff610220604051926107f884613042565b549260ff8416815260ff8460081c166020820152828460101c166040820152828460201c166060820152828460301c166080820152828460401c1660a0820152828460501c1660c0820152828460601c1660e0820152828460701c16610100820152828460801c1661012082015260ff8460901c16151561014082015260ff8460981c16151561016082015260ff8460a01c16151561018082015260ff8460a81c1615156101a082015264ffffffffff8460b01c166101c0820152828460d81c166101e082015260ff8460e81c1615156102008201528360f01c8282015260ff6040519416845260ff60208201511660208501528260408201511660408501528260608201511660608501528260808201511660808501528260a08201511660a08501528260c08201511660c08501528260e08201511660e0850152826101008201511661010085015282610120820151166101208501526101408101511515610140850152610160810151151561016085015261018081015115156101808501526101a081015115156101a085015264ffffffffff6101c0820151166101c0850152826101e0820151166101e08501526102008101511515610200850152015116610220820152f35b5034610266578060031936011261026657602060ff600a5460a01c166040519015158152f35b503461026657602036600319011261026657600435908181526003602052604081205461ffff8160101c161580610b70575b80610b61575b80610b52575b610b0157600460ff610a3c9260081c1610613389565b63ffffffff604081610a4c61343e565b1692848152600560205220541681610a9e575b50610a6d81610a9a93613af9565b610a8c6040949294519485948552606060208601526060850190613116565b908382036040850152613116565b0390f35b8114610aaa575f610a5f565b60405162461bcd60e51b815260206004820152602960248201527f437265617475726553746162696c697a65723a20616c726561647920636c61696044820152686d656420746f64617960b81b6064820152608490fd5b60405162461bcd60e51b815260206004820152602360248201527f437265617475726553746162696c697a65723a206e6f7420696e697469616c696044820152621e995960ea1b6064820152608490fd5b5061ffff8160401c1615610a26565b5061ffff8160301c1615610a20565b5061ffff8160201c1615610a1a565b50346102665760203660031901126102665760209060ff906040906001600160a01b03610baa6130cf565b168152600b84522054166040519015158152f35b503461026657602036600319011261026657600435610bdb613920565b8015610be657815580f35b60405162461bcd60e51b815260206004820152602b60248201527f437265617475726553746162696c697a65723a204441595f5345434f4e44532060448201526a06d757374206265203e20360ac1b6064820152608490fd5b5034610266578060031936011261026657602060405160088152f35b5034610266576040366003190112610266576004356001600160401b03811161071d573660238201121561071d5780600401356001600160401b038111610478573660248260051b840101116104785790610cb46130a5565b90610cbd613920565b81151590845b84811015610d41576024600582901b830101356001600160a01b0381169190829003610d3d57816001928852600b602052610d0d8660408a209060ff801983541691151516179055565b7fcee0afc95a1f261593fe67f6ea93fe6a77c19bb226c2ecefc2f2aa1347372e796020604051878152a201610cc3565b8680fd5b8580f35b503461026657602036600319011261026657610d5f6130cf565b610d67613920565b6001600160a01b03168015610d8c576001600160601b0360a01b600754161760075580f35b60405162461bcd60e51b815260206004820152602360248201527f437265617475726553746162696c697a65723a207a65726f206974656d20746f60448201526235b2b760e91b6064820152608490fd5b50346102665780600319360112610266576020600254604051908152f35b50346102665760403660031901126102665760043560243560ff81168082036105a457610e26613953565b600a5460ff8160a01c1680611216575b611173575b60a81c60ff16611138575b82845260036020526040842091825490610e7360ff8360081c1691610e6d60048410613389565b856139f2565b156110f457610e8190613ab7565b9060f01c90338652600460205260ff610ea463ffffffff6040892054168461347f565b91168091106110a35761ffff91610eef918181111561109557610eea610eca8380613ae3565b87546001600160f01b031660f09190911b6001600160f01b031916178755565b613ae3565b163385526004602052604085209063ffffffff8254160363ffffffff81116110815763ffffffff1663ffffffff1982541617905580155f1461102657815460ff60901b1916600160901b1782555b610f4d60ff835460081c1661348c565b61ff0083549160081b169061ff00191617825581549060ff8260081c16905f19820160ff8111611012577f70e1816a152da4bb1a10a1262f3db1ce046183d9a61fbe48032efe79fd393f1060406004949360ff89948351928352166020820152a21015610fca575b8360015f5160206140465f395f51905f525580f35b64ffffffffff60b01b19164260b01b64ffffffffff60b01b161790557f3266482e5f1d63579eeb85b29b21ff8dfe111bebe9656fbc9c33bda404ca10688280a25f8080610fb5565b634e487b7160e01b87526011600452602487fd5b6001810361104557815460ff60981b1916600160981b1782555b610f3d565b6002810361106357815460ff60a01b1916600160a01b178255610f3d565b6003810361104057815460ff60a81b1916600160a81b178255610f3d565b634e487b7160e01b86526011600452602486fd5b610eea610eca828094613ae3565b60405162461bcd60e51b815260206004820152602360248201527f437265617475726553746162696c697a65723a20696e73756666696369656e7460448201526202053560ec1b6064820152608490fd5b606460405162461bcd60e51b815260206004820152602060248201527f437265617475726553746162696c697a65723a206e6f74206c6f636b61626c656044820152fd5b5f5160206140265f395f51905f52546001600160a01b03163314610e4657338452600b60205261116e60ff604086205416613149565b610e46565b6040516331a9108f60e11b815260048101859052906020826024816001600160a01b0385165afa91821561120b5786926111c7575b5060ff916111c0906001600160a01b031633146131e4565b9050610e3b565b91506020823d602011611203575b816111e26020938361305e565b810103126111ff576111c06111f860ff936131d0565b92506111a8565b8580fd5b3d91506111d5565b6040513d88823e3d90fd5b506001600160a01b0381161515610e36565b50346102665780600319360112610266575f5160206140265f395f51905f52546040516001600160a01b039091168152602090f35b50346102665760203660031901126102665763ffffffff6040602092600435815260058452205416604051908152f35b5034610266578060031936011261026657600a546040516001600160a01b039091168152602090f35b5034610266578060031936011261026657602060405160648152f35b50346102665780600319360112610266576007546040516001600160a01b039091168152602090f35b50346102665780600319360112610266576020600154604051908152f35b5034610266578060031936011261026657611332613920565b5f5160206140265f395f51905f5280546001600160a01b0319811690915581906001600160a01b03167f8be0079c531659141344cd1fd0a4f28419497f9722a3daafe3b4186f6b6457e08280a380f35b50346102665760203660031901126102665761139c6130cf565b6113a4613920565b60018060a01b03166001600160601b0360a01b600a541617600a5580f35b50346102665780600319360112610266576020600954604051908152f35b50346102665780600319360112610266576008546040516001600160a01b039091168152602090f35b50346102665760203660031901126102665760043560ff600a5460a81c166115ad575b80825260036020526040822054600460ff8260081c161061155d5762093a8064ffffffffff8260b01c160164ffffffffff81116115495764ffffffffff1642106114f15760ff600a9116036114a2577fee75f3f4b2af8621eec1bf25c4abed6ef6ff6d3fed2f2e070d4034f2f91e5d2e8280a280f35b60405162461bcd60e51b815260206004820152602160248201527f437265617475726553746162696c697a65723a207669626573206e6f74206d616044820152600f60fb1b6064820152608490fd5b60405162461bcd60e51b815260206004820152602a60248201527f437265617475726553746162696c697a65723a207265736f6e616e6365206e6f6044820152697420636f6d706c65746560b01b6064820152608490fd5b634e487b7160e01b84526011600452602484fd5b60405162461bcd60e51b815260206004820152602260248201527f437265617475726553746162696c697a65723a206e6f742073746162696c697a604482015261195960f21b6064820152608490fd5b5f5160206140265f395f51905f52546001600160a01b0316331461142c57338252600b6020526115e360ff604084205416613149565b61142c565b5034610266578060031936011261026657602061160361343e565b604051908152f35b503461026657806003193601126102665760209054604051908152f35b50346102665780600319360112610266576020604051600c8152f35b50346102665760403660031901126102665761165e6130cf565b7fcee0afc95a1f261593fe67f6ea93fe6a77c19bb226c2ecefc2f2aa1347372e7960206116896130a5565b92611692613920565b6001600160a01b0316808552600b825260408520805460ff191660ff86151516179055926040519015158152a280f35b6130fb565b5034610266576020366003190112610266576116e1613920565b6116ef6004356002546133e4565b60025580f35b612d7f565b50346102665760203660031901126102665763ffffffff6040602092600435815260068452205416604051908152f35b503461026657602036600319011261026657611744613096565b61174c613920565b600a805460ff60a01b191691151560a01b60ff60a01b1691909117905580f35b50346102665761177b366130e5565b90611784613953565b600a5460ff8160a01c16806120f5575b612061575b60a81c60ff16612026575b8083526003602052604083206117c3600460ff835460081c1610613389565b606060e06040516117d381613012565b86815286602082015286604082015286838201528660808201528660a08201528260c0820152015260248460018060a01b036008541660405192838092630c550f3d60e21b82528860048301525afa90811561201b578591611ff9575b5060075485906001600160a01b0316803b1561071d5781809160646040518094819363d258153560e01b83523360048401528b6024840152600160448401525af1801561072957611fe0575b5050805160ff16600303611cd657508054908480609084901c60ff1615611ca7575b60ff8460981c1615611c75575b60ff8460a01c1615611c43575b60ff8460a81c1615611c17575b5060ff16918215908115611b23575061192761190b61190661ffff61190086546118fb838260101c168094819360501c16613e69565b613f75565b906133e4565b613f59565b835461ffff60501b191660509190911b61ffff60501b16178355565b81549060ff8260901c16159081611b1a575b50611ad1575b50805460ff8160981c161580611ac6575b611a7d575b50805460ff8160a01c161580611a72575b611a29575b5080549160ff8360a81c16159081611a1d575b506119c7575b50505b6040519182527f135e259e62a010bf3ad36da04d45b2c41a4851f5a85d253f8e03a8636908ecf460203393a360015f5160206140465f395f51905f525580f35b6119fa61190661ffff60646119f36119ee8784611a169960401c1694859160801c16613e69565b613e81565b05906133e4565b815461ffff60801b191660809190911b61ffff60801b16179055565b5f80611984565b6003915014155f61197e565b611a5061190661ffff60646119f36119ee8684611a6c9860301c1694859160701c16613e69565b825461ffff60701b191660709190911b61ffff60701b16178255565b5f61196b565b506002831415611966565b611aa461190661ffff60646119f36119ee8684611ac09860201c1694859160601c16613e69565b825461ffff60601b191660609190911b61ffff60601b16178255565b5f611955565b506001831415611950565b611af861190661ffff60646119f36119ee8684611b149860101c1694859160501c16613e69565b825461ffff60501b191660509190911b61ffff60501b16178255565b5f61193f565b9050155f611939565b60018403611b745750611b6f611b5361190661ffff61190086546118fb838260201c168094819360601c16613e69565b835461ffff60601b191660609190911b61ffff60601b16178355565b611927565b60028403611bc05750611b6f611ba461190661ffff61190086546118fb838260301c168094819360701c16613e69565b835461ffff60701b191660709190911b61ffff60701b16178355565b60038414611bcf575b50611927565b611bf561190661ffff611900846118fb83611c119760401c168094819360801c16613e69565b835461ffff60801b191660809190911b61ffff60801b16178355565b5f611bc9565b611c2f61ffff8560401c1661ffff8660801c1661398b565b11611c3b575b5f6118c5565b506003611c35565b611c5b61ffff8560301c1661ffff8660701c1661398b565b818111611c69575b506118b8565b9150506002905f611c63565b611c8d61ffff8560201c1661ffff8660601c1661398b565b818111611c9b575b506118ab565b9150506001905f611c95565b611cbf61ffff8560101c1661ffff8660501c1661398b565b80611ccb575b5061189e565b91505085905f611cc5565b9060ff602083015116801580611fd1575b15611ece5750611d23611af86119068354611d1a61ffff8260501c169161ffff604089015160010b9160101c1683613f04565b60010b906133e4565b60ff60608301511660048103611d3c575b505050611987565b801580611ebf575b15611d995750611d75611906611d9193611d1a845461ffff6080818360501c1694015160010b9160101c1683613f04565b815461ffff60501b191660509190911b61ffff60501b16179055565b5f8080611d34565b6001811480611eb0575b15611df55750611dd4611906611df093611d1a845461ffff6080818360601c1694015160010b9160201c1683613f04565b815461ffff60601b191660609190911b61ffff60601b16179055565b611d91565b6002811480611ea1575b15611e4c5750611e30611906611df093611d1a845461ffff6080818360701c1694015160010b9160301c1683613f04565b815461ffff60701b191660709190911b61ffff60701b16179055565b60031480611e92575b611e61575b5050611d91565b6119fa611906611e8b93611d1a845461ffff60808183821c1694015160010b9160401c1683613f04565b5f80611e5a565b5060ff815460a81c1615611e55565b5060ff825460a01c1615611dff565b5060ff825460981c1615611da3565b5060ff825460901c1615611d44565b6001811480611fc2575b15611f105750611f0b611aa46119068354611d1a61ffff8260601c169161ffff604089015160010b9160201c1683613f04565b611d23565b6002811480611fb3575b15611f4d5750611f0b611a506119068354611d1a61ffff8260701c169161ffff604089015160010b9160301c1683613f04565b60031480611fa4575b15611f0b57611f0b611f886119068354611d1a61ffff8260801c169161ffff604089015160010b9160401c1683613f04565b825461ffff60801b191660809190911b61ffff60801b16178255565b5060ff815460a81c1615611f56565b5060ff825460a01c1615611f1a565b5060ff825460981c1615611ed8565b5060ff825460901c1615611ce7565b81611fea9161305e565b611ff557845f61187c565b8480fd5b61201591503d8087833e61200d818361305e565b8101906132ac565b5f611830565b6040513d87823e3d90fd5b5f5160206140265f395f51905f52546001600160a01b031633146117a457338352600b60205261205c60ff604085205416613149565b6117a4565b6040516331a9108f60e11b815260048101839052906020826024816001600160a01b0385165afa91821561201b5785926120b5575b5060ff916120ae906001600160a01b031633146131e4565b9050611799565b91506020823d6020116120ed575b816120d06020938361305e565b81010312611ff5576120ae6120e660ff936131d0565b9250612096565b3d91506120c3565b506001600160a01b0381161515611794565b503461026657602036600319011261026657600435600a5460ff8160a01c168061250d575b61246e575b60a81c60ff16612433575b80825260036020526040822061215061343e565b82845260066020528063ffffffff60408620541610156123d957828452600660205263ffffffff6040852054161515806123be575b61233a575b60ff825416600a811061231f575b50815460ff16600a036122e45761ffff825460d81c1661ffff81146122d057825490600161ffff60d81b910160d81b169061ffff60d81b19161782558154600761ffff8260d81c16101561223c575b5060ff7f020523ae04999ed19ad477fccdeae325bed3fa4858333f0cb774e3b0d816d9ca926020925b8587526006845263ffffffff806040892092161663ffffffff198254161790555416604051908152a280f35b60f01c60030161ffff81116122d0578254600160e81b60f09290921b6001600160f01b0319166001600160e81b03909116171761ffff60d81b191682557f020523ae04999ed19ad477fccdeae325bed3fa4858333f0cb774e3b0d816d9ca9160209160ff9190857fa3db9b60d6dfab293a91f7cf546ba95db220363be0f5ff1edac6e0deca39e47d8880a2925092506121e7565b634e487b7160e01b85526011600452602485fd5b815462ffffff60d81b191682557f020523ae04999ed19ad477fccdeae325bed3fa4858333f0cb774e3b0d816d9ca9160209160ff9190612210565b61232a60ff9161348c565b1660ff198354161782555f612198565b828452600660205261235663ffffffff60408620541682613413565b5f1981019081116122d057801515806123b1575b612375575b5061218a565b825460ff1690818110612393575050815460ff191682555b5f61236f565b60ff16900360ff81116122d05760ff1660ff1983541617825561238d565b5060ff835416151561236a565b50828452600660205263ffffffff6040852054168111612185565b60405162461bcd60e51b815260206004820152602c60248201527f437265617475726553746162696c697a65723a20616c72656164792073656e7460448201526b20766962657320746f64617960a01b6064820152608490fd5b5f5160206140265f395f51905f52546001600160a01b0316331461213c57338252600b60205261246960ff604084205416613149565b61213c565b6040516331a9108f60e11b815260048101839052906020826024816001600160a01b0385165afa9182156125025784926124c2575b5060ff916124bb906001600160a01b031633146131e4565b9050612131565b91506020823d6020116124fa575b816124dd6020938361305e565b810103126105a4576124bb6124f360ff936131d0565b92506124a3565b3d91506124d0565b6040513d86823e3d90fd5b506001600160a01b038116151561212c565b5034610266576101203660031901126102665760043560243561ffff81168103610478576044359161ffff831683036105a4576064359161ffff83168303611ff55760843561ffff811681036111ff5760a4359461ffff86168603610d3d5760c43561ffff811681036129d15760e4359261ffff841684036129cd57610104359561ffff871687036129c957600a5460ff8160a01c16806129b7575b612914575b60a81c60ff166128d9575b895260036020526040892097885461ffff8160101c1615806128ca575b806128bb575b806128ac575b15612857576101f4612606888461398b565b10612803576101f4612618868661398b565b106127bf576101f461262a8a8861398b565b10612768576101f461263c848a61398b565b10612713576126f09867ffff0000000000006126d49665ffff00000000611f889a61ffff60401b6126b89860401b169563ffff000061ffff60401b199260101b169067ffffffffffff0000191617169160201b16179160301b1617178955889081549061ffff60501b9060501b169061ffff60501b1916179055565b865461ffff60601b191660609190911b61ffff60601b16178655565b845461ffff60701b191660709190911b61ffff60701b16178455565b805475ffffffff00000000000000000000000000000000ffff1916600917905580f35b60405162461bcd60e51b815260206004820152602760248201527f437265617475726553746162696c697a65723a206672657175656e637920746f6044820152666f20636c6f736560c81b6064820152608490fd5b60405162461bcd60e51b815260206004820152602960248201527f437265617475726553746162696c697a65723a2074656d706572617475726520604482015268746f6f20636c6f736560b81b6064820152608490fd5b606460405162461bcd60e51b815260206004820152602060248201527f437265617475726553746162696c697a65723a20704820746f6f20636c6f73656044820152fd5b60405162461bcd60e51b815260206004820152602660248201527f437265617475726553746162696c697a65723a2073616c696e69747920746f6f60448201526520636c6f736560d01b6064820152608490fd5b60405162461bcd60e51b815260206004820152602760248201527f437265617475726553746162696c697a65723a20616c726561647920696e69746044820152661a585b1a5e995960ca1b6064820152608490fd5b5061ffff8160401c16156125f4565b5061ffff8160301c16156125ee565b5061ffff8160201c16156125e8565b5f5160206140265f395f51905f52546001600160a01b031633146125cb57338a52600b60205261290f60ff60408c205416613149565b6125cb565b6040516331a9108f60e11b815260048101839052906020826024816001600160a01b0385165afa9182156129ac578c92612968575b5060ff91612961906001600160a01b031633146131e4565b90506125c0565b91506020823d6020116129a4575b816129836020938361305e565b810103126129a05761296161299960ff936131d0565b9250612949565b8b80fd5b3d9150612976565b6040513d8e823e3d90fd5b506001600160a01b03811615156125bb565b8980fd5b8880fd5b8780fd5b5034610266578060031936011261026657602060405160018152f35b5034610266578060031936011261026657602060405160058152f35b5034612bcd57612a1c366130e5565b90612a25613953565b600a5460ff8160a01c1680612ca0575b612c0c575b60a81c60ff16612bd1575b6007546001600160a01b0316803b15612bcd575f809160646040518094819363d258153560e01b8352336004840152886024840152600160448401525af18015612bc257612bad575b50600854604051630c550f3d60e21b815260048101849052908490829060249082906001600160a01b03165afa908115612502578491612b93575b5051839060ff1680612b5557505060ff60015b163384526004602052604084208163ffffffff8254160163ffffffff81116110815763ffffffff1663ffffffff1982541617905560405192835260208301527fc6605fb6ce27111f3f1f44a9d8790b7e20bfe1e035d9c07b620d234c726988c860403393a360015f5160206140465f395f51905f525580f35b60018103612b6857505060ff6002612adc565b60028103612b7b57505060ff6003612adc565b600314612b8b575b60ff90612adc565b506005612b83565b612ba791503d8086833e61200d818361305e565b5f612ac9565b612bba9193505f9061305e565b5f915f612a8e565b6040513d5f823e3d90fd5b5f80fd5b5f5160206140265f395f51905f52546001600160a01b03163314612a4557335f52600b602052612c0760ff60405f205416613149565b612a45565b6040516331a9108f60e11b815260048101839052906020826024816001600160a01b0385165afa918215612bc2575f92612c60575b5060ff91612c59906001600160a01b031633146131e4565b9050612a3a565b91506020823d602011612c98575b81612c7b6020938361305e565b81010312612bcd57612c59612c9160ff936131d0565b9250612c41565b3d9150612c6e565b506001600160a01b0381161515612a35565b34612bcd576020366003190112612bcd57612ccb6130cf565b612cd3613920565b6001600160a01b03168015612d1a57600880546001600160a01b031916821790557f92f9c420481b575d4a74e9f2f3115948e66d72c4c7db17643df0270e762698c05f80a2005b60405162461bcd60e51b815260206004820152603260248201527f437265617475726553746162696c697a65723a20636174616c6f672063616e6e6044820152716f74206265207a65726f206164647265737360701b6064820152608490fd5b6130b4565b34612bcd575f366003190112612bcd5760206040515f8152f35b34612bcd575f366003190112612bcd57602060ff600a5460a81c166040519015158152f35b34612bcd575f366003190112612bcd57602060405160028152f35b34612bcd576020366003190112612bcd577f9bea0dd3cae4438dc4c54c3110002aedc380f4075b6edae73ae0536105a2008a6020612e15613096565b612e1d613920565b1515600a5460ff60a81b8260a81b169060ff60a81b191617600a55604051908152a1005b34612bcd576020366003190112612bcd576004356001600160401b038111612bcd5736602382011215612bcd57806004013590612e7d8261307f565b91612e8b604051938461305e565b8083526024602084019160051b83010191368311612bcd57602401905b8282106130025783600a549060ff8260a81c16612fc7575b5f9060ff8360a01c16915b8151811015612f99578280612f87575b612ee8575b600101612ecb565b612ef281836131a8565b516040516331a9108f60e11b81526004810191909152906020826024816001600160a01b0389165afa918215612bc2575f92612f48575b50600191612f41906001600160a01b031633146131e4565b9050612ee0565b91506020823d8211612f7f575b81612f626020938361305e565b81010312612bcd57612f41612f786001936131d0565b9250612f29565b3d9150612f55565b506001600160a01b0384161515612edb565b50612fa261343e565b905f5b8151811015612fc55780612fbf846105f3600194866131a8565b01612fa5565b005b5f5160206140265f395f51905f52546001600160a01b03163314612ec057335f52600b602052612ffd60ff60405f205416613149565b612ec0565b8135815260209182019101612ea8565b61010081019081106001600160401b0382111761302e57604052565b634e487b7160e01b5f52604160045260245ffd5b61024081019081106001600160401b0382111761302e57604052565b90601f801991011681019081106001600160401b0382111761302e57604052565b6001600160401b03811161302e5760051b60200190565b600435908115158203612bcd57565b602435908115158203612bcd57565b34612bcd575f366003190112612bcd576020604051600a8152f35b600435906001600160a01b0382168203612bcd57565b6040906003190112612bcd576004359060243590565b34612bcd575f366003190112612bcd57602060405160078152f35b90602080835192838152019201905f5b8181106131335750505090565b8251845260209384019390920191600101613126565b1561315057565b60405162461bcd60e51b815260206004820152602a60248201527f437265617475726553746162696c697a65723a206e6f742077686974656c69736044820152693a32b2103a32b9ba32b960b11b6064820152608490fd5b80518210156131bc5760209160051b010190565b634e487b7160e01b5f52603260045260245ffd5b51906001600160a01b0382168203612bcd57565b156131eb57565b60405162461bcd60e51b815260206004820152602260248201527f437265617475726553746162696c697a65723a206e6f7420476f6f62206f776e60448201526132b960f11b6064820152608490fd5b519060ff82168203612bcd57565b51908160010b8203612bcd57565b81601f82011215612bcd578051906001600160401b03821161302e576040519261328b601f8401601f19166020018561305e565b82845260208383010111612bcd57815f9260208093018386015e8301015290565b602081830312612bcd578051906001600160401b038211612bcd570161010081830312612bcd57604051916132e083613012565b6132e98261323b565b83526132f76020830161323b565b602084015261330860408301613249565b60408401526133196060830161323b565b606084015261332a60808301613249565b608084015261333b60a083016131d0565b60a084015260c08201516001600160401b038111612bcd578161335f918401613257565b60c084015260e08201516001600160401b038111612bcd576133819201613257565b60e082015290565b1561339057565b60405162461bcd60e51b815260206004820152602660248201527f437265617475726553746162696c697a65723a20616c726561647920737461626044820152651a5b1a5e995960d21b6064820152608490fd5b9190915f83820193841291129080158216911516176133ff57565b634e487b7160e01b5f52601160045260245ffd5b919082039182116133ff57565b811561342a570490565b634e487b7160e01b5f52601260045260245ffd5b61344a600254426133e4565b5f811261347a5760015490818110613474576134719161346991613413565b5f5490613420565b90565b50505f90565b505f90565b919082018092116133ff57565b60ff1660ff81146133ff5760010190565b906134a78261307f565b6134b4604051918261305e565b82815280926134c5601f199161307f565b0190602036910137565b6001600160a01b0316801561352d575f5160206140265f395f51905f5280546001600160a01b0319811683179091556001600160a01b03167f8be0079c531659141344cd1fd0a4f28419497f9722a3daafe3b4186f6b6457e05f80a3565b631e4fbdf760e01b5f525f60045260245ffd5b805f5260056020528163ffffffff60405f2054161461391c57805f526003602052600460ff60405f205460081c16101561391c5781158080613902575b6136b8575b156135aa575b5f52600560205263ffffffff8060405f2092161663ffffffff19825416179055565b6135b48282613af9565b5092815f5260036020526135ca60405f20613c9f565b925f5b855181101561367f576007546001600160a01b0316906135ed81886131a8565b51823b15612bcd575f92606484926040519586938492631a5a942d60e21b84523360048501526024840152600160448401525af1918215612bc25760019261366f575b5061363b81886131a8565b51604051908152857ff4306090e36cecc25e65de11f13574cabc62cb5a6b13e1c1e3bb4d74437181d160203393a3016135cd565b5f6136799161305e565b5f613630565b50928291945060207ff673ee9bc83c902bf336e87eab7a63b7cc7af0069d1a270c0f2c4bdd243707d69160ff60405191168152a2613588565b6008545f83815260056020526040812054939592946001600160a01b0390921693849392919063ffffffff166138cc5760c0906040516136f8838261305e565b6005815260a0366020830137809560405193613714818661305e565b600585525060a0366020860137600954835b60058110613891575050505050505b5f5b83518110156138855761374a81856131a8565b5190604051630c550f3d60e21b81528260048201525f816024818a5afa908115612bc25760039160ff915f9161386b575b50511614613815576007546001600160a01b031691823b15612bcd575f8093606460405180968193631a5a942d60e21b8352336004840152866024840152600160448401525af1928315612bc257600193613805575b50604051908152887ff4306090e36cecc25e65de11f13574cabc62cb5a6b13e1c1e3bb4d74437181d160203393a301613737565b5f61380f9161305e565b5f6137d1565b60405162461bcd60e51b815260206004820152602860248201527f437265617475726553746162696c697a65723a206570696320696e2073746172604482015267746572207061636b60c01b6064820152608490fd5b61387f91503d805f833e61200d818361305e565b5f61377b565b50939150939150613582565b806103e801806103e81161108157906138af84848f94600195613ccc565b6138b982876131a8565b52816138c582896131a8565b5201613726565b50604051602093506138de848261305e565b5f81525f36813792604051906138f4818361305e565b5f8252505f36813750613735565b50815f52600560205263ffffffff60405f2054161561357d565b5050565b5f5160206140265f395f51905f52546001600160a01b0316330361394057565b63118cdaa760e01b5f523360045260245ffd5b60025f5160206140465f395f51905f52541461397c5760025f5160206140465f395f51905f5255565b633ee5aeb560e01b5f5260045ffd5b9061ffff169081156139dd5761ffff1681808211156139cd576139ad91613413565b905b61271082029180830461271014901517156133ff5761347191613420565b906139d791613413565b906139af565b61ffff915016156139ee5761271090565b5f90565b9060ff1680613a2757505460ff8160901c1661347a57613a228161ffff806101f49460101c169160501c1661398b565b111590565b60018103613a5657505460ff8160981c1661347a57613a228161ffff806101f49460201c169160601c1661398b565b60028103613a8557505460ff8160a01c1661347a57613a228161ffff806101f49460301c169160701c1661398b565b600314613a9157505f90565b5460ff8160a81c1661347a57613a228161ffff806101f49460401c169160801c1661398b565b60ff1680613ac457505f90565b60018103613ad25750600890565b600203613ade57600a90565b600c90565b9061ffff8091169116039061ffff82116133ff57565b5f8181526003602052604090206008546001600160a01b03169391928015918280613c85575b15613bb35750505060c09260405193613b38818661305e565b6005855260a03660208701378460405191613b53818461305e565b600583525060a036602084013781945f93600954945b60058110613b7957505050505050565b806103e80190816103e8116133ff57613b96838860019487613ccc565b613ba082876131a8565b5281613bac82886131a8565b5201613b69565b8293959192155f14613c4f57613bcd60ff91969496613c9f565b16613bd78161349d565b613be08261349d565b905f97600954985b60ff81169085821015613c43576103e88802908882046103e8148417156133ff576001613c3b84613c2a8f8f908d91613c2460ff9a889a61347f565b90613ccc565b613c34828a6131a8565b52886131a8565b520116613be8565b50505096509450505050565b5050505050602090604051613c64838261305e565b5f81525f3681379160405190613c7a818361305e565b5f8252505f36813790565b50845f52600560205263ffffffff60405f20541615613b1f565b5460ff8160e81c169081613cbe575b5015613cb957600290565b600190565b600a915060ff16145f613cae565b6024613d0760ff925f9496956040519060208201928352886040830152606082015260608152613cfd60808261305e565b5190208096613e97565b60405163fb098ef760e01b815292166004830152909283919082906001600160a01b03165afa908115612bc2575f91613dae575b50805115613d5a578051801561342a57613d569206906131a8565b5190565b60405162461bcd60e51b815260206004820152602660248201527f4974656d47656e657261746f723a206e6f2074656d706c6174657320666f722060448201526572617269747960d01b6064820152608490fd5b90503d805f833e613dbf818361305e565b810190602081830312612bcd578051906001600160401b038211612bcd57019080601f83011215612bcd578151613df58161307f565b92613e03604051948561305e565b81845260208085019260051b820101928311612bcd57602001905b828210613e2e575050505f613d3b565b8151815260209182019101613e1e565b60ff5f5160206140665f395f51905f525460401c1615613e5a57565b631afcd79f60e31b5f5260045ffd5b81810392915f1380158285131691841216176133ff57565b90606e820291808305606e14901517156133ff57565b906127106007910691105f14613ebd57611770811061347a5761213411613cb957600290565b60c88110613eec5760c71981019081116133ff5761264890066116f8811061347a5761208a11613cb957600290565b50600390565b60010b617fff1981146133ff575f0390565b909161ffff80915f8160010b125f14613f5157613f2090613ef2565b8116935b16911681811015613f3b57505061ffff1660010b90565b111561347a5761ffff613471911660010b613ef2565b811693613f24565b5f811261347a5760648113613f6f5761ffff1690565b50606490565b9061ffff1690811561401d575f8112801561401757600160ff1b82146133ff57815f035b61271081029080820461271014901517156133ff57613fbb846103e892613420565b11613fc95750600291500590565b15905061400f575f19905b806103e802906103e8820581036133ff5782026103e802915f8212600160ff1b8214166133ff5781830514901517156133ff57612710900590565b600190613fd4565b81613f99565b60029150059056fe9016d09d72d40fdae2fd8ceac6b6234c7706214fd39c1cd1e609a0528c1993009b779b17422d0df92223018b32b4d1fa46e071723d6817e2486d003becc55f00f0c57e16840df040f15088dc2f81fe391c3923bec73e23a9662efc9c229c6a00a26469706673582212201f80a80631bfdee2b003a9bd196f8622a36471ec0de8005683327d42beee504764736f6c634300081c0033f0c57e16840df040f15088dc2f81fe391c3923bec73e23a9662efc9c229c6a00","linkReferences":{}},"methodIdentifiers":{"BONDED_SP_REWARD()":"feae0e41","DAILY_DRIP_DEFAULT()":"33d2e525","DAILY_DRIP_ENHANCED()":"116d2b85","DAY_SECONDS()":"58e6d53c","GAME_START()":"72b9fb16","LOCK_COST_0()":"4d0ec635","LOCK_COST_1()":"b98072ef","LOCK_COST_2()":"067fe9ee","LOCK_COST_3()":"57072cbe","LOCK_PCT()":"2bdab3ea","RESONANCE_DAYS()":"520ae566","STREAK_DAYS()":"441ad3e5","TRAIT_MAX()":"79ac27ed","TRAIT_MIN()":"18d138af","VIBES_MAX()":"242a9146","VIBES_MIN()":"35741b71","adminShiftTime(int256)":"4fd4f5e1","applyItem(uint256,uint256)":"3e3a9f20","batchSetTesters(address[],bool)":"b751110f","burnItemForSP(uint256,uint256)":"2913827d","claimDailyItems(uint256)":"d14711d8","claimDailyItemsBatch(uint256[])":"025cf3c1","currentDay()":"5c9302c9","enforceGoobsOwnership()":"c4e9b14e","getCreatureState(uint256)":"cf5afd8c","getDailyItems(uint256)":"c3f141e7","globalEntropy()":"60bd01c4","goobs()":"7b87a560","incubate(uint256)":"5cbfb706","initialize(address,address,uint256,bytes32)":"d2d5f5b1","initializeCreature(uint256,uint16,uint16,uint16,uint16,uint16,uint16,uint16,uint16)":"39f3275d","isTester(address)":"bd630dc7","isWhitelistEnabled()":"184d69ab","itemCatalog()":"5f4c7696","itemToken()":"777f5440","lastClaimDay(uint256)":"7ecac2c7","lastVibesDay(uint256)":"4cbc0778","lockTrait(uint256,uint8)":"94c4bbd6","owner()":"8da5cb5b","renounceOwnership()":"715018a6","sendVibes(uint256)":"3c6d21f3","setCatalog(address)":"24cf86dd","setDaySeconds(uint256)":"b993418d","setEnforceGoobsOwnership(bool)":"495db110","setGoobs(address)":"707419fa","setItemToken(address)":"ac0496e1","setTester(address,bool)":"5373d2c8","setWhitelistEnabled(bool)":"052d9e7e","timeOffset()":"a438b0e5","transferOwnership(address)":"f2fde38b","walletSP(address)":"fa2a5d4f"},"id":14}