{"abi":[{"type":"constructor","inputs":[],"stateMutability":"nonpayable"},{"type":"function","name":"BONDED_SP_REWARD","inputs":[],"outputs":[{"name":"","type":"uint8","internalType":"uint8"}],"stateMutability":"view"},{"type":"function","name":"DAILY_DRIP_DEFAULT","inputs":[],"outputs":[{"name":"","type":"uint8","internalType":"uint8"}],"stateMutability":"view"},{"type":"function","name":"DAILY_DRIP_ENHANCED","inputs":[],"outputs":[{"name":"","type":"uint8","internalType":"uint8"}],"stateMutability":"view"},{"type":"function","name":"DAY_SECONDS","inputs":[],"outputs":[{"name":"","type":"uint256","internalType":"uint256"}],"stateMutability":"view"},{"type":"function","name":"GAME_START","inputs":[],"outputs":[{"name":"","type":"uint256","internalType":"uint256"}],"stateMutability":"view"},{"type":"function","name":"LOCK_COST_0","inputs":[],"outputs":[{"name":"","type":"uint8","internalType":"uint8"}],"stateMutability":"view"},{"type":"function","name":"LOCK_COST_1","inputs":[],"outputs":[{"name":"","type":"uint8","internalType":"uint8"}],"stateMutability":"view"},{"type":"function","name":"LOCK_COST_2","inputs":[],"outputs":[{"name":"","type":"uint8","internalType":"uint8"}],"stateMutability":"view"},{"type":"function","name":"LOCK_COST_3","inputs":[],"outputs":[{"name":"","type":"uint8","internalType":"uint8"}],"stateMutability":"view"},{"type":"function","name":"LOCK_PCT","inputs":[],"outputs":[{"name":"","type":"uint8","internalType":"uint8"}],"stateMutability":"view"},{"type":"function","name":"RESONANCE_DAYS","inputs":[],"outputs":[{"name":"","type":"uint8","internalType":"uint8"}],"stateMutability":"view"},{"type":"function","name":"STREAK_DAYS","inputs":[],"outputs":[{"name":"","type":"uint8","internalType":"uint8"}],"stateMutability":"view"},{"type":"function","name":"TRAIT_MAX","inputs":[],"outputs":[{"name":"","type":"uint16","internalType":"uint16"}],"stateMutability":"view"},{"type":"function","name":"TRAIT_MIN","inputs":[],"outputs":[{"name":"","type":"uint16","internalType":"uint16"}],"stateMutability":"view"},{"type":"function","name":"VIBES_MAX","inputs":[],"outputs":[{"name":"","type":"uint8","internalType":"uint8"}],"stateMutability":"view"},{"type":"function","name":"VIBES_MIN","inputs":[],"outputs":[{"name":"","type":"uint8","internalType":"uint8"}],"stateMutability":"view"},{"type":"function","name":"adminShiftTime","inputs":[{"name":"secondsDelta","type":"int256","internalType":"int256"}],"outputs":[],"stateMutability":"nonpayable"},{"type":"function","name":"applyItem","inputs":[{"name":"creatureId","type":"uint256","internalType":"uint256"},{"name":"itemId","type":"uint256","internalType":"uint256"}],"outputs":[],"stateMutability":"nonpayable"},{"type":"function","name":"batchSetTesters","inputs":[{"name":"accounts","type":"address[]","internalType":"address[]"},{"name":"approved","type":"bool","internalType":"bool"}],"outputs":[],"stateMutability":"nonpayable"},{"type":"function","name":"burnItemForSP","inputs":[{"name":"creatureId","type":"uint256","internalType":"uint256"},{"name":"itemId","type":"uint256","internalType":"uint256"}],"outputs":[],"stateMutability":"nonpayable"},{"type":"function","name":"claimDailyItems","inputs":[{"name":"creatureId","type":"uint256","internalType":"uint256"}],"outputs":[],"stateMutability":"nonpayable"},{"type":"function","name":"claimDailyItemsBatch","inputs":[{"name":"creatureIds","type":"uint256[]","internalType":"uint256[]"}],"outputs":[],"stateMutability":"nonpayable"},{"type":"function","name":"currentDay","inputs":[],"outputs":[{"name":"","type":"uint256","internalType":"uint256"}],"stateMutability":"view"},{"type":"function","name":"enforceGoobsOwnership","inputs":[],"outputs":[{"name":"","type":"bool","internalType":"bool"}],"stateMutability":"view"},{"type":"function","name":"getCreatureState","inputs":[{"name":"creatureId","type":"uint256","internalType":"uint256"}],"outputs":[{"name":"","type":"tuple","internalType":"struct CreatureStabilizer.CreatureState","components":[{"name":"vibes","type":"uint8","internalType":"uint8"},{"name":"lockedCount","type":"uint8","internalType":"uint8"},{"name":"targetSal","type":"uint16","internalType":"uint16"},{"name":"targetPH","type":"uint16","internalType":"uint16"},{"name":"targetTemp","type":"uint16","internalType":"uint16"},{"name":"targetFreq","type":"uint16","internalType":"uint16"},{"name":"currSal","type":"uint16","internalType":"uint16"},{"name":"currPH","type":"uint16","internalType":"uint16"},{"name":"currTemp","type":"uint16","internalType":"uint16"},{"name":"currFreq","type":"uint16","internalType":"uint16"},{"name":"lockedSal","type":"bool","internalType":"bool"},{"name":"lockedPH","type":"bool","internalType":"bool"},{"name":"lockedTemp","type":"bool","internalType":"bool"},{"name":"lockedFreq","type":"bool","internalType":"bool"},{"name":"stabilizedAt","type":"uint40","internalType":"uint40"},{"name":"consecutiveVibeMax","type":"uint16","internalType":"uint16"},{"name":"enhancedDrip","type":"bool","internalType":"bool"},{"name":"bondedSP","type":"uint16","internalType":"uint16"}]}],"stateMutability":"view"},{"type":"function","name":"getDailyItems","inputs":[{"name":"creatureId","type":"uint256","internalType":"uint256"}],"outputs":[{"name":"day","type":"uint32","internalType":"uint32"},{"name":"templateIds","type":"uint256[]","internalType":"uint256[]"},{"name":"amounts","type":"uint256[]","internalType":"uint256[]"}],"stateMutability":"view"},{"type":"function","name":"globalEntropy","inputs":[],"outputs":[{"name":"","type":"bytes32","internalType":"bytes32"}],"stateMutability":"view"},{"type":"function","name":"goobs","inputs":[],"outputs":[{"name":"","type":"address","internalType":"contract IGoobs"}],"stateMutability":"view"},{"type":"function","name":"incubate","inputs":[{"name":"creatureId","type":"uint256","internalType":"uint256"}],"outputs":[],"stateMutability":"nonpayable"},{"type":"function","name":"initialize","inputs":[{"name":"_itemToken","type":"address","internalType":"address"},{"name":"_itemCatalog","type":"address","internalType":"address"},{"name":"_daySeconds","type":"uint256","internalType":"uint256"},{"name":"_entropySeed","type":"bytes32","internalType":"bytes32"}],"outputs":[],"stateMutability":"nonpayable"},{"type":"function","name":"initializeCreature","inputs":[{"name":"creatureId","type":"uint256","internalType":"uint256"},{"name":"targetSal","type":"uint16","internalType":"uint16"},{"name":"targetPH","type":"uint16","internalType":"uint16"},{"name":"targetTemp","type":"uint16","internalType":"uint16"},{"name":"targetFreq","type":"uint16","internalType":"uint16"},{"name":"currSal","type":"uint16","internalType":"uint16"},{"name":"currPH","type":"uint16","internalType":"uint16"},{"name":"currTemp","type":"uint16","internalType":"uint16"},{"name":"currFreq","type":"uint16","internalType":"uint16"}],"outputs":[],"stateMutability":"nonpayable"},{"type":"function","name":"isTester","inputs":[{"name":"account","type":"address","internalType":"address"}],"outputs":[{"name":"","type":"bool","internalType":"bool"}],"stateMutability":"view"},{"type":"function","name":"isWhitelistEnabled","inputs":[],"outputs":[{"name":"","type":"bool","internalType":"bool"}],"stateMutability":"view"},{"type":"function","name":"itemCatalog","inputs":[],"outputs":[{"name":"","type":"address","internalType":"address"}],"stateMutability":"view"},{"type":"function","name":"itemToken","inputs":[],"outputs":[{"name":"","type":"address","internalType":"address"}],"stateMutability":"view"},{"type":"function","name":"lastClaimDay","inputs":[{"name":"","type":"uint256","internalType":"uint256"}],"outputs":[{"name":"","type":"uint32","internalType":"uint32"}],"stateMutability":"view"},{"type":"function","name":"lastVibesDay","inputs":[{"name":"","type":"uint256","internalType":"uint256"}],"outputs":[{"name":"","type":"uint32","internalType":"uint32"}],"stateMutability":"view"},{"type":"function","name":"lockTrait","inputs":[{"name":"creatureId","type":"uint256","internalType":"uint256"},{"name":"traitIndex","type":"uint8","internalType":"uint8"}],"outputs":[],"stateMutability":"nonpayable"},{"type":"function","name":"owner","inputs":[],"outputs":[{"name":"","type":"address","internalType":"address"}],"stateMutability":"view"},{"type":"function","name":"renounceOwnership","inputs":[],"outputs":[],"stateMutability":"nonpayable"},{"type":"function","name":"sendVibes","inputs":[{"name":"creatureId","type":"uint256","internalType":"uint256"}],"outputs":[],"stateMutability":"nonpayable"},{"type":"function","name":"setDaySeconds","inputs":[{"name":"newDaySeconds","type":"uint256","internalType":"uint256"}],"outputs":[],"stateMutability":"nonpayable"},{"type":"function","name":"setEnforceGoobsOwnership","inputs":[{"name":"_enforce","type":"bool","internalType":"bool"}],"outputs":[],"stateMutability":"nonpayable"},{"type":"function","name":"setGoobs","inputs":[{"name":"_goobs","type":"address","internalType":"address"}],"outputs":[],"stateMutability":"nonpayable"},{"type":"function","name":"setItemToken","inputs":[{"name":"_itemToken","type":"address","internalType":"address"}],"outputs":[],"stateMutability":"nonpayable"},{"type":"function","name":"setTester","inputs":[{"name":"account","type":"address","internalType":"address"},{"name":"approved","type":"bool","internalType":"bool"}],"outputs":[],"stateMutability":"nonpayable"},{"type":"function","name":"setWhitelistEnabled","inputs":[{"name":"enabled","type":"bool","internalType":"bool"}],"outputs":[],"stateMutability":"nonpayable"},{"type":"function","name":"timeOffset","inputs":[],"outputs":[{"name":"","type":"int256","internalType":"int256"}],"stateMutability":"view"},{"type":"function","name":"transferOwnership","inputs":[{"name":"newOwner","type":"address","internalType":"address"}],"outputs":[],"stateMutability":"nonpayable"},{"type":"function","name":"walletSP","inputs":[{"name":"","type":"address","internalType":"address"}],"outputs":[{"name":"","type":"uint32","internalType":"uint32"}],"stateMutability":"view"},{"type":"event","name":"DripGranted","inputs":[{"name":"creatureId","type":"uint256","indexed":true,"internalType":"uint256"},{"name":"numItems","type":"uint8","indexed":false,"internalType":"uint8"}],"anonymous":false},{"type":"event","name":"Evolved","inputs":[{"name":"creatureId","type":"uint256","indexed":true,"internalType":"uint256"}],"anonymous":false},{"type":"event","name":"Initialized","inputs":[{"name":"version","type":"uint64","indexed":false,"internalType":"uint64"}],"anonymous":false},{"type":"event","name":"ItemApplied","inputs":[{"name":"creatureId","type":"uint256","indexed":true,"internalType":"uint256"},{"name":"user","type":"address","indexed":true,"internalType":"address"},{"name":"itemId","type":"uint256","indexed":false,"internalType":"uint256"}],"anonymous":false},{"type":"event","name":"ItemBurnedForSP","inputs":[{"name":"creatureId","type":"uint256","indexed":true,"internalType":"uint256"},{"name":"user","type":"address","indexed":true,"internalType":"address"},{"name":"itemId","type":"uint256","indexed":false,"internalType":"uint256"},{"name":"sp","type":"uint8","indexed":false,"internalType":"uint8"}],"anonymous":false},{"type":"event","name":"ItemGranted","inputs":[{"name":"creatureId","type":"uint256","indexed":true,"internalType":"uint256"},{"name":"to","type":"address","indexed":true,"internalType":"address"},{"name":"itemId","type":"uint256","indexed":false,"internalType":"uint256"}],"anonymous":false},{"type":"event","name":"OwnershipTransferred","inputs":[{"name":"previousOwner","type":"address","indexed":true,"internalType":"address"},{"name":"newOwner","type":"address","indexed":true,"internalType":"address"}],"anonymous":false},{"type":"event","name":"Stabilized","inputs":[{"name":"creatureId","type":"uint256","indexed":true,"internalType":"uint256"}],"anonymous":false},{"type":"event","name":"StreakCompleted","inputs":[{"name":"creatureId","type":"uint256","indexed":true,"internalType":"uint256"}],"anonymous":false},{"type":"event","name":"TesterUpdated","inputs":[{"name":"account","type":"address","indexed":true,"internalType":"address"},{"name":"approved","type":"bool","indexed":false,"internalType":"bool"}],"anonymous":false},{"type":"event","name":"TraitLocked","inputs":[{"name":"creatureId","type":"uint256","indexed":true,"internalType":"uint256"},{"name":"traitIndex","type":"uint8","indexed":false,"internalType":"uint8"},{"name":"lockIndex","type":"uint8","indexed":false,"internalType":"uint8"}],"anonymous":false},{"type":"event","name":"VibesUpdated","inputs":[{"name":"creatureId","type":"uint256","indexed":true,"internalType":"uint256"},{"name":"newValue","type":"uint8","indexed":false,"internalType":"uint8"}],"anonymous":false},{"type":"event","name":"WhitelistEnabled","inputs":[{"name":"enabled","type":"bool","indexed":false,"internalType":"bool"}],"anonymous":false},{"type":"error","name":"InvalidInitialization","inputs":[]},{"type":"error","name":"NotInitializing","inputs":[]},{"type":"error","name":"OwnableInvalidOwner","inputs":[{"name":"owner","type":"address","internalType":"address"}]},{"type":"error","name":"OwnableUnauthorizedAccount","inputs":[{"name":"account","type":"address","internalType":"address"}]},{"type":"error","name":"ReentrancyGuardReentrantCall","inputs":[]}],"bytecode":{"object":"0x608060405234801562000010575f80fd5b5060017f9b779b17422d0df92223018b32b4d1fa46e071723d6817e2486d003becc55f00556200003f62000045565b620000f9565b7ff0c57e16840df040f15088dc2f81fe391c3923bec73e23a9662efc9c229c6a00805468010000000000000000900460ff1615620000965760405163f92ee8a960e01b815260040160405180910390fd5b80546001600160401b0390811614620000f65780546001600160401b0319166001600160401b0390811782556040519081527fc7f505b2f371ae2175ee4913f4499e1f2633a7b5936321eed1cdaeb6115181d29060200160405180910390a15b50565b61486c80620001075f395ff3fe608060405234801561000f575f80fd5b50600436106102cb575f3560e01c80635f4c76961161017b578063ac0496e1116100e4578063c4e9b14e1161009e578063d2d5f5b111610079578063d2d5f5b1146107d3578063f2fde38b146107e6578063fa2a5d4f146107f9578063feae0e411461081e575f80fd5b8063c4e9b14e146105ca578063cf5afd8c146105de578063d14711d8146107c0575f80fd5b8063ac0496e11461053c578063b751110f1461054f578063b98072ef14610562578063b993418d1461056a578063bd630dc71461057d578063c3f141e7146105a8575f80fd5b806379ac27ed1161013557806379ac27ed146104d85780637b87a560146104e05780637ecac2c7146104f35780638da5cb5b1461051857806394c4bbd614610520578063a438b0e514610533575f80fd5b80635f4c76961461046d57806360bd01c414610498578063707419fa146104a1578063715018a6146104b457806372b9fb16146104bc578063777f5440146104c5575f80fd5b80633c6d21f3116102375780634fd4f5e1116101f157806357072cbe116101cc57806357072cbe1461043457806358e6d53c1461043c5780635c9302c9146104525780635cbfb7061461045a575f80fd5b80634fd4f5e11461040e578063520ae566146103b95780635373d2c814610421575f80fd5b80633c6d21f3146103935780633e3a9f20146103a6578063441ad3e5146103b9578063495db110146103c15780634cbc0778146103d45780634d0ec63514610379575f80fd5b8063242a914611610288578063242a9146146102f75780632913827d146103565780632bdab3ea1461036957806333d2e5251461037157806335741b711461037957806339f3275d14610380575f80fd5b8063025cf3c1146102cf578063052d9e7e146102e4578063067fe9ee146102f7578063116d2b8514610316578063184d69ab1461031e57806318d138af1461033c575b5f80fd5b6102e26102dd366004613dcd565b610826565b005b6102e26102f2366004613e6d565b6109c5565b6102ff600a81565b60405160ff90911681526020015b60405180910390f35b6102ff600281565b600a54600160a81b900460ff165b604051901515815260200161030d565b6103435f81565b60405161ffff909116815260200161030d565b6102e2610364366004613e86565b610a25565b6102ff600581565b6102ff600181565b6102ff5f81565b6102e261038e366004613eb7565b610d1e565b6102e26103a1366004613f52565b611186565b6102e26103b4366004613e86565b6113b1565b6102ff600781565b6102e26103cf366004613e6d565b6115d2565b6103f96103e2366004613f52565b60066020525f908152604090205463ffffffff1681565b60405163ffffffff909116815260200161030d565b6102e261041c366004613f52565b6115f8565b6102e261042f366004613f7d565b611619565b6102ff600c81565b6104445f5481565b60405190815260200161030d565b61044461167f565b6102e2610468366004613f52565b6116d4565b600854610480906001600160a01b031681565b6040516001600160a01b03909116815260200161030d565b61044460095481565b6102e26104af366004613fb0565b6118c9565b6102e26118f3565b61044460015481565b600754610480906001600160a01b031681565b610343606481565b600a54610480906001600160a01b031681565b6103f9610501366004613f52565b60056020525f908152604090205463ffffffff1681565b610480611906565b6102e261052e366004613fd9565b611934565b61044460025481565b6102e261054a366004613fb0565b611c9f565b6102e261055d366004614007565b611d2b565b6102ff600881565b6102e2610578366004613f52565b611ddb565b61032c61058b366004613fb0565b6001600160a01b03165f908152600b602052604090205460ff1690565b6105bb6105b6366004613f52565b611e4a565b60405161030d939291906140be565b600a5461032c90600160a01b900460ff1681565b6107b36105ec366004613f52565b60408051610240810182525f80825260208201819052918101829052606081018290526080810182905260a0810182905260c0810182905260e08101829052610100810182905261012081018290526101408101829052610160810182905261018081018290526101a081018290526101c081018290526101e081018290526102008101829052610220810191909152505f90815260036020908152604091829020825161024081018452905460ff808216835261010080830482169484019490945261ffff620100008304811695840195909552600160201b820485166060840152600160301b820485166080840152600160401b8204851660a0840152600160501b8204851660c0840152600160601b8204851660e0840152600160701b8204851693830193909352600160801b81048416610120830152600160901b810483161515610140830152600160981b810483161515610160830152600160a01b810483161515610180830152600160a81b8104831615156101a083015264ffffffffff600160b01b8204166101c0830152600160d81b810484166101e0830152600160e81b81049092161515610200820152600160f01b90910490911661022082015290565b60405161030d91906140f8565b6102e26107ce366004613f52565b611fe0565b6102e26107e1366004614236565b612168565b6102e26107f4366004613fb0565b6122a1565b6103f9610807366004613fb0565b60046020525f908152604090205463ffffffff1681565b6102ff600381565b600a54600160a81b900460ff161561088f57610840611906565b6001600160a01b0316336001600160a01b03161461088f57335f908152600b602052604090205460ff1661088f5760405162461bcd60e51b815260040161088690614279565b60405180910390fd5b5f5b815181101561097e57600a54600160a01b900460ff1680156108bd5750600a546001600160a01b031615155b1561097657600a54825133916001600160a01b031690636352211e908590859081106108eb576108eb6142c3565b60200260200101516040518263ffffffff1660e01b815260040161091191815260200190565b602060405180830381865afa15801561092c573d5f803e3d5ffd5b505050506040513d601f19601f8201168201806040525081019061095091906142e2565b6001600160a01b0316146109765760405162461bcd60e51b8152600401610886906142fd565b600101610891565b505f61098861167f565b90505f5b82518110156109c0576109b88382815181106109aa576109aa6142c3565b6020026020010151836122db565b60010161098c565b505050565b6109cd612383565b600a8054821515600160a81b0260ff60a81b199091161790556040517f9bea0dd3cae4438dc4c54c3110002aedc380f4075b6edae73ae0536105a2008a90610a1a90831515815260200190565b60405180910390a150565b610a2d6123b5565b600a548290600160a01b900460ff168015610a525750600a546001600160a01b031615155b15610ae857600a546040516331a9108f60e11b81526004810183905233916001600160a01b031690636352211e90602401602060405180830381865afa158015610a9e573d5f803e3d5ffd5b505050506040513d601f19601f82011682018060405250810190610ac291906142e2565b6001600160a01b031614610ae85760405162461bcd60e51b8152600401610886906142fd565b600a54600160a81b900460ff1615610b4857610b02611906565b6001600160a01b0316336001600160a01b031614610b4857335f908152600b602052604090205460ff16610b485760405162461bcd60e51b815260040161088690614279565b60075460405163d258153560e01b81526001600160a01b039091169063d258153590610b7d903390869060019060040161433f565b5f604051808303815f87803b158015610b94575f80fd5b505af1158015610ba6573d5f803e3d5ffd5b5050600854604051630c550f3d60e21b8152600481018690526001600160a01b0390911692505f915082906331543cf4906024015f60405180830381865afa158015610bf4573d5f803e3d5ffd5b505050506040513d5f823e601f3d908101601f19168201604052610c1b91908101906143fc565b80519091505f9060ff16610c3157506001610c6b565b815160ff165f1901610c4557506002610c6b565b815160ff1660011901610c5a57506003610c6b565b815160ff1660021901610c6b575060055b335f908152600460205260408120805460ff84169290610c9290849063ffffffff16614502565b92506101000a81548163ffffffff021916908363ffffffff160217905550336001600160a01b0316867fc6605fb6ce27111f3f1f44a9d8790b7e20bfe1e035d9c07b620d234c726988c88784604051610cf892919091825260ff16602082015260400190565b60405180910390a350505050610d1a60015f8051602061481783398151915255565b5050565b600a548990600160a01b900460ff168015610d435750600a546001600160a01b031615155b15610dd957600a546040516331a9108f60e11b81526004810183905233916001600160a01b031690636352211e90602401602060405180830381865afa158015610d8f573d5f803e3d5ffd5b505050506040513d601f19601f82011682018060405250810190610db391906142e2565b6001600160a01b031614610dd95760405162461bcd60e51b8152600401610886906142fd565b600a54600160a81b900460ff1615610e3957610df3611906565b6001600160a01b0316336001600160a01b031614610e3957335f908152600b602052604090205460ff16610e395760405162461bcd60e51b815260040161088690614279565b5f8a8152600360205260409020805462010000900461ffff16158015610e6957508054600160201b900461ffff16155b8015610e7f57508054600160301b900461ffff16155b8015610e9557508054600160401b900461ffff16155b610ef15760405162461bcd60e51b815260206004820152602760248201527f437265617475726553746162696c697a65723a20616c726561647920696e69746044820152661a585b1a5e995960ca1b6064820152608401610886565b5f610efe6005606461451f565b905080610f0b888d6123d0565b1015610f685760405162461bcd60e51b815260206004820152602660248201527f437265617475726553746162696c697a65723a2073616c696e69747920746f6f60448201526520636c6f736560d01b6064820152608401610886565b80610f73878c6123d0565b1015610fc15760405162461bcd60e51b815260206004820181905260248201527f437265617475726553746162696c697a65723a20704820746f6f20636c6f73656044820152606401610886565b80610fcc868b6123d0565b101561102c5760405162461bcd60e51b815260206004820152602960248201527f437265617475726553746162696c697a65723a2074656d706572617475726520604482015268746f6f20636c6f736560b81b6064820152608401610886565b80611037858a6123d0565b10156110955760405162461bcd60e51b815260206004820152602760248201527f437265617475726553746162696c697a65723a206672657175656e637920746f6044820152666f20636c6f736560c81b6064820152608401610886565b508054600965ffffffff0000199091166201000061ffff9c8d160265ffff00000000191617600160201b9a8c169a909a029990991769ffffffff0000000000001916600160301b988b169890980269ffff0000000000000000191697909717600160401b968a16969096029590951763ffffffff60501b1916600160501b9489169490940261ffff60601b191693909317600160601b928816929092029190911763ffffffff60701b1916600160701b9187169190910261ffff60801b191617600160801b91909516029390931775ffffffff00000000000000000000000000000000ffff19169190911790555050565b600a548190600160a01b900460ff1680156111ab5750600a546001600160a01b031615155b1561124157600a546040516331a9108f60e11b81526004810183905233916001600160a01b031690636352211e90602401602060405180830381865afa1580156111f7573d5f803e3d5ffd5b505050506040513d601f19601f8201168201806040525081019061121b91906142e2565b6001600160a01b0316146112415760405162461bcd60e51b8152600401610886906142fd565b600a54600160a81b900460ff16156112a15761125b611906565b6001600160a01b0316336001600160a01b0316146112a157335f908152600b602052604090205460ff166112a15760405162461bcd60e51b815260040161088690614279565b5f828152600360205260408120906112b761167f565b5f8581526006602052604090205490915063ffffffff1681116113315760405162461bcd60e51b815260206004820152602c60248201527f437265617475726553746162696c697a65723a20616c72656164792073656e7460448201526b20766962657320746f64617960a01b6064820152608401610886565b61133c828583612446565b61134582612510565b61134f828561254b565b5f84815260066020908152604091829020805463ffffffff191663ffffffff85161790558354915160ff909216825285917f020523ae04999ed19ad477fccdeae325bed3fa4858333f0cb774e3b0d816d9ca910160405180910390a250505050565b6113b96123b5565b600a548290600160a01b900460ff1680156113de5750600a546001600160a01b031615155b1561147457600a546040516331a9108f60e11b81526004810183905233916001600160a01b031690636352211e90602401602060405180830381865afa15801561142a573d5f803e3d5ffd5b505050506040513d601f19601f8201168201806040525081019061144e91906142e2565b6001600160a01b0316146114745760405162461bcd60e51b8152600401610886906142fd565b600a54600160a81b900460ff16156114d45761148e611906565b6001600160a01b0316336001600160a01b0316146114d457335f908152600b602052604090205460ff166114d45760405162461bcd60e51b815260040161088690614279565b5f8381526003602052604090208054600461010090910460ff161061150b5760405162461bcd60e51b815260040161088690614536565b5f61151584612631565b60075460405163d258153560e01b81529192506001600160a01b03169063d25815359061154b903390889060019060040161433f565b5f604051808303815f87803b158015611562575f80fd5b505af1158015611574573d5f803e3d5ffd5b5050505061158282826126e5565b604051848152339086907f135e259e62a010bf3ad36da04d45b2c41a4851f5a85d253f8e03a8636908ecf49060200160405180910390a3505050610d1a60015f8051602061481783398151915255565b6115da612383565b600a8054911515600160a01b0260ff60a01b19909216919091179055565b611600612383565b8060025f828254611611919061457c565b909155505050565b611621612383565b6001600160a01b0382165f818152600b6020908152604091829020805460ff191685151590811790915591519182527fcee0afc95a1f261593fe67f6ea93fe6a77c19bb226c2ecefc2f2aa1347372e79910160405180910390a25050565b5f806002544261168f919061457c565b90505f8112156116a0575f91505090565b60015481908110156116b4575f9250505090565b5f546001546116c3908361459b565b6116cd91906145c2565b9250505090565b600a54600160a81b900460ff1615611734576116ee611906565b6001600160a01b0316336001600160a01b03161461173457335f908152600b602052604090205460ff166117345760405162461bcd60e51b815260040161088690614279565b5f8181526003602052604090208054600461010090910460ff1610156117a75760405162461bcd60e51b815260206004820152602260248201527f437265617475726553746162696c697a65723a206e6f742073746162696c697a604482015261195960f21b6064820152608401610886565b6117b56007620151806145d5565b81546117d49162ffffff1690600160b01b900464ffffffffff166145f4565b64ffffffffff1642101561183d5760405162461bcd60e51b815260206004820152602a60248201527f437265617475726553746162696c697a65723a207265736f6e616e6365206e6f6044820152697420636f6d706c65746560b01b6064820152608401610886565b805460ff16600a1461189b5760405162461bcd60e51b815260206004820152602160248201527f437265617475726553746162696c697a65723a207669626573206e6f74206d616044820152600f60fb1b6064820152608401610886565b60405182907fee75f3f4b2af8621eec1bf25c4abed6ef6ff6d3fed2f2e070d4034f2f91e5d2e905f90a25050565b6118d1612383565b600a80546001600160a01b0319166001600160a01b0392909216919091179055565b6118fb612383565b6119045f612706565b565b7f9016d09d72d40fdae2fd8ceac6b6234c7706214fd39c1cd1e609a0528c199300546001600160a01b031690565b61193c6123b5565b600a548290600160a01b900460ff1680156119615750600a546001600160a01b031615155b156119f757600a546040516331a9108f60e11b81526004810183905233916001600160a01b031690636352211e90602401602060405180830381865afa1580156119ad573d5f803e3d5ffd5b505050506040513d601f19601f820116820180604052508101906119d191906142e2565b6001600160a01b0316146119f75760405162461bcd60e51b8152600401610886906142fd565b600a54600160a81b900460ff1615611a5757611a11611906565b6001600160a01b0316336001600160a01b031614611a5757335f908152600b602052604090205460ff16611a575760405162461bcd60e51b815260040161088690614279565b5f8381526003602052604090208054600461010090910460ff1610611a8e5760405162461bcd60e51b815260040161088690614536565b611a988184612776565b611ae45760405162461bcd60e51b815260206004820181905260248201527f437265617475726553746162696c697a65723a206e6f74206c6f636b61626c656044820152606401610886565b80545f90611af990610100900460ff166128db565b8254335f90815260046020526040902054919250600160f01b900461ffff169063ffffffff1660ff8316611b2d8284614612565b1015611b875760405162461bcd60e51b815260206004820152602360248201527f437265617475726553746162696c697a65723a20696e73756666696369656e7460448201526202053560ec1b6064820152608401610886565b611b9384338585612920565b611b9d84876129df565b8354610100900460ff16846001611bb383614625565b91906101000a81548160ff021916908360ff16021790555050867f70e1816a152da4bb1a10a1262f3db1ce046183d9a61fbe48032efe79fd393f10876001875f0160019054906101000a900460ff16611c0c9190614643565b6040805160ff93841681529290911660208301520160405180910390a28354600461010090910460ff1610611c8457835464ffffffffff60b01b1916600160b01b4264ffffffffff160217845560405187907f3266482e5f1d63579eeb85b29b21ff8dfe111bebe9656fbc9c33bda404ca1068905f90a25b5050505050610d1a60015f8051602061481783398151915255565b611ca7612383565b6001600160a01b038116611d095760405162461bcd60e51b815260206004820152602360248201527f437265617475726553746162696c697a65723a207a65726f206974656d20746f60448201526235b2b760e91b6064820152608401610886565b600780546001600160a01b0319166001600160a01b0392909216919091179055565b611d33612383565b815f5b81811015611dd4575f858583818110611d5157611d516142c3565b9050602002016020810190611d669190613fb0565b6001600160a01b0381165f818152600b602052604090819020805488151560ff1990911617905551919250907fcee0afc95a1f261593fe67f6ea93fe6a77c19bb226c2ecefc2f2aa1347372e7990611dc390871515815260200190565b60405180910390a250600101611d36565b5050505050565b611de3612383565b5f8111611e465760405162461bcd60e51b815260206004820152602b60248201527f437265617475726553746162696c697a65723a204441595f5345434f4e44532060448201526a06d757374206265203e20360ac1b6064820152608401610886565b5f55565b5f8181526003602052604081208054606091829162010000900461ffff16158015611e7f57508054600160201b900461ffff16155b8015611e9557508054600160301b900461ffff16155b8015611eab57508054600160401b900461ffff16155b15611f045760405162461bcd60e51b815260206004820152602360248201527f437265617475726553746162696c697a65723a206e6f7420696e697469616c696044820152621e995960ea1b6064820152608401610886565b8054600461010090910460ff1610611f2e5760405162461bcd60e51b815260040161088690614536565b611f3661167f565b5f8681526005602052604090205490945063ffffffff90811690851615611fc4578463ffffffff168163ffffffff1603611fc45760405162461bcd60e51b815260206004820152602960248201527f437265617475726553746162696c697a65723a20616c726561647920636c61696044820152686d656420746f64617960b81b6064820152608401610886565b611fd4868663ffffffff16612a5e565b95979096509350505050565b611fe86123b5565b600a548190600160a01b900460ff16801561200d5750600a546001600160a01b031615155b156120a357600a546040516331a9108f60e11b81526004810183905233916001600160a01b031690636352211e90602401602060405180830381865afa158015612059573d5f803e3d5ffd5b505050506040513d601f19601f8201168201806040525081019061207d91906142e2565b6001600160a01b0316146120a35760405162461bcd60e51b8152600401610886906142fd565b600a54600160a81b900460ff1615612103576120bd611906565b6001600160a01b0316336001600160a01b03161461210357335f908152600b602052604090205460ff166121035760405162461bcd60e51b815260040161088690614279565b6040805160018082528183019092525f916020808301908036833701905050905082815f81518110612137576121376142c3565b60209081029190910101528061214c81610826565b50505061216560015f8051602061481783398151915255565b50565b5f612171612ca9565b805490915060ff600160401b820416159067ffffffffffffffff165f811580156121985750825b90505f8267ffffffffffffffff1660011480156121b45750303b155b9050811580156121c2575080155b156121e05760405163f92ee8a960e01b815260040160405180910390fd5b845467ffffffffffffffff19166001178555831561220a57845460ff60401b1916600160401b1785555b61221333612cd1565b600780546001600160a01b03808c166001600160a01b03199283161790925560088054928b16929091169190911790555f879055600986905542600155831561229657845460ff60401b19168555604051600181527fc7f505b2f371ae2175ee4913f4499e1f2633a7b5936321eed1cdaeb6115181d29060200160405180910390a15b505050505050505050565b6122a9612383565b6001600160a01b0381166122d257604051631e4fbdf760e01b81525f6004820152602401610886565b61216581612706565b5f8281526005602052604090205463ffffffff168190036122fa575050565b5f8281526003602052604090208054600461010090910460ff161061231e57505050565b8115801561233d57505f8381526005602052604090205463ffffffff16155b1561234b5761234b83612ce2565b811561235b5761235b8383612d33565b505f91825260056020526040909120805463ffffffff191663ffffffff909216919091179055565b3361238c611906565b6001600160a01b0316146119045760405163118cdaa760e01b8152336004820152602401610886565b6123bd612e8a565b60025f8051602061481783398151915255565b5f8161ffff165f036123f7578261ffff165f036123ee57505f612440565b50612710612440565b61ffff8084169083165f81831161241757612412838361459b565b612421565b612421828461459b565b9050816124308261271061451f565b61243a91906145c2565b93505050505b92915050565b5f8281526006602052604090205463ffffffff161580159061247a57505f8281526006602052604090205463ffffffff1681115b156109c0575f828152600660205260408120546001906124a09063ffffffff168461459b565b6124aa919061459b565b90505f811180156124be5750835460ff1615155b1561250a57835460ff1681106124db57835460ff1916845561250a565b8354819085905f906124f190849060ff16614643565b92506101000a81548160ff021916908360ff1602179055505b50505050565b8054600a60ff909116101561216557805460ff16815f61252f83614625565b91906101000a81548160ff021916908360ff1602179055505050565b815460ff1660091901612621578154600160d81b900461ffff1682601b6125718361465c565b82546101009290920a61ffff81810219909316918316021790915583546007600160d81b909104909116109050610d1a5781546003908390601e906125c2908490600160f01b900461ffff1661467c565b825461ffff9182166101009390930a928302919092021990911617905550815462ffffff60d81b1916600160e81b17825560405181907fa3db9b60d6dfab293a91f7cf546ba95db220363be0f5ff1edac6e0deca39e47d905f90a25050565b50805462ffffff60d81b19169055565b60408051610100810182525f8082526020820181905281830181905260608083018290526080830182905260a083019190915260c0820181905260e08201526008549151630c550f3d60e21b81526004810184905290916001600160a01b03169081906331543cf4906024015f60405180830381865afa1580156126b7573d5f803e3d5ffd5b505050506040513d5f823e601f3d908101601f191682016040526126de91908101906143fc565b9392505050565b805160ff16600219016126fc57610d1a8282612eb9565b610d1a8282612ed9565b7f9016d09d72d40fdae2fd8ceac6b6234c7706214fd39c1cd1e609a0528c19930080546001600160a01b031981166001600160a01b03848116918217845560405192169182907f8be0079c531659141344cd1fd0a4f28419497f9722a3daafe3b4186f6b6457e0905f90a3505050565b5f60ff82166127d2578254600160901b900460ff161561279757505f612440565b5f6127a46005606461451f565b845490915081906127c89061ffff600160501b8204811691620100009004166123d0565b1115915050612440565b5f1960ff831601612827578254600160981b900460ff16156127f557505f612440565b5f6128026005606461451f565b845490915081906127c89061ffff600160601b8204811691600160201b9004166123d0565b60011960ff83160161287d578254600160a01b900460ff161561284b57505f612440565b5f6128586005606461451f565b845490915081906127c89061ffff600160701b8204811691600160301b9004166123d0565b60021960ff8316016128d3578254600160a81b900460ff16156128a157505f612440565b5f6128ae6005606461451f565b845490915081906127c89061ffff600160801b8204811691600160401b9004166123d0565b505f92915050565b5f8160ff165f036128ed57505f919050565b8160ff1660010361290057506008919050565b8160ff166002036129135750600a919050565b50600c919050565b919050565b5f8161ffff168360ff1611612938578260ff1661293a565b815b855490915081908690601e9061295c908490600160f01b900461ffff16614697565b92506101000a81548161ffff021916908361ffff160217905550808360ff166129859190614697565b6001600160a01b0385165f908152600460205260408120805461ffff93909316929091906129ba90849063ffffffff166146b2565b92506101000a81548163ffffffff021916908363ffffffff1602179055505050505050565b60ff81166129fc57815460ff60901b1916600160901b1782555050565b5f1960ff821601612a1c57815460ff60981b1916600160981b1782555050565b60011960ff821601612a3d57815460ff60a01b1916600160a01b1782555050565b60021960ff821601610d1a57815460ff60a81b1916600160a81b1782555050565b5f82815260036020526040902060085460609182916001600160a01b031684158015612a9b57505f8681526005602052604090205463ffffffff16155b15612b565760408051600580825260c08201909252906020820160a080368337505060408051600580825260c0820190925292965090506020820160a0803683370190505092505f5b6005811015612b50575f612b0788612afe846103e8614612565b60095486612efc565b905080868381518110612b1c57612b1c6142c3565b6020026020010181815250506001858381518110612b3c57612b3c6142c3565b602090810291909101015250600101612ae4565b50612ca0565b8415612c86575f612b6683613043565b90508060ff1667ffffffffffffffff811115612b8457612b84613d3b565b604051908082528060200260200182016040528015612bad578160200160208202803683370190505b5094508060ff1667ffffffffffffffff811115612bcc57612bcc613d3b565b604051908082528060200260200182016040528015612bf5578160200160208202803683370190505b5093505f5b8160ff168160ff161015612c7f575f612c308960ff8416612c1d8b6103e861451f565b612c279190614612565b60095487612efc565b905080878360ff1681518110612c4857612c486142c3565b6020026020010181815250506001868360ff1681518110612c6b57612c6b6142c3565b602090810291909101015250600101612bfa565b5050612ca0565b604080515f80825260208201908152818301909252945092505b50509250929050565b5f807ff0c57e16840df040f15088dc2f81fe391c3923bec73e23a9662efc9c229c6a00612440565b612cd9613074565b61216581613099565b6008546001600160a01b03165f612cf98382612a5e565b5090505f5b815181101561250a57612d2b84838381518110612d1d57612d1d6142c3565b6020026020010151856130a1565b600101612cfe565b5f612d3e8383612a5e565b505f848152600360205260408120919250612d5882613043565b90505f5b8351811015612e4a5760075484516001600160a01b039091169063696a50b4903390879085908110612d9057612d906142c3565b602002602001015160016040518463ffffffff1660e01b8152600401612db89392919061433f565b5f604051808303815f87803b158015612dcf575f80fd5b505af1158015612de1573d5f803e3d5ffd5b50505050336001600160a01b0316867ff4306090e36cecc25e65de11f13574cabc62cb5a6b13e1c1e3bb4d74437181d1868481518110612e2357612e236142c3565b6020026020010151604051612e3a91815260200190565b60405180910390a3600101612d5c565b5060405160ff8216815285907ff673ee9bc83c902bf336e87eab7a63b7cc7af0069d1a270c0f2c4bdd243707d69060200160405180910390a25050505050565b5f805160206148178339815191525460020361190457604051633ee5aeb560e01b815260040160405180910390fd5b5f612ec383613217565b9050612ecf8382613337565b6109c0838261356a565b612ee382826137bd565b606081015160ff16600414610d1a57610d1a82826139dd565b604080516020808201879052818301869052606080830186905283518084039091018152608090920190925280519101205f905f612f3a8683613b0e565b60405163fb098ef760e01b815260ff821660048201529091505f906001600160a01b0386169063fb098ef7906024015f60405180830381865afa158015612f83573d5f803e3d5ffd5b505050506040513d5f823e601f3d908101601f19168201604052612faa91908101906146cf565b90505f81511161300b5760405162461bcd60e51b815260206004820152602660248201527f4974656d47656e657261746f723a206e6f2074656d706c6174657320666f722060448201526572617269747960d01b6064820152608401610886565b80515f906130199085614750565b905081818151811061302d5761302d6142c3565b6020026020010151945050505050949350505050565b80545f90600160e81b900460ff1680156130615750815460ff16600a145b61306c576001612440565b600292915050565b61307c613bc1565b61190457604051631afcd79f60e31b815260040160405180910390fd5b6122a9613074565b604051630c550f3d60e21b8152600481018390525f906001600160a01b038316906331543cf4906024015f60405180830381865afa1580156130e5573d5f803e3d5ffd5b505050506040513d5f823e601f3d908101601f1916820160405261310c91908101906143fc565b9050600360ff16815f015160ff16036131785760405162461bcd60e51b815260206004820152602860248201527f437265617475726553746162696c697a65723a206570696320696e2073746172604482015267746572207061636b60c01b6064820152608401610886565b600754604051631a5a942d60e21b81526001600160a01b039091169063696a50b4906131ad903390879060019060040161433f565b5f604051808303815f87803b1580156131c4575f80fd5b505af11580156131d6573d5f803e3d5ffd5b50506040518581523392508691507ff4306090e36cecc25e65de11f13574cabc62cb5a6b13e1c1e3bb4d74437181d19060200160405180910390a350505050565b80545f908190600160901b900460ff1661325f5782545f9061324c9061ffff600160501b8204811691620100009004166123d0565b90508181111561325d578091505f92505b505b8254600160981b900460ff166132a55782545f906132919061ffff600160601b8204811691600160201b9004166123d0565b9050818111156132a357809150600192505b505b8254600160a01b900460ff166132eb5782545f906132d79061ffff600160701b8204811691600160301b9004166123d0565b9050818111156132e957809150600292505b505b8254600160a81b900460ff166133315782545f9061331d9061ffff600160801b8204811691600160401b9004166123d0565b90508181111561332f57809150600392505b505b50919050565b60ff81166133c35781545f906133609061ffff620100008204811691600160501b900416614763565b83549091505f9061337c90839062010000900461ffff16613bda565b845490915061339f9061339a90839062010000900461ffff1661457c565b613cb8565b845461ffff91909116600160501b0261ffff60501b1990911617845550610d1a9050565b5f1960ff8216016134505781545f906133f09061ffff600160201b8204811691600160601b900416614763565b83549091505f9061340d908390600160201b900461ffff16613bda565b845490915061342c9061339a908390600160201b900461ffff1661457c565b845461ffff91909116600160601b0261ffff60601b1990911617845550610d1a9050565b60011960ff8216016134de5781545f9061347e9061ffff600160301b8204811691600160701b900416614763565b83549091505f9061349b908390600160301b900461ffff16613bda565b84549091506134ba9061339a908390600160301b900461ffff1661457c565b845461ffff91909116600160701b0261ffff60701b1990911617845550610d1a9050565b60021960ff821601610d1a5781545f9061350c9061ffff600160401b8204811691600160801b900416614763565b83549091505f90613529908390600160401b900461ffff16613bda565b84549091506135489061339a908390600160401b900461ffff1661457c565b845461ffff91909116600160801b0261ffff60801b1990911617845550505050565b8154600160901b900460ff16158015613585575060ff811615155b156135fb5781545f906135ab9061ffff620100008204811691600160501b900416614763565b90506135dd60646135bd83606e614782565b6135c791906147b1565b845461339a919062010000900461ffff1661457c565b835461ffff91909116600160501b0261ffff60501b19909116178355505b8154600160981b900460ff16158015613618575060ff8116600114155b156136905781545f9061363f9061ffff600160201b8204811691600160601b900416614763565b9050613672606461365183606e614782565b61365b91906147b1565b845461339a9190600160201b900461ffff1661457c565b835461ffff91909116600160601b0261ffff60601b19909116178355505b8154600160a01b900460ff161580156136ad575060ff8116600214155b156137255781545f906136d49061ffff600160301b8204811691600160701b900416614763565b905061370760646136e683606e614782565b6136f091906147b1565b845461339a9190600160301b900461ffff1661457c565b835461ffff91909116600160701b0261ffff60701b19909116178355505b8154600160a81b900460ff16158015613742575060ff8116600314155b15610d1a5781545f906137699061ffff600160401b8204811691600160801b900416614763565b905061379c606461377b83606e614782565b61378591906147b1565b845461339a9190600160401b900461ffff1661457c565b835461ffff91909116600160801b0261ffff60801b19909116178355505050565b602081015160ff161580156137db57508154600160901b900460ff16155b1561384b57815460408201515f916138079161ffff600160501b83048116926201000090041690613cdd565b835490915061382a9061339a90600184900b90600160501b900461ffff1661457c565b835461ffff91909116600160501b0261ffff60501b19909116178355505050565b602081015160ff16600114801561386b57508154600160981b900460ff16155b156138dc57815460408201515f916138989161ffff600160601b8304811692600160201b90041690613cdd565b83549091506138bb9061339a90600184900b90600160601b900461ffff1661457c565b835461ffff91909116600160601b0261ffff60601b19909116178355505050565b602081015160ff1660021480156138fc57508154600160a01b900460ff16155b1561396d57815460408201515f916139299161ffff600160701b8304811692600160301b90041690613cdd565b835490915061394c9061339a90600184900b90600160701b900461ffff1661457c565b835461ffff91909116600160701b0261ffff60701b19909116178355505050565b602081015160ff16600314801561398d57508154600160a81b900460ff16155b15610d1a57815460408201515f916139ba9161ffff600160801b8304811692600160401b90041690613cdd565b835490915061379c9061339a90600184900b90600160801b900461ffff1661457c565b606081015160ff161580156139fb57508154600160901b900460ff16155b15613a2757815460808201515f916138079161ffff600160501b83048116926201000090041690613cdd565b606081015160ff166001148015613a4757508154600160981b900460ff16155b15613a7457815460808201515f916138989161ffff600160601b8304811692600160201b90041690613cdd565b606081015160ff166002148015613a9457508154600160a01b900460ff16155b15613ac157815460808201515f916139299161ffff600160701b8304811692600160301b90041690613cdd565b606081015160ff166003148015613ae157508154600160a81b900460ff16155b15610d1a57815460808201515f916139ba9161ffff600160801b8304811692600160401b90041690613cdd565b5f80613b1c61271084614750565b90506007841015613b5857611770811015613b3a575f915050612440565b612134811015613b4e576001915050612440565b6002915050612440565b60c8811015613b6b576003915050612440565b5f612648613b7a60c88461459b565b613b849190614750565b90506116f8811015613b9a575f92505050612440565b61208a811015613baf57600192505050612440565b600292505050612440565b5092915050565b5f613bca612ca9565b54600160401b900460ff16919050565b5f8161ffff165f03613bf857613bf16002846147b1565b9050612440565b5f8261ffff165f8512613c0b5784613c14565b613c14856147dd565b613c209061271061451f565b613c2a91906145c2565b90505f613c39600560c861451f565b905080821115613ca4575f808612613c52576001613c55565b5f195b90505f613c646005600261451f565b613c6f90606461451f565b905061ffff861661271083613c848385614782565b613c8e9190614782565b613c9891906147b1565b95505050505050612440565b613caf6002866147b1565b95945050505050565b5f80821215613cc857505f919050565b6064821315613cd957506064919050565b5090565b5f805f8360010b12613cef5782613cf8565b613cf8836147f7565b90508361ffff168561ffff161015613d115790506126de565b8361ffff168561ffff161115613d3257613d2a816147f7565b9150506126de565b5f9150506126de565b634e487b7160e01b5f52604160045260245ffd5b604051610100810167ffffffffffffffff81118282101715613d7357613d73613d3b565b60405290565b604051601f8201601f1916810167ffffffffffffffff81118282101715613da257613da2613d3b565b604052919050565b5f67ffffffffffffffff821115613dc357613dc3613d3b565b5060051b60200190565b5f6020808385031215613dde575f80fd5b823567ffffffffffffffff811115613df4575f80fd5b8301601f81018513613e04575f80fd5b8035613e17613e1282613daa565b613d79565b81815260059190911b82018301908381019087831115613e35575f80fd5b928401925b82841015613e5357833582529284019290840190613e3a565b979650505050505050565b8035801515811461291b575f80fd5b5f60208284031215613e7d575f80fd5b6126de82613e5e565b5f8060408385031215613e97575f80fd5b50508035926020909101359150565b803561ffff8116811461291b575f80fd5b5f805f805f805f805f6101208a8c031215613ed0575f80fd5b89359850613ee060208b01613ea6565b9750613eee60408b01613ea6565b9650613efc60608b01613ea6565b9550613f0a60808b01613ea6565b9450613f1860a08b01613ea6565b9350613f2660c08b01613ea6565b9250613f3460e08b01613ea6565b9150613f436101008b01613ea6565b90509295985092959850929598565b5f60208284031215613f62575f80fd5b5035919050565b6001600160a01b0381168114612165575f80fd5b5f8060408385031215613f8e575f80fd5b8235613f9981613f69565b9150613fa760208401613e5e565b90509250929050565b5f60208284031215613fc0575f80fd5b81356126de81613f69565b60ff81168114612165575f80fd5b5f8060408385031215613fea575f80fd5b823591506020830135613ffc81613fcb565b809150509250929050565b5f805f60408486031215614019575f80fd5b833567ffffffffffffffff80821115614030575f80fd5b818601915086601f830112614043575f80fd5b813581811115614051575f80fd5b8760208260051b8501011115614065575f80fd5b60209283019550935061407b9186019050613e5e565b90509250925092565b5f815180845260208085019450602084015f5b838110156140b357815187529582019590820190600101614097565b509495945050505050565b63ffffffff84168152606060208201525f6140dc6060830185614084565b82810360408401526140ee8185614084565b9695505050505050565b815160ff16815261024081016020830151614118602084018260ff169052565b50604083015161412e604084018261ffff169052565b506060830151614144606084018261ffff169052565b50608083015161415a608084018261ffff169052565b5060a083015161417060a084018261ffff169052565b5060c083015161418660c084018261ffff169052565b5060e083015161419c60e084018261ffff169052565b506101008381015161ffff90811691840191909152610120808501518216908401526101408085015115159084015261016080850151151590840152610180808501511515908401526101a0808501511515908401526101c08085015164ffffffffff16908401526101e080850151821690840152610200808501511515908401526102208085015191821681850152905b505092915050565b5f805f8060808587031215614249575f80fd5b843561425481613f69565b9350602085013561426481613f69565b93969395505050506040820135916060013590565b6020808252602a908201527f437265617475726553746162696c697a65723a206e6f742077686974656c69736040820152693a32b2103a32b9ba32b960b11b606082015260800190565b634e487b7160e01b5f52603260045260245ffd5b805161291b81613f69565b5f602082840312156142f2575f80fd5b81516126de81613f69565b60208082526022908201527f437265617475726553746162696c697a65723a206e6f7420476f6f62206f776e60408201526132b960f11b606082015260800190565b6001600160a01b039390931683526020830191909152604082015260600190565b805161291b81613fcb565b8051600181900b811461291b575f80fd5b5f82601f83011261438b575f80fd5b815167ffffffffffffffff8111156143a5576143a5613d3b565b60206143b9601f8301601f19168201613d79565b82815285828487010111156143cc575f80fd5b5f5b838110156143e95785810183015182820184015282016143ce565b505f928101909101919091529392505050565b5f6020828403121561440c575f80fd5b815167ffffffffffffffff80821115614423575f80fd5b908301906101008286031215614437575f80fd5b61443f613d4f565b61444883614360565b815261445660208401614360565b60208201526144676040840161436b565b604082015261447860608401614360565b60608201526144896080840161436b565b608082015261449a60a084016142d7565b60a082015260c0830151828111156144b0575f80fd5b6144bc8782860161437c565b60c08301525060e0830151828111156144d3575f80fd5b6144df8782860161437c565b60e08301525095945050505050565b634e487b7160e01b5f52601160045260245ffd5b63ffffffff818116838216019080821115613bba57613bba6144ee565b8082028115828204841417612440576124406144ee565b60208082526026908201527f437265617475726553746162696c697a65723a20616c726561647920737461626040820152651a5b1a5e995960d21b606082015260800190565b8082018281125f83128015821682158216171561422e5761422e6144ee565b81810381811115612440576124406144ee565b634e487b7160e01b5f52601260045260245ffd5b5f826145d0576145d06145ae565b500490565b62ffffff81811683821602808216919082811461422e5761422e6144ee565b64ffffffffff818116838216019080821115613bba57613bba6144ee565b80820180821115612440576124406144ee565b5f60ff821660ff810361463a5761463a6144ee565b60010192915050565b60ff8281168282160390811115612440576124406144ee565b5f61ffff808316818103614672576146726144ee565b6001019392505050565b61ffff818116838216019080821115613bba57613bba6144ee565b61ffff828116828216039080821115613bba57613bba6144ee565b63ffffffff828116828216039080821115613bba57613bba6144ee565b5f60208083850312156146e0575f80fd5b825167ffffffffffffffff8111156146f6575f80fd5b8301601f81018513614706575f80fd5b8051614714613e1282613daa565b81815260059190911b82018301908381019087831115614732575f80fd5b928401925b82841015613e5357835182529284019290840190614737565b5f8261475e5761475e6145ae565b500690565b8181035f831280158383131683831282161715613bba57613bba6144ee565b8082025f8212600160ff1b8414161561479d5761479d6144ee565b8181058314821517612440576124406144ee565b5f826147bf576147bf6145ae565b600160ff1b82145f19841416156147d8576147d86144ee565b500590565b5f600160ff1b82016147f1576147f16144ee565b505f0390565b5f8160010b617fff19810361480e5761480e6144ee565b5f039291505056fe9b779b17422d0df92223018b32b4d1fa46e071723d6817e2486d003becc55f00a2646970667358221220d3f69d36232a198ae9c3b226087fd1f615fd0605facb4e970976be8e81017b3464736f6c63430008180033","linkReferences":{}},"methodIdentifiers":{"BONDED_SP_REWARD()":"feae0e41","DAILY_DRIP_DEFAULT()":"33d2e525","DAILY_DRIP_ENHANCED()":"116d2b85","DAY_SECONDS()":"58e6d53c","GAME_START()":"72b9fb16","LOCK_COST_0()":"4d0ec635","LOCK_COST_1()":"b98072ef","LOCK_COST_2()":"067fe9ee","LOCK_COST_3()":"57072cbe","LOCK_PCT()":"2bdab3ea","RESONANCE_DAYS()":"520ae566","STREAK_DAYS()":"441ad3e5","TRAIT_MAX()":"79ac27ed","TRAIT_MIN()":"18d138af","VIBES_MAX()":"242a9146","VIBES_MIN()":"35741b71","adminShiftTime(int256)":"4fd4f5e1","applyItem(uint256,uint256)":"3e3a9f20","batchSetTesters(address[],bool)":"b751110f","burnItemForSP(uint256,uint256)":"2913827d","claimDailyItems(uint256)":"d14711d8","claimDailyItemsBatch(uint256[])":"025cf3c1","currentDay()":"5c9302c9","enforceGoobsOwnership()":"c4e9b14e","getCreatureState(uint256)":"cf5afd8c","getDailyItems(uint256)":"c3f141e7","globalEntropy()":"60bd01c4","goobs()":"7b87a560","incubate(uint256)":"5cbfb706","initialize(address,address,uint256,bytes32)":"d2d5f5b1","initializeCreature(uint256,uint16,uint16,uint16,uint16,uint16,uint16,uint16,uint16)":"39f3275d","isTester(address)":"bd630dc7","isWhitelistEnabled()":"184d69ab","itemCatalog()":"5f4c7696","itemToken()":"777f5440","lastClaimDay(uint256)":"7ecac2c7","lastVibesDay(uint256)":"4cbc0778","lockTrait(uint256,uint8)":"94c4bbd6","owner()":"8da5cb5b","renounceOwnership()":"715018a6","sendVibes(uint256)":"3c6d21f3","setDaySeconds(uint256)":"b993418d","setEnforceGoobsOwnership(bool)":"495db110","setGoobs(address)":"707419fa","setItemToken(address)":"ac0496e1","setTester(address,bool)":"5373d2c8","setWhitelistEnabled(bool)":"052d9e7e","timeOffset()":"a438b0e5","transferOwnership(address)":"f2fde38b","walletSP(address)":"fa2a5d4f"},"id":6}