{"abi":[{"type":"constructor","inputs":[],"stateMutability":"nonpayable"},{"type":"function","name":"BONDED_SP_REWARD","inputs":[],"outputs":[{"name":"","type":"uint8","internalType":"uint8"}],"stateMutability":"view"},{"type":"function","name":"DAILY_DRIP_DEFAULT","inputs":[],"outputs":[{"name":"","type":"uint8","internalType":"uint8"}],"stateMutability":"view"},{"type":"function","name":"DAILY_DRIP_ENHANCED","inputs":[],"outputs":[{"name":"","type":"uint8","internalType":"uint8"}],"stateMutability":"view"},{"type":"function","name":"DAY_SECONDS","inputs":[],"outputs":[{"name":"","type":"uint256","internalType":"uint256"}],"stateMutability":"view"},{"type":"function","name":"GAME_START","inputs":[],"outputs":[{"name":"","type":"uint256","internalType":"uint256"}],"stateMutability":"view"},{"type":"function","name":"LOCK_COST_0","inputs":[],"outputs":[{"name":"","type":"uint8","internalType":"uint8"}],"stateMutability":"view"},{"type":"function","name":"LOCK_COST_1","inputs":[],"outputs":[{"name":"","type":"uint8","internalType":"uint8"}],"stateMutability":"view"},{"type":"function","name":"LOCK_COST_2","inputs":[],"outputs":[{"name":"","type":"uint8","internalType":"uint8"}],"stateMutability":"view"},{"type":"function","name":"LOCK_COST_3","inputs":[],"outputs":[{"name":"","type":"uint8","internalType":"uint8"}],"stateMutability":"view"},{"type":"function","name":"LOCK_PCT","inputs":[],"outputs":[{"name":"","type":"uint8","internalType":"uint8"}],"stateMutability":"view"},{"type":"function","name":"RESONANCE_DAYS","inputs":[],"outputs":[{"name":"","type":"uint8","internalType":"uint8"}],"stateMutability":"view"},{"type":"function","name":"STREAK_DAYS","inputs":[],"outputs":[{"name":"","type":"uint8","internalType":"uint8"}],"stateMutability":"view"},{"type":"function","name":"TRAIT_MAX","inputs":[],"outputs":[{"name":"","type":"uint16","internalType":"uint16"}],"stateMutability":"view"},{"type":"function","name":"TRAIT_MIN","inputs":[],"outputs":[{"name":"","type":"uint16","internalType":"uint16"}],"stateMutability":"view"},{"type":"function","name":"VIBES_MAX","inputs":[],"outputs":[{"name":"","type":"uint8","internalType":"uint8"}],"stateMutability":"view"},{"type":"function","name":"VIBES_MIN","inputs":[],"outputs":[{"name":"","type":"uint8","internalType":"uint8"}],"stateMutability":"view"},{"type":"function","name":"adminShiftTime","inputs":[{"name":"secondsDelta","type":"int256","internalType":"int256"}],"outputs":[],"stateMutability":"nonpayable"},{"type":"function","name":"applyItem","inputs":[{"name":"creatureId","type":"uint256","internalType":"uint256"},{"name":"itemId","type":"uint256","internalType":"uint256"}],"outputs":[],"stateMutability":"nonpayable"},{"type":"function","name":"batchSetTesters","inputs":[{"name":"accounts","type":"address[]","internalType":"address[]"},{"name":"approved","type":"bool","internalType":"bool"}],"outputs":[],"stateMutability":"nonpayable"},{"type":"function","name":"burnItemForSP","inputs":[{"name":"creatureId","type":"uint256","internalType":"uint256"},{"name":"itemId","type":"uint256","internalType":"uint256"}],"outputs":[],"stateMutability":"nonpayable"},{"type":"function","name":"claimDailyItems","inputs":[{"name":"creatureId","type":"uint256","internalType":"uint256"}],"outputs":[],"stateMutability":"nonpayable"},{"type":"function","name":"claimDailyItemsBatch","inputs":[{"name":"creatureIds","type":"uint256[]","internalType":"uint256[]"}],"outputs":[],"stateMutability":"nonpayable"},{"type":"function","name":"currentDay","inputs":[],"outputs":[{"name":"","type":"uint256","internalType":"uint256"}],"stateMutability":"view"},{"type":"function","name":"enforceGoobsOwnership","inputs":[],"outputs":[{"name":"","type":"bool","internalType":"bool"}],"stateMutability":"view"},{"type":"function","name":"getCreatureState","inputs":[{"name":"creatureId","type":"uint256","internalType":"uint256"}],"outputs":[{"name":"","type":"tuple","internalType":"struct CreatureStabilizer.CreatureState","components":[{"name":"vibes","type":"uint8","internalType":"uint8"},{"name":"lockedCount","type":"uint8","internalType":"uint8"},{"name":"targetSal","type":"uint16","internalType":"uint16"},{"name":"targetPH","type":"uint16","internalType":"uint16"},{"name":"targetTemp","type":"uint16","internalType":"uint16"},{"name":"targetFreq","type":"uint16","internalType":"uint16"},{"name":"currSal","type":"uint16","internalType":"uint16"},{"name":"currPH","type":"uint16","internalType":"uint16"},{"name":"currTemp","type":"uint16","internalType":"uint16"},{"name":"currFreq","type":"uint16","internalType":"uint16"},{"name":"lockedSal","type":"bool","internalType":"bool"},{"name":"lockedPH","type":"bool","internalType":"bool"},{"name":"lockedTemp","type":"bool","internalType":"bool"},{"name":"lockedFreq","type":"bool","internalType":"bool"},{"name":"stabilizedAt","type":"uint40","internalType":"uint40"},{"name":"consecutiveVibeMax","type":"uint16","internalType":"uint16"},{"name":"enhancedDrip","type":"bool","internalType":"bool"},{"name":"bondedSP","type":"uint16","internalType":"uint16"}]}],"stateMutability":"view"},{"type":"function","name":"getDailyItems","inputs":[{"name":"creatureId","type":"uint256","internalType":"uint256"}],"outputs":[{"name":"day","type":"uint32","internalType":"uint32"},{"name":"templateIds","type":"uint256[]","internalType":"uint256[]"},{"name":"amounts","type":"uint256[]","internalType":"uint256[]"}],"stateMutability":"view"},{"type":"function","name":"globalEntropy","inputs":[],"outputs":[{"name":"","type":"bytes32","internalType":"bytes32"}],"stateMutability":"view"},{"type":"function","name":"goobs","inputs":[],"outputs":[{"name":"","type":"address","internalType":"contract IGoobs"}],"stateMutability":"view"},{"type":"function","name":"incubate","inputs":[{"name":"creatureId","type":"uint256","internalType":"uint256"}],"outputs":[],"stateMutability":"nonpayable"},{"type":"function","name":"initialize","inputs":[{"name":"_itemToken","type":"address","internalType":"address"},{"name":"_itemCatalog","type":"address","internalType":"address"},{"name":"_daySeconds","type":"uint256","internalType":"uint256"},{"name":"_entropySeed","type":"bytes32","internalType":"bytes32"}],"outputs":[],"stateMutability":"nonpayable"},{"type":"function","name":"initializeCreature","inputs":[{"name":"creatureId","type":"uint256","internalType":"uint256"},{"name":"targetSal","type":"uint16","internalType":"uint16"},{"name":"targetPH","type":"uint16","internalType":"uint16"},{"name":"targetTemp","type":"uint16","internalType":"uint16"},{"name":"targetFreq","type":"uint16","internalType":"uint16"},{"name":"currSal","type":"uint16","internalType":"uint16"},{"name":"currPH","type":"uint16","internalType":"uint16"},{"name":"currTemp","type":"uint16","internalType":"uint16"},{"name":"currFreq","type":"uint16","internalType":"uint16"}],"outputs":[],"stateMutability":"nonpayable"},{"type":"function","name":"isTester","inputs":[{"name":"account","type":"address","internalType":"address"}],"outputs":[{"name":"","type":"bool","internalType":"bool"}],"stateMutability":"view"},{"type":"function","name":"isWhitelistEnabled","inputs":[],"outputs":[{"name":"","type":"bool","internalType":"bool"}],"stateMutability":"view"},{"type":"function","name":"itemCatalog","inputs":[],"outputs":[{"name":"","type":"address","internalType":"address"}],"stateMutability":"view"},{"type":"function","name":"itemToken","inputs":[],"outputs":[{"name":"","type":"address","internalType":"address"}],"stateMutability":"view"},{"type":"function","name":"lastClaimDay","inputs":[{"name":"","type":"uint256","internalType":"uint256"}],"outputs":[{"name":"","type":"uint32","internalType":"uint32"}],"stateMutability":"view"},{"type":"function","name":"lastVibesDay","inputs":[{"name":"","type":"uint256","internalType":"uint256"}],"outputs":[{"name":"","type":"uint32","internalType":"uint32"}],"stateMutability":"view"},{"type":"function","name":"lockTrait","inputs":[{"name":"creatureId","type":"uint256","internalType":"uint256"},{"name":"traitIndex","type":"uint8","internalType":"uint8"}],"outputs":[],"stateMutability":"nonpayable"},{"type":"function","name":"owner","inputs":[],"outputs":[{"name":"","type":"address","internalType":"address"}],"stateMutability":"view"},{"type":"function","name":"renounceOwnership","inputs":[],"outputs":[],"stateMutability":"nonpayable"},{"type":"function","name":"sendVibes","inputs":[{"name":"creatureId","type":"uint256","internalType":"uint256"}],"outputs":[],"stateMutability":"nonpayable"},{"type":"function","name":"setCatalog","inputs":[{"name":"newCatalog","type":"address","internalType":"address"}],"outputs":[],"stateMutability":"nonpayable"},{"type":"function","name":"setDaySeconds","inputs":[{"name":"newDaySeconds","type":"uint256","internalType":"uint256"}],"outputs":[],"stateMutability":"nonpayable"},{"type":"function","name":"setEnforceGoobsOwnership","inputs":[{"name":"_enforce","type":"bool","internalType":"bool"}],"outputs":[],"stateMutability":"nonpayable"},{"type":"function","name":"setGoobs","inputs":[{"name":"_goobs","type":"address","internalType":"address"}],"outputs":[],"stateMutability":"nonpayable"},{"type":"function","name":"setItemToken","inputs":[{"name":"_itemToken","type":"address","internalType":"address"}],"outputs":[],"stateMutability":"nonpayable"},{"type":"function","name":"setTester","inputs":[{"name":"account","type":"address","internalType":"address"},{"name":"approved","type":"bool","internalType":"bool"}],"outputs":[],"stateMutability":"nonpayable"},{"type":"function","name":"setWhitelistEnabled","inputs":[{"name":"enabled","type":"bool","internalType":"bool"}],"outputs":[],"stateMutability":"nonpayable"},{"type":"function","name":"timeOffset","inputs":[],"outputs":[{"name":"","type":"int256","internalType":"int256"}],"stateMutability":"view"},{"type":"function","name":"transferOwnership","inputs":[{"name":"newOwner","type":"address","internalType":"address"}],"outputs":[],"stateMutability":"nonpayable"},{"type":"function","name":"walletSP","inputs":[{"name":"","type":"address","internalType":"address"}],"outputs":[{"name":"","type":"uint32","internalType":"uint32"}],"stateMutability":"view"},{"type":"event","name":"CatalogUpdated","inputs":[{"name":"newCatalog","type":"address","indexed":true,"internalType":"address"}],"anonymous":false},{"type":"event","name":"DripGranted","inputs":[{"name":"creatureId","type":"uint256","indexed":true,"internalType":"uint256"},{"name":"numItems","type":"uint8","indexed":false,"internalType":"uint8"}],"anonymous":false},{"type":"event","name":"Evolved","inputs":[{"name":"creatureId","type":"uint256","indexed":true,"internalType":"uint256"}],"anonymous":false},{"type":"event","name":"Initialized","inputs":[{"name":"version","type":"uint64","indexed":false,"internalType":"uint64"}],"anonymous":false},{"type":"event","name":"ItemApplied","inputs":[{"name":"creatureId","type":"uint256","indexed":true,"internalType":"uint256"},{"name":"user","type":"address","indexed":true,"internalType":"address"},{"name":"itemId","type":"uint256","indexed":false,"internalType":"uint256"}],"anonymous":false},{"type":"event","name":"ItemBurnedForSP","inputs":[{"name":"creatureId","type":"uint256","indexed":true,"internalType":"uint256"},{"name":"user","type":"address","indexed":true,"internalType":"address"},{"name":"itemId","type":"uint256","indexed":false,"internalType":"uint256"},{"name":"sp","type":"uint8","indexed":false,"internalType":"uint8"}],"anonymous":false},{"type":"event","name":"ItemGranted","inputs":[{"name":"creatureId","type":"uint256","indexed":true,"internalType":"uint256"},{"name":"to","type":"address","indexed":true,"internalType":"address"},{"name":"itemId","type":"uint256","indexed":false,"internalType":"uint256"}],"anonymous":false},{"type":"event","name":"OwnershipTransferred","inputs":[{"name":"previousOwner","type":"address","indexed":true,"internalType":"address"},{"name":"newOwner","type":"address","indexed":true,"internalType":"address"}],"anonymous":false},{"type":"event","name":"Stabilized","inputs":[{"name":"creatureId","type":"uint256","indexed":true,"internalType":"uint256"}],"anonymous":false},{"type":"event","name":"StreakCompleted","inputs":[{"name":"creatureId","type":"uint256","indexed":true,"internalType":"uint256"}],"anonymous":false},{"type":"event","name":"TesterUpdated","inputs":[{"name":"account","type":"address","indexed":true,"internalType":"address"},{"name":"approved","type":"bool","indexed":false,"internalType":"bool"}],"anonymous":false},{"type":"event","name":"TraitLocked","inputs":[{"name":"creatureId","type":"uint256","indexed":true,"internalType":"uint256"},{"name":"traitIndex","type":"uint8","indexed":false,"internalType":"uint8"},{"name":"lockIndex","type":"uint8","indexed":false,"internalType":"uint8"}],"anonymous":false},{"type":"event","name":"VibesUpdated","inputs":[{"name":"creatureId","type":"uint256","indexed":true,"internalType":"uint256"},{"name":"newValue","type":"uint8","indexed":false,"internalType":"uint8"}],"anonymous":false},{"type":"event","name":"WhitelistEnabled","inputs":[{"name":"enabled","type":"bool","indexed":false,"internalType":"bool"}],"anonymous":false},{"type":"error","name":"InvalidInitialization","inputs":[]},{"type":"error","name":"NotInitializing","inputs":[]},{"type":"error","name":"OwnableInvalidOwner","inputs":[{"name":"owner","type":"address","internalType":"address"}]},{"type":"error","name":"OwnableUnauthorizedAccount","inputs":[{"name":"account","type":"address","internalType":"address"}]},{"type":"error","name":"ReentrancyGuardReentrantCall","inputs":[]}],"bytecode":{"object":"0x608060405234801562000010575f80fd5b5060017f9b779b17422d0df92223018b32b4d1fa46e071723d6817e2486d003becc55f00556200003f62000045565b620000f9565b7ff0c57e16840df040f15088dc2f81fe391c3923bec73e23a9662efc9c229c6a00805468010000000000000000900460ff1615620000965760405163f92ee8a960e01b815260040160405180910390fd5b80546001600160401b0390811614620000f65780546001600160401b0319166001600160401b0390811782556040519081527fc7f505b2f371ae2175ee4913f4499e1f2633a7b5936321eed1cdaeb6115181d29060200160405180910390a15b50565b61495b80620001075f395ff3fe608060405234801561000f575f80fd5b50600436106102e5575f3560e01c80635cbfb70611610195578063ac0496e1116100e4578063c4e9b14e1161009e578063d2d5f5b111610079578063d2d5f5b114610800578063f2fde38b14610813578063fa2a5d4f14610826578063feae0e411461084b575f80fd5b8063c4e9b14e146105f7578063cf5afd8c1461060b578063d14711d8146107ed575f80fd5b8063ac0496e114610569578063b751110f1461057c578063b98072ef1461058f578063b993418d14610597578063bd630dc7146105aa578063c3f141e7146105d5575f80fd5b8063777f54401161014f5780637ecac2c71161012a5780637ecac2c7146105205780638da5cb5b1461054557806394c4bbd61461054d578063a438b0e514610560575f80fd5b8063777f5440146104f257806379ac27ed146105055780637b87a5601461050d575f80fd5b80635cbfb706146104875780635f4c76961461049a57806360bd01c4146104c5578063707419fa146104ce578063715018a6146104e157806372b9fb16146104e9575f80fd5b806339f3275d116102515780634d0ec6351161020b5780635373d2c8116101e65780635373d2c81461044e57806357072cbe1461046157806358e6d53c146104695780635c9302c91461047f575f80fd5b80634d0ec635146103a65780634fd4f5e11461043b578063520ae566146103e6575f80fd5b806339f3275d146103ad5780633c6d21f3146103c05780633e3a9f20146103d3578063441ad3e5146103e6578063495db110146103ee5780634cbc077814610401575f80fd5b8063242a9146116102a2578063242a91461461031157806324cf86dd146103705780632913827d146103835780632bdab3ea1461039657806333d2e5251461039e57806335741b71146103a6575f80fd5b8063025cf3c1146102e9578063052d9e7e146102fe578063067fe9ee14610311578063116d2b8514610330578063184d69ab1461033857806318d138af14610356575b5f80fd5b6102fc6102f7366004613ebc565b610853565b005b6102fc61030c366004613f5c565b6109f2565b610319600a81565b60405160ff90911681526020015b60405180910390f35b610319600281565b600a54600160a81b900460ff165b6040519015158152602001610327565b61035d5f81565b60405161ffff9091168152602001610327565b6102fc61037e366004613f89565b610a52565b6102fc610391366004613fa4565b610b14565b610319600581565b610319600181565b6103195f81565b6102fc6103bb366004613fd5565b610e0d565b6102fc6103ce366004614070565b611275565b6102fc6103e1366004613fa4565b6114a0565b610319600781565b6102fc6103fc366004613f5c565b6116c1565b61042661040f366004614070565b60066020525f908152604090205463ffffffff1681565b60405163ffffffff9091168152602001610327565b6102fc610449366004614070565b6116e7565b6102fc61045c366004614087565b611708565b610319600c81565b6104715f5481565b604051908152602001610327565b61047161176e565b6102fc610495366004614070565b6117c3565b6008546104ad906001600160a01b031681565b6040516001600160a01b039091168152602001610327565b61047160095481565b6102fc6104dc366004613f89565b6119b8565b6102fc6119e2565b61047160015481565b6007546104ad906001600160a01b031681565b61035d606481565b600a546104ad906001600160a01b031681565b61042661052e366004614070565b60056020525f908152604090205463ffffffff1681565b6104ad6119f5565b6102fc61055b3660046140c8565b611a23565b61047160025481565b6102fc610577366004613f89565b611d8e565b6102fc61058a3660046140f6565b611e1a565b610319600881565b6102fc6105a5366004614070565b611eca565b6103466105b8366004613f89565b6001600160a01b03165f908152600b602052604090205460ff1690565b6105e86105e3366004614070565b611f39565b604051610327939291906141ad565b600a5461034690600160a01b900460ff1681565b6107e0610619366004614070565b60408051610240810182525f80825260208201819052918101829052606081018290526080810182905260a0810182905260c0810182905260e08101829052610100810182905261012081018290526101408101829052610160810182905261018081018290526101a081018290526101c081018290526101e081018290526102008101829052610220810191909152505f90815260036020908152604091829020825161024081018452905460ff808216835261010080830482169484019490945261ffff620100008304811695840195909552600160201b820485166060840152600160301b820485166080840152600160401b8204851660a0840152600160501b8204851660c0840152600160601b8204851660e0840152600160701b8204851693830193909352600160801b81048416610120830152600160901b810483161515610140830152600160981b810483161515610160830152600160a01b810483161515610180830152600160a81b8104831615156101a083015264ffffffffff600160b01b8204166101c0830152600160d81b810484166101e0830152600160e81b81049092161515610200820152600160f01b90910490911661022082015290565b60405161032791906141e7565b6102fc6107fb366004614070565b6120cf565b6102fc61080e366004614325565b612257565b6102fc610821366004613f89565b612390565b610426610834366004613f89565b60046020525f908152604090205463ffffffff1681565b610319600381565b600a54600160a81b900460ff16156108bc5761086d6119f5565b6001600160a01b0316336001600160a01b0316146108bc57335f908152600b602052604090205460ff166108bc5760405162461bcd60e51b81526004016108b390614368565b60405180910390fd5b5f5b81518110156109ab57600a54600160a01b900460ff1680156108ea5750600a546001600160a01b031615155b156109a357600a54825133916001600160a01b031690636352211e90859085908110610918576109186143b2565b60200260200101516040518263ffffffff1660e01b815260040161093e91815260200190565b602060405180830381865afa158015610959573d5f803e3d5ffd5b505050506040513d601f19601f8201168201806040525081019061097d91906143d1565b6001600160a01b0316146109a35760405162461bcd60e51b81526004016108b3906143ec565b6001016108be565b505f6109b561176e565b90505f5b82518110156109ed576109e58382815181106109d7576109d76143b2565b6020026020010151836123ca565b6001016109b9565b505050565b6109fa612472565b600a8054821515600160a81b0260ff60a81b199091161790556040517f9bea0dd3cae4438dc4c54c3110002aedc380f4075b6edae73ae0536105a2008a90610a4790831515815260200190565b60405180910390a150565b610a5a612472565b6001600160a01b038116610acb5760405162461bcd60e51b815260206004820152603260248201527f437265617475726553746162696c697a65723a20636174616c6f672063616e6e6044820152716f74206265207a65726f206164647265737360701b60648201526084016108b3565b600880546001600160a01b0319166001600160a01b0383169081179091556040517f92f9c420481b575d4a74e9f2f3115948e66d72c4c7db17643df0270e762698c0905f90a250565b610b1c6124a4565b600a548290600160a01b900460ff168015610b415750600a546001600160a01b031615155b15610bd757600a546040516331a9108f60e11b81526004810183905233916001600160a01b031690636352211e90602401602060405180830381865afa158015610b8d573d5f803e3d5ffd5b505050506040513d601f19601f82011682018060405250810190610bb191906143d1565b6001600160a01b031614610bd75760405162461bcd60e51b81526004016108b3906143ec565b600a54600160a81b900460ff1615610c3757610bf16119f5565b6001600160a01b0316336001600160a01b031614610c3757335f908152600b602052604090205460ff16610c375760405162461bcd60e51b81526004016108b390614368565b60075460405163d258153560e01b81526001600160a01b039091169063d258153590610c6c903390869060019060040161442e565b5f604051808303815f87803b158015610c83575f80fd5b505af1158015610c95573d5f803e3d5ffd5b5050600854604051630c550f3d60e21b8152600481018690526001600160a01b0390911692505f915082906331543cf4906024015f60405180830381865afa158015610ce3573d5f803e3d5ffd5b505050506040513d5f823e601f3d908101601f19168201604052610d0a91908101906144eb565b80519091505f9060ff16610d2057506001610d5a565b815160ff165f1901610d3457506002610d5a565b815160ff1660011901610d4957506003610d5a565b815160ff1660021901610d5a575060055b335f908152600460205260408120805460ff84169290610d8190849063ffffffff166145f1565b92506101000a81548163ffffffff021916908363ffffffff160217905550336001600160a01b0316867fc6605fb6ce27111f3f1f44a9d8790b7e20bfe1e035d9c07b620d234c726988c88784604051610de792919091825260ff16602082015260400190565b60405180910390a350505050610e0960015f8051602061490683398151915255565b5050565b600a548990600160a01b900460ff168015610e325750600a546001600160a01b031615155b15610ec857600a546040516331a9108f60e11b81526004810183905233916001600160a01b031690636352211e90602401602060405180830381865afa158015610e7e573d5f803e3d5ffd5b505050506040513d601f19601f82011682018060405250810190610ea291906143d1565b6001600160a01b031614610ec85760405162461bcd60e51b81526004016108b3906143ec565b600a54600160a81b900460ff1615610f2857610ee26119f5565b6001600160a01b0316336001600160a01b031614610f2857335f908152600b602052604090205460ff16610f285760405162461bcd60e51b81526004016108b390614368565b5f8a8152600360205260409020805462010000900461ffff16158015610f5857508054600160201b900461ffff16155b8015610f6e57508054600160301b900461ffff16155b8015610f8457508054600160401b900461ffff16155b610fe05760405162461bcd60e51b815260206004820152602760248201527f437265617475726553746162696c697a65723a20616c726561647920696e69746044820152661a585b1a5e995960ca1b60648201526084016108b3565b5f610fed6005606461460e565b905080610ffa888d6124bf565b10156110575760405162461bcd60e51b815260206004820152602660248201527f437265617475726553746162696c697a65723a2073616c696e69747920746f6f60448201526520636c6f736560d01b60648201526084016108b3565b80611062878c6124bf565b10156110b05760405162461bcd60e51b815260206004820181905260248201527f437265617475726553746162696c697a65723a20704820746f6f20636c6f736560448201526064016108b3565b806110bb868b6124bf565b101561111b5760405162461bcd60e51b815260206004820152602960248201527f437265617475726553746162696c697a65723a2074656d706572617475726520604482015268746f6f20636c6f736560b81b60648201526084016108b3565b80611126858a6124bf565b10156111845760405162461bcd60e51b815260206004820152602760248201527f437265617475726553746162696c697a65723a206672657175656e637920746f6044820152666f20636c6f736560c81b60648201526084016108b3565b508054600965ffffffff0000199091166201000061ffff9c8d160265ffff00000000191617600160201b9a8c169a909a029990991769ffffffff0000000000001916600160301b988b169890980269ffff0000000000000000191697909717600160401b968a16969096029590951763ffffffff60501b1916600160501b9489169490940261ffff60601b191693909317600160601b928816929092029190911763ffffffff60701b1916600160701b9187169190910261ffff60801b191617600160801b91909516029390931775ffffffff00000000000000000000000000000000ffff19169190911790555050565b600a548190600160a01b900460ff16801561129a5750600a546001600160a01b031615155b1561133057600a546040516331a9108f60e11b81526004810183905233916001600160a01b031690636352211e90602401602060405180830381865afa1580156112e6573d5f803e3d5ffd5b505050506040513d601f19601f8201168201806040525081019061130a91906143d1565b6001600160a01b0316146113305760405162461bcd60e51b81526004016108b3906143ec565b600a54600160a81b900460ff16156113905761134a6119f5565b6001600160a01b0316336001600160a01b03161461139057335f908152600b602052604090205460ff166113905760405162461bcd60e51b81526004016108b390614368565b5f828152600360205260408120906113a661176e565b5f8581526006602052604090205490915063ffffffff1681116114205760405162461bcd60e51b815260206004820152602c60248201527f437265617475726553746162696c697a65723a20616c72656164792073656e7460448201526b20766962657320746f64617960a01b60648201526084016108b3565b61142b828583612535565b611434826125ff565b61143e828561263a565b5f84815260066020908152604091829020805463ffffffff191663ffffffff85161790558354915160ff909216825285917f020523ae04999ed19ad477fccdeae325bed3fa4858333f0cb774e3b0d816d9ca910160405180910390a250505050565b6114a86124a4565b600a548290600160a01b900460ff1680156114cd5750600a546001600160a01b031615155b1561156357600a546040516331a9108f60e11b81526004810183905233916001600160a01b031690636352211e90602401602060405180830381865afa158015611519573d5f803e3d5ffd5b505050506040513d601f19601f8201168201806040525081019061153d91906143d1565b6001600160a01b0316146115635760405162461bcd60e51b81526004016108b3906143ec565b600a54600160a81b900460ff16156115c35761157d6119f5565b6001600160a01b0316336001600160a01b0316146115c357335f908152600b602052604090205460ff166115c35760405162461bcd60e51b81526004016108b390614368565b5f8381526003602052604090208054600461010090910460ff16106115fa5760405162461bcd60e51b81526004016108b390614625565b5f61160484612720565b60075460405163d258153560e01b81529192506001600160a01b03169063d25815359061163a903390889060019060040161442e565b5f604051808303815f87803b158015611651575f80fd5b505af1158015611663573d5f803e3d5ffd5b5050505061167182826127d4565b604051848152339086907f135e259e62a010bf3ad36da04d45b2c41a4851f5a85d253f8e03a8636908ecf49060200160405180910390a3505050610e0960015f8051602061490683398151915255565b6116c9612472565b600a8054911515600160a01b0260ff60a01b19909216919091179055565b6116ef612472565b8060025f828254611700919061466b565b909155505050565b611710612472565b6001600160a01b0382165f818152600b6020908152604091829020805460ff191685151590811790915591519182527fcee0afc95a1f261593fe67f6ea93fe6a77c19bb226c2ecefc2f2aa1347372e79910160405180910390a25050565b5f806002544261177e919061466b565b90505f81121561178f575f91505090565b60015481908110156117a3575f9250505090565b5f546001546117b2908361468a565b6117bc91906146b1565b9250505090565b600a54600160a81b900460ff1615611823576117dd6119f5565b6001600160a01b0316336001600160a01b03161461182357335f908152600b602052604090205460ff166118235760405162461bcd60e51b81526004016108b390614368565b5f8181526003602052604090208054600461010090910460ff1610156118965760405162461bcd60e51b815260206004820152602260248201527f437265617475726553746162696c697a65723a206e6f742073746162696c697a604482015261195960f21b60648201526084016108b3565b6118a46007620151806146c4565b81546118c39162ffffff1690600160b01b900464ffffffffff166146e3565b64ffffffffff1642101561192c5760405162461bcd60e51b815260206004820152602a60248201527f437265617475726553746162696c697a65723a207265736f6e616e6365206e6f6044820152697420636f6d706c65746560b01b60648201526084016108b3565b805460ff16600a1461198a5760405162461bcd60e51b815260206004820152602160248201527f437265617475726553746162696c697a65723a207669626573206e6f74206d616044820152600f60fb1b60648201526084016108b3565b60405182907fee75f3f4b2af8621eec1bf25c4abed6ef6ff6d3fed2f2e070d4034f2f91e5d2e905f90a25050565b6119c0612472565b600a80546001600160a01b0319166001600160a01b0392909216919091179055565b6119ea612472565b6119f35f6127f5565b565b7f9016d09d72d40fdae2fd8ceac6b6234c7706214fd39c1cd1e609a0528c199300546001600160a01b031690565b611a2b6124a4565b600a548290600160a01b900460ff168015611a505750600a546001600160a01b031615155b15611ae657600a546040516331a9108f60e11b81526004810183905233916001600160a01b031690636352211e90602401602060405180830381865afa158015611a9c573d5f803e3d5ffd5b505050506040513d601f19601f82011682018060405250810190611ac091906143d1565b6001600160a01b031614611ae65760405162461bcd60e51b81526004016108b3906143ec565b600a54600160a81b900460ff1615611b4657611b006119f5565b6001600160a01b0316336001600160a01b031614611b4657335f908152600b602052604090205460ff16611b465760405162461bcd60e51b81526004016108b390614368565b5f8381526003602052604090208054600461010090910460ff1610611b7d5760405162461bcd60e51b81526004016108b390614625565b611b878184612865565b611bd35760405162461bcd60e51b815260206004820181905260248201527f437265617475726553746162696c697a65723a206e6f74206c6f636b61626c6560448201526064016108b3565b80545f90611be890610100900460ff166129ca565b8254335f90815260046020526040902054919250600160f01b900461ffff169063ffffffff1660ff8316611c1c8284614701565b1015611c765760405162461bcd60e51b815260206004820152602360248201527f437265617475726553746162696c697a65723a20696e73756666696369656e7460448201526202053560ec1b60648201526084016108b3565b611c8284338585612a0f565b611c8c8487612ace565b8354610100900460ff16846001611ca283614714565b91906101000a81548160ff021916908360ff16021790555050867f70e1816a152da4bb1a10a1262f3db1ce046183d9a61fbe48032efe79fd393f10876001875f0160019054906101000a900460ff16611cfb9190614732565b6040805160ff93841681529290911660208301520160405180910390a28354600461010090910460ff1610611d7357835464ffffffffff60b01b1916600160b01b4264ffffffffff160217845560405187907f3266482e5f1d63579eeb85b29b21ff8dfe111bebe9656fbc9c33bda404ca1068905f90a25b5050505050610e0960015f8051602061490683398151915255565b611d96612472565b6001600160a01b038116611df85760405162461bcd60e51b815260206004820152602360248201527f437265617475726553746162696c697a65723a207a65726f206974656d20746f60448201526235b2b760e91b60648201526084016108b3565b600780546001600160a01b0319166001600160a01b0392909216919091179055565b611e22612472565b815f5b81811015611ec3575f858583818110611e4057611e406143b2565b9050602002016020810190611e559190613f89565b6001600160a01b0381165f818152600b602052604090819020805488151560ff1990911617905551919250907fcee0afc95a1f261593fe67f6ea93fe6a77c19bb226c2ecefc2f2aa1347372e7990611eb290871515815260200190565b60405180910390a250600101611e25565b5050505050565b611ed2612472565b5f8111611f355760405162461bcd60e51b815260206004820152602b60248201527f437265617475726553746162696c697a65723a204441595f5345434f4e44532060448201526a06d757374206265203e20360ac1b60648201526084016108b3565b5f55565b5f8181526003602052604081208054606091829162010000900461ffff16158015611f6e57508054600160201b900461ffff16155b8015611f8457508054600160301b900461ffff16155b8015611f9a57508054600160401b900461ffff16155b15611ff35760405162461bcd60e51b815260206004820152602360248201527f437265617475726553746162696c697a65723a206e6f7420696e697469616c696044820152621e995960ea1b60648201526084016108b3565b8054600461010090910460ff161061201d5760405162461bcd60e51b81526004016108b390614625565b61202561176e565b5f8681526005602052604090205490945063ffffffff908116908516156120b3578463ffffffff168163ffffffff16036120b35760405162461bcd60e51b815260206004820152602960248201527f437265617475726553746162696c697a65723a20616c726561647920636c61696044820152686d656420746f64617960b81b60648201526084016108b3565b6120c3868663ffffffff16612b4d565b95979096509350505050565b6120d76124a4565b600a548190600160a01b900460ff1680156120fc5750600a546001600160a01b031615155b1561219257600a546040516331a9108f60e11b81526004810183905233916001600160a01b031690636352211e90602401602060405180830381865afa158015612148573d5f803e3d5ffd5b505050506040513d601f19601f8201168201806040525081019061216c91906143d1565b6001600160a01b0316146121925760405162461bcd60e51b81526004016108b3906143ec565b600a54600160a81b900460ff16156121f2576121ac6119f5565b6001600160a01b0316336001600160a01b0316146121f257335f908152600b602052604090205460ff166121f25760405162461bcd60e51b81526004016108b390614368565b6040805160018082528183019092525f916020808301908036833701905050905082815f81518110612226576122266143b2565b60209081029190910101528061223b81610853565b50505061225460015f8051602061490683398151915255565b50565b5f612260612d98565b805490915060ff600160401b820416159067ffffffffffffffff165f811580156122875750825b90505f8267ffffffffffffffff1660011480156122a35750303b155b9050811580156122b1575080155b156122cf5760405163f92ee8a960e01b815260040160405180910390fd5b845467ffffffffffffffff1916600117855583156122f957845460ff60401b1916600160401b1785555b61230233612dc0565b600780546001600160a01b03808c166001600160a01b03199283161790925560088054928b16929091169190911790555f879055600986905542600155831561238557845460ff60401b19168555604051600181527fc7f505b2f371ae2175ee4913f4499e1f2633a7b5936321eed1cdaeb6115181d29060200160405180910390a15b505050505050505050565b612398612472565b6001600160a01b0381166123c157604051631e4fbdf760e01b81525f60048201526024016108b3565b612254816127f5565b5f8281526005602052604090205463ffffffff168190036123e9575050565b5f8281526003602052604090208054600461010090910460ff161061240d57505050565b8115801561242c57505f8381526005602052604090205463ffffffff16155b1561243a5761243a83612dd1565b811561244a5761244a8383612e22565b505f91825260056020526040909120805463ffffffff191663ffffffff909216919091179055565b3361247b6119f5565b6001600160a01b0316146119f35760405163118cdaa760e01b81523360048201526024016108b3565b6124ac612f79565b60025f8051602061490683398151915255565b5f8161ffff165f036124e6578261ffff165f036124dd57505f61252f565b5061271061252f565b61ffff8084169083165f81831161250657612501838361468a565b612510565b612510828461468a565b90508161251f8261271061460e565b61252991906146b1565b93505050505b92915050565b5f8281526006602052604090205463ffffffff161580159061256957505f8281526006602052604090205463ffffffff1681115b156109ed575f8281526006602052604081205460019061258f9063ffffffff168461468a565b612599919061468a565b90505f811180156125ad5750835460ff1615155b156125f957835460ff1681106125ca57835460ff191684556125f9565b8354819085905f906125e090849060ff16614732565b92506101000a81548160ff021916908360ff1602179055505b50505050565b8054600a60ff909116101561225457805460ff16815f61261e83614714565b91906101000a81548160ff021916908360ff1602179055505050565b815460ff1660091901612710578154600160d81b900461ffff1682601b6126608361474b565b82546101009290920a61ffff81810219909316918316021790915583546007600160d81b909104909116109050610e095781546003908390601e906126b1908490600160f01b900461ffff1661476b565b825461ffff9182166101009390930a928302919092021990911617905550815462ffffff60d81b1916600160e81b17825560405181907fa3db9b60d6dfab293a91f7cf546ba95db220363be0f5ff1edac6e0deca39e47d905f90a25050565b50805462ffffff60d81b19169055565b60408051610100810182525f8082526020820181905281830181905260608083018290526080830182905260a083019190915260c0820181905260e08201526008549151630c550f3d60e21b81526004810184905290916001600160a01b03169081906331543cf4906024015f60405180830381865afa1580156127a6573d5f803e3d5ffd5b505050506040513d5f823e601f3d908101601f191682016040526127cd91908101906144eb565b9392505050565b805160ff16600219016127eb57610e098282612fa8565b610e098282612fc8565b7f9016d09d72d40fdae2fd8ceac6b6234c7706214fd39c1cd1e609a0528c19930080546001600160a01b031981166001600160a01b03848116918217845560405192169182907f8be0079c531659141344cd1fd0a4f28419497f9722a3daafe3b4186f6b6457e0905f90a3505050565b5f60ff82166128c1578254600160901b900460ff161561288657505f61252f565b5f6128936005606461460e565b845490915081906128b79061ffff600160501b8204811691620100009004166124bf565b111591505061252f565b5f1960ff831601612916578254600160981b900460ff16156128e457505f61252f565b5f6128f16005606461460e565b845490915081906128b79061ffff600160601b8204811691600160201b9004166124bf565b60011960ff83160161296c578254600160a01b900460ff161561293a57505f61252f565b5f6129476005606461460e565b845490915081906128b79061ffff600160701b8204811691600160301b9004166124bf565b60021960ff8316016129c2578254600160a81b900460ff161561299057505f61252f565b5f61299d6005606461460e565b845490915081906128b79061ffff600160801b8204811691600160401b9004166124bf565b505f92915050565b5f8160ff165f036129dc57505f919050565b8160ff166001036129ef57506008919050565b8160ff16600203612a025750600a919050565b50600c919050565b919050565b5f8161ffff168360ff1611612a27578260ff16612a29565b815b855490915081908690601e90612a4b908490600160f01b900461ffff16614786565b92506101000a81548161ffff021916908361ffff160217905550808360ff16612a749190614786565b6001600160a01b0385165f908152600460205260408120805461ffff9390931692909190612aa990849063ffffffff166147a1565b92506101000a81548163ffffffff021916908363ffffffff1602179055505050505050565b60ff8116612aeb57815460ff60901b1916600160901b1782555050565b5f1960ff821601612b0b57815460ff60981b1916600160981b1782555050565b60011960ff821601612b2c57815460ff60a01b1916600160a01b1782555050565b60021960ff821601610e0957815460ff60a81b1916600160a81b1782555050565b5f82815260036020526040902060085460609182916001600160a01b031684158015612b8a57505f8681526005602052604090205463ffffffff16155b15612c455760408051600580825260c08201909252906020820160a080368337505060408051600580825260c0820190925292965090506020820160a0803683370190505092505f5b6005811015612c3f575f612bf688612bed846103e8614701565b60095486612feb565b905080868381518110612c0b57612c0b6143b2565b6020026020010181815250506001858381518110612c2b57612c2b6143b2565b602090810291909101015250600101612bd3565b50612d8f565b8415612d75575f612c5583613132565b90508060ff1667ffffffffffffffff811115612c7357612c73613e2a565b604051908082528060200260200182016040528015612c9c578160200160208202803683370190505b5094508060ff1667ffffffffffffffff811115612cbb57612cbb613e2a565b604051908082528060200260200182016040528015612ce4578160200160208202803683370190505b5093505f5b8160ff168160ff161015612d6e575f612d1f8960ff8416612d0c8b6103e861460e565b612d169190614701565b60095487612feb565b905080878360ff1681518110612d3757612d376143b2565b6020026020010181815250506001868360ff1681518110612d5a57612d5a6143b2565b602090810291909101015250600101612ce9565b5050612d8f565b604080515f80825260208201908152818301909252945092505b50509250929050565b5f807ff0c57e16840df040f15088dc2f81fe391c3923bec73e23a9662efc9c229c6a0061252f565b612dc8613163565b61225481613188565b6008546001600160a01b03165f612de88382612b4d565b5090505f5b81518110156125f957612e1a84838381518110612e0c57612e0c6143b2565b602002602001015185613190565b600101612ded565b5f612e2d8383612b4d565b505f848152600360205260408120919250612e4782613132565b90505f5b8351811015612f395760075484516001600160a01b039091169063696a50b4903390879085908110612e7f57612e7f6143b2565b602002602001015160016040518463ffffffff1660e01b8152600401612ea79392919061442e565b5f604051808303815f87803b158015612ebe575f80fd5b505af1158015612ed0573d5f803e3d5ffd5b50505050336001600160a01b0316867ff4306090e36cecc25e65de11f13574cabc62cb5a6b13e1c1e3bb4d74437181d1868481518110612f1257612f126143b2565b6020026020010151604051612f2991815260200190565b60405180910390a3600101612e4b565b5060405160ff8216815285907ff673ee9bc83c902bf336e87eab7a63b7cc7af0069d1a270c0f2c4bdd243707d69060200160405180910390a25050505050565b5f80516020614906833981519152546002036119f357604051633ee5aeb560e01b815260040160405180910390fd5b5f612fb283613306565b9050612fbe8382613426565b6109ed8382613659565b612fd282826138ac565b606081015160ff16600414610e0957610e098282613acc565b604080516020808201879052818301869052606080830186905283518084039091018152608090920190925280519101205f905f6130298683613bfd565b60405163fb098ef760e01b815260ff821660048201529091505f906001600160a01b0386169063fb098ef7906024015f60405180830381865afa158015613072573d5f803e3d5ffd5b505050506040513d5f823e601f3d908101601f1916820160405261309991908101906147be565b90505f8151116130fa5760405162461bcd60e51b815260206004820152602660248201527f4974656d47656e657261746f723a206e6f2074656d706c6174657320666f722060448201526572617269747960d01b60648201526084016108b3565b80515f90613108908561483f565b905081818151811061311c5761311c6143b2565b6020026020010151945050505050949350505050565b80545f90600160e81b900460ff1680156131505750815460ff16600a145b61315b57600161252f565b600292915050565b61316b613cb0565b6119f357604051631afcd79f60e31b815260040160405180910390fd5b612398613163565b604051630c550f3d60e21b8152600481018390525f906001600160a01b038316906331543cf4906024015f60405180830381865afa1580156131d4573d5f803e3d5ffd5b505050506040513d5f823e601f3d908101601f191682016040526131fb91908101906144eb565b9050600360ff16815f015160ff16036132675760405162461bcd60e51b815260206004820152602860248201527f437265617475726553746162696c697a65723a206570696320696e2073746172604482015267746572207061636b60c01b60648201526084016108b3565b600754604051631a5a942d60e21b81526001600160a01b039091169063696a50b49061329c903390879060019060040161442e565b5f604051808303815f87803b1580156132b3575f80fd5b505af11580156132c5573d5f803e3d5ffd5b50506040518581523392508691507ff4306090e36cecc25e65de11f13574cabc62cb5a6b13e1c1e3bb4d74437181d19060200160405180910390a350505050565b80545f908190600160901b900460ff1661334e5782545f9061333b9061ffff600160501b8204811691620100009004166124bf565b90508181111561334c578091505f92505b505b8254600160981b900460ff166133945782545f906133809061ffff600160601b8204811691600160201b9004166124bf565b90508181111561339257809150600192505b505b8254600160a01b900460ff166133da5782545f906133c69061ffff600160701b8204811691600160301b9004166124bf565b9050818111156133d857809150600292505b505b8254600160a81b900460ff166134205782545f9061340c9061ffff600160801b8204811691600160401b9004166124bf565b90508181111561341e57809150600392505b505b50919050565b60ff81166134b25781545f9061344f9061ffff620100008204811691600160501b900416614852565b83549091505f9061346b90839062010000900461ffff16613cc9565b845490915061348e9061348990839062010000900461ffff1661466b565b613da7565b845461ffff91909116600160501b0261ffff60501b1990911617845550610e099050565b5f1960ff82160161353f5781545f906134df9061ffff600160201b8204811691600160601b900416614852565b83549091505f906134fc908390600160201b900461ffff16613cc9565b845490915061351b90613489908390600160201b900461ffff1661466b565b845461ffff91909116600160601b0261ffff60601b1990911617845550610e099050565b60011960ff8216016135cd5781545f9061356d9061ffff600160301b8204811691600160701b900416614852565b83549091505f9061358a908390600160301b900461ffff16613cc9565b84549091506135a990613489908390600160301b900461ffff1661466b565b845461ffff91909116600160701b0261ffff60701b1990911617845550610e099050565b60021960ff821601610e095781545f906135fb9061ffff600160401b8204811691600160801b900416614852565b83549091505f90613618908390600160401b900461ffff16613cc9565b845490915061363790613489908390600160401b900461ffff1661466b565b845461ffff91909116600160801b0261ffff60801b1990911617845550505050565b8154600160901b900460ff16158015613674575060ff811615155b156136ea5781545f9061369a9061ffff620100008204811691600160501b900416614852565b90506136cc60646136ac83606e614871565b6136b691906148a0565b8454613489919062010000900461ffff1661466b565b835461ffff91909116600160501b0261ffff60501b19909116178355505b8154600160981b900460ff16158015613707575060ff8116600114155b1561377f5781545f9061372e9061ffff600160201b8204811691600160601b900416614852565b9050613761606461374083606e614871565b61374a91906148a0565b84546134899190600160201b900461ffff1661466b565b835461ffff91909116600160601b0261ffff60601b19909116178355505b8154600160a01b900460ff1615801561379c575060ff8116600214155b156138145781545f906137c39061ffff600160301b8204811691600160701b900416614852565b90506137f660646137d583606e614871565b6137df91906148a0565b84546134899190600160301b900461ffff1661466b565b835461ffff91909116600160701b0261ffff60701b19909116178355505b8154600160a81b900460ff16158015613831575060ff8116600314155b15610e095781545f906138589061ffff600160401b8204811691600160801b900416614852565b905061388b606461386a83606e614871565b61387491906148a0565b84546134899190600160401b900461ffff1661466b565b835461ffff91909116600160801b0261ffff60801b19909116178355505050565b602081015160ff161580156138ca57508154600160901b900460ff16155b1561393a57815460408201515f916138f69161ffff600160501b83048116926201000090041690613dcc565b83549091506139199061348990600184900b90600160501b900461ffff1661466b565b835461ffff91909116600160501b0261ffff60501b19909116178355505050565b602081015160ff16600114801561395a57508154600160981b900460ff16155b156139cb57815460408201515f916139879161ffff600160601b8304811692600160201b90041690613dcc565b83549091506139aa9061348990600184900b90600160601b900461ffff1661466b565b835461ffff91909116600160601b0261ffff60601b19909116178355505050565b602081015160ff1660021480156139eb57508154600160a01b900460ff16155b15613a5c57815460408201515f91613a189161ffff600160701b8304811692600160301b90041690613dcc565b8354909150613a3b9061348990600184900b90600160701b900461ffff1661466b565b835461ffff91909116600160701b0261ffff60701b19909116178355505050565b602081015160ff166003148015613a7c57508154600160a81b900460ff16155b15610e0957815460408201515f91613aa99161ffff600160801b8304811692600160401b90041690613dcc565b835490915061388b9061348990600184900b90600160801b900461ffff1661466b565b606081015160ff16158015613aea57508154600160901b900460ff16155b15613b1657815460808201515f916138f69161ffff600160501b83048116926201000090041690613dcc565b606081015160ff166001148015613b3657508154600160981b900460ff16155b15613b6357815460808201515f916139879161ffff600160601b8304811692600160201b90041690613dcc565b606081015160ff166002148015613b8357508154600160a01b900460ff16155b15613bb057815460808201515f91613a189161ffff600160701b8304811692600160301b90041690613dcc565b606081015160ff166003148015613bd057508154600160a81b900460ff16155b15610e0957815460808201515f91613aa99161ffff600160801b8304811692600160401b90041690613dcc565b5f80613c0b6127108461483f565b90506007841015613c4757611770811015613c29575f91505061252f565b612134811015613c3d57600191505061252f565b600291505061252f565b60c8811015613c5a57600391505061252f565b5f612648613c6960c88461468a565b613c73919061483f565b90506116f8811015613c89575f9250505061252f565b61208a811015613c9e5760019250505061252f565b60029250505061252f565b5092915050565b5f613cb9612d98565b54600160401b900460ff16919050565b5f8161ffff165f03613ce757613ce06002846148a0565b905061252f565b5f8261ffff165f8512613cfa5784613d03565b613d03856148cc565b613d0f9061271061460e565b613d1991906146b1565b90505f613d28600560c861460e565b905080821115613d93575f808612613d41576001613d44565b5f195b90505f613d536005600261460e565b613d5e90606461460e565b905061ffff861661271083613d738385614871565b613d7d9190614871565b613d8791906148a0565b9550505050505061252f565b613d9e6002866148a0565b95945050505050565b5f80821215613db757505f919050565b6064821315613dc857506064919050565b5090565b5f805f8360010b12613dde5782613de7565b613de7836148e6565b90508361ffff168561ffff161015613e005790506127cd565b8361ffff168561ffff161115613e2157613e19816148e6565b9150506127cd565b5f9150506127cd565b634e487b7160e01b5f52604160045260245ffd5b604051610100810167ffffffffffffffff81118282101715613e6257613e62613e2a565b60405290565b604051601f8201601f1916810167ffffffffffffffff81118282101715613e9157613e91613e2a565b604052919050565b5f67ffffffffffffffff821115613eb257613eb2613e2a565b5060051b60200190565b5f6020808385031215613ecd575f80fd5b823567ffffffffffffffff811115613ee3575f80fd5b8301601f81018513613ef3575f80fd5b8035613f06613f0182613e99565b613e68565b81815260059190911b82018301908381019087831115613f24575f80fd5b928401925b82841015613f4257833582529284019290840190613f29565b979650505050505050565b80358015158114612a0a575f80fd5b5f60208284031215613f6c575f80fd5b6127cd82613f4d565b6001600160a01b0381168114612254575f80fd5b5f60208284031215613f99575f80fd5b81356127cd81613f75565b5f8060408385031215613fb5575f80fd5b50508035926020909101359150565b803561ffff81168114612a0a575f80fd5b5f805f805f805f805f6101208a8c031215613fee575f80fd5b89359850613ffe60208b01613fc4565b975061400c60408b01613fc4565b965061401a60608b01613fc4565b955061402860808b01613fc4565b945061403660a08b01613fc4565b935061404460c08b01613fc4565b925061405260e08b01613fc4565b91506140616101008b01613fc4565b90509295985092959850929598565b5f60208284031215614080575f80fd5b5035919050565b5f8060408385031215614098575f80fd5b82356140a381613f75565b91506140b160208401613f4d565b90509250929050565b60ff81168114612254575f80fd5b5f80604083850312156140d9575f80fd5b8235915060208301356140eb816140ba565b809150509250929050565b5f805f60408486031215614108575f80fd5b833567ffffffffffffffff8082111561411f575f80fd5b818601915086601f830112614132575f80fd5b813581811115614140575f80fd5b8760208260051b8501011115614154575f80fd5b60209283019550935061416a9186019050613f4d565b90509250925092565b5f815180845260208085019450602084015f5b838110156141a257815187529582019590820190600101614186565b509495945050505050565b63ffffffff84168152606060208201525f6141cb6060830185614173565b82810360408401526141dd8185614173565b9695505050505050565b815160ff16815261024081016020830151614207602084018260ff169052565b50604083015161421d604084018261ffff169052565b506060830151614233606084018261ffff169052565b506080830151614249608084018261ffff169052565b5060a083015161425f60a084018261ffff169052565b5060c083015161427560c084018261ffff169052565b5060e083015161428b60e084018261ffff169052565b506101008381015161ffff90811691840191909152610120808501518216908401526101408085015115159084015261016080850151151590840152610180808501511515908401526101a0808501511515908401526101c08085015164ffffffffff16908401526101e080850151821690840152610200808501511515908401526102208085015191821681850152905b505092915050565b5f805f8060808587031215614338575f80fd5b843561434381613f75565b9350602085013561435381613f75565b93969395505050506040820135916060013590565b6020808252602a908201527f437265617475726553746162696c697a65723a206e6f742077686974656c69736040820152693a32b2103a32b9ba32b960b11b606082015260800190565b634e487b7160e01b5f52603260045260245ffd5b8051612a0a81613f75565b5f602082840312156143e1575f80fd5b81516127cd81613f75565b60208082526022908201527f437265617475726553746162696c697a65723a206e6f7420476f6f62206f776e60408201526132b960f11b606082015260800190565b6001600160a01b039390931683526020830191909152604082015260600190565b8051612a0a816140ba565b8051600181900b8114612a0a575f80fd5b5f82601f83011261447a575f80fd5b815167ffffffffffffffff81111561449457614494613e2a565b60206144a8601f8301601f19168201613e68565b82815285828487010111156144bb575f80fd5b5f5b838110156144d85785810183015182820184015282016144bd565b505f928101909101919091529392505050565b5f602082840312156144fb575f80fd5b815167ffffffffffffffff80821115614512575f80fd5b908301906101008286031215614526575f80fd5b61452e613e3e565b6145378361444f565b81526145456020840161444f565b60208201526145566040840161445a565b60408201526145676060840161444f565b60608201526145786080840161445a565b608082015261458960a084016143c6565b60a082015260c08301518281111561459f575f80fd5b6145ab8782860161446b565b60c08301525060e0830151828111156145c2575f80fd5b6145ce8782860161446b565b60e08301525095945050505050565b634e487b7160e01b5f52601160045260245ffd5b63ffffffff818116838216019080821115613ca957613ca96145dd565b808202811582820484141761252f5761252f6145dd565b60208082526026908201527f437265617475726553746162696c697a65723a20616c726561647920737461626040820152651a5b1a5e995960d21b606082015260800190565b8082018281125f83128015821682158216171561431d5761431d6145dd565b8181038181111561252f5761252f6145dd565b634e487b7160e01b5f52601260045260245ffd5b5f826146bf576146bf61469d565b500490565b62ffffff81811683821602808216919082811461431d5761431d6145dd565b64ffffffffff818116838216019080821115613ca957613ca96145dd565b8082018082111561252f5761252f6145dd565b5f60ff821660ff8103614729576147296145dd565b60010192915050565b60ff828116828216039081111561252f5761252f6145dd565b5f61ffff808316818103614761576147616145dd565b6001019392505050565b61ffff818116838216019080821115613ca957613ca96145dd565b61ffff828116828216039080821115613ca957613ca96145dd565b63ffffffff828116828216039080821115613ca957613ca96145dd565b5f60208083850312156147cf575f80fd5b825167ffffffffffffffff8111156147e5575f80fd5b8301601f810185136147f5575f80fd5b8051614803613f0182613e99565b81815260059190911b82018301908381019087831115614821575f80fd5b928401925b82841015613f4257835182529284019290840190614826565b5f8261484d5761484d61469d565b500690565b8181035f831280158383131683831282161715613ca957613ca96145dd565b8082025f8212600160ff1b8414161561488c5761488c6145dd565b818105831482151761252f5761252f6145dd565b5f826148ae576148ae61469d565b600160ff1b82145f19841416156148c7576148c76145dd565b500590565b5f600160ff1b82016148e0576148e06145dd565b505f0390565b5f8160010b617fff1981036148fd576148fd6145dd565b5f039291505056fe9b779b17422d0df92223018b32b4d1fa46e071723d6817e2486d003becc55f00a264697066735822122070f24674beea69f2754d2a834cdd1d438e1b184850f20144ef878c087bdd789864736f6c63430008180033","linkReferences":{}},"methodIdentifiers":{"BONDED_SP_REWARD()":"feae0e41","DAILY_DRIP_DEFAULT()":"33d2e525","DAILY_DRIP_ENHANCED()":"116d2b85","DAY_SECONDS()":"58e6d53c","GAME_START()":"72b9fb16","LOCK_COST_0()":"4d0ec635","LOCK_COST_1()":"b98072ef","LOCK_COST_2()":"067fe9ee","LOCK_COST_3()":"57072cbe","LOCK_PCT()":"2bdab3ea","RESONANCE_DAYS()":"520ae566","STREAK_DAYS()":"441ad3e5","TRAIT_MAX()":"79ac27ed","TRAIT_MIN()":"18d138af","VIBES_MAX()":"242a9146","VIBES_MIN()":"35741b71","adminShiftTime(int256)":"4fd4f5e1","applyItem(uint256,uint256)":"3e3a9f20","batchSetTesters(address[],bool)":"b751110f","burnItemForSP(uint256,uint256)":"2913827d","claimDailyItems(uint256)":"d14711d8","claimDailyItemsBatch(uint256[])":"025cf3c1","currentDay()":"5c9302c9","enforceGoobsOwnership()":"c4e9b14e","getCreatureState(uint256)":"cf5afd8c","getDailyItems(uint256)":"c3f141e7","globalEntropy()":"60bd01c4","goobs()":"7b87a560","incubate(uint256)":"5cbfb706","initialize(address,address,uint256,bytes32)":"d2d5f5b1","initializeCreature(uint256,uint16,uint16,uint16,uint16,uint16,uint16,uint16,uint16)":"39f3275d","isTester(address)":"bd630dc7","isWhitelistEnabled()":"184d69ab","itemCatalog()":"5f4c7696","itemToken()":"777f5440","lastClaimDay(uint256)":"7ecac2c7","lastVibesDay(uint256)":"4cbc0778","lockTrait(uint256,uint8)":"94c4bbd6","owner()":"8da5cb5b","renounceOwnership()":"715018a6","sendVibes(uint256)":"3c6d21f3","setCatalog(address)":"24cf86dd","setDaySeconds(uint256)":"b993418d","setEnforceGoobsOwnership(bool)":"495db110","setGoobs(address)":"707419fa","setItemToken(address)":"ac0496e1","setTester(address,bool)":"5373d2c8","setWhitelistEnabled(bool)":"052d9e7e","timeOffset()":"a438b0e5","transferOwnership(address)":"f2fde38b","walletSP(address)":"fa2a5d4f"},"id":0}