{"abi":[{"type":"constructor","inputs":[],"stateMutability":"nonpayable"},{"type":"function","name":"addTemplate","inputs":[{"name":"tmpl","type":"tuple","internalType":"struct ItemCatalog.ItemTemplate","components":[{"name":"rarity","type":"uint8","internalType":"uint8"},{"name":"primaryTrait","type":"uint8","internalType":"uint8"},{"name":"primaryDelta","type":"int16","internalType":"int16"},{"name":"secondaryTrait","type":"uint8","internalType":"uint8"},{"name":"secondaryDelta","type":"int16","internalType":"int16"},{"name":"imagePtr","type":"address","internalType":"address"},{"name":"name","type":"string","internalType":"string"},{"name":"description","type":"string","internalType":"string"}]}],"outputs":[{"name":"templateId","type":"uint256","internalType":"uint256"}],"stateMutability":"nonpayable"},{"type":"function","name":"addTemplatesBatch","inputs":[{"name":"tmpls","type":"tuple[]","internalType":"struct ItemCatalog.ItemTemplate[]","components":[{"name":"rarity","type":"uint8","internalType":"uint8"},{"name":"primaryTrait","type":"uint8","internalType":"uint8"},{"name":"primaryDelta","type":"int16","internalType":"int16"},{"name":"secondaryTrait","type":"uint8","internalType":"uint8"},{"name":"secondaryDelta","type":"int16","internalType":"int16"},{"name":"imagePtr","type":"address","internalType":"address"},{"name":"name","type":"string","internalType":"string"},{"name":"description","type":"string","internalType":"string"}]}],"outputs":[{"name":"firstTemplateId","type":"uint256","internalType":"uint256"}],"stateMutability":"nonpayable"},{"type":"function","name":"byRarity","inputs":[{"name":"","type":"uint8","internalType":"uint8"},{"name":"","type":"uint256","internalType":"uint256"}],"outputs":[{"name":"","type":"uint256","internalType":"uint256"}],"stateMutability":"view"},{"type":"function","name":"getImageBytes","inputs":[{"name":"imagePtr","type":"address","internalType":"address"}],"outputs":[{"name":"imageBytes","type":"bytes","internalType":"bytes"}],"stateMutability":"view"},{"type":"function","name":"getImageDataUri","inputs":[{"name":"imagePtr","type":"address","internalType":"address"},{"name":"mimeType","type":"string","internalType":"string"}],"outputs":[{"name":"dataUri","type":"string","internalType":"string"}],"stateMutability":"view"},{"type":"function","name":"getTemplate","inputs":[{"name":"templateId","type":"uint256","internalType":"uint256"}],"outputs":[{"name":"template","type":"tuple","internalType":"struct ItemCatalog.ItemTemplate","components":[{"name":"rarity","type":"uint8","internalType":"uint8"},{"name":"primaryTrait","type":"uint8","internalType":"uint8"},{"name":"primaryDelta","type":"int16","internalType":"int16"},{"name":"secondaryTrait","type":"uint8","internalType":"uint8"},{"name":"secondaryDelta","type":"int16","internalType":"int16"},{"name":"imagePtr","type":"address","internalType":"address"},{"name":"name","type":"string","internalType":"string"},{"name":"description","type":"string","internalType":"string"}]}],"stateMutability":"view"},{"type":"function","name":"getTemplateIdsByRarity","inputs":[{"name":"rarity","type":"uint8","internalType":"uint8"}],"outputs":[{"name":"templateIds","type":"uint256[]","internalType":"uint256[]"}],"stateMutability":"view"},{"type":"function","name":"initialize","inputs":[],"outputs":[],"stateMutability":"nonpayable"},{"type":"function","name":"owner","inputs":[],"outputs":[{"name":"","type":"address","internalType":"address"}],"stateMutability":"view"},{"type":"function","name":"renounceOwnership","inputs":[],"outputs":[],"stateMutability":"nonpayable"},{"type":"function","name":"templateCount","inputs":[],"outputs":[{"name":"","type":"uint256","internalType":"uint256"}],"stateMutability":"view"},{"type":"function","name":"templates","inputs":[{"name":"","type":"uint256","internalType":"uint256"}],"outputs":[{"name":"rarity","type":"uint8","internalType":"uint8"},{"name":"primaryTrait","type":"uint8","internalType":"uint8"},{"name":"primaryDelta","type":"int16","internalType":"int16"},{"name":"secondaryTrait","type":"uint8","internalType":"uint8"},{"name":"secondaryDelta","type":"int16","internalType":"int16"},{"name":"imagePtr","type":"address","internalType":"address"},{"name":"name","type":"string","internalType":"string"},{"name":"description","type":"string","internalType":"string"}],"stateMutability":"view"},{"type":"function","name":"transferOwnership","inputs":[{"name":"newOwner","type":"address","internalType":"address"}],"outputs":[],"stateMutability":"nonpayable"},{"type":"function","name":"updateTemplateDescription","inputs":[{"name":"templateId","type":"uint256","internalType":"uint256"},{"name":"newDescription","type":"string","internalType":"string"}],"outputs":[],"stateMutability":"nonpayable"},{"type":"function","name":"updateTemplateImage","inputs":[{"name":"templateId","type":"uint256","internalType":"uint256"},{"name":"imagePtr","type":"address","internalType":"address"}],"outputs":[],"stateMutability":"nonpayable"},{"type":"function","name":"updateTemplateMetadata","inputs":[{"name":"templateId","type":"uint256","internalType":"uint256"},{"name":"newName","type":"string","internalType":"string"},{"name":"newDescription","type":"string","internalType":"string"}],"outputs":[],"stateMutability":"nonpayable"},{"type":"function","name":"updateTemplateName","inputs":[{"name":"templateId","type":"uint256","internalType":"uint256"},{"name":"newName","type":"string","internalType":"string"}],"outputs":[],"stateMutability":"nonpayable"},{"type":"function","name":"updateTemplateSecondaryTrait","inputs":[{"name":"templateId","type":"uint256","internalType":"uint256"},{"name":"newSecondaryTrait","type":"uint8","internalType":"uint8"},{"name":"newSecondaryDelta","type":"int16","internalType":"int16"}],"outputs":[],"stateMutability":"nonpayable"},{"type":"event","name":"Initialized","inputs":[{"name":"version","type":"uint64","indexed":false,"internalType":"uint64"}],"anonymous":false},{"type":"event","name":"OwnershipTransferred","inputs":[{"name":"previousOwner","type":"address","indexed":true,"internalType":"address"},{"name":"newOwner","type":"address","indexed":true,"internalType":"address"}],"anonymous":false},{"type":"event","name":"TemplateAdded","inputs":[{"name":"templateId","type":"uint256","indexed":true,"internalType":"uint256"},{"name":"name","type":"string","indexed":false,"internalType":"string"}],"anonymous":false},{"type":"event","name":"TemplateImageUpdated","inputs":[{"name":"templateId","type":"uint256","indexed":true,"internalType":"uint256"},{"name":"imagePtr","type":"address","indexed":false,"internalType":"address"}],"anonymous":false},{"type":"event","name":"TemplateMetadataUpdated","inputs":[{"name":"templateId","type":"uint256","indexed":true,"internalType":"uint256"},{"name":"name","type":"string","indexed":false,"internalType":"string"},{"name":"description","type":"string","indexed":false,"internalType":"string"}],"anonymous":false},{"type":"event","name":"TemplateSecondaryTraitUpdated","inputs":[{"name":"templateId","type":"uint256","indexed":true,"internalType":"uint256"},{"name":"secondaryTrait","type":"uint8","indexed":false,"internalType":"uint8"},{"name":"secondaryDelta","type":"int16","indexed":false,"internalType":"int16"}],"anonymous":false},{"type":"error","name":"InvalidInitialization","inputs":[]},{"type":"error","name":"NotInitializing","inputs":[]},{"type":"error","name":"OwnableInvalidOwner","inputs":[{"name":"owner","type":"address","internalType":"address"}]},{"type":"error","name":"OwnableUnauthorizedAccount","inputs":[{"name":"account","type":"address","internalType":"address"}]}],"bytecode":{"object":"0x608060405234801561000f575f80fd5b5061001861001d565b6100cf565b7ff0c57e16840df040f15088dc2f81fe391c3923bec73e23a9662efc9c229c6a00805468010000000000000000900460ff161561006d5760405163f92ee8a960e01b815260040160405180910390fd5b80546001600160401b03908116146100cc5780546001600160401b0319166001600160401b0390811782556040519081527fc7f505b2f371ae2175ee4913f4499e1f2633a7b5936321eed1cdaeb6115181d29060200160405180910390a15b50565b611dcb806100dc5f395ff3fe608060405234801561000f575f80fd5b5060043610610111575f3560e01c806379c6c6961161009e578063954591381161006e5780639545913814610242578063bc52565214610255578063f2fde38b1461027c578063f86755511461028f578063fb098ef7146102a2575f80fd5b806379c6c696146101da578063809e1f07146101ed5780638129fc1c146102005780638da5cb5b14610208575f80fd5b8063402050e4116100e4578063402050e4146101795780635ae3617c1461018c57806361d7abe9146101ac57806364c0afe5146101bf578063715018a6146101d2575f80fd5b80630a43428114610115578063188b41c41461012a57806326705c3c1461015057806331543cf414610159575b5f80fd5b6101286101233660046112a3565b6102c2565b005b61013d610138366004611316565b61039a565b6040519081526020015b60405180910390f35b61013d60025481565b61016c610167366004611384565b610534565b60405161014791906113e8565b6101286101873660046114b0565b61074b565b61019f61019a3660046114de565b6107f3565b6040516101479190611500565b6101286101ba36600461152e565b61083e565b61013d6101cd36600461156d565b61092d565b610128610958565b6101286101e8366004611597565b61096b565b61013d6101fb3660046115de565b610a18565b610128610af9565b7f9016d09d72d40fdae2fd8ceac6b6234c7706214fd39c1cd1e609a0528c199300546040516001600160a01b039091168152602001610147565b610128610250366004611597565b610bf3565b610268610263366004611384565b610ca0565b604051610147989796959493929190611615565b61012861028a3660046114de565b610e21565b61019f61029d3660046116f0565b610e5e565b6102b56102b036600461177c565b610f27565b6040516101479190611797565b6102ca610f8a565b5f5485106102f35760405162461bcd60e51b81526004016102ea906117da565b60405180910390fd5b83835f878154811061030757610307611811565b905f5260205f20906003020160010191826103239291906118a6565b5081815f878154811061033857610338611811565b905f5260205f20906003020160020191826103549291906118a6565b50847fed5c74b95779b2e9565023e474b133cd893bdc98770c41fb9060c36fa2a5558f8585858560405161038b9493929190611987565b60405180910390a25050505050565b5f6103a3610f8a565b816103f05760405162461bcd60e51b815260206004820152601860248201527f4974656d436174616c6f673a20656d707479206261746368000000000000000060448201526064016102ea565b505f8054905b8281101561052d575f80549085858481811061041457610414611811565b905060200281019061042691906119b8565b81546001810183555f92835260209092209091600302016104478282611a3c565b505060015f86868581811061045e5761045e611811565b905060200281019061047091906119b8565b61047e90602081019061177c565b60ff1681526020808201929092526040015f908120805460018101825590825291812090910182905560028054916104b583611b92565b9190505550807f3bf6bb6136fba4559a5ba4650d5121d6cd49deb47682194b147d12283588a7d18686858181106104ee576104ee611811565b905060200281019061050091906119b8565b61050e9060c08101906119fa565b60405161051c929190611baa565b60405180910390a2506001016103f6565b5092915050565b60408051610100810182525f8082526020820181905291810182905260608082018390526080820183905260a0820183905260c0820181905260e0820152905482106105925760405162461bcd60e51b81526004016102ea906117da565b5f82815481106105a4576105a4611811565b5f918252602091829020604080516101008082018352600394909402909201805460ff8082168552948104851695840195909552620100008504600190810b9284019290925264010000000085049093166060830152650100000000008404810b6080830152600160381b9093046001600160a01b031660a0820152918101805460c08401919061063490611825565b80601f016020809104026020016040519081016040528092919081815260200182805461066090611825565b80156106ab5780601f10610682576101008083540402835291602001916106ab565b820191905f5260205f20905b81548152906001019060200180831161068e57829003601f168201915b505050505081526020016002820180546106c490611825565b80601f01602080910402602001604051908101604052809291908181526020018280546106f090611825565b801561073b5780601f106107125761010080835404028352916020019161073b565b820191905f5260205f20905b81548152906001019060200180831161071e57829003601f168201915b5050505050815250509050919050565b610753610f8a565b5f5482106107735760405162461bcd60e51b81526004016102ea906117da565b805f838154811061078657610786611811565b5f918252602091829020600391909102018054600160381b600160d81b031916600160381b6001600160a01b0394851602179055604051918316825283917fcd68e09dfff46037f0403d154fad8233c05b725f12354f53cade58ae4bd867a0910160405180910390a25050565b60606001600160a01b03821661081657505060408051602081019091525f815290565b813b6040519150601f19601f6020830101168201604052808252805f60208401853c50919050565b610846610f8a565b5f5483106108665760405162461bcd60e51b81526004016102ea906117da565b815f848154811061087957610879611811565b905f5260205f2090600302015f0160046101000a81548160ff021916908360ff160217905550805f84815481106108b2576108b2611811565b905f5260205f2090600302015f0160056101000a81548161ffff021916908360010b61ffff160217905550827f8c183454a3b401111a00e1a74a04b4f7f52092f42d0f65860d39162bd5029bc8838360405161092092919060ff92909216825260010b602082015260400190565b60405180910390a2505050565b6001602052815f5260405f208181548110610946575f80fd5b905f5260205f20015f91509150505481565b610960610f8a565b6109695f610fe5565b565b610973610f8a565b5f5483106109935760405162461bcd60e51b81526004016102ea906117da565b81815f85815481106109a7576109a7611811565b905f5260205f20906003020160010191826109c39291906118a6565b50827fed5c74b95779b2e9565023e474b133cd893bdc98770c41fb9060c36fa2a5558f83835f87815481106109fa576109fa611811565b905f5260205f20906003020160020160405161092093929190611c3e565b5f610a21610f8a565b505f805460018101825590805281600382027f290decd9548b62a8d60345a988386fc84ba6bc95484008f6362f93160ef3e56301610a5f8282611a3c565b50600190505f610a72602085018561177c565b60ff1681526020808201929092526040015f90812080546001810182559082529181209091018290556002805491610aa983611b92565b909155508190507f3bf6bb6136fba4559a5ba4650d5121d6cd49deb47682194b147d12283588a7d1610ade60c08501856119fa565b604051610aec929190611baa565b60405180910390a2919050565b5f610b02611055565b805490915060ff600160401b82041615906001600160401b03165f81158015610b285750825b90505f826001600160401b03166001148015610b435750303b155b905081158015610b51575080155b15610b6f5760405163f92ee8a960e01b815260040160405180910390fd5b845467ffffffffffffffff191660011785558315610b9957845460ff60401b1916600160401b1785555b610ba23361107d565b5f6002558315610bec57845460ff60401b19168555604051600181527fc7f505b2f371ae2175ee4913f4499e1f2633a7b5936321eed1cdaeb6115181d29060200160405180910390a15b5050505050565b610bfb610f8a565b5f548310610c1b5760405162461bcd60e51b81526004016102ea906117da565b81815f8581548110610c2f57610c2f611811565b905f5260205f2090600302016002019182610c4b9291906118a6565b50827fed5c74b95779b2e9565023e474b133cd893bdc98770c41fb9060c36fa2a5558f5f8581548110610c8057610c80611811565b905f5260205f209060030201600101848460405161092093929190611c63565b5f8181548110610cae575f80fd5b5f918252602090912060039091020180546001808301805460ff80851696506101008504811695620100008604850b95640100000000810490921694650100000000008304900b93600160381b9092046001600160a01b031692909190610d1490611825565b80601f0160208091040260200160405190810160405280929190818152602001828054610d4090611825565b8015610d8b5780601f10610d6257610100808354040283529160200191610d8b565b820191905f5260205f20905b815481529060010190602001808311610d6e57829003601f168201915b505050505090806002018054610da090611825565b80601f0160208091040260200160405190810160405280929190818152602001828054610dcc90611825565b8015610e175780601f10610dee57610100808354040283529160200191610e17565b820191905f5260205f20905b815481529060010190602001808311610dfa57829003601f168201915b5050505050905088565b610e29610f8a565b6001600160a01b038116610e5257604051631e4fbdf760e01b81525f60048201526024016102ea565b610e5b81610fe5565b50565b60606001600160a01b038316610e82575060408051602081019091525f8152610f21565b6040516316b8d85f60e21b81526001600160a01b03841660048201525f903090635ae3617c906024015f60405180830381865afa158015610ec5573d5f803e3d5ffd5b505050506040513d5f823e601f3d908101601f19168201604052610eec9190810190611c88565b90505f610ef88261108e565b90508381604051602001610f0d929190611cf9565b604051602081830303815290604052925050505b92915050565b60ff81165f90815260016020908152604091829020805483518184028101840190945280845260609392830182828015610f7e57602002820191905f5260205f20905b815481526020019060010190808311610f6a575b50505050509050919050565b33610fbc7f9016d09d72d40fdae2fd8ceac6b6234c7706214fd39c1cd1e609a0528c199300546001600160a01b031690565b6001600160a01b0316146109695760405163118cdaa760e01b81523360048201526024016102ea565b7f9016d09d72d40fdae2fd8ceac6b6234c7706214fd39c1cd1e609a0528c19930080546001600160a01b031981166001600160a01b03848116918217845560405192169182907f8be0079c531659141344cd1fd0a4f28419497f9722a3daafe3b4186f6b6457e0905f90a3505050565b5f807ff0c57e16840df040f15088dc2f81fe391c3923bec73e23a9662efc9c229c6a00610f21565b61108561109a565b610e5b816110bf565b6060610f21825f6110c7565b6110a2611246565b61096957604051631afcd79f60e31b815260040160405180910390fd5b610e2961109a565b606082515f036110e5575060408051602081019091525f8152610f21565b5f82611115576003845160026110fb9190611d4c565b6111059190611d5f565b611110906004611d7e565b61113a565b6003845160046111259190611d7e565b611130906002611d4c565b61113a9190611d5f565b905060405191507f4142434445464748494a4b4c4d4e4f505152535455565758595a616263646566601f5261067083027f6768696a6b6c6d6e6f707172737475767778797a303132333435363738392b2f18603f526020820181810185865187016020810180515f82525b828410156111f8576003840193508351603f8160121c16518753600187019650603f81600c1c16518753600187019650603f8160061c16518753600187019650603f8116518753506001860195506111a5565b9052508590506112395760038651066001811461121c576002811461122f57611237565b603d6001840353603d6002840353611237565b603d60018403535b505b9183525060405292915050565b5f61124f611055565b54600160401b900460ff16919050565b5f8083601f84011261126f575f80fd5b5081356001600160401b03811115611285575f80fd5b60208301915083602082850101111561129c575f80fd5b9250929050565b5f805f805f606086880312156112b7575f80fd5b8535945060208601356001600160401b03808211156112d4575f80fd5b6112e089838a0161125f565b909650945060408801359150808211156112f8575f80fd5b506113058882890161125f565b969995985093965092949392505050565b5f8060208385031215611327575f80fd5b82356001600160401b038082111561133d575f80fd5b818501915085601f830112611350575f80fd5b81358181111561135e575f80fd5b8660208260051b8501011115611372575f80fd5b60209290920196919550909350505050565b5f60208284031215611394575f80fd5b5035919050565b5f5b838110156113b557818101518382015260200161139d565b50505f910152565b5f81518084526113d481602086016020860161139b565b601f01601f19169290920160200192915050565b6020815260ff82511660208201525f602083015161140b604084018260ff169052565b506040830151611420606084018260010b9052565b50606083015160ff8116608084015250608083015161144460a084018260010b9052565b5060a08301516001600160a01b03811660c08401525060c08301516101008060e08501526114766101208501836113bd565b915060e0850151601f19858403018286015261149283826113bd565b9695505050505050565b6001600160a01b0381168114610e5b575f80fd5b5f80604083850312156114c1575f80fd5b8235915060208301356114d38161149c565b809150509250929050565b5f602082840312156114ee575f80fd5b81356114f98161149c565b9392505050565b602081525f6114f960208301846113bd565b60ff81168114610e5b575f80fd5b8060010b8114610e5b575f80fd5b5f805f60608486031215611540575f80fd5b83359250602084013561155281611512565b9150604084013561156281611520565b809150509250925092565b5f806040838503121561157e575f80fd5b823561158981611512565b946020939093013593505050565b5f805f604084860312156115a9575f80fd5b8335925060208401356001600160401b038111156115c5575f80fd5b6115d18682870161125f565b9497909650939450505050565b5f602082840312156115ee575f80fd5b81356001600160401b03811115611603575f80fd5b820161010081850312156114f9575f80fd5b5f61010060ff8b16835260ff8a1660208401528860010b604084015260ff881660608401528660010b608084015260018060a01b03861660a08401528060c0840152611663818401866113bd565b905082810360e084015261167781856113bd565b9b9a5050505050505050505050565b634e487b7160e01b5f52604160045260245ffd5b604051601f8201601f191681016001600160401b03811182821017156116c2576116c2611686565b604052919050565b5f6001600160401b038211156116e2576116e2611686565b50601f01601f191660200190565b5f8060408385031215611701575f80fd5b823561170c8161149c565b915060208301356001600160401b03811115611726575f80fd5b8301601f81018513611736575f80fd5b8035611749611744826116ca565b61169a565b81815286602083850101111561175d575f80fd5b816020840160208301375f602083830101528093505050509250929050565b5f6020828403121561178c575f80fd5b81356114f981611512565b602080825282518282018190525f9190848201906040850190845b818110156117ce578351835292840192918401916001016117b2565b50909695505050505050565b6020808252601f908201527f4974656d436174616c6f673a20696e76616c69642074656d706c617465496400604082015260600190565b634e487b7160e01b5f52603260045260245ffd5b600181811c9082168061183957607f821691505b60208210810361185757634e487b7160e01b5f52602260045260245ffd5b50919050565b601f8211156118a157805f5260205f20601f840160051c810160208510156118825750805b601f840160051c820191505b81811015610bec575f815560010161188e565b505050565b6001600160401b038311156118bd576118bd611686565b6118d1836118cb8354611825565b8361185d565b5f601f841160018114611902575f85156118eb5750838201355b5f19600387901b1c1916600186901b178355610bec565b5f83815260208120601f198716915b828110156119315786850135825560209485019460019092019101611911565b508682101561194d575f1960f88860031b161c19848701351681555b505060018560011b0183555050505050565b81835281816020850137505f828201602090810191909152601f909101601f19169091010190565b604081525f61199a60408301868861195f565b82810360208401526119ad81858761195f565b979650505050505050565b5f823560fe198336030181126119cc575f80fd5b9190910192915050565b5f8135610f2181611512565b5f8135610f2181611520565b5f8135610f218161149c565b5f808335601e19843603018112611a0f575f80fd5b8301803591506001600160401b03821115611a28575f80fd5b60200191503681900382131561129c575f80fd5b8135611a4781611512565b60ff8116905081548160ff1982161783556020840135611a6681611512565b61ff008160081b168361ffff19841617178455505050611aa7611a8b604084016119e2565b825460109190911b63ffff00001663ffff000019909116178255565b611ad2611ab6606084016119d6565b825464ff00000000191660209190911b64ff0000000016178255565b611b03611ae1608084016119e2565b825460289190911b66ffff00000000001666ffff000000000019909116178255565b611b40611b1260a084016119ee565b828054600160381b600160d81b03191660389290921b670100000000000000600160d81b0316919091179055565b611b4d60c08301836119fa565b611b5b8183600186016118a6565b5050611b6a60e08301836119fa565b611b788183600286016118a6565b50505050565b634e487b7160e01b5f52601160045260245ffd5b5f60018201611ba357611ba3611b7e565b5060010190565b602081525f611bbd60208301848661195f565b949350505050565b5f8154611bd181611825565b808552602060018381168015611bee5760018114611c0857611c33565b60ff1985168884015283151560051b880183019550611c33565b865f52825f205f5b85811015611c2b5781548a8201860152908301908401611c10565b890184019650505b505050505092915050565b604081525f611c5160408301858761195f565b82810360208401526114928185611bc5565b604081525f611c756040830186611bc5565b828103602084015261149281858761195f565b5f60208284031215611c98575f80fd5b81516001600160401b03811115611cad575f80fd5b8201601f81018413611cbd575f80fd5b8051611ccb611744826116ca565b818152856020838501011115611cdf575f80fd5b611cf082602083016020860161139b565b95945050505050565b643230ba309d60d91b81525f8351611d1881600585016020880161139b565b670ed8985cd94d8d0b60c21b6005918401918201528351611d4081600d84016020880161139b565b01600d01949350505050565b80820180821115610f2157610f21611b7e565b5f82611d7957634e487b7160e01b5f52601260045260245ffd5b500490565b8082028115828204841417610f2157610f21611b7e56fea2646970667358221220f6b6c2106076fdf10c22cae3ddecb2435ab33b8e19fa5e8a834c581560c3936164736f6c63430008180033","linkReferences":{}},"methodIdentifiers":{"addTemplate((uint8,uint8,int16,uint8,int16,address,string,string))":"809e1f07","addTemplatesBatch((uint8,uint8,int16,uint8,int16,address,string,string)[])":"188b41c4","byRarity(uint8,uint256)":"64c0afe5","getImageBytes(address)":"5ae3617c","getImageDataUri(address,string)":"f8675551","getTemplate(uint256)":"31543cf4","getTemplateIdsByRarity(uint8)":"fb098ef7","initialize()":"8129fc1c","owner()":"8da5cb5b","renounceOwnership()":"715018a6","templateCount()":"26705c3c","templates(uint256)":"bc525652","transferOwnership(address)":"f2fde38b","updateTemplateDescription(uint256,string)":"95459138","updateTemplateImage(uint256,address)":"402050e4","updateTemplateMetadata(uint256,string,string)":"0a434281","updateTemplateName(uint256,string)":"79c6c696","updateTemplateSecondaryTrait(uint256,uint8,int16)":"61d7abe9"},"id":7}