{"abi":[{"type":"constructor","inputs":[],"stateMutability":"nonpayable"},{"type":"function","name":"addTemplate","inputs":[{"name":"tmpl","type":"tuple","internalType":"struct ItemCatalog.ItemTemplate","components":[{"name":"rarity","type":"uint8","internalType":"uint8"},{"name":"primaryTrait","type":"uint8","internalType":"uint8"},{"name":"primaryDelta","type":"int16","internalType":"int16"},{"name":"secondaryTrait","type":"uint8","internalType":"uint8"},{"name":"secondaryDelta","type":"int16","internalType":"int16"},{"name":"imagePtr","type":"address","internalType":"address"},{"name":"name","type":"string","internalType":"string"},{"name":"description","type":"string","internalType":"string"}]}],"outputs":[{"name":"templateId","type":"uint256","internalType":"uint256"}],"stateMutability":"nonpayable"},{"type":"function","name":"addTemplatesBatch","inputs":[{"name":"tmpls","type":"tuple[]","internalType":"struct ItemCatalog.ItemTemplate[]","components":[{"name":"rarity","type":"uint8","internalType":"uint8"},{"name":"primaryTrait","type":"uint8","internalType":"uint8"},{"name":"primaryDelta","type":"int16","internalType":"int16"},{"name":"secondaryTrait","type":"uint8","internalType":"uint8"},{"name":"secondaryDelta","type":"int16","internalType":"int16"},{"name":"imagePtr","type":"address","internalType":"address"},{"name":"name","type":"string","internalType":"string"},{"name":"description","type":"string","internalType":"string"}]}],"outputs":[{"name":"firstTemplateId","type":"uint256","internalType":"uint256"}],"stateMutability":"nonpayable"},{"type":"function","name":"byRarity","inputs":[{"name":"","type":"uint8","internalType":"uint8"},{"name":"","type":"uint256","internalType":"uint256"}],"outputs":[{"name":"","type":"uint256","internalType":"uint256"}],"stateMutability":"view"},{"type":"function","name":"getImageBytes","inputs":[{"name":"imagePtr","type":"address","internalType":"address"}],"outputs":[{"name":"imageBytes","type":"bytes","internalType":"bytes"}],"stateMutability":"view"},{"type":"function","name":"getImageDataUri","inputs":[{"name":"imagePtr","type":"address","internalType":"address"},{"name":"mimeType","type":"string","internalType":"string"}],"outputs":[{"name":"dataUri","type":"string","internalType":"string"}],"stateMutability":"view"},{"type":"function","name":"getTemplate","inputs":[{"name":"templateId","type":"uint256","internalType":"uint256"}],"outputs":[{"name":"template","type":"tuple","internalType":"struct ItemCatalog.ItemTemplate","components":[{"name":"rarity","type":"uint8","internalType":"uint8"},{"name":"primaryTrait","type":"uint8","internalType":"uint8"},{"name":"primaryDelta","type":"int16","internalType":"int16"},{"name":"secondaryTrait","type":"uint8","internalType":"uint8"},{"name":"secondaryDelta","type":"int16","internalType":"int16"},{"name":"imagePtr","type":"address","internalType":"address"},{"name":"name","type":"string","internalType":"string"},{"name":"description","type":"string","internalType":"string"}]}],"stateMutability":"view"},{"type":"function","name":"getTemplateIdsByRarity","inputs":[{"name":"rarity","type":"uint8","internalType":"uint8"}],"outputs":[{"name":"templateIds","type":"uint256[]","internalType":"uint256[]"}],"stateMutability":"view"},{"type":"function","name":"initialize","inputs":[],"outputs":[],"stateMutability":"nonpayable"},{"type":"function","name":"owner","inputs":[],"outputs":[{"name":"","type":"address","internalType":"address"}],"stateMutability":"view"},{"type":"function","name":"renounceOwnership","inputs":[],"outputs":[],"stateMutability":"nonpayable"},{"type":"function","name":"templateCount","inputs":[],"outputs":[{"name":"","type":"uint256","internalType":"uint256"}],"stateMutability":"view"},{"type":"function","name":"templates","inputs":[{"name":"","type":"uint256","internalType":"uint256"}],"outputs":[{"name":"rarity","type":"uint8","internalType":"uint8"},{"name":"primaryTrait","type":"uint8","internalType":"uint8"},{"name":"primaryDelta","type":"int16","internalType":"int16"},{"name":"secondaryTrait","type":"uint8","internalType":"uint8"},{"name":"secondaryDelta","type":"int16","internalType":"int16"},{"name":"imagePtr","type":"address","internalType":"address"},{"name":"name","type":"string","internalType":"string"},{"name":"description","type":"string","internalType":"string"}],"stateMutability":"view"},{"type":"function","name":"transferOwnership","inputs":[{"name":"newOwner","type":"address","internalType":"address"}],"outputs":[],"stateMutability":"nonpayable"},{"type":"function","name":"updateTemplateDescription","inputs":[{"name":"templateId","type":"uint256","internalType":"uint256"},{"name":"newDescription","type":"string","internalType":"string"}],"outputs":[],"stateMutability":"nonpayable"},{"type":"function","name":"updateTemplateImage","inputs":[{"name":"templateId","type":"uint256","internalType":"uint256"},{"name":"imagePtr","type":"address","internalType":"address"}],"outputs":[],"stateMutability":"nonpayable"},{"type":"function","name":"updateTemplateMetadata","inputs":[{"name":"templateId","type":"uint256","internalType":"uint256"},{"name":"newName","type":"string","internalType":"string"},{"name":"newDescription","type":"string","internalType":"string"}],"outputs":[],"stateMutability":"nonpayable"},{"type":"function","name":"updateTemplateName","inputs":[{"name":"templateId","type":"uint256","internalType":"uint256"},{"name":"newName","type":"string","internalType":"string"}],"outputs":[],"stateMutability":"nonpayable"},{"type":"function","name":"updateTemplateSecondaryTrait","inputs":[{"name":"templateId","type":"uint256","internalType":"uint256"},{"name":"newSecondaryTrait","type":"uint8","internalType":"uint8"},{"name":"newSecondaryDelta","type":"int16","internalType":"int16"}],"outputs":[],"stateMutability":"nonpayable"},{"type":"event","name":"Initialized","inputs":[{"name":"version","type":"uint64","indexed":false,"internalType":"uint64"}],"anonymous":false},{"type":"event","name":"OwnershipTransferred","inputs":[{"name":"previousOwner","type":"address","indexed":true,"internalType":"address"},{"name":"newOwner","type":"address","indexed":true,"internalType":"address"}],"anonymous":false},{"type":"event","name":"TemplateAdded","inputs":[{"name":"templateId","type":"uint256","indexed":true,"internalType":"uint256"},{"name":"name","type":"string","indexed":false,"internalType":"string"}],"anonymous":false},{"type":"event","name":"TemplateImageUpdated","inputs":[{"name":"templateId","type":"uint256","indexed":true,"internalType":"uint256"},{"name":"imagePtr","type":"address","indexed":false,"internalType":"address"}],"anonymous":false},{"type":"event","name":"TemplateMetadataUpdated","inputs":[{"name":"templateId","type":"uint256","indexed":true,"internalType":"uint256"},{"name":"name","type":"string","indexed":false,"internalType":"string"},{"name":"description","type":"string","indexed":false,"internalType":"string"}],"anonymous":false},{"type":"event","name":"TemplateSecondaryTraitUpdated","inputs":[{"name":"templateId","type":"uint256","indexed":true,"internalType":"uint256"},{"name":"secondaryTrait","type":"uint8","indexed":false,"internalType":"uint8"},{"name":"secondaryDelta","type":"int16","indexed":false,"internalType":"int16"}],"anonymous":false},{"type":"error","name":"InvalidInitialization","inputs":[]},{"type":"error","name":"NotInitializing","inputs":[]},{"type":"error","name":"OwnableInvalidOwner","inputs":[{"name":"owner","type":"address","internalType":"address"}]},{"type":"error","name":"OwnableUnauthorizedAccount","inputs":[{"name":"account","type":"address","internalType":"address"}]}],"bytecode":{"object":"0x6080806040523460aa575f516020611bf15f395f51905f525460ff8160401c16609b576002600160401b03196001600160401b038216016049575b604051611b4290816100af8239f35b6001600160401b0319166001600160401b039081175f516020611bf15f395f51905f525581527fc7f505b2f371ae2175ee4913f4499e1f2633a7b5936321eed1cdaeb6115181d290602090a15f80603a565b63f92ee8a960e01b5f5260045ffd5b5f80fdfe60806040526004361015610011575f80fd5b5f3560e01c80630a43428114610134578063188b41c41461012f57806326705c3c1461012a57806331543cf414610125578063402050e4146101205780635ae3617c1461011b57806361d7abe91461011657806364c0afe514610111578063715018a61461010c57806379c6c69614610107578063809e1f07146101025780638129fc1c146100fd5780638da5cb5b146100f857806395459138146100f3578063bc525652146100ee578063f2fde38b146100e9578063f8675551146100e45763fb098ef7146100df575f80fd5b61109a565b610fd4565b610f79565b610efa565b610be7565b610bb3565b610a56565b610986565b61084e565b6107b4565b610761565b610669565b610617565b610576565b61044b565b610374565b610300565b61016a565b9181601f84011215610166578235916001600160401b038311610166576020838186019501011161016657565b5f80fd5b34610166576060366003190112610166576004356024356001600160401b0381116101665761019d903690600401610139565b6044929192356001600160401b038111610166576101bf903690600401610139565b6101ca949194611909565b6101d65f548510611116565b60016101e185610d21565b5001946001600160401b0384116102fb57610206846102008854610d72565b88611162565b5f95601f851160011461027e579061026e929161024886805f516020611acd5f395f51905f52999a5f91610273575b508160011b915f199060031b1c19161790565b90555b6102628282600261025b8b610d21565b50016111b1565b60405194859485611299565b0390a2005b90508701355f610235565b601f19851696610291825f5260205f2090565b975f5b8181106102e357509761026e94939291875f516020611acd5f395f51905f52999a106102ca575b5050600186811b01905561024b565b8601355f19600389901b60f8161c191690555f806102bb565b868301358a5560019099019860209283019201610294565b610daa565b34610166576020366003190112610166576004356001600160401b0381116101665736602382011215610166578060040135906001600160401b038211610166573660248360051b830101116101665761037091602461036092016112c0565b6040519081529081906020820190565b0390f35b34610166575f366003190112610166576020600254604051908152f35b805180835260209291819084018484015e5f828201840152601f01601f1916010190565b90610448916020815260ff82511660208201526103dc6020830151604083019060ff169052565b604082015160010b6060820152606082015160ff166080820152608082015160010b60a082015260a08201516001600160a01b031660c082015260e061043260c084015161010083850152610120840190610391565b92015190610100601f1982850301910152610391565b90565b34610166576020366003190112610166576103706104ae600435606060e060405161047581610dbe565b5f81525f60208201525f60408201525f838201525f60808201525f60a08201528260c082015201526104a95f548210611116565b610d21565b506105546002604051926104c184610dbe565b805460ff8082168652600882901c16602086015261053d9061052d906104f76104ed8260101c60010b90565b60010b6040890152565b60ff602082901c16606088015261051e6105148260281c60010b90565b60010b6080890152565b60381c6001600160a01b031690565b6001600160a01b031660a0860152565b61054960018201610dfb565b60c085015201610dfb565b60e0820152604051918291826103b5565b6001600160a01b0381160361016657565b34610166576040366003190112610166576004357fcd68e09dfff46037f0403d154fad8233c05b725f12354f53cade58ae4bd867a060206024356105b981610565565b6105c1611909565b6105cd5f548510611116565b610604816105da86610d21565b508054600160381b600160d81b03191660389290921b600160381b600160d81b0316919091179055565b6040516001600160a01b039091168152a2005b346101665760203660031901126101665761037061063f60043561063a81610565565b611626565b604051918291602083526020830190610391565b60ff81160361016657565b8060010b0361016657565b34610166576060366003190112610166576004357f8c183454a3b401111a00e1a74a04b4f7f52092f42d0f65860d39162bd5029bc860406024356106ac81610653565b6044356106b88161065e565b6106c0611909565b6106cc5f548610611116565b6106f6826106d987610d21565b509064ff0000000082549160201b169064ff000000001916179055565b6107208161070387610d21565b509081549060281b61ffff60281b169061ffff60281b1916179055565b60ff83519216825260010b6020820152a2005b634e487b7160e01b5f52603260045260245ffd5b805482101561075c575f5260205f2001905f90565b610733565b346101665760403660031901126101665760043561077e81610653565b60ff60243591165f52600160205260405f208054821015610166576020916107a591610747565b90549060031b1c604051908152f35b34610166575f366003190112610166576107cc611909565b5f516020611aad5f395f51905f5280546001600160a01b031981169091555f906001600160a01b03167f8be0079c531659141344cd1fd0a4f28419497f9722a3daafe3b4186f6b6457e08280a3005b9060406003198301126101665760043591602435906001600160401b0382116101665761084a91600401610139565b9091565b346101665761085c3661081b565b90610865611909565b6108715f548410611116565b600161087c84610d21565b50016001600160401b0383116102fb576108a08361089a8354610d72565b83611162565b5f601f84116001146109085760029284926108e1845f516020611acd5f395f51905f529761026e955f916108fd57508160011b915f199060031b1c19161790565b90555b6108ed86610d21565b50926040519485940191846116ec565b90508401355f610235565b601f1984169061091b835f5260205f2090565b915f5b81811061096e57509261026e9260029592875f516020611acd5f395f51905f52989610610955575b5050600184811b0190556108e4565b8301355f19600387901b60f8161c191690555f80610946565b9192602060018192868901358155019401920161091e565b34610166576020366003190112610166576004356001600160401b0381116101665780600401610100600319833603011261016657610370917f3bf6bb6136fba4559a5ba4650d5121d6cd49deb47682194b147d12283588a7d1610a3360c4936109ee611909565b5f549485946109fc83611445565b60ff8335610a0981610653565b165f526001602052610a1e8660405f206115a6565b610a296002546115ee565b6002550190611413565b90610a4360405192839283611601565b0390a26040519081529081906020820190565b34610166575f366003190112610166575f516020611aed5f395f51905f52546001600160401b03610a9660ff604084901c1615926001600160401b031690565b1680159081610bab575b6001149081610ba1575b159081610b98575b50610b895780610ae860016001600160401b03195f516020611aed5f395f51905f525416175f516020611aed5f395f51905f5255565b610b54575b610af5611712565b610afb57005b610b2560ff60401b195f516020611aed5f395f51905f5254165f516020611aed5f395f51905f5255565b604051600181527fc7f505b2f371ae2175ee4913f4499e1f2633a7b5936321eed1cdaeb6115181d290602090a1005b610b84600160401b60ff60401b195f516020611aed5f395f51905f525416175f516020611aed5f395f51905f5255565b610aed565b63f92ee8a960e01b5f5260045ffd5b9050155f610ab2565b303b159150610aaa565b829150610aa0565b34610166575f366003190112610166575f516020611aad5f395f51905f52546040516001600160a01b039091168152602090f35b3461016657610bf53661081b565b9190610bff611909565b610c0b5f548310611116565b6002610c1683610d21565b5001926001600160401b0381116102fb57610c3b81610c358654610d72565b86611162565b5f93601f8211600114610ca4578161026e91610c7e82600196955f516020611acd5f395f51905f5298995f91610c9957508160011b915f199060031b1c19161790565b90555b610c8a86610d21565b50926040519485940184611731565b90508601355f610235565b601f198216610cb6825f5260205f2090565b905f5b818110610d0957509183915f516020611acd5f395f51905f5296976001969561026e9510610cf0575b50508482811b019055610c81565b8501355f19600385901b60f8161c191690555f80610ce2565b85880135835560209788019760019093019201610cb9565b5f5481101561075c575f8080526003919091027f290decd9548b62a8d60345a988386fc84ba6bc95484008f6362f93160ef3e5630191565b805482101561075c575f52600360205f20910201905f90565b90600182811c92168015610da0575b6020831014610d8c57565b634e487b7160e01b5f52602260045260245ffd5b91607f1691610d81565b634e487b7160e01b5f52604160045260245ffd5b61010081019081106001600160401b038211176102fb57604052565b90601f801991011681019081106001600160401b038211176102fb57604052565b9060405191825f825492610e0e84610d72565b8084529360018116908115610e795750600114610e35575b50610e3392500383610dda565b565b90505f9291925260205f20905f915b818310610e5d575050906020610e33928201015f610e26565b6020919350806001915483858901015201910190918492610e44565b905060209250610e3394915060ff191682840152151560051b8201015f610e26565b969361044898969360ff610eec9794818095168b521660208a015260010b604089015216606087015260010b608086015260018060a01b031660a085015261010060c0850152610100840190610391565b9160e0818403910152610391565b34610166576020366003190112610166576004355f5481101561016657610f2090610d21565b508054610370610f3e6002610f3760018601610dfb565b9401610dfb565b60405193849360018060a01b038160381c16908060281c60010b9060ff8160201c16908060101c60010b9060ff808260081c16911689610e9b565b3461016657602036600319011261016657610fa6600435610f9981610565565b610fa1611909565b611748565b005b6001600160401b0381116102fb57601f01601f191660200190565b906020610448928181520190610391565b3461016657604036600319011261016657600435610ff181610565565b6024356001600160401b03811161016657366023820112156101665780600401359161101c83610fa8565b9061102a6040519283610dda565b8382523660248585010111610166575f60208561037096602461105597018387013784010152611838565b60405191829182610fc3565b60206040818301928281528451809452019201905f5b8181106110845750505090565b8251845260209384019390920191600101611077565b346101665760203660031901126101665760ff6004356110b981610653565b165f52600160205260405f206040519081602082549182815201915f5260205f20905f5b81811061110057610370856110f481870382610dda565b60405191829182611061565b82548452602090930192600192830192016110dd565b1561111d57565b60405162461bcd60e51b815260206004820152601f60248201527f4974656d436174616c6f673a20696e76616c69642074656d706c6174654964006044820152606490fd5b601f821161116f57505050565b5f5260205f20906020601f840160051c830193106111a7575b601f0160051c01905b81811061119c575050565b5f8155600101611191565b9091508190611188565b9092916001600160401b0381116102fb576111d6816111d08454610d72565b84611162565b5f601f82116001146112145781906112059394955f92611209575b50508160011b915f199060031b1c19161790565b9055565b013590505f806111f1565b601f19821694611227845f5260205f2090565b915f5b878110611261575083600195969710611248575b505050811b019055565b01355f19600384901b60f8161c191690555f808061123e565b9092602060018192868601358155019401910161122a565b908060209392818452848401375f828201840152601f01601f1916010190565b92906112b2906104489593604086526040860191611279565b926020818503910152611279565b906112c9611909565b801561138e575f54915f5b8281106112e15750505090565b6001905f546112f96112f48387876113d3565b611445565b6113298161132461131361130e868a8a6113d3565b6113f5565b60ff165f52600160205260405f2090565b6115a6565b61133c6113376002546115ee565b600255565b7f3bf6bb6136fba4559a5ba4650d5121d6cd49deb47682194b147d12283588a7d161137561136b8488886113d3565b60c0810190611413565b9061138560405192839283611601565b0390a2016112d4565b60405162461bcd60e51b815260206004820152601860248201527f4974656d436174616c6f673a20656d70747920626174636800000000000000006044820152606490fd5b919081101561075c5760051b8101359060fe1981360301821215610166570190565b3561044881610653565b356104488161065e565b3561044881610565565b903590601e198136030182121561016657018035906001600160401b0382116101665760200191813603831361016657565b5f54600160401b8110156102fb5780600161146392015f555f610d59565b91909161159357610e339161158a8260ff6002943561148181610653565b1660ff198454161783556114b061149a602083016113f5565b845461ff00191660089190911b61ff0016178455565b6114da6114bf604083016113ff565b849081549060101b63ffff0000169063ffff00001916179055565b6115056114e9606083016113f5565b845464ff00000000191660209190911b64ff0000000016178455565b611531611514608083016113ff565b849081549060281b61ffff60281b169061ffff60281b1916179055565b61156661154060a08301611409565b8454600160381b600160d81b03191660389190911b600160381b600160d81b0316178455565b61158061157660c0830183611413565b90600186016111b1565b60e0810190611413565b929091016111b1565b634e487b7160e01b5f525f60045260245ffd5b8054600160401b8110156102fb576115c391600182018155610747565b819291549060031b91821b915f19901b1916179055565b634e487b7160e01b5f52601160045260245ffd5b5f1981146115fc5760010190565b6115da565b916020610448938181520191611279565b60405190611621602083610dda565b5f8252565b906001600160a01b0382161561165557813b5f60405193601f19603f840116850160405282855260208501903c565b9050604051611665602082610dda565b5f815290565b5f929181549161167a83610d72565b80835292600181169081156116cf575060011461169657505050565b5f9081526020812093945091925b8383106116b5575060209250010190565b6001816020929493945483858701015201910191906116a4565b915050602093945060ff929192191683830152151560051b010190565b91610448939161170491604085526040850191611279565b91602081840391015261166b565b61171a61193c565b61172261193c565b61172b33611748565b5f600255565b916112b2610448949260408552604085019061166b565b6001600160a01b031680156117a6575f516020611aad5f395f51905f5280546001600160a01b0319811683179091556001600160a01b03167f8be0079c531659141344cd1fd0a4f28419497f9722a3daafe3b4186f6b6457e05f80a3565b631e4fbdf760e01b5f525f60045260245ffd5b602081830312610166578051906001600160401b038211610166570181601f82011215610166578051906117ec82610fa8565b926117fa6040519485610dda565b8284526020838301011161016657815f9260208093018386015e8301015290565b6040513d5f823e3d90fd5b805191908290602001825e015f815290565b6001600160a01b038116156118ff576040516316b8d85f60e21b81526001600160a01b0390911660048201525f81602481305afa9182156118fa576118ca61188e6118b694610448945f916118d8575b5061198d565b6118b06040519586946118b060208701600590643230ba309d60d91b81520190565b90611826565b670ed8985cd94d8d0b60c21b815260080190565b03601f198101835282610dda565b6118f491503d805f833e6118ec8183610dda565b8101906117b9565b5f611888565b61181b565b5050610448611612565b5f516020611aad5f395f51905f52546001600160a01b0316330361192957565b63118cdaa760e01b5f523360045260245ffd5b60ff5f516020611aed5f395f51905f525460401c161561195857565b631afcd79f60e31b5f5260045ffd5b90600282018092116115fc57565b600281901b91906001600160fe1b038116036115fc57565b90815115611aa2576119b16119ac6119a58451611967565b6003900490565b611975565b90604051917f4142434445464748494a4b4c4d4e4f505152535455565758595a616263646566601f527f6768696a6b6c6d6e6f707172737475767778797a303132333435363738392b2f603f52602083018480518101602081018051915f82525b808910611a665750602095969750906003929152510680600114611a5157600214611a44575b50808452830101604052565b603d905f1901535f611a38565b50603d90815f1982015360011901535f611a38565b939760036004910198603f8a51818160121c165183538181600c1c16516001840153818160061c16516002840153165160038201530193611a12565b905061044861161256fe9016d09d72d40fdae2fd8ceac6b6234c7706214fd39c1cd1e609a0528c199300ed5c74b95779b2e9565023e474b133cd893bdc98770c41fb9060c36fa2a5558ff0c57e16840df040f15088dc2f81fe391c3923bec73e23a9662efc9c229c6a00a26469706673582212201fd576d1b7cae4d5bd5c5cee2cd490100efa5fd83d0af779a9f2cd95ffd2c64464736f6c634300081c0033f0c57e16840df040f15088dc2f81fe391c3923bec73e23a9662efc9c229c6a00","linkReferences":{}},"methodIdentifiers":{"addTemplate((uint8,uint8,int16,uint8,int16,address,string,string))":"809e1f07","addTemplatesBatch((uint8,uint8,int16,uint8,int16,address,string,string)[])":"188b41c4","byRarity(uint8,uint256)":"64c0afe5","getImageBytes(address)":"5ae3617c","getImageDataUri(address,string)":"f8675551","getTemplate(uint256)":"31543cf4","getTemplateIdsByRarity(uint8)":"fb098ef7","initialize()":"8129fc1c","owner()":"8da5cb5b","renounceOwnership()":"715018a6","templateCount()":"26705c3c","templates(uint256)":"bc525652","transferOwnership(address)":"f2fde38b","updateTemplateDescription(uint256,string)":"95459138","updateTemplateImage(uint256,address)":"402050e4","updateTemplateMetadata(uint256,string,string)":"0a434281","updateTemplateName(uint256,string)":"79c6c696","updateTemplateSecondaryTrait(uint256,uint8,int16)":"61d7abe9"},"id":16}