{"abi":[{"type":"constructor","inputs":[],"stateMutability":"nonpayable"},{"type":"function","name":"addTemplate","inputs":[{"name":"tmpl","type":"tuple","internalType":"struct ItemCatalog.ItemTemplate","components":[{"name":"rarity","type":"uint8","internalType":"uint8"},{"name":"primaryTrait","type":"uint8","internalType":"uint8"},{"name":"primaryDelta","type":"int16","internalType":"int16"},{"name":"secondaryTrait","type":"uint8","internalType":"uint8"},{"name":"secondaryDelta","type":"int16","internalType":"int16"},{"name":"imagePtr","type":"address","internalType":"address"},{"name":"name","type":"string","internalType":"string"},{"name":"description","type":"string","internalType":"string"}]}],"outputs":[{"name":"templateId","type":"uint256","internalType":"uint256"}],"stateMutability":"nonpayable"},{"type":"function","name":"addTemplatesBatch","inputs":[{"name":"tmpls","type":"tuple[]","internalType":"struct ItemCatalog.ItemTemplate[]","components":[{"name":"rarity","type":"uint8","internalType":"uint8"},{"name":"primaryTrait","type":"uint8","internalType":"uint8"},{"name":"primaryDelta","type":"int16","internalType":"int16"},{"name":"secondaryTrait","type":"uint8","internalType":"uint8"},{"name":"secondaryDelta","type":"int16","internalType":"int16"},{"name":"imagePtr","type":"address","internalType":"address"},{"name":"name","type":"string","internalType":"string"},{"name":"description","type":"string","internalType":"string"}]}],"outputs":[{"name":"firstTemplateId","type":"uint256","internalType":"uint256"}],"stateMutability":"nonpayable"},{"type":"function","name":"byRarity","inputs":[{"name":"","type":"uint8","internalType":"uint8"},{"name":"","type":"uint256","internalType":"uint256"}],"outputs":[{"name":"","type":"uint256","internalType":"uint256"}],"stateMutability":"view"},{"type":"function","name":"getImageBytes","inputs":[{"name":"imagePtr","type":"address","internalType":"address"}],"outputs":[{"name":"imageBytes","type":"bytes","internalType":"bytes"}],"stateMutability":"view"},{"type":"function","name":"getImageDataUri","inputs":[{"name":"imagePtr","type":"address","internalType":"address"},{"name":"mimeType","type":"string","internalType":"string"}],"outputs":[{"name":"dataUri","type":"string","internalType":"string"}],"stateMutability":"view"},{"type":"function","name":"getTemplate","inputs":[{"name":"templateId","type":"uint256","internalType":"uint256"}],"outputs":[{"name":"template","type":"tuple","internalType":"struct ItemCatalog.ItemTemplate","components":[{"name":"rarity","type":"uint8","internalType":"uint8"},{"name":"primaryTrait","type":"uint8","internalType":"uint8"},{"name":"primaryDelta","type":"int16","internalType":"int16"},{"name":"secondaryTrait","type":"uint8","internalType":"uint8"},{"name":"secondaryDelta","type":"int16","internalType":"int16"},{"name":"imagePtr","type":"address","internalType":"address"},{"name":"name","type":"string","internalType":"string"},{"name":"description","type":"string","internalType":"string"}]}],"stateMutability":"view"},{"type":"function","name":"getTemplateIdsByRarity","inputs":[{"name":"rarity","type":"uint8","internalType":"uint8"}],"outputs":[{"name":"templateIds","type":"uint256[]","internalType":"uint256[]"}],"stateMutability":"view"},{"type":"function","name":"initialize","inputs":[],"outputs":[],"stateMutability":"nonpayable"},{"type":"function","name":"owner","inputs":[],"outputs":[{"name":"","type":"address","internalType":"address"}],"stateMutability":"view"},{"type":"function","name":"renounceOwnership","inputs":[],"outputs":[],"stateMutability":"nonpayable"},{"type":"function","name":"templateCount","inputs":[],"outputs":[{"name":"","type":"uint256","internalType":"uint256"}],"stateMutability":"view"},{"type":"function","name":"templates","inputs":[{"name":"","type":"uint256","internalType":"uint256"}],"outputs":[{"name":"rarity","type":"uint8","internalType":"uint8"},{"name":"primaryTrait","type":"uint8","internalType":"uint8"},{"name":"primaryDelta","type":"int16","internalType":"int16"},{"name":"secondaryTrait","type":"uint8","internalType":"uint8"},{"name":"secondaryDelta","type":"int16","internalType":"int16"},{"name":"imagePtr","type":"address","internalType":"address"},{"name":"name","type":"string","internalType":"string"},{"name":"description","type":"string","internalType":"string"}],"stateMutability":"view"},{"type":"function","name":"transferOwnership","inputs":[{"name":"newOwner","type":"address","internalType":"address"}],"outputs":[],"stateMutability":"nonpayable"},{"type":"function","name":"updateTemplateDescription","inputs":[{"name":"templateId","type":"uint256","internalType":"uint256"},{"name":"newDescription","type":"string","internalType":"string"}],"outputs":[],"stateMutability":"nonpayable"},{"type":"function","name":"updateTemplateImage","inputs":[{"name":"templateId","type":"uint256","internalType":"uint256"},{"name":"imagePtr","type":"address","internalType":"address"}],"outputs":[],"stateMutability":"nonpayable"},{"type":"function","name":"updateTemplateMetadata","inputs":[{"name":"templateId","type":"uint256","internalType":"uint256"},{"name":"newName","type":"string","internalType":"string"},{"name":"newDescription","type":"string","internalType":"string"}],"outputs":[],"stateMutability":"nonpayable"},{"type":"function","name":"updateTemplateName","inputs":[{"name":"templateId","type":"uint256","internalType":"uint256"},{"name":"newName","type":"string","internalType":"string"}],"outputs":[],"stateMutability":"nonpayable"},{"type":"event","name":"Initialized","inputs":[{"name":"version","type":"uint64","indexed":false,"internalType":"uint64"}],"anonymous":false},{"type":"event","name":"OwnershipTransferred","inputs":[{"name":"previousOwner","type":"address","indexed":true,"internalType":"address"},{"name":"newOwner","type":"address","indexed":true,"internalType":"address"}],"anonymous":false},{"type":"event","name":"TemplateAdded","inputs":[{"name":"templateId","type":"uint256","indexed":true,"internalType":"uint256"},{"name":"name","type":"string","indexed":false,"internalType":"string"}],"anonymous":false},{"type":"event","name":"TemplateImageUpdated","inputs":[{"name":"templateId","type":"uint256","indexed":true,"internalType":"uint256"},{"name":"imagePtr","type":"address","indexed":false,"internalType":"address"}],"anonymous":false},{"type":"event","name":"TemplateMetadataUpdated","inputs":[{"name":"templateId","type":"uint256","indexed":true,"internalType":"uint256"},{"name":"name","type":"string","indexed":false,"internalType":"string"},{"name":"description","type":"string","indexed":false,"internalType":"string"}],"anonymous":false},{"type":"error","name":"InvalidInitialization","inputs":[]},{"type":"error","name":"NotInitializing","inputs":[]},{"type":"error","name":"OwnableInvalidOwner","inputs":[{"name":"owner","type":"address","internalType":"address"}]},{"type":"error","name":"OwnableUnauthorizedAccount","inputs":[{"name":"account","type":"address","internalType":"address"}]}],"bytecode":{"object":"0x608060405234801561000f575f80fd5b5061001861001d565b6100cf565b7ff0c57e16840df040f15088dc2f81fe391c3923bec73e23a9662efc9c229c6a00805468010000000000000000900460ff161561006d5760405163f92ee8a960e01b815260040160405180910390fd5b80546001600160401b03908116146100cc5780546001600160401b0319166001600160401b0390811782556040519081527fc7f505b2f371ae2175ee4913f4499e1f2633a7b5936321eed1cdaeb6115181d29060200160405180910390a15b50565b611c83806100dc5f395ff3fe608060405234801561000f575f80fd5b5060043610610106575f3560e01c806379c6c6961161009e578063954591381161006e5780639545913814610224578063bc52565214610237578063f2fde38b1461025e578063f867555114610271578063fb098ef714610284575f80fd5b806379c6c696146101bc578063809e1f07146101cf5780638129fc1c146101e25780638da5cb5b146101ea575f80fd5b8063402050e4116100d9578063402050e41461016e5780635ae3617c1461018157806364c0afe5146101a1578063715018a6146101b4575f80fd5b80630a4342811461010a578063188b41c41461011f57806326705c3c1461014557806331543cf41461014e575b5f80fd5b61011d6101183660046111a3565b6102a4565b005b61013261012d366004611216565b61037c565b6040519081526020015b60405180910390f35b61013260025481565b61016161015c366004611284565b610516565b60405161013c91906112e8565b61011d61017c3660046113b0565b61072d565b61019461018f3660046113de565b6107d5565b60405161013c9190611400565b6101326101af366004611420565b610820565b61011d61084b565b61011d6101ca36600461144a565b61085e565b6101326101dd366004611491565b610918565b61011d6109f9565b7f9016d09d72d40fdae2fd8ceac6b6234c7706214fd39c1cd1e609a0528c199300546040516001600160a01b03909116815260200161013c565b61011d61023236600461144a565b610af3565b61024a610245366004611284565b610ba0565b60405161013c9897969594939291906114c8565b61011d61026c3660046113de565b610d21565b61019461027f3660046115a3565b610d5e565b61029761029236600461162f565b610e27565b60405161013c919061164a565b6102ac610e8a565b5f5485106102d55760405162461bcd60e51b81526004016102cc9061168d565b60405180910390fd5b83835f87815481106102e9576102e96116c4565b905f5260205f2090600302016001019182610305929190611759565b5081815f878154811061031a5761031a6116c4565b905f5260205f2090600302016002019182610336929190611759565b50847fed5c74b95779b2e9565023e474b133cd893bdc98770c41fb9060c36fa2a5558f8585858560405161036d949392919061183a565b60405180910390a25050505050565b5f610385610e8a565b816103d25760405162461bcd60e51b815260206004820152601860248201527f4974656d436174616c6f673a20656d707479206261746368000000000000000060448201526064016102cc565b505f8054905b8281101561050f575f8054908585848181106103f6576103f66116c4565b9050602002810190610408919061186b565b81546001810183555f928352602090922090916003020161042982826118f4565b505060015f868685818110610440576104406116c4565b9050602002810190610452919061186b565b61046090602081019061162f565b60ff1681526020808201929092526040015f9081208054600181018255908252918120909101829055600280549161049783611a4a565b9190505550807f3bf6bb6136fba4559a5ba4650d5121d6cd49deb47682194b147d12283588a7d18686858181106104d0576104d06116c4565b90506020028101906104e2919061186b565b6104f09060c08101906118b2565b6040516104fe929190611a62565b60405180910390a2506001016103d8565b5092915050565b60408051610100810182525f8082526020820181905291810182905260608082018390526080820183905260a0820183905260c0820181905260e0820152905482106105745760405162461bcd60e51b81526004016102cc9061168d565b5f8281548110610586576105866116c4565b5f918252602091829020604080516101008082018352600394909402909201805460ff8082168552948104851695840195909552620100008504600190810b9284019290925264010000000085049093166060830152650100000000008404810b6080830152600160381b9093046001600160a01b031660a0820152918101805460c084019190610616906116d8565b80601f0160208091040260200160405190810160405280929190818152602001828054610642906116d8565b801561068d5780601f106106645761010080835404028352916020019161068d565b820191905f5260205f20905b81548152906001019060200180831161067057829003601f168201915b505050505081526020016002820180546106a6906116d8565b80601f01602080910402602001604051908101604052809291908181526020018280546106d2906116d8565b801561071d5780601f106106f45761010080835404028352916020019161071d565b820191905f5260205f20905b81548152906001019060200180831161070057829003601f168201915b5050505050815250509050919050565b610735610e8a565b5f5482106107555760405162461bcd60e51b81526004016102cc9061168d565b805f8381548110610768576107686116c4565b5f918252602091829020600391909102018054600160381b600160d81b031916600160381b6001600160a01b0394851602179055604051918316825283917fcd68e09dfff46037f0403d154fad8233c05b725f12354f53cade58ae4bd867a0910160405180910390a25050565b60606001600160a01b0382166107f857505060408051602081019091525f815290565b813b6040519150601f19601f6020830101168201604052808252805f60208401853c50919050565b6001602052815f5260405f208181548110610839575f80fd5b905f5260205f20015f91509150505481565b610853610e8a565b61085c5f610ee5565b565b610866610e8a565b5f5483106108865760405162461bcd60e51b81526004016102cc9061168d565b81815f858154811061089a5761089a6116c4565b905f5260205f20906003020160010191826108b6929190611759565b50827fed5c74b95779b2e9565023e474b133cd893bdc98770c41fb9060c36fa2a5558f83835f87815481106108ed576108ed6116c4565b905f5260205f20906003020160020160405161090b93929190611af6565b60405180910390a2505050565b5f610921610e8a565b505f805460018101825590805281600382027f290decd9548b62a8d60345a988386fc84ba6bc95484008f6362f93160ef3e5630161095f82826118f4565b50600190505f610972602085018561162f565b60ff1681526020808201929092526040015f908120805460018101825590825291812090910182905560028054916109a983611a4a565b909155508190507f3bf6bb6136fba4559a5ba4650d5121d6cd49deb47682194b147d12283588a7d16109de60c08501856118b2565b6040516109ec929190611a62565b60405180910390a2919050565b5f610a02610f55565b805490915060ff600160401b82041615906001600160401b03165f81158015610a285750825b90505f826001600160401b03166001148015610a435750303b155b905081158015610a51575080155b15610a6f5760405163f92ee8a960e01b815260040160405180910390fd5b845467ffffffffffffffff191660011785558315610a9957845460ff60401b1916600160401b1785555b610aa233610f7d565b5f6002558315610aec57845460ff60401b19168555604051600181527fc7f505b2f371ae2175ee4913f4499e1f2633a7b5936321eed1cdaeb6115181d29060200160405180910390a15b5050505050565b610afb610e8a565b5f548310610b1b5760405162461bcd60e51b81526004016102cc9061168d565b81815f8581548110610b2f57610b2f6116c4565b905f5260205f2090600302016002019182610b4b929190611759565b50827fed5c74b95779b2e9565023e474b133cd893bdc98770c41fb9060c36fa2a5558f5f8581548110610b8057610b806116c4565b905f5260205f209060030201600101848460405161090b93929190611b1b565b5f8181548110610bae575f80fd5b5f918252602090912060039091020180546001808301805460ff80851696506101008504811695620100008604850b95640100000000810490921694650100000000008304900b93600160381b9092046001600160a01b031692909190610c14906116d8565b80601f0160208091040260200160405190810160405280929190818152602001828054610c40906116d8565b8015610c8b5780601f10610c6257610100808354040283529160200191610c8b565b820191905f5260205f20905b815481529060010190602001808311610c6e57829003601f168201915b505050505090806002018054610ca0906116d8565b80601f0160208091040260200160405190810160405280929190818152602001828054610ccc906116d8565b8015610d175780601f10610cee57610100808354040283529160200191610d17565b820191905f5260205f20905b815481529060010190602001808311610cfa57829003601f168201915b5050505050905088565b610d29610e8a565b6001600160a01b038116610d5257604051631e4fbdf760e01b81525f60048201526024016102cc565b610d5b81610ee5565b50565b60606001600160a01b038316610d82575060408051602081019091525f8152610e21565b6040516316b8d85f60e21b81526001600160a01b03841660048201525f903090635ae3617c906024015f60405180830381865afa158015610dc5573d5f803e3d5ffd5b505050506040513d5f823e601f3d908101601f19168201604052610dec9190810190611b40565b90505f610df882610f8e565b90508381604051602001610e0d929190611bb1565b604051602081830303815290604052925050505b92915050565b60ff81165f90815260016020908152604091829020805483518184028101840190945280845260609392830182828015610e7e57602002820191905f5260205f20905b815481526020019060010190808311610e6a575b50505050509050919050565b33610ebc7f9016d09d72d40fdae2fd8ceac6b6234c7706214fd39c1cd1e609a0528c199300546001600160a01b031690565b6001600160a01b03161461085c5760405163118cdaa760e01b81523360048201526024016102cc565b7f9016d09d72d40fdae2fd8ceac6b6234c7706214fd39c1cd1e609a0528c19930080546001600160a01b031981166001600160a01b03848116918217845560405192169182907f8be0079c531659141344cd1fd0a4f28419497f9722a3daafe3b4186f6b6457e0905f90a3505050565b5f807ff0c57e16840df040f15088dc2f81fe391c3923bec73e23a9662efc9c229c6a00610e21565b610f85610f9a565b610d5b81610fbf565b6060610e21825f610fc7565b610fa2611146565b61085c57604051631afcd79f60e31b815260040160405180910390fd5b610d29610f9a565b606082515f03610fe5575060408051602081019091525f8152610e21565b5f8261101557600384516002610ffb9190611c04565b6110059190611c17565b611010906004611c36565b61103a565b6003845160046110259190611c36565b611030906002611c04565b61103a9190611c17565b905060405191507f4142434445464748494a4b4c4d4e4f505152535455565758595a616263646566601f5261067083027f6768696a6b6c6d6e6f707172737475767778797a303132333435363738392b2f18603f526020820181810185865187016020810180515f82525b828410156110f8576003840193508351603f8160121c16518753600187019650603f81600c1c16518753600187019650603f8160061c16518753600187019650603f8116518753506001860195506110a5565b9052508590506111395760038651066001811461111c576002811461112f57611137565b603d6001840353603d6002840353611137565b603d60018403535b505b9183525060405292915050565b5f61114f610f55565b54600160401b900460ff16919050565b5f8083601f84011261116f575f80fd5b5081356001600160401b03811115611185575f80fd5b60208301915083602082850101111561119c575f80fd5b9250929050565b5f805f805f606086880312156111b7575f80fd5b8535945060208601356001600160401b03808211156111d4575f80fd5b6111e089838a0161115f565b909650945060408801359150808211156111f8575f80fd5b506112058882890161115f565b969995985093965092949392505050565b5f8060208385031215611227575f80fd5b82356001600160401b038082111561123d575f80fd5b818501915085601f830112611250575f80fd5b81358181111561125e575f80fd5b8660208260051b8501011115611272575f80fd5b60209290920196919550909350505050565b5f60208284031215611294575f80fd5b5035919050565b5f5b838110156112b557818101518382015260200161129d565b50505f910152565b5f81518084526112d481602086016020860161129b565b601f01601f19169290920160200192915050565b6020815260ff82511660208201525f602083015161130b604084018260ff169052565b506040830151611320606084018260010b9052565b50606083015160ff8116608084015250608083015161134460a084018260010b9052565b5060a08301516001600160a01b03811660c08401525060c08301516101008060e08501526113766101208501836112bd565b915060e0850151601f19858403018286015261139283826112bd565b9695505050505050565b6001600160a01b0381168114610d5b575f80fd5b5f80604083850312156113c1575f80fd5b8235915060208301356113d38161139c565b809150509250929050565b5f602082840312156113ee575f80fd5b81356113f98161139c565b9392505050565b602081525f6113f960208301846112bd565b60ff81168114610d5b575f80fd5b5f8060408385031215611431575f80fd5b823561143c81611412565b946020939093013593505050565b5f805f6040848603121561145c575f80fd5b8335925060208401356001600160401b03811115611478575f80fd5b6114848682870161115f565b9497909650939450505050565b5f602082840312156114a1575f80fd5b81356001600160401b038111156114b6575f80fd5b820161010081850312156113f9575f80fd5b5f61010060ff8b16835260ff8a1660208401528860010b604084015260ff881660608401528660010b608084015260018060a01b03861660a08401528060c0840152611516818401866112bd565b905082810360e084015261152a81856112bd565b9b9a5050505050505050505050565b634e487b7160e01b5f52604160045260245ffd5b604051601f8201601f191681016001600160401b038111828210171561157557611575611539565b604052919050565b5f6001600160401b0382111561159557611595611539565b50601f01601f191660200190565b5f80604083850312156115b4575f80fd5b82356115bf8161139c565b915060208301356001600160401b038111156115d9575f80fd5b8301601f810185136115e9575f80fd5b80356115fc6115f78261157d565b61154d565b818152866020838501011115611610575f80fd5b816020840160208301375f602083830101528093505050509250929050565b5f6020828403121561163f575f80fd5b81356113f981611412565b602080825282518282018190525f9190848201906040850190845b8181101561168157835183529284019291840191600101611665565b50909695505050505050565b6020808252601f908201527f4974656d436174616c6f673a20696e76616c69642074656d706c617465496400604082015260600190565b634e487b7160e01b5f52603260045260245ffd5b600181811c908216806116ec57607f821691505b60208210810361170a57634e487b7160e01b5f52602260045260245ffd5b50919050565b601f82111561175457805f5260205f20601f840160051c810160208510156117355750805b601f840160051c820191505b81811015610aec575f8155600101611741565b505050565b6001600160401b0383111561177057611770611539565b6117848361177e83546116d8565b83611710565b5f601f8411600181146117b5575f851561179e5750838201355b5f19600387901b1c1916600186901b178355610aec565b5f83815260208120601f198716915b828110156117e457868501358255602094850194600190920191016117c4565b5086821015611800575f1960f88860031b161c19848701351681555b505060018560011b0183555050505050565b81835281816020850137505f828201602090810191909152601f909101601f19169091010190565b604081525f61184d604083018688611812565b8281036020840152611860818587611812565b979650505050505050565b5f823560fe1983360301811261187f575f80fd5b9190910192915050565b5f8135610e2181611412565b5f81358060010b8114610e21575f80fd5b5f8135610e218161139c565b5f808335601e198436030181126118c7575f80fd5b8301803591506001600160401b038211156118e0575f80fd5b60200191503681900382131561119c575f80fd5b81356118ff81611412565b60ff8116905081548160ff198216178355602084013561191e81611412565b61ff008160081b168361ffff1984161717845550505061195f61194360408401611895565b825460109190911b63ffff00001663ffff000019909116178255565b61198a61196e60608401611889565b825464ff00000000191660209190911b64ff0000000016178255565b6119bb61199960808401611895565b825460289190911b66ffff00000000001666ffff000000000019909116178255565b6119f86119ca60a084016118a6565b828054600160381b600160d81b03191660389290921b670100000000000000600160d81b0316919091179055565b611a0560c08301836118b2565b611a13818360018601611759565b5050611a2260e08301836118b2565b611a30818360028601611759565b50505050565b634e487b7160e01b5f52601160045260245ffd5b5f60018201611a5b57611a5b611a36565b5060010190565b602081525f611a75602083018486611812565b949350505050565b5f8154611a89816116d8565b808552602060018381168015611aa65760018114611ac057611aeb565b60ff1985168884015283151560051b880183019550611aeb565b865f52825f205f5b85811015611ae35781548a8201860152908301908401611ac8565b890184019650505b505050505092915050565b604081525f611b09604083018587611812565b82810360208401526113928185611a7d565b604081525f611b2d6040830186611a7d565b8281036020840152611392818587611812565b5f60208284031215611b50575f80fd5b81516001600160401b03811115611b65575f80fd5b8201601f81018413611b75575f80fd5b8051611b836115f78261157d565b818152856020838501011115611b97575f80fd5b611ba882602083016020860161129b565b95945050505050565b643230ba309d60d91b81525f8351611bd081600585016020880161129b565b670ed8985cd94d8d0b60c21b6005918401918201528351611bf881600d84016020880161129b565b01600d01949350505050565b80820180821115610e2157610e21611a36565b5f82611c3157634e487b7160e01b5f52601260045260245ffd5b500490565b8082028115828204841417610e2157610e21611a3656fea264697066735822122067ab185623974b7c4997e6f5010dfd2069850377d4427e53f38f63b4cd79560264736f6c63430008180033","linkReferences":{}},"methodIdentifiers":{"addTemplate((uint8,uint8,int16,uint8,int16,address,string,string))":"809e1f07","addTemplatesBatch((uint8,uint8,int16,uint8,int16,address,string,string)[])":"188b41c4","byRarity(uint8,uint256)":"64c0afe5","getImageBytes(address)":"5ae3617c","getImageDataUri(address,string)":"f8675551","getTemplate(uint256)":"31543cf4","getTemplateIdsByRarity(uint8)":"fb098ef7","initialize()":"8129fc1c","owner()":"8da5cb5b","renounceOwnership()":"715018a6","templateCount()":"26705c3c","templates(uint256)":"bc525652","transferOwnership(address)":"f2fde38b","updateTemplateDescription(uint256,string)":"95459138","updateTemplateImage(uint256,address)":"402050e4","updateTemplateMetadata(uint256,string,string)":"0a434281","updateTemplateName(uint256,string)":"79c6c696"},"id":8}